:020000040800F2
:1000000000800020952D00084F0B0008510B0008C0
:10001000530B0008550B0008570B000800000000A8
:10002000000000000000000000000000590B000864
:100030005B0B0008000000005D0B00085F0B000870
:10004000E52D0008E52D0008E52D0008E52D000848
:10005000E52D0008E52D0008E52D0008E52D000838
:10006000E52D0008E52D0008E52D0008E52D000828
:10007000E52D0008E52D0008E52D0008E52D000818
:10008000E52D0008E52D0008E52D0008E52D000808
:1000900000000000E52D0008E52D0008E52D000812
:1000A000E52D0008E52D0008E52D0008E52D0008E8
:1000B000E52D0008E52D0008E52D0008E52D0008D8
:1000C000E52D0008E52D0008E52D0008E52D0008C8
:1000D000E52D0008E52D0008E52D0008E52D0008B8
:1000E000E52D0008E52D0008E52D0008E52D0008A8
:1000F000E52D00080000000000000000E52D0008CC
:10010000E52D0008E52D0008E52D0008E52D000887
:10011000E52D0008E52D0008E52D0008E52D000877
:10012000E52D0008E52D0008E52D0008E52D000867
:08013000E52D0008E52D000893
:1001380010B5054C237833B9044B13B10448AFF319
:1001480000800123237010BD100000200000000073
:10015800082E000808B5034B1BB103490348AFF349
:10016800008008BD0000000014000020082E0008D0
:1001780053B94AB9002908BF00281CBF4FF0FF3106
:100188004FF0FF3000F074B9ADF1080C6DE904CE02
:1001980000F006F8DDF804E0DDE9022304B070475A
:1001A8002DE9F047089E0D4604468846002B4DD1A0
:1001B8008A42944668D9B2FA82F252B101FA02F33D
:1001C800C2F1200120FA01F10CFA02FC41EA03080D
:1001D80094404FEA1C45210CB8FBF5FE1FFA8CF73A
:1001E80005FB1E8341EA03430EFB07F199420BD935
:1001F8001CEB03030EF1FF3080F01E81994240F2A0
:100208001B81AEF1020E63445B1AA4B2B3FBF5F096
:1002180005FB103344EA034400FB07F7A7420AD959
:100228001CEB040400F1FF3380F00881A74240F280
:10023800058164440238E41B40EA0E4000211EB1E7
:10024800D4400023C6E90043BDE8F0878B4208D9B3
:10025800002E00F0EE800021C6E900050846BDE842
:10026800F087B3FA83F100294AD1AB4202D3824224
:1002780000F2F980841A65EB030301209846002EEA
:10028800E2D0C6E90048DFE702B9FFDEB2FA82F23F
:10029800002A40F09180A1EB0C054FEA1C471FFA99
:1002A8008CFE0121B5FBF7F307FB1350250C45EA3B
:1002B80000450EFB03F0A84208D91CEB050503F125
:1002C800FF3802D2A84200F2CB8043462D1AA4B2CE
:1002D800B5FBF7F007FB105544EA05440EFB00FE9A
:1002E800A64508D91CEB040400F1FF3502D2A64547
:1002F80000F2BB802846A4EB0E0440EA03409EE7C8
:10030800C1F120078B4022FA07FC4CEA030C20FAC3
:1003180007F405FA01F31C43FD404FEA1C4900FAB3
:1003280001F3B5FBF9F8200C1FFA8CFE09FB1855F0
:1003380040EA054508FB0EF0A84202FA01F20BD983
:100348001CEB050508F1FF3A80F08880A84240F2CE
:100358008580A8F1020865442D1AA4B2B5FBF9F00E
:1003680009FB105544EA054500FB0EFEAE4508D9C9
:100378001CEB050500F1FF346CD2AE456AD9023892
:10038800654440EA0840A0FB0294A5EB0E05A5428F
:10039800C846A64656D353D05EB1B3EB080265EB08
:1003A8000E0505FA07F722FA01F3CD401F43C6E907
:1003B80000750021BDE8F087C2F1200320FA03F19F
:1003C8000CFA02FC25FA03F395400D434FEA1C474B
:1003D8001FFA8CFEB3FBF7F107FB11302B0C43EA35
:1003E800004301FB0EF0984204FA02F408D91CEB12
:1003F800030301F1FF382FD298422DD90239634403
:100408001B1AADB2B3FBF7F007FB103345EA0345FF
:1004180000FB0EF3AB4208D91CEB050500F1FF38D1
:1004280016D2AB4214D902386544ED1A40EA0141AC
:1004380038E73146304607E78646E5E61846FAE6E5
:100448004B45A9D2B9EB020864EB0C0E0138A3E7BF
:100458004046EAE7204694E74146D1E7D0467BE7A5
:10046800023B654432E7084609E76444023842E73C
:10047800704700BF10F8012B11F8013B012A28BF73
:100488009A42F7D0D01A704770B50D4D0D4C641BC9
:10049800A4100026A64209D10B4D0C4C02F0B0FC6A
:1004A800641BA4100026A64205D170BD55F8043B74
:1004B80098470136EEE755F8043B98470136F2E7CE
:1004C8000830000808300008083000080C30000820
:1004D80002440346934200D1704703F8011BF9E731
:1004E80010B592B0002402943C22214603A8FFF7DD
:1004F800EFFF31E000244CE0414B009303226946B2
:1005080002A802F06CFC00284DD1013C12AB1C443F
:10051800002304F8403C3B4902A8FFF7ABFF002842
:1005280043D0394902A8FFF7A5FF002844D037492E
:1005380002A8FFF79FFF00284BD0354902A8FFF714
:1005480099FF00284ED0334800F07CF94022002162
:1005580002A8FFF7BDFF00242F4B1B68DA6912F0D1
:10056800080F01D008221A6240F6FF7301220DF12C
:100578000701294801F00EF80028EDD1631C9BB251
:1005880012AA14449DF8072004F8402C3F2BB1D838
:100598001C46631E12AA134413F8403C0D2BABD023
:1005A8000A2BD9D1A8E70024D6E71C4800F04AF95D
:1005B8001B4800F047F9C9E71A4800F043F91A4BFD
:1005C80001221A704FF00131184800F027FA12B0D2
:1005D80010BD174800F036F900F07CFA154800F015
:1005E80031F9B3E7BFF34F8F1349CA6802F4E062E9
:1005F800124B1343CB60BFF34F8F00BFFDE700BF23
:1006080061742B003C2E0008642E00088C2E000814
:10061800D82E0008E42E000878000020482E000894
:10062800342F0008702E00082C0000200440000819
:10063800942E0008A82E000800ED00E00400FA053A
:1006480008B5064B1B7813B1012B03D008BDFFF783
:1006580047FFFBE700F014FAF8E700BF2C00002082
:1006680072B6FEE700B59BB04822002108A8FFF744
:100678002FFF002302930393049305930693079394
:1006880015490A6822F4C06242F400720A600A68D6
:1006980002F4C0620192019A20220892012210926B
:1006A8001193B0221292139308A801F01FFA78B997
:1006B8004F23029300230393049305930693079310
:1006C800022102A801F04EFD20B91BB05DF804FB21
:1006D800FFF7C6FFFFF7C4FF0004005808B502F093
:1006E80019FBFFF7BFFF00F065F900F03DFA154B65
:1006F8009B68B3F1033F22D000F00AFA962002F07B
:1007080031FB00F013FA0F4B1B68B3F15A3F05D0C9
:100718000D4800F097F8FFF793FFFCE70B4B1A68BA
:100728000B4B1340B3F1005FF2D1064B5B68B3F19A
:10073800013FEDD000F056F900F05EF9E8E700F06F
:10074800F5F9E5E700400008F82E00080060000809
:100758000000FE2F10B584460378302B03D0002408
:100768002046234654E04378782B35D0582B36D092
:100778000024204623464BE02401A3F1300E5FFA03
:100788008EFEBEF1090F21D8303B1C4401300A28E7
:1007980015D81CF8003093B1A3F14102D2B2052A52
:1007A800EAD9A3F1610E5FFA8EFEBEF1050FE3D917
:1007B800A3F1300E5FFA8EFEBEF1090FDCD91CF8EA
:1007C8000030002B3BD10C60012010BD052A01D858
:1007D800373BDAE7573BD8E700240220D7E7002465
:1007E8000220D4E76B2A1ED04B2A1CD06D2A20D0B9
:1007F8004D2A1ED0A2F1300E5FFA8EFEBEF1090F0F
:10080800E3D804EB840402EB4402A2F13004013380
:100818000A2BDAD80028D8D11CF80320002AE1D105
:100828000C600120F3E7002BE0D0A4020C6001204B
:10083800EDE7002BDED024050C600120E7E700205F
:10084800C3E7000008B50146002201E0013292B278
:100858008B5C002BFAD16423014800F02CFE08BD04
:100868007800002000B583B08DF80700094BD3F855
:100878008430A02B09D0642301220DF1070105481B
:1008880000F019FE03B05DF804FB024B2022C3F808
:100898008420F0E77800002000F17840C00A704713
:1008A80010B584B004460023039301F001FF0E4BFA
:1008B8004FF400421A612046FFF7EEFFC4F10063CF
:1008C80003F55C33DB0A022200920190029303A92C
:1008D800684601F0D1FF28B9002401F001FF204645
:1008E80004B010BD0124F8E700400058F0B583B00B
:1008F80005460C46174601F0DBFE002602E00835E7
:1009080008340236BE4215D26B462068616803C3BC
:10091800DDE900232946012001F026FF0028F0D157
:1009280028686A680099019B9A4208BF8842E6D005
:10093800032400E0002401F0D3FE204603B0F0BDFC
:10094800F0B585B0044600230393174DD5E9006739
:1009580001F0AEFE154B4FF400421A612846FFF72E
:100968009BFF0223009301900123029303A9684689
:1009780001F082FF10B1012005B0F0BD32463B46C0
:100988002946012001F0F0FE08B10120F4E72246D3
:1009980000230749012001F0E7FE08B10120EBE739
:1009A80001F09EFE0020E7E70040000800400058E4
:1009B8000840000882B04FF0B043DA6C42F0010200
:1009C800DA64DA6C02F001020192019ADA6C42F000
:1009D8000202DA64DB6C03F002030093009B02B0AE
:1009E8007047000008B5034800F00AFB02F043F91D
:1009F80008BD00BF7800002008B5054A53680549BE
:100A08000B6005490B60126882F30888984708BD97
:100A180000600008300000203400002070B588B065
:100A280004460D4600230793134ED6E90023CDE96B
:100A3800042301F03DFE114B4FF400421A61304689
:100A4800FFF72AFF0223019302900123039307A9CA
:100A580001A801F011FF50B9B4420AD00595DDE9AB
:100A680004230549012001F07FFE01F039FE08B09A
:100A780070BD0495F3E700BF00400008004000582F
:100A880000B583B00023019301A800F0C5F910B1A7
:100A980003B05DF804FB4FF05A310A48FFF7BEFF78
:100AA8004FF002310848FFF7B9FF084B1A68084BA6
:100AB8001340B3F1005FEBD1FFF794FFFFF79CFF02
:100AC800E6E700BF00400008044000080060000896
:100AD8000000FE2F08B54FF05A310A48FFF79EFF75
:100AE800094B1A68094B1340B3F1005F00D008BDE9
:100AF800044B5B68B3F1013FF9D0FFF773FFFFF7D1
:100B08007BFFF4E700400008006000080000FE2FAB
:100B180008B54FF00330FFF713FF00B908BD0248CE
:100B2800FFF790FEFAE700BF082F000808B500207D
:100B3800FFF706FF00B908BD0148FFF783FEFAE793
:100B4800202F00087047FEE7FEE7FEE7FEE7FEE716
:100B580070477047704708B502F0F2F802F0FCF8E9
:100B680000F032FA08BD704708B51748174B036004
:100B78004FF4E133436000238360C36003610C22B8
:100B880042618361C36103624362836200F0D2FD04
:100B980070B900210C4800F046FE60B900210A48EF
:100BA80000F066FE50B9084800F01EFE48B908BDBE
:100BB800FFF756FDEDE7FFF753FDEFE7FFF750FDB1
:100BC800F1E7FFF74DFDF2E7780000200044004010
:100BD80010B596B004460021119112911391149109
:100BE8001591382203A8FFF773FC2268194B9A4223
:100BF80001D016B010BD022303934FF44023059390
:100C080003A801F0E1FB10BB4FF0B0439A6D42F42A
:100C180000329A659A6D02F400320292029ADA6CF6
:100C280042F00102DA64DB6C03F001030193019BDB
:100C38000C23119302231293002313931493072375
:100C4800159311A94FF0904001F056FED1E7FFF738
:100C580007FDD9E70044004008B50268074B9A42EF
:100C680000D008BD4FF0B042936D23F40033936574
:100C78000C214FF0904001F011FFF2E700440040D2
:100C8800BFF34F8F0549CA6802F4E062044B13436F
:100C9800CB60BFF34F8F00BFFDE700BF00ED00E062
:100CA8000400FA0541F4807106E080F4815080F078
:100CB800010011F4803F09D14000490011F4807F00
:100CC80000D0013010F4803FF3D0EEE780B27047D7
:100CD80038B504464518002004E014F8011B80B21A
:100CE800FFF7E0FFAC42F8D3002180B2FFF7DAFF4C
:100CF8000021FFF7D7FF38BD2DE9F04182B0064645
:100D08000C46154600230B60134601220DF107011E
:100D1800404800F03FFC8046002872D19DF807103B
:100D2800182919D84BB2002B48D0013917290FD8E8
:100D3800DFE801F048310E0C0E0E0E0E0E0E0E0EF0
:100D48000E0E0E0E0E0E0E0E0E0E0E3400270AE0BC
:100D58004FF00108002706E0412935D0612937D135
:100D68004FF0020800279DF8073033707F2F49D9CC
:100D78002B463A1DB11C274800F00CFC8046002881
:100D880045D1B278F378DB43DBB29A422AD04FF0F0
:100D98000108002736E04FF48067E4E72B4601227C
:100DA8000DF107011B4800F0F5FBA8B99DF80730C5
:100DB800182B15D04FF001080027D4E74FF0010891
:100DC8000027D0E78027CEE74FF002080027CAE7C0
:100DD8004FF001080027C6E74FF001080027C2E7D7
:100DE8000227C0E7F3191A795D7905EB0225394620
:100DF800301DFFF76DFFA84204D04FF0010800270F
:100E080000E000272760404602B0BDE8F0810027D7
:100E1800F8E700BF780000202DE9F04F89B0019075
:100E28004FF000084646DFF888B1C1464546C2463D
:100E3800BAF1000F40F0B880002E40F0B5805D4B4D
:100E480000221A70574685E0079D3DB1022D0AD150
:100E58000620FFF707FD3D4602267BE00620FFF748
:100E680001FD012776E0544B9A78524B1B789A4241
:100E78000BD1002B53D1504B1B79CBB90620FFF770
:100E8800F1FC3D460127BA4664E01520FFF7EAFC6D
:100E98003D465FE00133494881540132197809B170
:100EA8003F2AF7D945490020885401333A4608E0DB
:100EB8003A46434BF2E7013308A8104400F8181CDF
:100EC80001321978202901D00F2AF4D908AB1A4425
:100ED800002302F8183C06A902A8FFF73BFC069A73
:100EE800384B9A4213D83248FFF7DAFC069B019A2E
:100EF80013600620FFF7B6FC4320FFF7B3FC2D4A2A
:100F08001378013313703D464FF0010922E0182091
:100F1800FFF7A8FC1820FFF7A5FC0526E3E7AA08B9
:100F280027495846FFF7E2FC28B9079B9B4406204F
:100F3800FFF798FCE3E71820FFF794FC1820FFF769
:100F480091FC0426DBE71820FFF78CFC1820FFF73C
:100F580089FC2646002F7FF46BAF002E7FF468AF24
:100F68004FF4FA7207A91448FFF7C6FE0446002892
:100F78003FF46AAF0228E6D0B9F1000F00D001357E
:100F8800052D07D91820FFF76DFC1820FFF76AFC1C
:100F98000226DFE74320FFF765FC08F10108B8F1F6
:100FA8003B0FD7D9FFF76CFE304609B0BDE8F08F8C
:100FB800006000080E05002008010020380000200D
:100FC8000C0100200110030008B50A4BA3FB002305
:100FD8001B0B43F6982202FB130343B9064B1B78FD
:100FE8002BB1064A1278934202D0044A137008BD06
:100FF800FFF746FE73B2E7450E0500200F050020F7
:10100800E8B138B505462423C0F88430026813686F
:1010180023F001031360036800241C6003685C600C
:1010280003689C60FFF718FEC5F88C40C5F884403B
:10103800C5F88840EC6685F88040204638BD012018
:101048007047000070B5044601688368026913435D
:1010580042691343C269134308689D4A0240134317
:101068000B602268536823F44053E1680B435360D4
:10107800A1692268974B9A4201D0236A1943936861
:1010880023F06E4323F430630B4393602268D36AE2
:1010980023F00F03616A0B43D36223688E4A93429D
:1010A8001CD08E4A934231D08A4A93424BD01022A8
:1010B80088498B4268D0E069B0F5004F00F0A58000
:1010C800082A00F21F81DFE812F0D300F500D100F2
:1010D8001D01F8001D011D011D01FB004FF0B0426C
:1010E800D2F8882002F0030242F44032A2F54032DE
:1010F800032A09D8DFE802F002043C060122D7E7F8
:101108000422D5E70822D3E71022D1E74FF0B042F6
:10111800D2F8882002F00C0242F44022A2F54022C4
:101128000C2A0ED8DFE802F0070D0D0D090D0D0D84
:10113800260D0D0D0B000022BAE70422B8E708229D
:10114800B6E71022B4E74FF0B042D2F8882002F494
:101158004062B2F5006F0FD005D87AB1B2F5806F52
:101168000ED10422A4E7B2F5406F0BD108229FE705
:1011780002229DE702229BE7022299E7002297E7D5
:10118800102295E7102293E7082A00F29C80DFE8F6
:1011980002F0089A3A9A379A9A9A05004FF4004052
:1011A80004E001F0F1F8002800F08F80626A4C4BEF
:1011B80033F81220B0FBF2F3656805EB450199425C
:1011C80000F29480B3EB053F00F29280002633468C
:1011D8003146FEF7CDFF090241EA106100026B08B3
:1011E800C0182A46334641F10001FEF7C1FFA0F5B9
:1011F80040723C4B9A427DD82368D860304650E014
:1012080000F0DCFBCFE73848D0E7082A74D8DFE8DD
:1012180002F0072705732A7373730B00324803E043
:1012280001F0B2F8002869D0626A2D4B33F8123009
:10123800B0FBF3F06268530803EB4000B0FBF2F038
:1012480080B2A0F110024FF6EF739A4258D820F0FE
:101258000F03C0F3420018432368D860002020E041
:1012680001F0A2F8DEE700F0A9FBDBE71E4803E087
:1012780001F08AF8002847D0626A194B33F8123017
:10128800B0FBF3F0636800EB5300B0FBF3F080B2FF
:10129800A0F110024FF6EF739A4237D82368D8604E
:1012A80000200123A4F86A30A4F8683000232367DB
:1012B800636770BD01F078F8DCE700F07FFBD9E7E1
:1012C8004FF40040D8E70120EBE70020E9E700BF32
:1012D800F369FFCF0080004000380140004400401F
:1012E800D82F0008FFFC0F000024F4000120D8E7E5
:1012F8000120D6E70120D4E70120D2E70020D0E77B
:101308000120CEE70120CCE70020CAE70120C8E78A
:10131800836A13F0010F06D00268536823F4003380
:10132800C16A0B435360836A13F0020F06D0026848
:10133800536823F48033016B0B435360836A13F0C3
:10134800040F06D00268536823F48023416B0B43D3
:101358005360836A13F0080F06D00268536823F4B9
:101368000043816B0B435360836A13F0100F06D060
:101378000268936823F48053C16B0B439360836ABC
:1013880013F0200F06D00268936823F40053016C11
:101398000B439360836A13F0400F0AD002685368C6
:1013A80023F48013416C0B435360436CB3F5801FE7
:1013B8000BD0836A13F0800F06D00268536823F4B9
:1013C8000023C16C0B43536070470268536823F4D1
:1013D800C003816C0B435360EBE72DE9F8430546E6
:1013E8000F4616469946DDF820802C68E46937EAEE
:1013F80004030CBF4FF0010C4FF0000CB44557D15B
:10140800B8F1FF3FF1D001F0A7FCA0EB090040457F
:101418002FD8B8F1000F2CD02B681A6812F0040FDF
:10142800E3D0DA6912F4006FDFD04FF400621A6279
:101438002A6852E8003F23F4D07342E800310029BB
:10144800F6D12A6802F1080353E8003F23F00103AC
:10145800083242E800310029F3D12023C5F884304E
:10146800C5F88830C5F88C30002385F88030032013
:101478001FE02A6852E8003F23F4D07342E80031A5
:101488000029F6D12A6802F1080353E8003F23F047
:101498000103083242E800310029F3D12023C5F8BE
:1014A8008430C5F88830002385F88030032000E0B8
:1014B8000020BDE8F8832DE9F04182B01E46D0F83F
:1014C8008430202B58D104460D469046002957D029
:1014D800002A57D090F88030012B55D0012380F88E
:1014E80080300023C0F88C302123C0F8843001F00C
:1014F80033FC0746A4F85480A4F85680A368B3F5D3
:10150800805F05D04FF00008002384F8803014E095
:10151800236913B14FF00008F6E7A8460025F3E762
:1015280038F8023B2268C3F308039362B4F85620E4
:1015380092B2013A92B2A4F85620B4F856309BB24F
:1015480073B100963B46002280212046FFF745FFF5
:10155800E0B9002DE4D015F8012B23689A62E5E77D
:1015680000963B46002240212046FFF736FF78B917
:101578002023C4F8843000E0022002B0BDE8F081E6
:101588000120FAE70120F8E70220F6E70320F4E754
:101598000320F2E72DE9F04383B01E46D0F88830E7
:1015A800202B40F0818004460D46904600297FD0CC
:1015B800002A7FD090F88030012B7DD0012380F85D
:1015C80080300023C0F88C302222C0F88820C366FF
:1015D80001F0C2FB0746A4F85C80A4F85E80A3680B
:1015E800B3F5805F06D0A3B9226972B9FF22A4F8C7
:1015F800602014E0226922B940F2FF12A4F86020AA
:101608000DE0FF22A4F8602009E07F22A4F8602002
:1016180005E0B3F1805F0DD00022A4F86020B4F893
:101628006080B3F5805F0FD04FF00009002384F885
:1016380080301EE022691AB97F22A4F86020EEE704
:101648003F22A4F86020EAE7236913B14FF00009AC
:10165800ECE7A9460025E9E723685B6A08EA030383
:1016680029F8023BB4F85E2092B2013A92B2A4F88B
:101678005E20B4F85E309BB28BB100963B460022E8
:1016880020212046FFF7A9FEC0B9002DE4D0236829
:101698005A6A5FFA88F3134005F8013BE2E7202312
:1016A800C4F88830002000E0022003B0BDE8F083D1
:1016B8000120FAE70120F8E70220F6E70320F4E723
:1016C80030B583B004460023C0F88C3001F044FBE9
:1016D80005462268126812F0080F0FD123681B68AC
:1016E80013F0040F18D12023C4F88430C4F88830CC
:1016F8000020E06684F8800003B030BD6FF07E43C0
:101708000093034600224FF400112046FFF765FEC0
:101718000028E3D00320EFE76FF07E4300932B46C9
:1017280000224FF480012046FFF757FE0028DAD048
:101738000320E1E778B310B50446D0F884300BB342
:101748002423C4F884302268136823F0010313604B
:101758002046FFF777FC012813D0A36ABBB922689B
:10176800536823F4904353602268936823F02A0354
:1017780093602268136843F0010313602046FFF763
:101788009FFF10BD80F88030FFF722FAD8E7204687
:10179800FFF7BEFDE3E7012070470000436E2BB959
:1017A8000123A0F86A30A0F86830704730B40368A5
:1017B8009A68C2F342629968490F094D6B5CDB0075
:1017C800084C615C93FBF1F3A0F86A30AB5CDB007A
:1017D800A25C93FBF2F3A0F8683030BC704700BFFE
:1017E800F82F0008F02F000890F88030012B18D04F
:1017F800012380F880302423C0F8843003681A68F5
:10180800196821F00101196022F000520023436693
:1018180001680A602022C0F8842080F880301846C9
:1018280070470220704738B590F88030012B1DD0E2
:101838000446012380F880302423C0F884300368EC
:101848001D681A6822F001021A600268936823F082
:10185800604319439160FFF7A1FF23681D602023AF
:10186800C4F88430002084F8800038BD0220FCE7EA
:1018780038B590F88030012B1DD00446012380F83C
:1018880080302423C0F8843003681D681A6822F069
:1018980001021A600268936823F06063194391603B
:1018A800FFF77CFF23681D602023C4F884300020E4
:1018B80084F8800038BD0220FCE7000030B589B00C
:1018C80004468C462A4B93E803000690ADF81C109A
:1018D80003F1080292E803000490ADF8141001AD7A
:1018E800103393E8070085E80700BCF5007F07D0B0
:1018F800002314E008AA02EB830353F81C5C1EE0E3
:101908000023022B08D808AA02EB430232F8082C5D
:10191800A242EFD20133F4E7002510E00133022B95
:101928000CD808AA02EB430232F8102CA242F5D3D5
:1019380008AA02EB830353F81C5C00E000250D4A5B
:10194800136823F007032B43136001F005FA0446DC
:10195800084B1B6803F00703AB4206D001F0FCF903
:10196800001B0228F4D9032000E0002009B030BD94
:10197800202E00080040005810B5C0F303100C4B8F
:1019880053F820404FF0B043D3F8083103F00F0369
:10199800084A52F82300B4FBF0F401F005F90146B7
:1019A8000548A0FB0430800CFFF788FF10BD00BF7E
:1019B800982F0008382F000883DE1B434FF0B043F0
:1019C8009968DB6803F0030311F00C010AD00C29B5
:1019D80006D0042947D008293BD00022104626E02B
:1019E800012BF6D14FF0B0431B6813F008030DD05C
:1019F8004FF0B0431B6813F0080324D14FF0B042F6
:101A0800D2F894202E4A52F823200EE04FF0B0422C
:101A1800126812F0080F12D14FF0B043D3F8943087
:101A2800C3F30323264A52F82320D1B100204FF0F4
:101A3800B0439B6803F00C030C2B1AD070474FF08F
:101A4800B0421268EEE74FF0B0431B68C3F30313CC
:101A5800D8E74FF0B0431A6812F4801206D119483B
:101A6800E5E71046E3E700221748E0E700221648BA
:101A7800DDE74FF0B043DB6803F00303022B09D026
:101A8800032B08D14FF0B0431B6813F4801F15D106
:101A98000C4A00E00C4A4FF0B043D868C0F3062067
:101AA80000FB02F2D868C0F302100130B2FBF0F27A
:101AB800D868400F0130B2FBF0F0BFE7024AEAE70E
:101AC800982F00080048E8010024F40008B5FFF743
:101AD80075FF4FF0B0439B68C3F30313024A52F8F3
:101AE8002330B0FBF3F008BD382F0008002800F0C1
:101AF8001983F8B504464FF0B0439D6805F00C050E
:101B0800DE6806F00306036813F0200F00F08F80EC
:101B1800EDB10C2D19D0236A002B00F0BC804FF0DA
:101B2800B042136843F00103136001F015F907464A
:101B38004FF0B0431B6813F0020F65D101F00CF9A8
:101B4800C01B0228F4D90320F9E2012EE3D14FF09B
:101B5800B0431B6813F0020F03D0236A002B00F078
:101B6800E382A06A4FF0B0431B6813F0080F29D036
:101B78004FF0B0431B6803F0F00398422AD9FFF7EF
:101B8800FBFE002840F0D2824FF0B0431A6842F0C2
:101B980008021A601A6822F0F002A16A0A431A6061
:101BA800616A5A6822F47F4242EA01225A60FFF7CA
:101BB8008DFFB04B1860B04B186801F083F800280F
:101BC80035D0BCE24FF0B043D3F894301B0903F092
:101BD800F003D2E74FF0B0431A6842F008021A60E7
:101BE8001A6822F0F002A16A0A431A60616A5A6808
:101BF80022F47F4242EA01225A60A06AFFF7BCFE43
:101C08000028D4D001209AE24FF0B0431A6842F07D
:101C180008021A601A6822F0F002A16A0A431A60E0
:101C2800616A5A6822F47F4242EA01225A602368B4
:101C380013F0010F51D0082D45D00C2D41D04FF095
:101C4800B042136823F48013A1680B4313606368E0
:101C5800B3F5803F63D0B3F5041F65D04FF0B043B0
:101C68001A6822F480321A601A6822F400121A6084
:101C78006368002B63D001F06FF807464FF0B0435C
:101C88001B6813F4003F28D101F066F8C01B6428D4
:101C9800F4D9032053E24FF0B042136823F0010354
:101CA800136001F059F807464FF0B0431B6813F072
:101CB800020FBCD001F050F8C01B0228F4D9032051
:101CC8003DE2032EBBD14FF0B0431B6813F4003F35
:101CD80003D06368002B00F02B82236813F0020FF7
:101CE80052D0042D3DD00C2D39D02369002B00F0A3
:101CF80091804FF0B042136843F48073136001F091
:101D08002BF806464FF0B0431B6813F4806F77D169
:101D180001F022F8801B0228F4D903200FE213688F
:101D280043F480331360A3E74FF0B0431A6842F4DA
:101D380000121A601A6842F480321A6098E701F0BB
:101D48000BF807464FF0B0431B6813F4003FC4D0AC
:101D580001F002F8C01B6428F4D90320EFE1022E39
:101D6800C3D14FF0B0431B6813F4806F03D02369CD
:101D7800002B00F0DF8161694FF0B042536823F017
:101D8800FE4343EA01635360236813F0080F00F031
:101D98008E80A369002B71D04FF0B043D3F89430F4
:101DA800E16903F01002914211D003F00302022A04
:101DB80000F0C28113F0010F42D14FF0B042D2F8C7
:101DC800943023F01003E1690B43C2F894304FF0CC
:101DD800B042D2F8943043F00103C2F8943000F0D6
:101DE800BBFF06464FF0B043D3F8943013F0020F10
:101DF8005DD100F0B1FF801B1128F3D903209EE1CB
:101E080061694FF0B042536823F0FE4343EA01632F
:101E18005360B9E74FF0B042136823F4807313603E
:101E280000F09AFF06464FF0B0431B6813F4806F2A
:101E3800AAD000F091FF801B0228F4D903207EE18C
:101E48004FF0B042D2F8943023F00103C2F8943036
:101E580000F082FF06464FF0B043D3F8943013F0F9
:101E6800020FAAD000F078FF801B1128F3D90320B5
:101E780065E100BF00000020080000204FF0B042DC
:101E8800D2F8943023F00103C2F8943000F064FFD4
:101E980006464FF0B043D3F8943013F0020F06D043
:101EA80000F05AFF801B1128F3D9032047E123686B
:101EB80013F0040F00F0B180A84B1B6813F4807F67
:101EC80010D100F069FE00F047FF0646A34B1B68DF
:101ED80013F4807F06D100F03FFF801B0228F5D95C
:101EE80003202CE1E368002B61D0852B01D0052B62
:101EF80007D14FF0B042D2F8903043F00403C2F853
:101F0800903000F029FF06464FF0B042D2F89030EA
:101F180043F00103C2F890304FF0B043D3F890304B
:101F280013F0020F08D100F017FF801B41F288332D
:101F38009842F1D9032002E1E368812B01D0852B77
:101F48001AD100F009FF06464FF0B042D2F890309F
:101F580043F08003C2F890304FF0B043D3F890308C
:101F680013F4006F59D100F0F7FE801B41F288335B
:101F78009842F1D90320E2E000F0EEFE06464FF069
:101F8800B042D2F8903023F08003C2F890304FF07E
:101F9800B043D3F8903013F4006F3ED000F0DCFE6D
:101FA800801B41F288339842F1D90320C7E000F042
:101FB800D3FE06464FF0B042D2F8903023F08003AB
:101FC800C2F890304FF0B043D3F8903013F4006F5C
:101FD80008D000F0C1FE801B41F288339842F1D945
:101FE8000320ACE000F0B8FE06464FF0B042D2F84D
:101FF800903023F00103C2F890304FF0B043D3F88B
:10200800903013F0020F08D000F0A6FE801B41F2BA
:1020180088339842F1D9032091E0E36A002B00F05D
:102028008D800C2D62D0022B1FD04FF0B0431A6860
:1020380022F080721A60DA6822F00302DA60DA6845
:1020480022F0885222F48032DA6000F085FE0446DD
:102058004FF0B0431B6813F0007F73D000F07CFE94
:10206800001B0A28F4D9032069E04FF0B042136836
:1020780023F08073136000F06FFE05464FF0B04305
:102088001B6813F0007F2AD14FF0B042D36834495F
:102098001940236B606B0343A06B43EA0023E06B9A
:1020A8000343206C0343606C03430B43D360136802
:1020B80043F080731360D36843F08053D36000F01B
:1020C8004BFE04464FF0B0431B6813F0007F37D136
:1020D80000F042FE001B0A28F4D903202FE000F08C
:1020E8003BFE401B0A28C9D9032028E0012B2BD02E
:1020F8004FF0B043DB6803F00301226B914225D116
:1021080003F07002616B8A4222D103F4FE42A16B94
:10211800B2EB012F1ED103F06043626C93421BD1D6
:1021280000200CE001207047012008E0012006E0B3
:10213800012004E0012002E0012000E00020F8BDB9
:102148000020FCE70020FAE70120F8E70120F6E785
:102158000120F4E70120F2E70120F0E7000400582D
:102168008C80C111002800F0048170B50C4605462A
:10217800824B1B6803F007038B4227D32B6813F0AD
:10218800020F39D12B6813F0400F4DD12B6813F093
:10219800040F65D12B6813F0080F79D12B6813F061
:1021A800010F00F0C1806B68022B00F08B80032BBD
:1021B80000F09080002B40F095804FF0B0421268FC
:1021C80012F0020F40F094800120D1E06B4A1368AE
:1021D80023F007030B43136000F0BEFD0646674B70
:1021E8001B6803F00703A342C8D000F0B5FD801BAD
:1021F8000228F4D90320BBE0AB684FF0B0418A68ED
:1022080022F0F00213438B6000F0A6FD06464FF063
:10221800B0439B6813F4803FB4D100F09DFD801B50
:102228000228F4D90320A3E069694FF0B042D2F83C
:10223800083123F00F0343EA1113C2F8083100F004
:102248008BFD06464FF0B043D3F8083113F4803FB6
:102258009CD100F081FD801B0228F3D9032087E080
:10226800EB684FF0B0418A6822F4E06213438B6058
:1022780000F072FD06464FF0B0439B6813F4003F30
:1022880088D100F069FD801B0228F4D903206FE093
:1022980029694FF0B042936823F4605343EAC103BD
:1022A800936000F059FD06464FF0B0439B6813F465
:1022B800802F7FF473AF00F04FFD801B0228F3D905
:1022C800032055E04FF0B042126812F4003F0FD1DE
:1022D80001204DE04FF0B042126812F0007F07D1A4
:1022E800012045E04FF0B042126812F4806F42D0EE
:1022F8004FF0B0418A6822F0030213438B6000F06C
:102308002BFD06464FF0B0439B6803F00C036A6848
:10231800B3EB820F08D000F01FFD801B41F2883319
:102328009842EFD9032023E0144B1B6803F00703FE
:10233800A34215D9114A136823F0070323431360F6
:1023480000F00AFD05460D4B1B6803F00703A34286
:1023580006D000F001FD401B0228F4D9032007E055
:10236800FFF7B4FB064B1860064B186800F0AAFC90
:1023780070BD012070470120FAE700BF00400058F7
:10238800000000200800002008B5FFF79FFB4FF071
:10239800B0439B68C3F30223024A52F82330D84063
:1023A80008BD00BF782F000808B5FFF78FFB4FF076
:1023B800B0439B68C3F3C223024A52F82330D84083
:1023C80008BD00BF782F000870B50446036813F4F1
:1023D800803F40F0AB800025236813F0010F0AD03E
:1023E80062684FF0B041D1F8883023EA124392B2C4
:1023F8001343C1F88830236813F0020F0AD0A2688B
:102408004FF0B041D1F8883023EA124392B2134317
:10241800C1F88830236813F0200F09D023694FF0E2
:10242800B041D1F8882022F440621343C1F88830C3
:10243800236813F4007F0CD0206A4FF0B041D1F824
:102448008830020C120423EA020343EA0043C1F86D
:102458008830236813F4806F0CD0606A4FF0B04165
:10246800D1F88830020C120423EA020343EA00433D
:10247800C1F88830236813F4006F0CD0A06A4FF0BD
:10248800B041D1F88830020C120423EA020343EA6F
:102498000043C1F88830236813F0400F40F09E8055
:1024A800236813F0800F40F0AA80236813F4807F1C
:1024B80040F0B680236813F0100F0ED0E3684FF099
:1024C800B041D1F8882022F440721343C1F8883013
:1024D800E368B3F5807F00F0B480236813F4004FFD
:1024E8000FD0236B4FF0B041D1F8882022F0404242
:1024F8001343C1F88830236B1BB9CB6843F0807352
:10250800CB60236813F4804F0ED0E36A4FF0B041DC
:10251800D1F8882022F040521343C1F88830E36A8A
:10252800B3F1005F00F09280284670BD00F034FBE4
:1025380000F012FC0546484B1B6813F4807F06D157
:1025480000F00AFC401B0228F5D9032500E000250D
:10255800002D7FF441AF4FF0B043D3F8903003F42F
:102568004073626B9A4224D04FF0B043D3F8902066
:1025780022F44072D3F8901041F48031C3F89010DF
:10258800D3F8901021F48031C3F89010C3F890204C
:1025980012F0020F0FD1002D7FF41EAF636B4FF0C6
:1025A800B041D1F8902022F440721343C1F8903022
:1025B80012E70022ECE700F0CFFB06464FF0B043ED
:1025C800D3F8903013F0020FE5D100F0C5FB801B63
:1025D80041F288339842F1D90325DCE763694FF06B
:1025E800B040D0F88820190901F47F2122EA0102BD
:1025F8001B0103F47F231343C0F8883050E7A36915
:102608004FF0B040D0F88820190901F47F2122EA60
:1026180001021B0103F47F231343C0F8883044E709
:10262800E3694FF0B040D0F88820190901F47F2100
:1026380022EA01021B0103F47F231343C0F8883008
:1026480038E7CB6843F08073CB6046E7CB6843F448
:102658008033CB6068E700BF0004005810B4054C15
:10266800616941F0010161610260BFF36F8F4360EE
:1026780010BC7047004000580C4A536943F480234B
:102688005361EFF3108C72B6402351F8042B40F8D5
:10269800042B013B13F0FF03F7D1044B1B6913F420
:1026A800803FFAD18CF31088704700BF0040005873
:1026B800094B5B69002B01DB00207047064B074A7A
:1026C8009A6002F188329A605B69002B01DB002076
:1026D80070470120704700BF00400058230167453C
:1026E800054B5A6942F000425A615B69002B01DBD5
:1026F80001207047002070470040005838B5054653
:1027080000F02AFB0446164B1B6913F4803F06D0E1
:1027180000F022FB001BA842F5D3032038BD104B64
:102728001B6913F0010F02D00D4A012111614CF20F
:10273800FA32134001D00A4A13615BB9084B1B698E
:1027480013F4802F0AD000F007FB001BA842F5D332
:102758000320E3E7034A53600120DFE70020DDE7B9
:102768000040005810050020F8B51F46154B1B788F
:10277800012B25D004460D461646124B01221A702D
:1027880000225A604FF47A70FFF7B8FF70B9012C35
:1027980010D031462846FFF76FFF4FF47A70FFF7E5
:1027A800ADFF094A536923EA04045461054B00222A
:1027B8001A70F8BD32463B462846FFF74FFFECE754
:1027C8000220F6E71005002000400058034A53692C
:1027D80043F4803343F004035361704700400058CA
:1027E800184B1B6803F40073012B06D0154B1B68AC
:1027F80003F48063012B12D07047124B1A6822F43D
:1028080000721A601A6842F400621A601A6822F4A8
:1028180000621A601A6842F400721A60E6E7094B0F
:102828001A6822F480621A601A6842F480521A60A8
:102838001A6822F480521A601A6842F480621A6098
:10284800DAE700BF00400058034A536923F47E7357
:1028580023F002035361704700400058054A53694A
:1028680023F47E7343EAC00040F4803040F0020055
:102878005061704700400058F8B51E4B1B78012B7B
:1028880035D005460F461B4B01221A7000225A60AC
:102898004FF47A70FFF732FF064618BB2B68042BFB
:1028A80013D04FF0FF333B606C686B68AA68134421
:1028B800A34213D92046FFF7D1FF4FF47A70FFF7F0
:1028C8001DFF064648B90134EFE7FFF77FFF4FF4D5
:1028D8007A70FFF713FF064602E03C60FFF7B4FF8B
:1028E800FFF77EFF034B00221A703046F8BD022620
:1028F800FBE700BF1005002070B5002369E085687C
:102908005E000324B44025EA0405CC68B4402C4397
:102918008460446824EA0C0C4C68C4F300149C409E
:1029280044EA0C04446065E0DD08083550F8256089
:1029380003F007044FEA840C0F2404FA0CF426EA87
:10294800040E0C6904FA0CF444EA0E0440F825401D
:1029580067E0022400E0002404FA0EF42C430CF192
:10296800020C4B4D45F82C404A4CD4F88050D443C7
:1029780025EA0206D1F804C01CF4803F01D042EADF
:102988000506444DC5F88060D5F8845004EA05066C
:10299800D1F804C01CF4003F01D042EA05063D4DC1
:1029A800C5F884602D6804EA0506D1F804C01CF453
:1029B800801F01D042EA0506364D2E606D682C4016
:1029C8004E6816F4001F01D042EA0504314A5460EB
:1029D80001330A6832FA03F458D04FF0010C0CFAAC
:1029E80003FC1CEA0202F3D04C6804F00304013C27
:1029F800012C84D94C6804F00304032C0CD0C4685F
:102A08005D004FF0030C0CFA05FC24EA0C0C8C68F2
:102A1800AC4044EA0C04C4604C6804F00304022C83
:102A280082D004684FEA430E4FF0030C0CFA0EFCF8
:102A380024EA0C0C4C6804F0030404FA0EF444EA8B
:102A48000C0404604C6814F4403FC1D04FEA930C66
:102A58000CF102050E4C54F8255003F003044FEA1C
:102A6800840E072404FA0EF425EA0405B0F1904F09
:102A78003FF471AF084CA04206D004F58064A04230
:102A88003FF467AF072467E7012465E770BD00BF1F
:102A9800000001400008005800040048002331FAF3
:102AA80003F271D0F0B52EE0022500E0002505FA0A
:102AB8000CFCA44549D004685D004FF0030C0CFAE7
:102AC80005FC44EA0C0404604FEAD30E0EF1080E2C
:102AD80050F82E4003F00705AE000F25B54024EA54
:102AE800050440F82E40846824EA0C048460446895
:102AF80024EA02024260C26822EA0C02C260013380
:102B080031FA03F23FD001229A4012EA0107F6D0C7
:102B18009E08B51C1D4C54F8254003F0030C4FEAE1
:102B28008C0C4FF0070E0EFA0CFE0EEA0404B0F1FE
:102B3800904FBBD0164DA84205D005F58065A84238
:102B4800B2D00725B3E70125B1E7124CD4F880507D
:102B580025EA0705C4F88050D4F8845025EA07050B
:102B6800C4F88450256825EA07052560656825EAC4
:102B780007076760054D023655F8264024EA0E041B
:102B880045F8264097E7F0BD704700BF00000140B8
:102B98000004004800080058024A136843F4807390
:102BA8001360704700040058024B186800F4C060B6
:102BB800704700BF00040058074AD36823F4E06355
:102BC8001B041B0C000200F4E060034343F0BF63E6
:102BD80043F40033D360704700ED00E000B5194BB3
:102BE800DB68C3F30223C3F1070CBCF1040F28BF51
:102BF8004FF0040C03F1040EBEF1060F18D9033B85
:102C08004FF0FF3E0EFA0CFC21EA0C0199400EFA37
:102C180003F322EA0303194300280BDB0901C9B2B5
:102C280000F1604000F5614080F800135DF804FB96
:102C38000023E5E700F00F000901C9B2024B19545F
:102C4800F4E700BF00ED00E014ED00E00138B0F15A
:102C5800807F0BD24FF0E0235861054AF02182F8BB
:102C680023100020986107221A61704701207047DD
:102C780000ED00E0704710B54FF0B0439A6B4FF08D
:102C8800FF329A63D96BDA63996B00249C63D96B22
:102C9800DC63196C1A64196C1C64596C5A64596C9D
:102CA8005C64996A9A62996A9C62D96ADA62D96A9A
:102CB800DC62196B1A631A6B1C63FFF7DBFF204693
:102CC80010BD0000114B1B780BB90120704710B5DF
:102CD8000446FEF7FBFE0D4B1A784FF47A73B3FBEC
:102CE800F2F3B0FBF3F0FFF7B1FF68B90F2C01D98D
:102CF80001200AE0002221464FF0FF30FFF76EFF67
:102D0800034B1C60002000E0012010BD04000020DF
:102D18000800002010B50320FFF74EFFFEF7D6FE8F
:102D2800064B18600F20FFF7CDFF10B10124204695
:102D380010BD0446FDF706FFF9E700BF00000020BC
:102D4800034B1B78034A11680B441360704700BF9C
:102D58000400002028050020014B1868704700BFB8
:102D68002805002038B50446FFF7F6FF0546B4F1FC
:102D7800FF3F02D0044B1B781C44FFF7EDFF401BBC
:102D8800A042FAD338BD00BF040000200D48854694
:102D9800FDF7E9FE0C480D490D4A002302E0D4581E
:102DA800C4500433C4188C42F9D30A4A0A4C00238D
:102DB80001E013600432A242FBD3FDF765FBFDF787
:102DC8008DFCFEE70080002000000020100000209D
:102DD800183000081000002030050020FEE710B56C
:102DE80001390244904201D1002005E0037811F82E
:102DF800014FA34201D0181B10BD0130F2E70000BB
:102E0800F8B500BFF8BC08BC9E467047F8B500BFCF
:082E1800F8BC08BC9E4670479F
:102E2000120024003000000006000C00100000001A
:102E300000000000010000000200000061742B7619
:102E4000657273696F6E00005255492052414B33D1
:102E500031373220426F6F746C6F61646572207617
:102E6000302E330061742B7570646174650000004E
:102E70005374617274206669726D77617265207532
:102E80007067726164652E2E2E0D0A0061742B72BC
:102E9000756E000053746F7020426F6F74204D6F19
:102EA00064650D0A000000004A756D702066616956
:102EB0006C65642E204E6F206C6567616C206170BC
:102EC000706C69636174696F6E20646574656374A6
:102ED00065642E0D0A00000061742B7265736574C1
:102EE000000000004154206E6F7420737570706F85
:102EF00072742E0D0A0000003C424F4F54204D4F7B
:102F000044453E0D0A0000005365745F44626C4303
:102F10006C69636B204552524F520D0A000000004D
:102F2000436C6561725F44626C436C69636B2045FE
:102F300052524F520D0A0000010000000300000031
:102F40000500000001000000010000000600000074
:102F50000A00000020000000020000000400000041
:102F60000800000010000000400000008000000089
:102F7000000100000002000000000000000000004E
:102F8000000000000000000001000000020000003E
:102F90000300000004000000A0860100400D0300B3
:102FA000801A060000350C0040420F0080841E008D
:102FB00000093D0000127A000024F40000366E0182
:102FC0000048E801006CDC02000000000000000086
:102FD00000000000000000000100020004000600E4
:102FE00008000A000C0010002000400080000001D2
:102FF00008040204080101010101010307010000A6
:08300000A8D1FF7F01000000D0
:083008005D010008000000005A
:08301000390100080000000076
:1030180000093D0001000000100000000000000051
:0400000508002D952D
:00000001FF
