:020000040800F2
:1000000000FC0020752800081D090008A909000847
:10001000AB090008AD090008AF09000800000000A6
:10002000000000000000000000000000B10900080E
:10003000B309000800000000B5090008B70900086E
:10004000C5280008C5280008E9090008C5280008D7
:10005000C5280008C5280008C5280008C5280008CC
:10006000C5280008C5280008C5280008C5280008BC
:10007000C5280008C5280008C5280008C5280008AC
:10008000C5280008C5280008C5280008C52800089C
:1000900000000000C5280008C5280008C528000881
:1000A000C5280008C5280008C5280008C52800087C
:1000B000C5280008C5280008C5280008C52800086C
:1000C000C5280008C5280008C5280008C52800085C
:1000D000C5280008F9090008C5280008C528000837
:1000E000C5280008C5280008C9090008C528000857
:1000F000C52800080000000000000000C528000816
:10010000C5280008C5280008D9090008C528000826
:10011000C5280008C5280008C5280008C52800080B
:10012000C5280008C5280008C5280008C5280008FB
:08013000C5280008C5280008DD
:1001380010B5054C237833B9044B13B10448AFF319
:1001480000800123237010BD6860002000000000BB
:10015800FC28000808B5034B1BB103490348AFF35B
:10016800008008BD000000006C600020FC2800082A
:1001780070B50D4D0D4C641BA4100026A64209D184
:100188000B4D0C4C02F0B6FB641BA4100026A642D3
:1001980005D170BD55F8043B98470136EEE755F890
:1001A800043B98470136F2E7E02C0008E02C0008F1
:1001B800E02C0008E42C000802440346934200D1D6
:1001C800704703F8011BF9E730B593B0002102919D
:1001D8003C2203A8FFF7F0FF01226349634802F0BD
:1001E8008DFA002863D0624800F062FA5FE00024CC
:1001F80018E001255F4B00221A705F4B1B78012B1A
:1002080030D0002D33D15B4B1B78002BF5D0631C0D
:100218009BB212AA1444544A127804F8402C3F2B7B
:10022800E5D81C46631E12AA134413F8403C0D2B54
:1002380001D00A2BDED1514A6B4692E8030083E8CD
:10024800030003224E4902A83BF04AF90028D0D007
:1002580003224C4902A83BF043F908B90125C9E734
:100268000024C7E72FF086FD1FF0A4FFC9E7013C73
:1002780012AB1C44002304F8403C434902A802F096
:100288001FFB48B1414902A802F01AFB20B14049BE
:1002980002A802F015FB68B93E4800F009FA3E488A
:1002A80000F006FA4022002102A8FFF785FF00258A
:1002B8002C46A8E7394902A802F002FBE8B1384900
:1002C80002A802F0FDFA28B3364902A802F0F8FAAB
:1002D80048B3354902A802F0F3FA002830D0334970
:1002E80002A802F0EDFA78B3314902A802F0E8FA60
:1002F800002834D11FF016FBD4E72E4B01221A70C8
:100308004FF001312C4800F08BFA184801F04CF9F5
:1003180013B030BD294800F0CBF900F0DDFA2848C9
:1003280000F0C6F9BEE7BFF34F8F2649CA6802F44A
:10033800E062254B1343CB60BFF34F8F00BFFDE74F
:10034800224800F0B5F9ADE7214800F0B1F900F016
:10035800DDFF0123084A13701E4A1370A2E71E48E6
:1003680000F0A6F99EE700BF86600020D460002058
:1003780030290008886000208460002018290008BF
:10038800282900082C2900084C29000858290008A9
:100398006429000800500008202B00087429000870
:1003A80080290008CC290008D8290008F429000869
:1003B800102A0008876000200440000888290008E7
:1003C8009C29000800ED00E00400FA05E82900086F
:1003D800002A000885600020182A000808B5064B86
:1003E8001B7813B1012B03D008BDFFF7EDFEFBE727
:1003F80000F048FAF8E700BF8760002010B59AB00F
:100408004822002108A8FFF7D7FE0024029403948D
:10041800049405940694079428F010F84FF0B0421D
:10042800D2F8903023F01803C2F8903002F58062B9
:10043800136823F4C06343F400731360136803F470
:10044800C0630193019B2E23089381230B930123FF
:1004580010934FF480720C92119440220D92B022A6
:10046800129213940F940E9308A825F099FC70B972
:100478004F23029300230393049305930693079352
:10048800022102A825F02EFF18B91AB010BD21F0DC
:10049800EBF821F0E9F8000008B53E4B5B68B3F1D2
:1004A800043F04D03B4B5B68B3F1053F34D1394B73
:1004B8005B68B3F1053F36D0374B4FF000629A6066
:1004C800364B01221A70364B00221A7000F098FA47
:1004D800304B1B68B3F15A3F2CD02E4B1B68B3F13D
:1004E8005A3F09D02B4B5B68B3F1043F04D0294B2A
:1004F8005B68B3F1053F2ED12A4800F0D9F8254BA7
:100508005B68B3F1043F2CD0224B5B68B3F1053F25
:1005180027D0FFF763FFFCE700F0ECFD25F074F946
:10052800FFF76CFFD2E700F0E5FD25F06DF9FFF766
:1005380065FFC1E71C4B1A681C4B1340B3F1005F01
:10054800CBD1144B5B68B3F1013FC6D000F04CF936
:1005580000F054F9C1E74FF05A310E4800F060F945
:10056800CAE700F035FE0B4B5B68B3F1043F0BD0D4
:100578000F4800F09DF800F0C9FE0E4B01221A70DA
:100588000D4B00221A70C4E74FF005310B4800F0FC
:1005980047F9BEE70040000800ED00E08460002055
:1005A800876000202C2A0008006000080000FE2F49
:1005B8003C2A0008856000205F660020044000088F
:1005C80010B584460378302B03D0002420462346F8
:1005D80054E04378782B35D0582B36D00024204669
:1005E80023464BE02401A3F1300E5FFA8EFEBEF1E4
:1005F800090F21D8303B1C4401300A2815D81CF8B3
:10060800003093B1A3F14102D2B2052AEAD9A3F18D
:10061800610E5FFA8EFEBEF1050FE3D9A3F1300E2D
:100628005FFA8EFEBEF1090FDCD91CF80030002BF2
:100638003BD10C60012010BD052A01D8373BDAE711
:10064800573BD8E700240220D7E700240220D4E74C
:100658006B2A1ED04B2A1CD06D2A20D04D2A1ED0C2
:10066800A2F1300E5FFA8EFEBEF1090FE3D804EB5B
:10067800840402EB4402A2F1300401330A2BDAD8D5
:100688000028D8D11CF80320002AE1D10C600120F1
:10069800F3E7002BE0D0A4020C600120EDE7002B6B
:1006A800DED024050C600120E7E70020C3E7000046
:1006B80008B50146002201E0013292B28B5C002BA2
:1006C800FAD16423014801F012FE08BDD46000206D
:1006D80000B583B08DF80700094BD3F88430A02B00
:1006E80009D0642301220DF10701054801F0FFFD3F
:1006F80003B05DF804FB024B2022C3F88420F0E726
:10070800D46000200FB400B5ADF5037D84AB53F879
:10071800042B01934FF4007102A824F021FD02A8D4
:100728001DF06AFC642382B202A9044801F0DFFDCF
:100738000DF5037D5DF804EB04B07047D46000202C
:1007480000F17840C00A704710B584B00446002311
:10075800039328F04DFA0E4B4FF400421A612046DD
:10076800FFF7EEFFC4F1006303F5E833DB0A02226A
:1007780000920190029303A9684628F04DFC28B91D
:10078800002428F047FA204604B010BD0124F8E7F9
:1007980000400058F0B583B005460C46174628F0CF
:1007A80027FA002602E0083508340236BE4215D280
:1007B8006B462068616803C3DDE9002329460120F0
:1007C80028F094FA0028F0D128686A680099019BFB
:1007D8009A4208BF8842E6D0032400E0002428F0AB
:1007E80019FA204603B0F0BD08B5034800F09BFE97
:1007F80024F0BEFF08BD00BFD460002008B5054A3C
:10080800536805490B6005490B60126882F3088834
:10081800984708BD006000088C60002090600020A8
:1008280070B588B004460D4600230793134ED6E9E9
:100838000023CDE9042328F0DBF9114B4FF40042E3
:100848001A613046FFF77CFF0223019302900123CF
:10085800039307A901A828F0DFFB50B9B4420AD0D6
:100868000595DDE904230549012028F03FFA28F021
:10087800D1F908B070BD0495F3E700BF0040000847
:100888000040005800B583B00023019301A800F090
:100898002DFA10B103B05DF804FB4FF05A310A4845
:1008A800FFF7BEFF4FF002310848FFF7B9FF084BCA
:1008B8001A68084B1340B3F1005FEBD1FFF794FFC0
:1008C800FFF79CFFE6E700BF00400008044000086F
:1008D800006000080000FE2F08B54FF05A310A48A2
:1008E800FFF79EFF094B1A68094B1340B3F1005FED
:1008F80000D008BD044B5B68B3F1013FF9D0FFF7A6
:1009080073FFFFF77BFFF4E7004000080060000872
:100918000000FE2F4FF0B0439A6B4FF0FF31996300
:10092800DA6BD9639A6B00229A63D86BDA63186C16
:100938001964186C1A64586C5964586C5A64986A2B
:100948009962986A9A62D86AD962D86ADA62186B28
:100958001963196B1A635A6C42F001025A645A6C93
:1009680022F001025A64D3F8902042F48032C3F88E
:100978009020D3F8902022F48032C3F89020BFF35F
:100988004F8F0549CA6802F4E062044B1343CB60F9
:10099800BFF34F8F00BFFDE700ED00E00400FA054C
:1009A800704770477047FEE770477047704708B553
:1009B80024F040FF24F04AFF00F070FA08BD000060
:1009C80008B5024826F02CFB08BD00BFD84400201B
:1009D80008B5024828F009FE08BD00BFD002002073
:1009E80008B5024827F056FB08BD00BFD8440020D0
:1009F80008B5024800F056FE08BD00BFD4600020CC
:100A080008B51748174B03604FF4E13343600023E0
:100A18008360C36003610C2242618361C361036226
:100A28004362836201F0A2FD70B900210C4801F015
:100A3800D3FE60B900210A4801F0F3FE50B9084816
:100A480001F0ABFE48B908BD20F00EFEEDE720F03E
:100A58000BFEEFE720F008FEF1E720F005FEF2E7D5
:100A6800D46000200044004008B50122034904482E
:100A780001F044FE034B01221A7008BD8660002075
:100A8800D46000208860002010B596B0044600218C
:100A980011911291139114911591382203A8FFF71F
:100AA8008BFB22681E4B9A4201D016B010BD022360
:100AB80003934FF44023059303A825F05BFE58BB2E
:100AC8004FF0B0439A6D42F400329A659A6D02F481
:100AD80000320292029ADA6C42F00102DA64DB6CAC
:100AE80003F001030193019B0C231193022312933A
:100AF80001231393002414940723159311A94FF08D
:100B0800904028F025FE22462146252022F082F931
:100B1800252022F0B1F9C8E720F0A6FDD0E700BFF4
:100B28000044004008B50268094B9A4200D008BD4D
:100B38004FF0B042936D23F4003393650C214FF0CE
:100B4800904028F0B7FE252022F0A4F9EFE700BF77
:100B580000440040BFF34F8F0549CA6802F4E062C1
:100B6800044B1343CB60BFF34F8F00BFFDE700BFBB
:100B780000ED00E00400FA0541F4807106E080F41D
:100B8800815080F0010011F4803F09D140004900F4
:100B980011F4807F00D0013010F4803FF3D0EEE7ED
:100BA80080B2704738B504464518002004E014F8B0
:100BB800011B80B2FFF7E0FFAC42F8D3002180B2FE
:100BC800FFF7DAFF0021FFF7D7FF38BD2DE9F04125
:100BD80082B006460C46154600230B6013460122D8
:100BE8000DF10701404801F0F1FB8046002872D161
:100BF8009DF80710182919D84BB2002B48D0013995
:100C080017290FD8DFE801F048310E0C0E0E0E0E32
:100C18000E0E0E0E0E0E0E0E0E0E0E0E0E0E0E34C6
:100C280000270AE04FF00108002706E0412935D0E7
:100C3800612937D14FF0020800279DF8073033703B
:100C48007F2F49D92B463A1DB11C274801F0BEFB1E
:100C58008046002845D1B278F378DB43DBB29A426C
:100C68002AD04FF00108002736E04FF48067E4E708
:100C78002B4601220DF107011B4801F0A7FBA8B97B
:100C88009DF80730182B15D04FF001080027D4E73E
:100C98004FF001080027D0E78027CEE74FF0020881
:100CA8000027CAE74FF001080027C6E74FF0010800
:100CB8000027C2E70227C0E7F3191A795D7905EB27
:100CC80002253946301DFFF76DFFA84204D04FF0CA
:100CD8000108002700E000272760404602B0BDE871
:100CE800F0810027F8E700BFD46000202DE9F04F1D
:100CF80089B001904FF000084646DFF888B1C14638
:100D08004546C246BAF1000F40F0B880002E40F0C8
:100D1800B5805D4B00221A70574685E0079D3DB1AE
:100D2800022D0AD10620FFF7D3FC3D4602267BE0C0
:100D38000620FFF7CDFC012776E0544B9A78524BFA
:100D48001B789A420BD1002B53D1504B1B79CBB94E
:100D58000620FFF7BDFC3D460127BA4664E0152092
:100D6800FFF7B6FC3D465FE0013349488154013244
:100D7800197809B13F2AF7D9454900208854013329
:100D88003A4608E03A46434BF2E7013308A81044D4
:100D980000F8181C01321978202901D00F2AF4D93B
:100DA80008AB1A44002302F8183C06A902A8FFF76A
:100DB80007FC069A384B9A4213D83248FFF7C4FC0E
:100DC800069B019A13600620FFF782FC4320FFF779
:100DD8007FFC2D4A1378013313703D464FF001090B
:100DE80022E01820FFF774FC1820FFF771FC052695
:100DF800E3E7AA0827495846FFF7CCFC28B9079B20
:100E08009B440620FFF764FCE3E71820FFF760FC2B
:100E18001820FFF75DFC0426DBE71820FFF758FCD5
:100E28001820FFF755FC2646002F7FF46BAF002EE5
:100E38007FF468AF4FF4FA7207A91448FFF7C6FEAB
:100E4800044600283FF46AAF0228E6D0B9F1000F43
:100E580000D00135052D07D91820FFF739FC1820D7
:100E6800FFF736FC0226DFE74320FFF731FC08F1E5
:100E78000108B8F13B0FD7D9FFF76CFE304609B02F
:100E8800BDE8F08F006000086A65002064610020FA
:100E980094600020686100200110030008B50A4B27
:100EA800A3FB00231B0B43F6982202FB130343B951
:100EB800064B1B782BB1064A1278934202D0044A9B
:100EC800137008BDFFF746FE73B2E7456A65002058
:100ED8006B650020BFF34F8F0549CA6802F4E062D2
:100EE800044B1343CB60BFF34F8F00BFFDE700BF38
:100EF80000ED00E00400FA0570477047704770473E
:100F08007047704770477047704770477047704721
:100F1800014B01221A707047E4020020F8B505461B
:100F28000F46002416E05B6993B1384698470FE0F6
:100F38009B696BB1384698470AE0DB690BB13846C4
:100F48009847104B53F826301B6A0BB13846984720
:100F5800013464B2032C13DC26460A4B53F82430C0
:100F6800002BF5D0032DF3D801A252F825F000BFCD
:100F78002F0F0008390F0008430F00084B0F000817
:100F8800F8BD00BFD003002008B501460320FFF7D5
:100F9800C5FF08BD08B501460020FFF7BFFF08BD23
:100FA800F8B504460E4615461F460A460146074848
:100FB800FFF7A8FB05FB06F205FB04F10448FFF761
:100FC800A1FB39460348FFF79DFBF8BD5C2A0008E2
:100FD800802A0008A02A000808B50A48FFF792FBF3
:100FE800094B01221A704FF002310848FFF718FC2C
:100FF8004FF05A310648FFF713FC0648FFF782FB0B
:10100800FFF768FFC42A00085E6600200440000855
:1010180000400008D42A000808B513460A461946B5
:1010280000F1006000F5C04020F0D4F9002008BDB0
:1010380008B513460A46194600F1006000F5C0409D
:1010480020F072FA002008BD38B50446144823F091
:1010580019FF38B92378012B11D021460220FFF758
:101068005DFF38BD0E4D284623F07CFF44F6206115
:10107800284624F019F8284623F0C4FFEAE76378E5
:1010880033B9084B01221A700748FFF73BFBE4E726
:10109800044B00221A700548FFF734FBDDE700BF58
:1010A8007866002074660020E02A0008F02A00080C
:1010B80038B504460D4823F0E5FE50B9237F1BB12F
:1010C8000B4B5B6B03B1984721460120FFF726FFC6
:1010D80038BD064D284623F045FF44F620612846D2
:1010E80023F0E2FF284623F08DFFE7E7786600202B
:1010F8000060002008B50648064A121A06493AF068
:10110800FFF90648064A121A0021FFF755F808BDEC
:1011180000000020D002002010C00308D0020020E8
:10112800985E002008B5124B43F82010114A4A6215
:1011380053F820201049916253F820200F49D162BA
:1011480053F820300E4A1A63032808D0084B53F886
:1011580020305B68F2220B490020984708BD044BF9
:1011680053F820305B68F222064907489847F5E7AC
:10117800D0030020050F0008070F0008090F00081A
:10118800210002086C6500203860002010B51FF0AF
:101198005DF9044601201FF053F821460120FFF7AE
:1011A800C1FF1FF003FC044602201FF049F8214646
:1011B8000220FFF7B7FF1FF01DFE044603201FF0B3
:1011C8003FF821460320FFF7ADFF002010BD0000C7
:1011D80038B5164916482FF0D1FC1EF0C2FB154C45
:1011E800207020F039FF003818BF0120607020F00F
:1011F800FDFEA07020F054FFE0700125257121F05C
:1012080083FA003818BF01206071F223A3710A4BDA
:10121800A360214609481EF0AFFEFFF7B7FF084854
:101228001FF0DAFE074B1D7038BD00BF4860002074
:1012380058600020646600206C6500200060002073
:10124800386000205F66002010B51DF062FE1EF0B9
:101258005FFB20F071FD10F0FF0435D0142C37D05F
:10126800152C39D0162C3BD01EF07BFBC2B221497D
:1012780021482DF0BFFBB8BB1EF073FB1F4C20703C
:1012880020F0EAFE003818BF0120607020F0AEFEA2
:10129800A07020F005FFE0700123237121F034FADB
:1012A800003818BF01206071F223A371144BA360AA
:1012B800214614481EF060FEFFF768FF1EF05CFB35
:1012C8002DF074FD002010BD012031F065FFC5E749
:1012D800022031F061FFC3E7032031F05DFFC1E771
:1012E800042031F059FFBFE70748FFF7E1F94FF055
:1012F800FF30E8E74860002058600020646600205E
:101308006C65002000600020042B000810B584B034
:101318004FF0B0439A6C42F004029A649A6C02F05F
:1013280004020392039A9A6C42F001029A649B6C3D
:1013380003F001030293029B002211460B2021F0C7
:1013480069FD0B2021F098FD23F06CFDFFF77CFF71
:101358001EF0E8FA094C00230093094B01224FF0D4
:10136800FF31204623F06EFD44F62061204623F02D
:101378009BFE204623F046FE04B010BD7866002090
:101388009914000800B583B0012813D0022823D08F
:10139800154B00221A70154B1B78D3B91448FFF768
:1013A800B1F91448FFF7AEF9FFF7B0FF124B01226D
:1013B8001A700EE000218DF800108DF801100191CF
:1013C80068461EF0D9FB084B01221A700B48FFF73C
:1013D80099F903B05DF804FB034B01221A70084821
:1013E800FFF790F9F5E700BF5F6600205E66002012
:1013F800242B0008342B000885600020442B0008AB
:10140800582B000800B583B01EF0C0FD30B9184A4B
:101418001378DBB200211170012B02D003B05DF804
:1014280004FB144B1B78002BF8D1134B1B78CBB95A
:10143800124B1B7813B91FF00DF8EFE7FF210020BE
:101448002BF0DAFA0E4B18700E48FFF731F90E4AF6
:101458006B4692E8030083E80300002118461EF05B
:101468008BFBDBE70948FFF723F9FFF733FD00BFE4
:10147800606600205F6600205E660020E4020020AF
:101488006C6500206C2B000820290008802B0008C0
:1014980008B52CF0C7FE88B9094B1B784BB1094B2E
:1014A80001221A70084B1B78934207D1FFF7AAFF55
:1014B80004E00648FFF7FCF81EF034FA08BD00BF48
:1014C800746600206066002085600020A02B00085C
:1014D800026852E8003F23F4907342E80031002983
:1014E800F6D1026802F1080353E8003F23F0805365
:1014F80023F00103083242E800310029F1D1C36E1C
:10150800012B06D02023C0F888300023C366036768
:101518007047026852E8003F23F0100342E80031A8
:101528000029F6D1EEE7E8B138B505462423C0F81E
:1015380084300268136823F00103136003680024F1
:101548001C6003685C6003689C60FFF7EBFAC5F8F1
:101558008C40C5F88440C5F88840EC6685F8804022
:10156800204638BD01207047704708B5026852E828
:10157800003F23F0400342E800310029F6D1202340
:10158800C0F8843000234367FFF7EEFF08BD7047BB
:1015980008B5806A0023A0F85E30A0F85630FFF73F
:1015A800F6FF08BD7047000010B50446226852E8EF
:1015B800003F23F4907342E800310029F6D12268F5
:1015C80002F1080353E8003F23F0805323F001039E
:1015D800083242E800310029F1D1E36E012B1CD01A
:1015E80023689A6812F0400F35D0226802F1080388
:1015F80053E8003F23F04003083242E80031002955
:10160800F3D1E36F9BB11B4A9A63E06F2BF064F848
:1016180070B3E06F836B98472AE0226852E8003F76
:1016280023F0100342E800310029F6D1D8E700235F
:10163800A4F85E30A36522680F21116221688A69C7
:1016480042F008028A612022C4F88820E366204616
:10165800FFF7A8FF0CE00022A4F85E20A2650F2186
:1016680019622023C4F88830E2662046FFF79AFF03
:10167800002010BD8116000808B5806A0022A0F875
:101688005E2003680F21196201688B6943F0080323
:101698008B612023C0F88830C266FFF783FF08BD3E
:1016A8007047000070B504460168CB6908688D680A
:1016B80040F60F021A4008D113F0200F05D010F0A1
:1016C800200F34D115F0805F31D12AB1954A2A40D4
:1016D80033D1954E304230D1E26E012A00F0C380FA
:1016E80013F4801F03D015F4800F40F05B8113F0D2
:1016F800800F07D010F0800F40F05B8115F4000FC9
:1017080040F0578113F0400F03D010F0400F40F025
:10171800578113F4000F03D010F0804F40F054812C
:1017280013F0807F02D00028C0F2528170BD236F71
:10173800002BFBD020469847F8E713F0010F09D09B
:1017480010F4807F06D001260E62D4F88C10314345
:10175800C4F88C1013F0020F0BD015F0010F08D04D
:10176800216802260E62D4F88C1041F00401C4F8F6
:101778008C1013F0040F0BD015F0010F08D021685E
:1017880004260E62D4F88C1041F00201C4F88C10C3
:1017980013F0080F0BD010F0200F00D13AB12268D7
:1017A80008211162D4F88C200A43C4F88C2013F461
:1017B800006F0CD010F0806F09D022684FF40061E0
:1017C8001162D4F88C2042F02002C4F88C20D4F89E
:1017D8008C20002AAAD013F0200F09D010F0200F77
:1017E80002D115F0805F03D0236F0BB120469847D4
:1017F800D4F88C2023689B6813F0400F02D112F0B4
:10180800280F29D02046FFF763FE23689B6813F052
:10181800400F1DD0226802F1080353E8003F23F06F
:101828004003083242E800310029F3D1E36F5BB18D
:101838003E4A9A63E06F2AF04FFF00283FF476AFE4
:10184800E06F836B984771E72046FFF7A0FE6DE7CE
:101858002046FFF79CFE69E72046FFF798FE002325
:10186800C4F88C3062E713F0100F3FF439AF10F072
:10187800100F3FF435AF10230B6223689B6813F0F9
:10188800400F55D0E26F13685B689BB2002B3FF4A2
:101898004DAFB4F85C1099427FF648AFA4F85E30BB
:1018A80013681B6813F0200F31D1226852E8003FFB
:1018B80023F4807342E800310029F6D1226802F14E
:1018C800080353E8003F23F00103083242E80031DF
:1018D8000029F3D1226802F1080353E8003F23F0FE
:1018E8004003083242E800310029F3D12023C4F82C
:1018F80088300023E366226852E8003F23F0100393
:1019080042E800310029F6D1E06F2AF0AFFEB4F8C2
:101918005C10B4F85E309BB2C91A89B22046FFF752
:10192800BFFE03E70100001020010004991500081C
:10193800B4F85C10B4F85E309BB2C91A89B2B4F836
:101948005E309BB2002B3FF4F1AE00293FF4EEAEBF
:10195800226852E8003F23F4907342E800300028E0
:10196800F6D1226802F1080353E8003F23F08053C0
:1019780023F00103083242E800300028F1D1202387
:10198800C4F888300023E3662367226852E8003FE2
:1019980023F0100342E800300028F6D12046FFF774
:1019A8007FFEC3E64FF480130B62204600F0F2FE80
:1019B800BCE6636F002B3FF4B9AE20469847B5E606
:1019C8002046FFF7D2FDB1E6204600F0E5FEADE681
:1019D800204600F0E0FEA9E608B5B0F86030D0F87F
:1019E8008820222A05D00268936943F0080393618E
:1019F80008BD0268516ADBB2826D0B401370836DBB
:101A080001338365B0F85E309BB2013B9BB2A0F80E
:101A18005E30B0F85E309BB2002BE9D1026852E824
:101A2800003F23F4907342E800310029F6D10268A0
:101A380002F1080353E8003F23F00103083242E8AB
:101A480000310029F3D12023C0F888300023036730
:101A5800C36E012B16D10023C366026852E8003F0B
:101A680023F0100342E800310029F6D10368DA694F
:101A780012F0100F01D010221A62B0F85C10FFF7B4
:101A88000FFEB5E7FEF7F0FFB2E708B5B0F8602043
:101A9800D0F88830222B05D00268936943F00803F8
:101AA800936108BD03685B6A816D13400B80836D89
:101AB80002338365B0F85E309BB2013B9BB2A0F85D
:101AC8005E30B0F85E309BB2002BEAD1026852E873
:101AD800003F23F4907342E800310029F6D10268F0
:101AE80002F1080353E8003F23F00103083242E8FB
:101AF80000310029F3D12023C0F888300023036780
:101B0800C36E012B16D10023C366026852E8003F5A
:101B180023F0100342E800310029F6D10368DA699E
:101B280012F0100F01D010221A62B0F85C10FFF703
:101B3800B7FDB6E7FEF798FFB3E700002DE9F843D5
:101B4800B0F860600368DD69D3F80090D3F80880C6
:101B5800D0F88820222A05D09A6942F008029A61B2
:101B6800BDE8F8830446B0F8687008E0D4F88C3013
:101B7800002B4CD1B4F85E309BB2002B4ED0002F16
:101B880000F0878015F0200F00F083802368596AE1
:101B9800F3B2A26D0B401370A36D0133A365B4F8C3
:101BA8005E309BB2013B9BB2A4F85E302368DD69CE
:101BB80015F0070FDED015F0010F09D019F4807F5A
:101BC80006D001221A62D4F88C301343C4F88C3042
:101BD80015F0020F0BD018F0010F08D0236802226D
:101BE8001A62D4F88C3043F00403C4F88C3015F032
:101BF800040FBBD018F0010FB8D0236804221A6272
:101C0800D4F88C3043F00203C4F88C30AEE7204699
:101C1800FFF7BDFC0023C4F88C30ABE7226852E81C
:101C2800003F23F4807342E800310029F6D122688E
:101C380002F1080353E8003F23F0805323F0010327
:101C4800083242E800310029F1D12023C4F8883055
:101C580000232367E36E012B03D02046FEF704FF21
:101C68008DE70023E366226852E8003F23F0100363
:101C780042E800310029F6D12368DA6912F0100F22
:101C880001D010221A62B4F85C102046FFF708FD54
:101C980075E7B4F85E309BB2002B3FF461AFB4F83F
:101CA80068209A427FF65CAF226802F1080353E885
:101CB800003F23F08053083242E800310029F3D175
:101CC800054B2367226852E8003F43F0200342E8AF
:101CD80000310029F6D143E7E11900082DE9F8435E
:101CE800B0F860600368DD69D3F80090D3F8088025
:101CF800D0F88820222A05D09A6942F008029A6111
:101D0800BDE8F8830446B0F8687008E0D4F88C3071
:101D1800002B4BD1B4F85E309BB2002B4DD0002F76
:101D280000F0868015F0200F00F0828023685B6A3F
:101D3800A26D33401380A36D0233A365B4F85E30FF
:101D48009BB2013B9BB2A4F85E302368DD6915F0B5
:101D5800070FDFD015F0010F09D019F4807F06D0E6
:101D680001221A62D4F88C301343C4F88C3015F071
:101D7800020F0BD018F0010F08D0236802221A6254
:101D8800D4F88C3043F00403C4F88C3015F0040FF9
:101D9800BCD018F0010FB9D0236804221A62D4F815
:101DA8008C3043F00203C4F88C30AFE72046FFF7CD
:101DB800EEFB0023C4F88C30ACE7226852E8003F01
:101DC80023F4807342E800310029F6D1226802F139
:101DD800080353E8003F23F0805323F0010308323F
:101DE80042E800310029F1D12023C4F888300023CB
:101DF8002367E36E012B03D02046FEF735FE8EE7FE
:101E08000023E366226852E8003F23F0100342E80B
:101E180000310029F6D12368DA6912F0100F01D0D9
:101E280010221A62B4F85C102046FFF739FC76E7F6
:101E3800B4F85E309BB2002B3FF462AFB4F8682070
:101E48009A427FF65DAF226802F1080353E8003F2B
:101E580023F08053083242E800310029F3D1064BC1
:101E68002367226852E8003F43F0200342E800312C
:101E78000029F6D144E700BF931A000870B504465C
:101E8800016883680269134342691343C2691343B3
:101E980008689D4A024013430B602268536823F484
:101EA8004053E1680B435360A1692268974B9A42FB
:101EB80001D0236A1943936823F06E4323F43063F7
:101EC8000B4393602268D36A23F00F03616A0B43C4
:101ED800D36223688E4A93421CD08E4A934231D0F3
:101EE8008A4A93424BD0102288498B4268D0E069D5
:101EF800B0F5004F00F0A580082A00F21F81DFE846
:101F080012F0D300F500D1001D01F8001D011D01DC
:101F18001D01FB004FF0B042D2F8882002F0030206
:101F280042F44032A2F54032032A09D8DFE802F031
:101F380002043C060122D7E70422D5E70822D3E7AA
:101F48001022D1E74FF0B042D2F8882002F00C02FC
:101F580042F44022A2F540220C2A0ED8DFE802F013
:101F6800070D0D0D090D0D0D260D0D0D0B00002291
:101F7800BAE70422B8E70822B6E71022B4E74FF020
:101F8800B042D2F8882002F44062B2F5006F0FD058
:101F980005D87AB1B2F5806F0ED10422A4E7B2F564
:101FA800406F0BD108229FE702229DE702229BE7A0
:101FB800022299E7002297E7102295E7102293E77B
:101FC800082A00F29C80DFE802F0089A3A9A379AC9
:101FD8009A9A05004FF4004004E024F073FA0028B0
:101FE80000F08F80626A4C4B33F81220B0FBF2F39A
:101FF800656805EB4501994200F29480B3EB053F13
:1020080000F292800026334631461CF03DFC09025E
:1020180041EA106100026B08C0182A46334641F1B4
:1020280000011CF031FCA0F540723C4B9A427DD86F
:102038002368D860304650E023F034FECFE73848B4
:10204800D0E7082A74D8DFE802F0072705732A7357
:1020580073730B00324803E024F034FA002869D087
:10206800626A2D4B33F81230B0FBF3F06268530804
:1020780003EB4000B0FBF2F080B2A0F110024FF683
:10208800EF739A4258D820F00F03C0F34200184368
:102098002368D860002020E024F024FADEE723F04B
:1020A80001FEDBE71E4803E024F00CFA002847D0C5
:1020B800626A194B33F81230B0FBF3F0636800EB37
:1020C8005300B0FBF3F080B2A0F110024FF6EF73AB
:1020D8009A4237D82368D86000200123A4F86A30D0
:1020E800A4F8683000232367636770BD24F0FAF909
:1020F800DCE723F0D7FDD9E74FF40040D8E701200B
:10210800EBE70020E9E700BFF369FFCF008000405C
:102118000038014000440040B02B0008FFFC0F00CD
:102128000024F4000120D8E70120D6E70120D4E7F5
:102138000120D2E70020D0E70120CEE70120CCE73C
:102148000020CAE70120C8E7836A13F0010F06D010
:102158000268536823F40033C16A0B435360836AEF
:1021680013F0020F06D00268536823F48033016B22
:102178000B435360836A13F0040F06D00268536858
:1021880023F48023416B0B435360836A13F0080FD9
:1021980006D00268536823F40043816B0B435360F5
:1021A800836A13F0100F06D00268936823F48053F3
:1021B800C16B0B439360836A13F0200F06D002684B
:1021C800936823F40053016C0B439360836A13F004
:1021D800400F0AD00268536823F48013416C0B4304
:1021E8005360436CB3F5801F0BD0836A13F0800FE4
:1021F80006D00268536823F40023C16C0B43536074
:1022080070470268536823F4C003816C0B43536022
:10221800EBE72DE9F84305460F4616469946DDF8E3
:1022280020802C68E46937EA04030CBF4FF0010CE6
:102238004FF0000CB44557D1B8F1FF3FF1D023F06F
:1022480005FBA0EB090040452FD8B8F1000F2CD0B2
:102258002B681A6812F0040FE3D0DA6912F4006FE1
:10226800DFD04FF400621A622A6852E8003F23F474
:10227800D07342E800310029F6D12A6802F1080338
:1022880053E8003F23F00103083242E800310029F7
:10229800F3D12023C5F88430C5F88830C5F88C30D0
:1022A800002385F8803003201FE02A6852E8003FA9
:1022B80023F4D07342E800310029F6D12A6802F1EC
:1022C800080353E8003F23F00103083242E80031D5
:1022D8000029F3D12023C5F88430C5F888300023BD
:1022E80085F88030032000E00020BDE8F8832DE960
:1022F800F04182B01E46D0F88430202B58D10446D5
:102308000D469046002957D0002A57D090F88030C3
:10231800012B55D0012380F880300023C0F88C3081
:102328002123C0F8843023F091FA0746A4F854809A
:10233800A4F85680A368B3F5805F05D04FF0000875
:10234800002384F8803014E0236913B14FF00008AB
:10235800F6E7A8460025F3E738F8023B2268C3F3FE
:1023680008039362B4F8562092B2013A92B2A4F8E4
:102378005620B4F856309BB273B100963B46002203
:1023880080212046FFF745FFE0B9002DE4D015F87D
:10239800012B23689A62E5E700963B46002240211C
:1023A8002046FFF736FF78B92023C4F8843000E0D0
:1023B800022002B0BDE8F0810120FAE70120F8E729
:1023C8000220F6E70320F4E70320F2E72DE9F043C3
:1023D80083B01E46D0F88830202B40F08180044618
:1023E8000D46904600297FD0002A7FD090F8803093
:1023F800012B7DD0012380F880300023C0F88C3079
:102408002222C0F88820C36623F020FA0746A4F8E1
:102418005C80A4F85E80A368B3F5805F06D0A3B99A
:10242800226972B9FF22A4F8602014E0226922B957
:1024380040F2FF12A4F860200DE0FF22A4F860200B
:1024480009E07F22A4F8602005E0B3F1805F0DD099
:102458000022A4F86020B4F86080B3F5805F0FD044
:102468004FF00009002384F880301EE022691AB971
:102478007F22A4F86020EEE73F22A4F86020EAE774
:10248800236913B14FF00009ECE7A9460025E9E7F5
:1024980023685B6A08EA030329F8023BB4F85E2064
:1024A80092B2013A92B2A4F85E20B4F85E309BB2C0
:1024B8008BB100963B46002220212046FFF7A9FE5B
:1024C800C0B9002DE4D023685A6A5FFA88F3134034
:1024D80005F8013BE2E72023C4F88830002000E03B
:1024E800022003B0BDE8F0830120FAE70120F8E7F5
:1024F8000220F6E70320F4E730B583B00446002352
:10250800C0F88C3023F0A2F905462268126812F050
:10251800080F0FD123681B6813F0040F18D120236C
:10252800C4F88430C4F888300020E06684F880005D
:1025380003B030BD6FF07E430093034600224FF492
:1025480000112046FFF765FE0028E3D00320EFE7DF
:102558006FF07E4300932B4600224FF48001204603
:10256800FFF757FE0028DAD00320E1E778B310B56B
:102578000446D0F884300BB32423C4F8843022688E
:10258800136823F0010313602046FFF777FC012846
:1025980013D0A36ABBB92268536823F490435360ED
:1025A8002268936823F02A0393602268136843F033
:1025B800010313602046FFF79FFF10BD80F88030AD
:1025C800FEF762FAD8E72046FFF7BEFDE3E70120F1
:1025D8007047000010B48165A0F85C20A0F85E2068
:1025E800002303678368B3F5805F06D0A3B9036946
:1025F80073B9FF23A0F8603014E0036923B940F2EF
:10260800FF13A0F860300DE0FF23A0F8603009E068
:102618007F23A0F8603005E0B3F1805F2DD0002360
:10262800A0F860300023C0F88C302223C0F888302E
:10263800016801F1080353E8003F43F00103083142
:1026480041E80034002CF3D1436EB3F1005F1ED093
:102658008368B3F5805F43D0244B0367002380F879
:102668008030026852E8003F43F4907342E800313A
:102678000029F6D1002010BC704703691BB97F23DD
:10268800A0F86030CEE73F23A0F86030CAE7B0F882
:1026980068309342DCD88368B3F5805F1AD0144B56
:1026A8000367002380F88030026852E8003F43F453
:1026B800807342E800310029F6D1026802F108036C
:1026C80053E8003F43F08053083242E800310029C4
:1026D800F3D1CFE70369002BE1D1064B0367E0E7AD
:1026E8000369002BB8D1044B0367B7E7E119000869
:1026F800451B0008E51C0008931A000838B5D0F8F7
:102708008830202B17D1C1B1CAB10023C366036832
:102718000C4CA3420CD05B6813F4000F08D004687B
:1027280054E8003F43F0806344E80035002DF6D1BB
:10273800FFF750FF00E0022038BD0120FCE7012030
:10274800FAE700BF00800040436E2BB90123A0F8D0
:102758006A30A0F86830704730B403689A68C2F3EA
:1027680042629968490F094D6B5CDB00084C615C5B
:1027780093FBF1F3A0F86A30AB5CDB00A25C93FB3F
:10278800F2F3A0F8683030BC704700BFD02B0008C7
:10279800C82B000870477047704790F88030012BAD
:1027A80018D0012380F880302423C0F884300368CF
:1027B8001A68196821F00101196022F000520023FB
:1027C800436601680A602022C0F8842080F88030BF
:1027D800184670470220704738B590F88030012BB2
:1027E8001DD00446012380F880302423C0F88430AB
:1027F80003681D681A6822F001021A60026893686B
:1028080023F0604319439160FFF79EFF23681D6022
:102818002023C4F88430002084F8800038BD0220CA
:10282800FCE738B590F88030012B1DD00446012311
:1028380080F880302423C0F8843003681D681A6843
:1028480022F001021A600268936823F0606319435A
:102858009160FFF779FF23681D602023C4F8843056
:10286800002084F8800038BD0220FCE70D4885462A
:102878001EF00CFF0C480D490D4A002302E0D45805
:10288800C4500433C4188C42F9D30A4A0A4C0023B2
:1028980001E013600432A242FBD3FDF769FCFDF7A7
:1028A800FBFDFEE700FC00200060002068600020BF
:1028B800205000086860002090660020FEE70000B5
:1028C80030B50B4D044614F8013B5A5D02F0030283
:1028D800012A11F8012BA85C00F0030008BF20337F
:1028E800012808BF2032981A01D1002AEBD130BD47
:1028F800D92B0008F8B500BFF8BC08BC9E46704745
:10290800F8B500BFF8BC08BC9E4670470000000040
:10291800282900082C290008010100006C65002006
:1029280061742B0041542B0048414C5F554152546F
:102938005F526563656976655F4954206661696CB5
:102948000D0A000061742B76657273696F6E000062
:1029580061742B7665723D3F0000000061742B6244
:102968006F6F747665723D3F0000000061742B75CF
:10297800706461746500000061742B72756E0000EC
:1029880053746F7020426F6F74204D6F64650D0A29
:10299800000000004A756D70206661696C65642EE0
:1029A800204E6F206C6567616C206170706C696384
:1029B8006174696F6E2064657465637465642E0D57
:1029C8000A00000061742B726573657400000000D2
:1029D80061742B626F6F7473746174757300000097
:1029E800426F6F74204D6F64650D0A0061742B6629
:1029F800756F74610000000046554F544120737490
:102A08006172740D0A00000061742B6A6F696E00B0
:102A18004154206E6F7420737570706F72742E0D30
:102A28000A0000003C424F4F54204D4F44453E0D94
:102A38000A00000046756F746120636F6C64207330
:102A4800746172742C206175746F206A6F696E0DE1
:102A58000A0000005245434549564544202020209D
:102A68003A20253564202F20253564204672616779
:102A78006D656E74730D0A00202020202020202010
:102A8800202020202020253564202F202535642073
:102A980042797465730D0A004C4F5354202020204E
:102AA800202020203A2020202020202025376420A4
:102AB800467261676D656E74730D0A004F6E4672DB
:102AC8006167446F6E650D0A000000007265626FF1
:102AD8006F740D0A0000000066756F7461206A6FDC
:102AE800696E65640D0A000066756F7461206A6F0F
:102AF800696E206661696C65640D0A004C6F5261ED
:102B08004D6163496E697469616C697A6174696F52
:102B18006E206661696C65640D0A000046554F5465
:102B2800412054696D656F75740D0A0052657472A1
:102B3800792046554F54410D0A0000007377697497
:102B4800636820636C61737320620D0A00000000E3
:102B580073776974636820636C61737320630D0A0B
:102B68000000000073656E64696E67207061636BB6
:102B780065740D0A0000000073656E64696E672055
:102B88006672616764617461626C6F636B617574AE
:102B9800687265710D0A00007265747279206A6F37
:102BA800696E0D0A00000000010002000400060022
:102BB80008000A000C0010002000400080000001FE
:102BC80008040204080101010101010307010000D2
:102BD80000202020202020202020282828282820E5
:102BE80020202020202020202020202020202020DD
:102BF8002088101010101010101010101010101045
:102C08001004040404040404040404101010101034
:102C180010104141414141410101010101010101FE
:102C28000101010101010101010101011010101050
:102C380010104242424242420202020202020202D0
:102C48000202020202020202020202021010101024
:102C5800200000000000000000000000000000004C
:102C6800000000000000000000000000000000005C
:102C7800000000000000000000000000000000004C
:102C8800000000000000000000000000000000003C
:102C9800000000000000000000000000000000002C
:102CA800000000000000000000000000000000001C
:102CB800000000000000000000000000000000000C
:102CC80000000000000000000000000000000000FC
:082CD8000000000000000000F4
:082CE0005D0100080000000086
:082CE8003901000800000000A2
:105000005255495F424F4F545F302E385F53544DD5
:105010003332574C45354343000000000000000088
:10502000000000000000000000000000030F000866
:10503000000000000B0F00080D0F00080F0F000804
:10504000110F0008130F0008150F00088D1300083A
:10505000170F0008190F0008391000082110000868
:10506000A90F0008E10F0008000000000000000088
:10507000010F0008030F00089D0F0008B910000879
:0850800051100008910F000817
:040000050800287552
:00000001FF
