:020000040800F2
:1000000000FC0020FD270008A10800082D090008B9
:100010002F0900083109000833090008000000001A
:10002000000000000000000000000000350900088A
:100030003709000800000000390900083B090008E2
:100040004D2800084D2800086D0900084D280008BB
:100050004D2800084D2800084D2800084D280008AC
:100060004D2800084D2800084D2800084D2800089C
:100070004D2800084D2800084D2800084D2800088C
:100080004D2800084D2800084D2800084D2800087C
:10009000000000004D2800084D2800084D280008E9
:1000A0004D2800084D2800084D2800084D2800085C
:1000B0004D2800084D2800084D2800084D2800084C
:1000C0004D2800084D2800084D2800084D2800083C
:1000D0004D2800087D0900084D2800084D2800081B
:1000E0004D2800084D2800084D0900084D2800083B
:1000F0004D28000800000000000000004D28000806
:100100004D2800084D2800085D0900084D2800080A
:100110004D2800084D2800084D2800084D280008EB
:100120004D2800084D2800084D2800084D280008DB
:100130004D2800084D28000810B5054C237833B928
:10014000044B13B10448AFF300800123237010BDAA
:1001500068600020000000008428000808B5034BF8
:100160001BB103490348AFF3008008BD0000000045
:100170006C6000208428000870B50D4D0D4C641B88
:10018000A4100026A64209D10B4D0C4C02F07AFBBC
:10019000641BA4100026A64205D170BD55F8043B8F
:1001A00098470136EEE755F8043B98470136F2E7E9
:1001B000482C0008482C0008482C00084C2C00084B
:1001C00002440346934200D1704703F8011BF9E74C
:1001D00030B593B0002102913C2203A8FFF7F0FF55
:1001E00001226349634802F051FA002863D0624853
:1001F00000F024FA5FE0002418E001255F4B0022A4
:100200001A705F4B1B78012B30D0002D33D15B4B24
:100210001B78002BF5D0631C9BB212AA1444544ADD
:10022000127804F8402C3F2BE5D81C46631E12AA16
:10023000134413F8403C0D2B01D00A2BDED1514A58
:100240006B4692E8030083E8030003224E4902A8AC
:100250003CF028F90028D0D003224C4902A83CF0F9
:1002600021F908B90125C9E70024C7E730F064FD8A
:1002700020F092FFC9E7013C12AB1C44002304F8B4
:10028000403C434902A802F0E3FA48B1414902A8C0
:1002900002F0DEFA20B1404902A802F0D9FA68B9AA
:1002A0003E4800F0CBF93E4800F0C8F9402200215A
:1002B00002A8FFF785FF00252C46A8E7394902A8C8
:1002C00002F0C6FAE8B1384902A802F0C1FA28B330
:1002D000364902A802F0BCFA48B3354902A802F038
:1002E000B7FA002830D0334902A802F0B1FA78B347
:1002F000314902A802F0ACFA002834D120F004FB06
:10030000D4E72E4B01221A704FF001312C4800F037
:100310004DFA184801F010F913B030BD294800F02B
:100320008DF900F09FFA284800F088F9BEE7BFF386
:100330004F8F2649CA6802F4E062254B1343CB6015
:10034000BFF34F8F00BFFDE7224800F077F9ADE71C
:10035000214800F073F900F0A1FF0123084A13704F
:100360001E4A1370A2E71E4800F068F99EE700BF1E
:1003700086600020D4600020B82800088860002033
:1003800084600020A0280008B0280008B4280008D5
:10039000D4280008E0280008EC28000800500008D5
:1003A000882A0008FC2800080829000854290008A9
:1003B000602900087C29000898290008876000202F
:1003C00004400008102900082429000800ED00E07E
:1003D0000400FA05702900088829000885600020BB
:1003E000A029000808B5064B1B7813B1012B03D0D8
:1003F00008BDFFF7EDFEFBE700F00AFAF8E700BFE3
:100400008760002010B59AB04822002108A8FFF7A5
:10041000D7FE002402940394049405940694079450
:1004200028F0EEFF4FF0B042D2F8903023F01803DE
:10043000C2F8903002F58062136823F4C06343F47D
:1004400000731360136803F4C0630193019B2E23B0
:10045000089381230B93012310934FF480720C9225
:10046000119440220D92B022129213940F940E9385
:1004700008A826F077FC70B94F230293002303935A
:100480000493059306930793022102A826F00CFF1C
:1004900018B91AB010BD22F0D1F822F0CFF8000040
:1004A00008B5234B5B68B3F1043F20D1214B4FF0DB
:1004B00000629A60204B01221A70204B00221A70B1
:1004C00000F064FA1A4B1B68B3F15A3F16D0184B70
:1004D0001B68B3F15A3F22D1194800F0AFF8144B12
:1004E0005B68B3F1043F20D0FFF77CFFFCE700F02E
:1004F000C9FD26F06BF9FFF785FFE1E7114B1A689C
:10050000114B1340B3F1005FE1D1094B5B68B3F1CC
:10051000013FDCD000F02EF900F036F9D7E74FF0BC
:100520005A31034800F042F9D6E700F019FEDBE744
:100530000040000800ED00E084600020876000209B
:10054000B4290008006000080000FE2F10B58446A2
:100550000378302B03D000242046234654E0437810
:10056000782B35D0582B36D00024204623464BE03C
:100570002401A3F1300E5FFA8EFEBEF1090F21D8DF
:10058000303B1C4401300A2815D81CF8003093B1C8
:10059000A3F14102D2B2052AEAD9A3F1610E5FFAB2
:1005A0008EFEBEF1050FE3D9A3F1300E5FFA8EFE89
:1005B000BEF1090FDCD91CF80030002B3BD10C60D8
:1005C000012010BD052A01D8373BDAE7573BD8E7B1
:1005D00000240220D7E700240220D4E76B2A1ED093
:1005E0004B2A1CD06D2A20D04D2A1ED0A2F1300EED
:1005F0005FFA8EFEBEF1090FE3D804EB840402EB30
:100600004402A2F1300401330A2BDAD80028D8D1F1
:100610001CF80320002AE1D10C600120F3E7002B35
:10062000E0D0A4020C600120EDE7002BDED0240511
:100630000C600120E7E70020C3E7000008B5014691
:10064000002201E0013292B28B5C002BFAD16423CC
:10065000014801F014FE08BDD460002000B583B04D
:100660008DF80700094BD3F88430A02B09D0642300
:1006700001220DF10701054801F001FE03B05DF80C
:1006800004FB024B2022C3F88420F0E7D460002052
:100690000FB400B5ADF5037D84AB53F8042B019383
:1006A0004FF4007102A825F03DFD02A81EF0A8FC41
:1006B000642382B202A9044801F0E1FD0DF5037D37
:1006C0005DF804EB04B07047D460002000F178407E
:1006D000C00A704710B584B004460023039329F084
:1006E00069FA0E4B4FF400421A612046FFF7EEFF05
:1006F000C4F1006303F5E833DB0A022200920190A3
:10070000029303A9684629F069FC28B9002429F05E
:1007100063FA204604B010BD0124F8E700400058F9
:10072000F0B583B005460C46174629F043FA00267B
:1007300002E0083508340236BE4215D26B46206806
:10074000616803C3DDE900232946012029F0B0FADE
:100750000028F0D128686A680099019B9A4208BF76
:100760008842E6D0032400E0002429F035FA204630
:1007700003B0F0BD08B5034800F09DFE25F0DAFF98
:1007800008BD00BFD460002008B5054A536805497C
:100790000B6005490B60126882F30888984708BD12
:1007A000006000088C6000209060002070B588B068
:1007B00004460D4600230793134ED6E90023CDE9E6
:1007C000042329F0F7F9114B4FF400421A61304627
:1007D000FFF77CFF0223019302900123039307A9F3
:1007E00001A829F0FBFB50B9B4420AD00595DDE918
:1007F00004230549012029F05BFA29F0EDF908B03E
:1008000070BD0495F3E700BF0040000800400058A9
:1008100000B583B00023019301A800F035FA10B1B0
:1008200003B05DF804FB4FF05A310A48FFF7BEFFF2
:100830004FF002310848FFF7B9FF084B1A68084B20
:100840001340B3F1005FEBD1FFF794FFFFF79CFF7C
:10085000E6E700BF00400008044000080060000810
:100860000000FE2F08B54FF05A310A48FFF79EFFEF
:10087000094B1A68094B1340B3F1005F00D008BD63
:10088000044B5B68B3F1013FF9D0FFF773FFFFF74B
:100890007BFFF4E700400008006000080000FE2F26
:1008A0004FF0B0439A6B4FF0FF319963DA6BD96325
:1008B0009A6B00229A63D86BDA63186C1964186C0F
:1008C0001A64586C5964586C5A64986A9962986AA8
:1008D0009A62D86AD962D86ADA62186B1963196B9E
:1008E0001A635A6C42F001025A645A6C22F00102F7
:1008F0005A64D3F8902042F48032C3F89020D3F8A1
:10090000902022F48032C3F89020BFF34F8F054926
:10091000CA6802F4E062044B1343CB60BFF34F8F0D
:1009200000BFFDE700ED00E00400FA0570477047E6
:100930007047FEE770477047704708B525F05CFFC9
:1009400025F066FF00F078FA08BD000008B50248FF
:1009500027F048FB08BD00BFD844002008B5024876
:1009600029F025FE08BD00BFD002002008B50248CE
:1009700028F072FB08BD00BFD844002008B502482B
:1009800000F058FE08BD00BFD460002008B517482D
:10099000174B03604FF4E133436000238360C3606F
:1009A00003610C2242618361C3610362436283621B
:1009B00001F0A4FD70B900210C4801F0D5FE60B92A
:1009C00000210A4801F0F5FE50B9084801F0ADFEDB
:1009D00048B908BD21F032FEEDE721F02FFEEFE728
:1009E00021F02CFEF1E721F029FEF2E7D46000208F
:1009F0000044004008B5074B1B78012B03D1064B80
:100A000001221A7008BD01220449054801F03EFE8A
:100A1000F5E700BF87600020886000208660002026
:100A2000D460002010B596B00446002111911291B7
:100A3000139114911591382203A8FFF7C1FB226886
:100A40001E4B9A4201D016B010BD022303934FF4FF
:100A50004023059303A826F06FFE58BB4FF0B04328
:100A60009A6D42F400329A659A6D02F40032029255
:100A7000029ADA6C42F00102DA64DB6C03F00103E3
:100A80000193019B0C2311930223129301231393CF
:100A9000002414940723159311A94FF0904029F0D6
:100AA00039FE22462146252023F096F9252023F001
:100AB000C5F9C8E721F0C2FDD0E700BF00440040FF
:100AC00008B50268094B9A4200D008BD4FF0B04209
:100AD000936D23F4003393650C214FF0904029F07F
:100AE000CBFE252023F0B8F9EFE700BF004400401B
:100AF000BFF34F8F0549CA6802F4E062044B134309
:100B0000CB60BFF34F8F00BFFDE700BF00ED00E0FB
:100B10000400FA0541F4807106E080F4815080F011
:100B2000010011F4803F09D14000490011F4807F99
:100B300000D0013010F4803FF3D0EEE780B2704770
:100B400038B504464518002004E014F8011B80B2B3
:100B5000FFF7E0FFAC42F8D3002180B2FFF7DAFFE5
:100B60000021FFF7D7FF38BD2DE9F04182B00646DE
:100B70000C46154600230B60134601220DF10701B8
:100B8000404801F0EBFB8046002872D19DF8071029
:100B9000182919D84BB2002B48D0013917290FD882
:100BA000DFE801F048310E0C0E0E0E0E0E0E0E0E8A
:100BB0000E0E0E0E0E0E0E0E0E0E0E3400270AE056
:100BC0004FF00108002706E0412935D0612937D1CF
:100BD0004FF0020800279DF8073033707F2F49D966
:100BE0002B463A1DB11C274801F0B8FB804600286F
:100BF00045D1B278F378DB43DBB29A422AD04FF08A
:100C00000108002736E04FF48067E4E72B46012215
:100C10000DF107011B4801F0A1FBA8B99DF80730B1
:100C2000182B15D04FF001080027D4E74FF001082A
:100C30000027D0E78027CEE74FF002080027CAE759
:100C40004FF001080027C6E74FF001080027C2E770
:100C50000227C0E7F3191A795D7905EB02253946B9
:100C6000301DFFF76DFFA84204D04FF001080027A8
:100C700000E000272760404602B0BDE8F081002771
:100C8000F8E700BFD46000202DE9F04F89B0019053
:100C90004FF000084646DFF888B1C1464546C246D7
:100CA000BAF1000F40F0B880002E40F0B5805D4BE7
:100CB00000221A70574685E0079D3DB1022D0AD1EA
:100CC0000620FFF7CBFC3D4602267BE00620FFF71F
:100CD000C5FC012776E0544B9A78524B1B789A4218
:100CE0000BD1002B53D1504B1B79CBB90620FFF70A
:100CF000B5FC3D460127BA4664E01520FFF7AEFC7F
:100D00003D465FE00133494881540132197809B109
:100D10003F2AF7D945490020885401333A4608E074
:100D20003A46434BF2E7013308A8104400F8181C78
:100D300001321978202901D00F2AF4D908AB1A44BE
:100D4000002302F8183C06A902A8FFF7FFFB069A49
:100D5000384B9A4213D83248FFF7BCFC069B019AE5
:100D600013600620FFF77AFC4320FFF777FC2D4A3B
:100D70001378013313703D464FF0010922E018202B
:100D8000FFF76CFC1820FFF769FC0526E3E7AA08CB
:100D900027495846FFF7C4FC28B9079B9B44062007
:100DA000FFF75CFCE3E71820FFF758FC1820FFF77B
:100DB00055FC0426DBE71820FFF750FC1820FFF74E
:100DC0004DFC2646002F7FF46BAF002E7FF468AFFA
:100DD0004FF4FA7207A91448FFF7C6FE044600282C
:100DE0003FF46AAF0228E6D0B9F1000F00D0013518
:100DF000052D07D91820FFF731FC1820FFF72EFC2E
:100E00000226DFE74320FFF729FC08F10108B8F1CB
:100E10003B0FD7D9FFF76CFE304609B0BDE8F08F25
:100E2000006000086A650020646100209460002072
:100E3000686100200110030008B50A4BA3FB0023E2
:100E40001B0B43F6982202FB130343B9064B1B7896
:100E50002BB1064A1278934202D0044A137008BD9F
:100E6000FFF746FE73B2E7456A6500206B65002018
:100E7000BFF34F8F0549CA6802F4E062044B134385
:100E8000CB60BFF34F8F00BFFDE700BF00ED00E078
:100E90000400FA0570477047704770477047704705
:100EA000704770477047704770477047014B012289
:100EB0001A707047E4020020F8B505460F4600247A
:100EC00016E05B6993B1384698470FE09B696BB1B8
:100ED000384698470AE0DB690BB138469847104B13
:100EE00053F826301B6A0BB138469847013464B278
:100EF000032C13DC26460A4B53F82430002BF5D084
:100F0000032DF3D801A252F825F000BFC30E00084C
:100F1000CD0E0008D70E0008DF0E0008F8BD00BF98
:100F2000D003002008B501460320FFF7C5FF08BD28
:100F300008B501460020FFF7BFFF08BDF8B504461D
:100F40000E4615461F460A4601460748FFF7A0FB16
:100F500005FB06F205FB04F10448FFF799FB39464F
:100F60000348FFF795FBF8BDC4290008E8290008ED
:100F7000082A000808B50848FFF78AFB074B01223A
:100F80001A704FF002310648FFF710FC0548FFF7D2
:100F90007FFBFFF76DFF00BF2C2A00085E66002074
:100FA000044000083C2A000808B513460A461946C2
:100FB00000F1006000F5C04021F0F6F9002008BD06
:100FC00008B513460A46194600F1006000F5C04016
:100FD00021F094FA002008BD38B50446144824F0E6
:100FE00033FF38B92378012B11D021460220FFF7B7
:100FF00063FF38BD0E4D284624F096FF44F620616D
:10100000284625F033F8284624F0DEFFEAE7637827
:1010100033B9084B01221A700748FFF739FBE4E7A0
:10102000044B00221A700548FFF732FBDDE700BFD2
:101030007866002074660020482A0008582A0008B4
:1010400038B504460D4824F0FFFE50B9237F1BB18C
:101050000B4B5B6B03B1984721460120FFF72CFF38
:1010600038BD064D284624F05FFF44F6206128462F
:1010700024F0FCFF284624F0A7FFE7E7786600206D
:101080000060002008B50648064A121A06493BF0DF
:1010900019FA0648064A121A0021FFF791F808BD0E
:1010A00000000020D0020020C8CF0308D00200209A
:1010B000985E002008B5124B43F82010114A4A628E
:1010C00053F820201049916253F820200F49D16233
:1010D00053F820300E4A1A63032808D0084B53F8FF
:1010E00020305B68F2220B490020984708BD044B72
:1010F00053F820305B68F222064907489847F5E725
:10110000D0030020990E00089B0E00089D0E0008D9
:10111000FD0F02086C6500203860002010B520F03B
:1011200087F90446012020F07DF821460120FFF7D1
:10113000C1FF20F025FC0446022020F073F8214670
:101140000220FFF7B7FF20F03FFE0446032020F007
:1011500069F821460320FFF7ADFF002010BD000015
:1011600038B51649164830F0EBFC1FF0ECFB154C77
:10117000207021F053FF003818BF0120607021F06B
:1011800017FFA07021F06EFFE0700125257122F09D
:101190009DFA003818BF01206071F223A3710A4B39
:1011A000A360214609481FF0D9FEFFF7B7FF0848A2
:1011B00020F0FCFE074B1D7038BD00BF48600020CA
:1011C00058600020646600206C65002000600020EC
:1011D000386000205F66002010B51EF09EFE1FF0F4
:1011E00089FB21F08BFD10F0FF0435D0142C37D093
:1011F000152C39D0162C3BD01FF0A5FBC2B22149CB
:1012000021482EF0D9FBB8BB1FF09DFB1F4C20706E
:1012100021F004FF003818BF0120607021F0C8FEE3
:10122000A07021F01FFFE0700123237122F04EFA1D
:10123000003818BF01206071F223A371144BA36022
:10124000214614481FF08AFEFFF768FF1FF086FB57
:101250002EF08EFD002010BD012032F07FFFC5E78B
:10126000022032F07BFFC3E7032032F077FFC1E7B3
:10127000042032F073FFBFE70748FFF7DFF94FF0B4
:10128000FF30E8E7486000205860002064660020D6
:101290006C650020006000206C2A000810B584B046
:1012A0004FF0B0439A6C42F004029A649A6C02F0D8
:1012B00004020392039A9A6C42F001029A649B6CB6
:1012C00003F001030293029B002211460B2022F03F
:1012D00083FD0B2022F0B2FD24F086FDFFF77CFF9A
:1012E0001FF012FB094C00230093094B01224FF021
:1012F000FF31204624F088FD44F62061204624F08A
:10130000B5FE204624F060FE04B010BD78660020D3
:101310002114000800B583B0012813D0022823D07F
:10132000154B00221A70154B1B78D3B91448FFF7E0
:10133000AFF91448FFF7ACF9FFF7B0FF124B0122E9
:101340001A700EE000218DF800108DF80110019147
:1013500068461FF003FC084B01221A700B48FFF788
:1013600097F903B05DF804FB034B01221A7008489B
:10137000FFF78EF9F5E700BF5F6600205E6600208C
:101380008C2A00089C2A000885600020AC2A0008EE
:10139000C02A000800B583B01FF0EAFD30B9184A32
:1013A0001378DBB200211170012B02D003B05DF87D
:1013B00004FB144B1B78002BF8D1134B1B78CBB9D3
:1013C000124B1B7813B920F037F8EFE7FF2100200C
:1013D0002CF0F4FA0E4B18700E48FFF72FF90E4A56
:1013E0006B4692E8030083E80300002118461FF0D3
:1013F000B5FBDBE70948FFF721F9FFF739FD00BF2F
:10140000606600205F6600205E660020E402002027
:101410006C650020D42A0008A8280008E82A0008E3
:1014200008B52DF0E1FE88B9094B1B784BB1094B8B
:1014300001221A70084B1B78934207D1FFF7AAFFCD
:1014400004E00648FFF7FAF81FF05EFA08BD00BF97
:10145000746600206066002085600020082B00086C
:10146000026852E8003F23F4907342E800310029FB
:10147000F6D1026802F1080353E8003F23F08053DD
:1014800023F00103083242E800310029F1D1C36E94
:10149000012B06D02023C0F888300023C3660367E1
:1014A0007047026852E8003F23F0100342E8003121
:1014B0000029F6D1EEE7E8B138B505462423C0F897
:1014C00084300268136823F001031360036800246A
:1014D0001C6003685C6003689C60FFF7F1FAC5F864
:1014E0008C40C5F88440C5F88840EC6685F880409B
:1014F000204638BD01207047704708B5026852E8A1
:10150000003F23F0400342E800310029F6D12023B8
:10151000C0F8843000234367FFF7EEFF08BD704733
:1015200008B5806A0023A0F85E30A0F85630FFF7B7
:10153000F6FF08BD7047000010B50446226852E867
:10154000003F23F4907342E800310029F6D122686D
:1015500002F1080353E8003F23F0805323F0010316
:10156000083242E800310029F1D1E36E012B1CD092
:1015700023689A6812F0400F35D0226802F1080300
:1015800053E8003F23F04003083242E800310029CD
:10159000F3D1E36F9BB11B4A9A63E06F2CF07EF8A6
:1015A00070B3E06F836B98472AE0226852E8003FEF
:1015B00023F0100342E800310029F6D1D8E70023D8
:1015C000A4F85E30A36522680F21116221688A6940
:1015D00042F008028A612022C4F88820E36620468F
:1015E000FFF7A8FF0CE00022A4F85E20A2650F21FF
:1015F00019622023C4F88830E2662046FFF79AFF7C
:10160000002010BD0916000808B5806A0022A0F865
:101610005E2003680F21196201688B6943F008039B
:101620008B612023C0F88830C266FFF783FF08BDB6
:101630007047000070B504460168CB6908688D6882
:1016400040F60F021A4008D113F0200F05D010F019
:10165000200F34D115F0805F31D12AB1954A2A404C
:1016600033D1954E304230D1E26E012A00F0C38072
:1016700013F4801F03D015F4800F40F05B8113F04A
:10168000800F07D010F0800F40F05B8115F4000F41
:1016900040F0578113F0400F03D010F0400F40F09E
:1016A000578113F4000F03D010F0804F40F05481A5
:1016B00013F0807F02D00028C0F2528170BD236FEA
:1016C000002BFBD020469847F8E713F0010F09D014
:1016D00010F4807F06D001260E62D4F88C103143BE
:1016E000C4F88C1013F0020F0BD015F0010F08D0C6
:1016F000216802260E62D4F88C1041F00401C4F86F
:101700008C1013F0040F0BD015F0010F08D02168D6
:1017100004260E62D4F88C1041F00201C4F88C103B
:1017200013F0080F0BD010F0200F00D13AB122684F
:1017300008211162D4F88C200A43C4F88C2013F4D9
:10174000006F0CD010F0806F09D022684FF4006158
:101750001162D4F88C2042F02002C4F88C20D4F816
:101760008C20002AAAD013F0200F09D010F0200FEF
:1017700002D115F0805F03D0236F0BB1204698474C
:10178000D4F88C2023689B6813F0400F02D112F02C
:10179000280F29D02046FFF763FE23689B6813F0CB
:1017A000400F1DD0226802F1080353E8003F23F0E8
:1017B0004003083242E800310029F3D1E36F5BB106
:1017C0003E4A9A63E06F2BF069FF00283FF476AF42
:1017D000E06F836B984771E72046FFF7A0FE6DE747
:1017E0002046FFF79CFE69E72046FFF798FE00239E
:1017F000C4F88C3062E713F0100F3FF439AF10F0EB
:10180000100F3FF435AF10230B6223689B6813F071
:10181000400F55D0E26F13685B689BB2002B3FF41A
:101820004DAFB4F85C1099427FF648AFA4F85E3033
:1018300013681B6813F0200F31D1226852E8003F73
:1018400023F4807342E800310029F6D1226802F1C6
:10185000080353E8003F23F00103083242E8003157
:101860000029F3D1226802F1080353E8003F23F076
:101870004003083242E800310029F3D12023C4F8A4
:1018800088300023E366226852E8003F23F010030B
:1018900042E800310029F6D1E06F2BF0C9FEB4F820
:1018A0005C10B4F85E309BB2C91A89B22046FFF7CB
:1018B000BFFE03E70100001020010004211500080D
:1018C000B4F85C10B4F85E309BB2C91A89B2B4F8AF
:1018D0005E309BB2002B3FF4F1AE00293FF4EEAE38
:1018E000226852E8003F23F4907342E80030002859
:1018F000F6D1226802F1080353E8003F23F0805339
:1019000023F00103083242E800300028F1D12023FF
:10191000C4F888300023E3662367226852E8003F5A
:1019200023F0100342E800300028F6D12046FFF7EC
:101930007FFEC3E64FF480130B62204600F0F2FEF8
:10194000BCE6636F002B3FF4B9AE20469847B5E67E
:101950002046FFF7D2FDB1E6204600F0E5FEADE6F9
:10196000204600F0E0FEA9E608B5B0F86030D0F8F7
:101970008820222A05D00268936943F00803936106
:1019800008BD0268516ADBB2826D0B401370836D33
:1019900001338365B0F85E309BB2013B9BB2A0F887
:1019A0005E30B0F85E309BB2002BE9D1026852E89D
:1019B000003F23F4907342E800310029F6D1026819
:1019C00002F1080353E8003F23F00103083242E824
:1019D00000310029F3D12023C0F8883000230367A9
:1019E000C36E012B16D10023C366026852E8003F84
:1019F00023F0100342E800310029F6D10368DA69C8
:101A000012F0100F01D010221A62B0F85C10FFF72C
:101A10000FFEB5E7FEF7EEFFB2E708B5B0F86020BD
:101A2000D0F88830222B05D00268936943F0080370
:101A3000936108BD03685B6A816D13400B80836D01
:101A400002338365B0F85E309BB2013B9BB2A0F8D5
:101A50005E30B0F85E309BB2002BEAD1026852E8EB
:101A6000003F23F4907342E800310029F6D1026868
:101A700002F1080353E8003F23F00103083242E873
:101A800000310029F3D12023C0F8883000230367F8
:101A9000C36E012B16D10023C366026852E8003FD3
:101AA00023F0100342E800310029F6D10368DA6917
:101AB00012F0100F01D010221A62B0F85C10FFF77C
:101AC000B7FDB6E7FEF796FFB3E700002DE9F84350
:101AD000B0F860600368DD69D3F80090D3F808803F
:101AE000D0F88820222A05D09A6942F008029A612B
:101AF000BDE8F8830446B0F8687008E0D4F88C308C
:101B0000002B4CD1B4F85E309BB2002B4ED0002F8E
:101B100000F0878015F0200F00F083802368596A59
:101B2000F3B2A26D0B401370A36D0133A365B4F83B
:101B30005E309BB2013B9BB2A4F85E302368DD6946
:101B400015F0070FDED015F0010F09D019F4807FD2
:101B500006D001221A62D4F88C301343C4F88C30BA
:101B600015F0020F0BD018F0010F08D023680222E5
:101B70001A62D4F88C3043F00403C4F88C3015F0AA
:101B8000040FBBD018F0010FB8D0236804221A62EA
:101B9000D4F88C3043F00203C4F88C30AEE7204612
:101BA000FFF7BDFC0023C4F88C30ABE7226852E895
:101BB000003F23F4807342E800310029F6D1226807
:101BC00002F1080353E8003F23F0805323F00103A0
:101BD000083242E800310029F1D12023C4F88830CE
:101BE00000232367E36E012B03D02046FEF702FF9C
:101BF0008DE70023E366226852E8003F23F01003DC
:101C000042E800310029F6D12368DA6912F0100F9A
:101C100001D010221A62B4F85C102046FFF708FDCC
:101C200075E7B4F85E309BB2002B3FF461AFB4F8B7
:101C300068209A427FF65CAF226802F1080353E8FD
:101C4000003F23F08053083242E800310029F3D1ED
:101C5000054B2367226852E8003F43F0200342E827
:101C600000310029F6D143E7691900082DE9F8434E
:101C7000B0F860600368DD69D3F80090D3F808809D
:101C8000D0F88820222A05D09A6942F008029A6189
:101C9000BDE8F8830446B0F8687008E0D4F88C30EA
:101CA000002B4BD1B4F85E309BB2002B4DD0002FEF
:101CB00000F0868015F0200F00F0828023685B6AB8
:101CC000A26D33401380A36D0233A365B4F85E3078
:101CD0009BB2013B9BB2A4F85E302368DD6915F02E
:101CE000070FDFD015F0010F09D019F4807F06D05F
:101CF00001221A62D4F88C301343C4F88C3015F0EA
:101D0000020F0BD018F0010F08D0236802221A62CC
:101D1000D4F88C3043F00403C4F88C3015F0040F71
:101D2000BCD018F0010FB9D0236804221A62D4F88D
:101D30008C3043F00203C4F88C30AFE72046FFF745
:101D4000EEFB0023C4F88C30ACE7226852E8003F79
:101D500023F4807342E800310029F6D1226802F1B1
:101D6000080353E8003F23F0805323F001030832B7
:101D700042E800310029F1D12023C4F88830002343
:101D80002367E36E012B03D02046FEF733FE8EE778
:101D90000023E366226852E8003F23F0100342E884
:101DA00000310029F6D12368DA6912F0100F01D052
:101DB00010221A62B4F85C102046FFF739FC76E76F
:101DC000B4F85E309BB2002B3FF462AFB4F86820E9
:101DD0009A427FF65DAF226802F1080353E8003FA4
:101DE00023F08053083242E800310029F3D1064B3A
:101DF0002367226852E8003F43F0200342E80031A5
:101E00000029F6D144E700BF1B1A000870B504464C
:101E1000016883680269134342691343C26913432B
:101E200008689D4A024013430B602268536823F4FC
:101E30004053E1680B435360A1692268974B9A4273
:101E400001D0236A1943936823F06E4323F430636F
:101E50000B4393602268D36A23F00F03616A0B433C
:101E6000D36223688E4A93421CD08E4A934231D06B
:101E70008A4A93424BD0102288498B4268D0E0694D
:101E8000B0F5004F00F0A580082A00F21F81DFE8BE
:101E900012F0D300F500D1001D01F8001D011D0155
:101EA0001D01FB004FF0B042D2F8882002F003027F
:101EB00042F44032A2F54032032A09D8DFE802F0AA
:101EC00002043C060122D7E70422D5E70822D3E723
:101ED0001022D1E74FF0B042D2F8882002F00C0275
:101EE00042F44022A2F540220C2A0ED8DFE802F08C
:101EF000070D0D0D090D0D0D260D0D0D0B0000220A
:101F0000BAE70422B8E70822B6E71022B4E74FF098
:101F1000B042D2F8882002F44062B2F5006F0FD0D0
:101F200005D87AB1B2F5806F0ED10422A4E7B2F5DC
:101F3000406F0BD108229FE702229DE702229BE718
:101F4000022299E7002297E7102295E7102293E7F3
:101F5000082A00F29C80DFE802F0089A3A9A379A41
:101F60009A9A05004FF4004004E025F08DFA00280D
:101F700000F08F80626A4C4B33F81220B0FBF2F312
:101F8000656805EB4501994200F29480B3EB053F8B
:101F900000F292800026334631461DF079FC09029A
:101FA00041EA106100026B08C0182A46334641F12D
:101FB00000011DF06DFCA0F540723C4B9A427DD8AB
:101FC0002368D860304650E024F04EFECFE7384812
:101FD000D0E7082A74D8DFE802F0072705732A73D0
:101FE00073730B00324803E025F04EFA002869D0E5
:101FF000626A2D4B33F81230B0FBF3F0626853087D
:1020000003EB4000B0FBF2F080B2A0F110024FF6FB
:10201000EF739A4258D820F00F03C0F342001843E0
:102020002368D860002020E025F03EFADEE724F0A7
:102030001BFEDBE71E4803E025F026FA002847D008
:10204000626A194B33F81230B0FBF3F0636800EBAF
:102050005300B0FBF3F080B2A0F110024FF6EF7323
:102060009A4237D82368D86000200123A4F86A3048
:10207000A4F8683000232367636770BD25F014FA65
:10208000DCE724F0F1FDD9E74FF40040D8E7012068
:10209000EBE70020E9E700BFF369FFCF00800040D5
:1020A0000038014000440040182B0008FFFC0F00DE
:1020B0000024F4000120D8E70120D6E70120D4E76E
:1020C0000120D2E70020D0E70120CEE70120CCE7B5
:1020D0000020CAE70120C8E7836A13F0010F06D089
:1020E0000268536823F40033C16A0B435360836A68
:1020F00013F0020F06D00268536823F48033016B9B
:102100000B435360836A13F0040F06D002685368D0
:1021100023F48023416B0B435360836A13F0080F51
:1021200006D00268536823F40043816B0B4353606D
:10213000836A13F0100F06D00268936823F480536B
:10214000C16B0B439360836A13F0200F06D00268C3
:10215000936823F40053016C0B439360836A13F07C
:10216000400F0AD00268536823F48013416C0B437C
:102170005360436CB3F5801F0BD0836A13F0800F5C
:1021800006D00268536823F40023C16C0B435360EC
:1021900070470268536823F4C003816C0B4353609B
:1021A000EBE72DE9F84305460F4616469946DDF85C
:1021B00020802C68E46937EA04030CBF4FF0010C5F
:1021C0004FF0000CB44557D1B8F1FF3FF1D024F0E7
:1021D0001FFBA0EB090040452FD8B8F1000F2CD011
:1021E0002B681A6812F0040FE3D0DA6912F4006F5A
:1021F000DFD04FF400621A622A6852E8003F23F4ED
:10220000D07342E800310029F6D12A6802F10803B0
:1022100053E8003F23F00103083242E8003100296F
:10222000F3D12023C5F88430C5F88830C5F88C3048
:10223000002385F8803003201FE02A6852E8003F21
:1022400023F4D07342E800310029F6D12A6802F164
:10225000080353E8003F23F00103083242E800314D
:102260000029F3D12023C5F88430C5F88830002335
:1022700085F88030032000E00020BDE8F8832DE9D8
:10228000F04182B01E46D0F88430202B58D104464D
:102290000D469046002957D0002A57D090F880303C
:1022A000012B55D0012380F880300023C0F88C30FA
:1022B0002123C0F8843024F0ABFA0746A4F85480F8
:1022C000A4F85680A368B3F5805F05D04FF00008EE
:1022D000002384F8803014E0236913B14FF0000824
:1022E000F6E7A8460025F3E738F8023B2268C3F377
:1022F00008039362B4F8562092B2013A92B2A4F85D
:102300005620B4F856309BB273B100963B4600227B
:1023100080212046FFF745FFE0B9002DE4D015F8F5
:10232000012B23689A62E5E700963B460022402194
:102330002046FFF736FF78B92023C4F8843000E048
:10234000022002B0BDE8F0810120FAE70120F8E7A1
:102350000220F6E70320F4E70320F2E72DE9F0433B
:1023600083B01E46D0F88830202B40F08180044690
:102370000D46904600297FD0002A7FD090F880300B
:10238000012B7DD0012380F880300023C0F88C30F1
:102390002222C0F88820C36624F03AFA0746A4F83F
:1023A0005C80A4F85E80A368B3F5805F06D0A3B913
:1023B000226972B9FF22A4F8602014E0226922B9D0
:1023C00040F2FF12A4F860200DE0FF22A4F8602084
:1023D00009E07F22A4F8602005E0B3F1805F0DD012
:1023E0000022A4F86020B4F86080B3F5805F0FD0BD
:1023F0004FF00009002384F880301EE022691AB9EA
:102400007F22A4F86020EEE73F22A4F86020EAE7EC
:10241000236913B14FF00009ECE7A9460025E9E76D
:1024200023685B6A08EA030329F8023BB4F85E20DC
:1024300092B2013A92B2A4F85E20B4F85E309BB238
:102440008BB100963B46002220212046FFF7A9FED3
:10245000C0B9002DE4D023685A6A5FFA88F31340AC
:1024600005F8013BE2E72023C4F88830002000E0B3
:10247000022003B0BDE8F0830120FAE70120F8E76D
:102480000220F6E70320F4E730B583B004460023CA
:10249000C0F88C3024F0BCF905462268126812F0AE
:1024A000080F0FD123681B6813F0040F18D12023E5
:1024B000C4F88430C4F888300020E06684F88000D6
:1024C00003B030BD6FF07E430093034600224FF40B
:1024D00000112046FFF765FE0028E3D00320EFE758
:1024E0006FF07E4300932B4600224FF4800120467C
:1024F000FFF757FE0028DAD00320E1E778B310B5E4
:102500000446D0F884300BB32423C4F88430226806
:10251000136823F0010313602046FFF777FC0128BE
:1025200013D0A36ABBB92268536823F49043536065
:102530002268936823F02A0393602268136843F0AB
:10254000010313602046FFF79FFF10BD80F8803025
:10255000FEF768FAD8E72046FFF7BEFDE3E7012063
:102560007047000010B48165A0F85C20A0F85E20E0
:10257000002303678368B3F5805F06D0A3B90369BE
:1025800073B9FF23A0F8603014E0036923B940F267
:10259000FF13A0F860300DE0FF23A0F8603009E0E1
:1025A0007F23A0F8603005E0B3F1805F2DD00023D9
:1025B000A0F860300023C0F88C302223C0F88830A7
:1025C000016801F1080353E8003F43F001030831BB
:1025D00041E80034002CF3D1436EB3F1005F1ED00C
:1025E0008368B3F5805F43D0244B0367002380F8F2
:1025F0008030026852E8003F43F4907342E80031B3
:102600000029F6D1002010BC704703691BB97F2355
:10261000A0F86030CEE73F23A0F86030CAE7B0F8FA
:1026200068309342DCD88368B3F5805F1AD0144BCE
:102630000367002380F88030026852E8003F43F4CB
:10264000807342E800310029F6D1026802F10803E4
:1026500053E8003F43F08053083242E8003100293C
:10266000F3D1CFE70369002BE1D1064B0367E0E725
:102670000369002BB8D1044B0367B7E76919000859
:10268000CD1A00086D1C00081B1A000838B5D0F8D8
:102690008830202B17D1C1B1CAB10023C3660368AB
:1026A0000C4CA3420CD05B6813F4000F08D00468F4
:1026B00054E8003F43F0806344E80035002DF6D134
:1026C000FFF750FF00E0022038BD0120FCE70120A9
:1026D000FAE700BF00800040436E2BB90123A0F849
:1026E0006A30A0F86830704730B403689A68C2F363
:1026F00042629968490F094D6B5CDB00084C615CD4
:1027000093FBF1F3A0F86A30AB5CDB00A25C93FBB7
:10271000F2F3A0F8683030BC704700BF382B0008D7
:10272000302B000870477047704790F88030012BBD
:1027300018D0012380F880302423C0F88430036847
:102740001A68196821F00101196022F00052002373
:10275000436601680A602022C0F8842080F8803037
:10276000184670470220704738B590F88030012B2A
:102770001DD00446012380F880302423C0F8843023
:1027800003681D681A6822F001021A6002689368E3
:1027900023F0604319439160FFF79EFF23681D609B
:1027A0002023C4F88430002084F8800038BD022043
:1027B000FCE738B590F88030012B1DD0044601238A
:1027C00080F880302423C0F8843003681D681A68BC
:1027D00022F001021A600268936823F060631943D3
:1027E0009160FFF779FF23681D602023C4F88430CF
:1027F000002084F8800038BD0220FCE70D488546A3
:102800001FF02EFF0C480D490D4A002302E0D4585A
:10281000C4500433C4188C42F9D30A4A0A4C00232A
:1028200001E013600432A242FBD3FDF7A5FCFDF7E3
:1028300037FEFEE700FC00200060002068600020FA
:10284000205000086860002090660020FEE700002D
:1028500030B50B4D044614F8013B5A5D02F00302FB
:10286000012A11F8012BA85C00F0030008BF2033F7
:10287000012808BF2032981A01D1002AEBD130BDBF
:10288000412B0008F8B500BFF8BC08BC9E46704755
:10289000F8B500BFF8BC08BC9E46704700000000B9
:1028A000B0280008B4280008010100006C65002071
:1028B00061742B0041542B0048414C5F55415254E8
:1028C0005F526563656976655F4954206661696C2E
:1028D0000D0A000061742B76657273696F6E0000DB
:1028E00061742B7665723D3F0000000061742B62BD
:1028F0006F6F747665723D3F0000000061742B7548
:10290000706461746500000061742B72756E000064
:1029100053746F7020426F6F74204D6F64650D0AA1
:10292000000000004A756D70206661696C65642E58
:10293000204E6F206C6567616C206170706C6963FC
:102940006174696F6E2064657465637465642E0DCF
:102950000A00000061742B7265736574000000004A
:1029600061742B626F6F747374617475730000000F
:10297000426F6F74204D6F64650D0A0061742B66A1
:10298000756F74610000000046554F544120737408
:102990006172740D0A00000061742B6A6F696E0029
:1029A0004154206E6F7420737570706F72742E0DA9
:1029B0000A0000003C424F4F54204D4F44453E0D0D
:1029C0000A00000052454345495645442020202036
:1029D0003A20253564202F20253564204672616712
:1029E0006D656E74730D0A002020202020202020A9
:1029F000202020202020253564202F20253564200C
:102A000042797465730D0A004C4F535420202020E6
:102A1000202020203A20202020202020253764203C
:102A2000467261676D656E74730D0A004F6E467273
:102A30006167446F6E650D0A000000007265626F89
:102A40006F740D0A0000000066756F7461206A6F74
:102A5000696E65640D0A000066756F7461206A6FA7
:102A6000696E206661696C65640D0A004C6F526185
:102A70004D6163496E697469616C697A6174696FEB
:102A80006E206661696C65640D0A000046554F54FE
:102A9000412054696D656F75740D0A00526574723A
:102AA000792046554F54410D0A0000007377697430
:102AB000636820636C61737320620D0A000000007C
:102AC00073776974636820636C61737320630D0AA4
:102AD0000000000073656E64696E67207061636B4F
:102AE00065740D0A0000000073656E64696E6720EE
:102AF0006672616764617461626C6F636B61757447
:102B0000687265710D0A00007265747279206A6FCF
:102B1000696E0D0A000000000100020004000600BA
:102B200008000A000C001000200040008000000196
:102B3000080402040801010101010103070100006A
:102B4000002020202020202020202828282828207D
:102B50002020202020202020202020202020202075
:102B600020881010101010101010101010101010DD
:102B700010040404040404040404041010101010CD
:102B80001010414141414141010101010101010197
:102B900001010101010101010101010110101010E9
:102BA0001010424242424242020202020202020269
:102BB00002020202020202020202020210101010BD
:102BC00020000000000000000000000000000000E5
:102BD00000000000000000000000000000000000F5
:102BE00000000000000000000000000000000000E5
:102BF00000000000000000000000000000000000D5
:102C000000000000000000000000000000000000C4
:102C100000000000000000000000000000000000B4
:102C200000000000000000000000000000000000A4
:102C30000000000000000000000000000000000094
:102C400000000000000000005D010008000000001E
:102C500039010008000000005D01000800000000CC
:104000005A5A5A5A000000005D01000800000000E2
:105000005255495F424F4F545F302E385F53544DD5
:105010003332574C45354343000000000000000088
:10502000000000000000000000000000970E0008D3
:10503000000000009F0E0008A10E0008A30E00084B
:10504000A50E0008A70E0008A90E000815130008F9
:10505000AB0E0008AD0E0008C10F0008A90F000834
:105060003D0F0008750F0008000000000000000060
:10507000950E0008970E0008310F00084110000837
:10508000D90F0008250F0008310F00084110000853
:1060000000FC0020B96C0008716D0008FD6D0008EF
:10601000696E00086B6E00086D6E000800000000DD
:106020000000000000000000000000006F6E00088B
:10603000716E000800000000736E0008736E0008A7
:10604000456D0008456D0008916E0008456D00081B
:10605000456D0008456D0008E76E0008ED6E00080C
:10606000F36E0008F96E0008FF6E00089D6E0008D0
:10607000A96E0008B56E0008C16E0008456D0008E5
:10608000456D0008456D0008456D0008456D000828
:10609000456D0008456D0008056F0008456D000856
:1060A000456D0008456D0008456D0008456D000808
:1060B000456D0008456D0008456D0008456D0008F8
:1060C000952C0108A12C0108456D0008456D0008BC
:1060D000CD6E0008E56E0008996F0008456D000858
:1060E000456D0008456F0008796E0008456D000891
:1060F000456D0008456D0008456D0008456D0008B8
:10610000456D0008456D0008856E0008B16F0008F8
:10611000456D0008456D0008456D0008456D000897
:10612000456D0008456D0008456D0008456D000887
:10613000456D0008456D0008456D0008456D000877
:1061400010B5054C237833B9044B13B10448AFF3B1
:1061500000800123237010BDD06C002000000000DF
:106160004871010808B5034B1BB103490348AFF35D
:10617000008008BD00000000D46C002048710108B8
:1061800010F8012B11F8013B012A28BF9A42F7D0E1
:10619000D01A7047034613F8012B002AFBD1181AB6
:1061A00001387047000000000000000000000000FF
:1061B00001F0FF01102A2BDB10F0070F08D010F8B8
:1061C000013B013A8B422DD010F0070F42B3F6D1BC
:1061D000F0B441EA012141EA014122F007047FF0D5
:1061E00000070023F0E80256083C85EA010586EA2C
:1061F000010685FA47F5A3FA87F586FA47F6A5FA68
:1062000087F68EB9EED1F0BC01F0FF0102F0070273
:1062100032B110F8013B013A83EA010313B1F8D11E
:106220000020704701387047002D06BF35460338FF
:10623000073815F0010F07D1013015F4807F02BF38
:10624000013015F4C03F0130F0BC0138704700BF89
:1062500070B54FF0FF0C4CF4E06C1CEA11541DBFFC
:106260001CEA135594EA0C0F95EA0C0F00F0DEF8C7
:106270002C4481EA030621EA4C5123EA4C5350EAAC
:10628000013518BF52EA033541F4801143F48013FD
:1062900038D0A0FB02CE4FF00005E1FB02E506F08E
:1062A0000042E0FB03E54FF00006E1FB03569CF0E3
:1062B000000F18BF4EF0010EA4F1FF04B6F5007FE9
:1062C00064F5407404D25FEA4E0E6D4146EB06065B
:1062D00042EAC62141EA55514FEAC52040EA5E50E4
:1062E0004FEACE2EB4F1FD0C88BFBCF5E06F1ED88E
:1062F000BEF1004F08BF5FEA500E50F1000041EBC5
:10630000045170BD06F0004646EA010140EA020071
:1063100081EA0301B4EB5C04C2BFD4EB0C0541EA93
:10632000045170BD41F480114FF0000E013C00F3A8
:10633000AB8014F1360FDEBF002001F0004170BDCC
:10634000C4F10004203C35DA0C341BDC04F11404E5
:10635000C4F1200500FA05F320FA04F001FA05F271
:1063600040EA020001F0004221F0004110EBD3703E
:1063700021FA04F642EB06015EEA430E08BF20EA6A
:10638000D37070BDC4F10C04C4F1200500FA04F30D
:1063900020FA05F001FA04F240EA020001F000419F
:1063A00010EBD37041F100015EEA430E08BF20EA12
:1063B000D37070BDC4F1200500FA05F24EEA020E5A
:1063C00020FA04F301FA05F243EA020321FA04F089
:1063D00001F0004121FA04F220EA020000EBD37040
:1063E0005EEA430E08BF20EAD37070BD94F0000F40
:1063F0000FD101F00046400041EB010111F4801F74
:1064000008BF013CF7D041EA060195F0000F18BF24
:10641000704703F00046520043EB030313F4801F60
:1064200008BF013DF7D043EA0603704794EA0C0F1A
:106430000CEA135518BF95EA0C0F0CD050EA410630
:1064400018BF52EA4306D1D181EA030101F00041AD
:106450004FF0000070BD50EA410606BF10461946D5
:1064600052EA430619D094EA0C0F02D150EA0136E1
:1064700013D195EA0C0F05D152EA03361CBF104622
:1064800019460AD181EA030101F0004141F0FE41C1
:1064900041F470014FF0000070BD41F0FE4141F445
:1064A000780170BD70B54FF0FF0C4CF4E06C1CEA45
:1064B00011541DBF1CEA135594EA0C0F95EA0C0FFA
:1064C00000F0A7F8A4EB050481EA030E52EA0335B5
:1064D0004FEA013100F088804FEA03334FF08055D6
:1064E00045EA131343EA12634FEA022245EA111503
:1064F00045EA10654FEA00260EF000419D4208BFB4
:10650000964244F1FD0404F5407402D25B084FEA60
:106510003202B61A65EB03055B084FEA32024FF40C
:1065200080104FF4002CB6EB020E75EB030E22BF69
:10653000B61A754640EA0C005B084FEA3202B6EB29
:10654000020E75EB030E22BFB61A754640EA5C00D8
:106550005B084FEA3202B6EB020E75EB030E22BF68
:10656000B61A754640EA9C005B084FEA3202B6EB69
:10657000020E75EB030E22BFB61A754640EADC0028
:1065800055EA060E18D04FEA051545EA16754FEA8A
:1065900006164FEAC30343EA52734FEAC2025FEAA8
:1065A0001C1CC0D111F4801F0BD141EA00014FF037
:1065B00000004FF0004CB6E711F4801F04BF014308
:1065C0000020B4F1FD0C88BFBCF5E06F3FF6AFAE24
:1065D000B5EB030C04BFB6EB020C5FEA500C50F1B4
:1065E000000041EB045170BD0EF0004E4EEA113137
:1065F00014EB5C04C2BFD4EB0C0541EA045170BD3E
:1066000041F480114FF0000E013C90E645EA060E81
:106610008DE60CEA135594EA0C0F08BF95EA0C0FAF
:106620003FF43BAF94EA0C0F0AD150EA01347FF4F7
:1066300034AF95EA0C0F7FF425AF104619462CE7CE
:1066400095EA0C0F06D152EA03353FF4FDAE104631
:10665000194622E750EA410618BF52EA43067FF482
:10666000C5AE50EA41047FF40DAF52EA43057FF412
:10667000EBAE12E74FEA410C7FEA6C5C02D150EAC4
:10668000013C0AD14FEA430C7FEA6C5C02D152EA2A
:10669000033C02D14FF0000070474FF001007047FB
:1066A0004FF0FF0C1CEAD0521EBF1CEAD15392EAF5
:1066B0000C0F93EA0C0F6FD01A4480EA010C4002D1
:1066C00018BF5FEA41211ED04FF0006343EA50102B
:1066D00043EA5111A0FB01310CF00040B1F5000F6D
:1066E0003EBF490041EAD3715B0040EA010062F11C
:1066F0007F02FD2A1DD8B3F1004F40EBC25008BF06
:1067000020F00100704790F0000F0CF0004C08BF23
:1067100049024CEA502040EA51207F3AC2BFD2F1F0
:10672000FF0340EAC250704740F400004FF00003FE
:10673000013A5DDC12F1190FDCBF00F00040704738
:10674000C2F10002410021FA02F1C2F1200200FA76
:1067500002FC5FEA310040F1000053EA4C0308BF3D
:1067600020EADC70704792F0000F00F0004C02BF8E
:10677000400010F4000F013AF9D040EA0C0093F009
:10678000000F01F0004C02BF490011F4000F013B63
:10679000F9D041EA0C018FE70CEAD15392EA0C0FD1
:1067A00018BF93EA0C0F0AD030F0004C18BF31F03C
:1067B000004CD8D180EA010000F00040704790F012
:1067C000000F17BF90F0004F084691F0000F91F0B6
:1067D000004F14D092EA0C0F01D142020FD193EA7C
:1067E0000C0F03D14B0218BF084608D180EA010004
:1067F00000F0004040F0FE4040F40000704740F0E0
:10680000FE4040F4400070474FF0FF0C1CEAD052AD
:106810001EBF1CEAD15392EA0C0F93EA0C0F69D009
:10682000A2EB030280EA010C49024FEA402037D074
:106830004FF0805343EA111143EA10130CF000406B
:106840008B4238BF5B0042F17D024FF4000C8B425B
:1068500024BF5B1A40EA0C00B3EB510F24BFA3EB3B
:10686000510340EA5C00B3EB910F24BFA3EB91030B
:1068700040EA9C00B3EBD10F24BFA3EBD10340EA65
:10688000DC001B0118BF5FEA1C1CE0D1FD2A3FF6AB
:1068900050AF8B4240EBC25008BF20F00100704760
:1068A0000CF0004C4CEA50207F32C2BFD2F1FF0303
:1068B00040EAC250704740F400004FF00003013A34
:1068C00037E792F0000F00F0004C02BF400010F4D8
:1068D000000F013AF9D040EA0C0093F0000F01F0EC
:1068E000004C02BF490011F4000F013BF9D041EA0E
:1068F0000C0195E70CEAD15392EA0C0F08D1420241
:106900007FF47DAF93EA0C0F7FF470AF084676E713
:1069100093EA0C0F04D14B023FF44CAF08466EE7EC
:1069200030F0004C18BF31F0004CCAD130F00042BA
:106930007FF45CAF31F000437FF43CAF5FE700BF12
:1069400010B59AB04822002108A80DF0EFFB1822DC
:10695000002102A80DF0EAFB22F052FD4FF0B042F8
:106960000024D2F8903023F01803C2F89030D2F807
:10697000003423F4C06343F40073C2F80034D2F847
:106980000034119403F4C06301934FF48072019BAF
:106990000C922E234022089381230B930D92012306
:1069A000B02208A8CDE90E3410931292139420F06F
:1069B000D9F908B11BF042FE4F23022102A8CDE90C
:1069C0000234CDE90444CDE9064420F06DFC08B161
:1069D0001BF034FE1AB010BD13B50378082B00F27B
:1069E000A280DFE803F013848BA0949405A09A00A2
:1069F000047920461BF06CFF204605F01BFB0021AC
:106A0000204602B0BDE810401BF06ABF00201BF01A
:106A10005FFF012826D101201BF05AFF012804D076
:106A200001200AF01BFA00282ADC02201BF050FF8C
:106A3000012804D002200AF011FA00283BDC02B041
:106A400010BD012201A900200AF0D0F800201BF09F
:106A50003FFF044630B90AF0DDF948B99DF804104B
:106A600005F054FA00200AF0F9F90028E9DCD2E731
:106A70000128F7D19DF8041020460AF025F9F1E726
:106A8000012201A910460AF0B1F801201BF020FFF5
:106A90000028C5D101200AF0BDF928B99DF80410DD
:106AA000012005F033FABBE70128B9D19DF80410A5
:106AB0000AF00AF9B4E7012201A902200AF096F8C7
:106AC00002201BF005FF0028B4D102200AF0A2F931
:106AD00028B99DF80410022005F018FAAAE7012849
:106AE000A8D19DF8041002200AF0EEF8A2E72AF0DF
:106AF00023F902B0BDE810401AF04EBB0E4B1B68E4
:106B0000002B9CD0406802B0BDE810401847406898
:106B100002B0BDE810400AF037BA406802B0BDE8E4
:106B2000104009F0D1BE054B1B6E002B87D002B080
:106B3000BDE81040184700BFEC79002088C9030861
:106B400030B52D4B2D4A9A6085B01FF03FFEFFF700
:106B5000F7FE4FF0B0430B209A6C42F004029A64A7
:106B60009A6C02F004020392039A9A6C42F00102BA
:106B70009A649B6C002203F0010311460293029B6E
:106B80001DF02AF90B201DF059F90AF0F1F909F06E
:106B900055FE1CF015F80024014605462346032245
:106BA0000120CDE9004409F047FF2346032229468E
:106BB0000220CDE9004409F03FFF1CF0F9FD1CF074
:106BC0009DF802F015FDE5B228461BF081FE10B9D4
:106BD000284605F02FFA0134032CF4D10AF0B0F95D
:106BE0001CF0D4FD012804D105B0BDE8304003F00D
:106BF00051BD05B030BD00BF00ED00E000600008F1
:106C000008B50AF0ABF9BDE808401AF0C5BA0000B3
:106C100013B5FFF795FF4FF0B043DA6C42F0020274
:106C2000DA64DB6C03F002030193019B0BF02AFD95
:106C300019F086F9F0B1164801F08DFA154B164897
:106C40001A68164B196801F086FA154809F090FF8A
:106C500019F0CAF901280FD002280FD010B9114835
:106C600009F086FF104CFFF7CBFF237843B90BF0F8
:106C70000BFDF8E70D48DFE70D48F1E70D48EFE7BA
:106C80001BF06EFE0028EED0002009F09FFEEAE720
:106C9000A3710108BC020020B9710108B0020020F4
:106CA000C9710108DD710108EC6C0020AE710108AA
:106CB000E9710108F4710108174885461BF0D0FC02
:106CC00016481749174A002302E0D458C450043329
:106CD000C4188C42F9D3144A144C002301E0136009
:106CE0000432A242FBD312481249134A002302E0A5
:106CF000D458C4500433C4188C42F9D30F4A104CF2
:106D0000002301E013600432A242FBD30DF092F99C
:106D1000FFF77EFFFEE7000000FC002000000020DF
:106D2000D0020020C8CF0308D0020020985E0020C7
:106D300000600020D06C0020389F0108D06C00203B
:106D4000D8A0002000F05AB80368074A934206D141
:106D5000DA69D20606D510221A6200F019BF034A7A
:106D60009342F5D0704700BF0080004000380140DA
:106D70004FF0B0434FF0FF319A6B9963DA6BD963F0
:106D80009A6B00229A63D86BDA63186C1964186CDA
:106D90001A64586C5964586C5A64986A9962986A73
:106DA0009A62D86AD962D86ADA62186B1963196B69
:106DB0001A635A6C42F001025A645A6C22F00102C2
:106DC0005A64D3F8902042F48032C3F89020D3F86C
:106DD000902022F48032C3F89020BFF34F8F0549F2
:106DE000054BCA6802F4E0621343CB60BFF34F8FD8
:106DF00000BFFDE700ED00E00400FA054FF0B043EE
:106E00004FF0FF319A6B9963DA6BD9639A6B00226A
:106E10009A63D86BDA63186C1964186C1A64586C2E
:106E20005964586C5A64986A9962986A9A62D86AE6
:106E3000D962D86ADA62186B1963196B1A635A6CD3
:106E400042F001025A645A6C22F001025A64D3F8EB
:106E5000902042F48032C3F89020D3F8902022F49E
:106E60008032C3F89020FEE7FEE7FEE7FEE77047BA
:106E700070471FF0C1BC0000014821F0B3B800BF4B
:106E8000D8440020014823F092BB00BFD00200206C
:106E9000014822F0E1B800BFD8440020014826F0A4
:106EA000BDBC00BF40730020014826F0B7BC00BF46
:106EB000746E0020014826F0B1BC00BFD46E0020E3
:106EC000014826F0ABBC00BFA073002010B5044CF5
:106ED00020460AF05BFD2046BDE81040FFF734BFB6
:106EE000907400207047012023F064BD022023F03D
:106EF00061BD042023F05EBD082023F05BBD10209F
:106F000023F058BD0E4BDA68920602D5202023F0FC
:106F100051BDDA68500601D54020F8E7DA6811065D
:106F200001D58020F3E7DA68D20502D54FF48070EE
:106F3000EDE7DB689B0502D54FF40070E7E770478B
:106F400000080058134BDA68510503D54FF48060F0
:106F500023F030BDDA68120502D54FF40060F7E780
:106F6000DA68D00402D54FF48050F1E7DA68910472
:106F700002D54FF40050EBE7DA68520402D54FF423
:106F80008040E5E7DB681B0402D54FF40040DFE7F3
:106F9000704700BF0008005810B5044C20460AF0A6
:106FA000F5FC2046BDE81040FFF7CEBE007400207F
:106FB000014825F009BE00BF104500204FF0B04346
:106FC00082B0DA6C0243DA64DB6C18400190019BFA
:106FD00002B070471FB514284FF00003CDE902330B
:106FE0000C460CD8092812D90A380A280FD8DFE82D
:106FF00000F07B0E0E0E0E820E0E74116D00FE2838
:1070000000F08380FF2800F08280FD287AD06FF0A6
:10701000030059E03F4A404B0193137843F00103CA
:1070200013703E483E4A4FF00043C0E900233D4BF9
:1070300004221B688360426100230122C2614FF475
:10704000805106220383C0E90333C0E90933C0E954
:107050000C12837680F8203080F82C30836380F81F
:107060003C30C36409F098FF08B11BF0E7FA2B48E5
:107070000AF05CFB08B11BF0E1FA0023274801A9E4
:10708000CDE902330AF010F908B11BF0D7FA234812
:107090000AF076FA08B11BF0D1FA0A211F480AF06B
:1070A000A5F81E480AF024FB1C480AF0FAF81E4B0B
:1070B000019A80B29A42208004BF00EB40002080F9
:1070C00016480AF0C1FA002004B010BD114A174B4F
:1070D0000193137843F00203A2E70E4A144B019385
:1070E000137843F004039BE70A4A124B0193137889
:1070F00043F0080394E7074A0F4B0193137843F0DA
:1071000010038DE70D4B01938BE70D4BFBE7064B0F
:10711000F9E700BFED6C002004000008F06C0020CF
:107120000024014004600020004000B80800000C6A
:1071300010000010400000180008002C001000B0E3
:10714000002000B470477047014B1878704700BFAB
:1071500009600020014B1878704700BF08600020CC
:1071600010B5044686B01422002101A80CF0DEFF01
:1071700022685E4B9A4240F08E804FF0B0435C4CE8
:107180001A6E42F400721A661B6E03F400730093C9
:10719000009B2378DA0708D5132000F03DF9B0F101
:1071A000904F7AD10120FFF709FF23789B0708D57C
:1071B000142000F031F9B0F1904F76D10120FFF7A3
:1071C000FDFE2378580708D5122000F025F9B0F10C
:1071D000904F72D10120FFF7F1FE2378190708D5EF
:1071E0000A2000F019F9B0F1904F6ED10120FFF79D
:1071F000E5FE2378DA0608D50F2000F00DF9B0F18E
:10720000904F6AD10120FFF7D9FE00234FF0030C05
:10721000CDE902C32378DB0709D5132000F001F97B
:107220000190132000F0F8F801A923F073FA2378F5
:10723000980709D5142000F0F4F80190142000F00C
:10724000EBF801A923F066FA2378590709D5122033
:1072500000F0E7F80190122000F0DEF801A923F019
:1072600059FA23781A0709D50A2000F0DAF80190B4
:107270000A2000F0D1F801A923F04CFA2378DB06AC
:1072800009D50F2000F0CDF801900F2000F0C4F8D0
:1072900001A923F03FFA06B010BD132000F0BCF89E
:1072A000144B984281D102207DE7142000F0B4F8FD
:1072B000104B984285D1022081E7122000F0ACF8F3
:1072C0000C4B984289D1022085E70A2000F0A4F8EF
:1072D000084B98428DD1022089E70F2000F09CF8DE
:1072E000044B984291D102208DE700BF0024014059
:1072F000ED6C00200004004838B5334B02689A4218
:1073000060D14FF0B042314C136E23F4007313661A
:107310002378DD070ED5132000F07EF805461320F4
:1073200000F07FF80146284623F0A6FA237823F0E0
:1073300001032370237898070ED5142000F06CF811
:107340000546142000F06DF80146284623F094FA13
:10735000237823F002032370237859070ED51220D7
:1073600000F05AF80546122000F05BF80146284666
:1073700023F082FA237823F00403237023781A077A
:107380000ED50A2000F048F805460A2000F049F81A
:107390000146284623F070FA237823F0080323706F
:1073A0002378DB060ED50F2000F036F805460F20B7
:1073B00000F037F80146284623F05EFA237823F0E0
:1073C0001003237038BD00BF00240140ED6C002085
:1073D000034B00221A70034B01221A70704700BF42
:1073E000EF930020ED930020C26891FAA1F0B0FA6B
:1073F00080F0430003209840104091FAA1F1B1FAC7
:1074000081F14900C8407047024B53F8203003B166
:1074100018477047B46D0020000900F590108002F5
:10742000704700F00F030120984080B270472F286A
:1074300008B5034600D908BDFFF7EEFF03F00F02C1
:1074400001230168934093FAA3F2B2FA82F042005A
:1074500003209040084093FAA3F3B3FA83F35B0050
:10746000D840E8D001284FF0000008BF0120E2E733
:1074700030B52F2887B00B4623D800F00F04012128
:10748000A1400222032B019104921CD8012B1DD98B
:107490004FF488130293FFF7BFFF0546FFF7A4FFE1
:1074A000012819D0022817D001A9284623F032F963
:1074B000A4B90620224602211CF08EFC06201CF0F6
:1074C000BDFC07B030BD043B012B02D94FF444137F
:1074D000E0E74FF40413DDE70390E5E7012C06D164
:1074E0000720002202211CF077FC0720E7E7022C8E
:1074F00006D10820002221461CF06EFC0820DEE7A1
:10750000032C06D10920002202211CF065FC092071
:10751000D5E7042C06D10A20002202211CF05CFCD5
:107520000A20CCE7053C042C4FF000024FF002018A
:1075300004D816201CF050FC1620C0E729201CF0AF
:107540004BFC2920BBE70000044B00F00F0053F870
:1075500020200AB943F8201000207047B46D0020A5
:10756000F8B50F4D0F4E104F00240F2C05DDA4F180
:107570001203052B01D91C2C0ED155F824305BB910
:1075800006EB44035B783BB139782046FFF770FF88
:1075900006492046FFF7D8FF0134302CE5D1F8BD6D
:1075A000B46D0020546D00200A600020D1730008E3
:1075B0002DE9F041194D1A4E86B0002402270F2CF8
:1075C00005DDA4F11203052B01D91C2C1FD155F8A0
:1075D0002430E3B916F81410012918D104F00F0370
:1075E0009940204601910497FFF716FF8046FFF768
:1075F000FBFE03902046FFF71AFF012801D10290FD
:1076000001E00028FBD001A9404623F083F80134B3
:10761000302CD4D106B0BDE8F08100BFB46D00209D
:10762000546D00204FF0B04382B09A6C02439A64CC
:107630009B6C18400190019B02B070474FF0B04323
:1076400082B0DA6C0243DA64DB6C18400190019B73
:1076500002B0704710B5064C0649802220460AF059
:10766000E3FE2268136843F01003136010BD00BFEF
:107670000074002020750020012810B50BD1094CA2
:107680000949802220460AF0CFFE2268136843F0A1
:107690001003136010BD0228FCD1BDE81040FFF7B5
:1076A000D9BF00BF90740020A87500202DE9F743D2
:1076B0009DF828509DF82C80012B14BF00274FF413
:1076C0000057012D04460E4669D0032D6AD0002DC7
:1076D0006BD00025013AD2B2022A6BD8664B53F820
:1076E0002290012C70D10420FFF79CFF2046FFF769
:1076F00099FF002211460E201CF06EFB0E201CF09C
:107700009DFB5E4B5E4883F801805E4B0561C0E9DE
:1077100000360C240023C0E90297C0E90543C0E904
:1077200007334362B8F1000F49D0B8F1020F01BF2F
:10773000082383624FF40043836351480AF0E8FD55
:1077400008B11AF07BFF4E4800210AF051FF08B142
:107750001AF074FF4A4800210AF06FFF08B11AF0CE
:107760006DFF47480AF025FF08B11AF067FF0120B6
:10777000FFF782FF4FF44013009302AB13E90600BA
:107780003F480AF09FFE08B11AF058FF4FF0B04290
:10779000936843F40043936003B0BDE8F0834FF473
:1077A000C06597E74FF4806594E7022A05D14FF052
:1077B000805996E74FF0000993E7A94691E7C0F892
:1077C00028800AF073FDBBE7022CE5D12B4B2E4C31
:1077D00083F802800420FFF725FF0120FFF722FF36
:1077E000002211460B201CF0F7FA0B201CF026FBA0
:1077F000264B2561C4E900360C2200232046C4E94B
:107800000297C4E90523C4E90833A36263660AF05A
:107810004DFD08B11AF012FF1B4800210AF0E8FEE6
:1078200008B11AF00BFF184800210AF006FF08B152
:107830001AF004FF14480AF0BCFE08B11AF0FEFE6C
:10784000FFF708FF4FF44013009302AB13E9060063
:107850000D480AF037FE08B11AF0F0FE0C4AD2F8D3
:10786000803043F08053C2F880302268936843F43C
:10787000800393608AE700BFFC7101084C7600200A
:107880009074002000380140007400200080004007
:10789000000800582DE9F3419DF820809DF824C090
:1078A000CDE9008C16461D4604460F46FFF7FEFE46
:1078B000064B0C204443181901221A5547600672E2
:1078C000457280F80A8002B0BDE8F0812876002079
:1078D000022810B504460BD1074809F0B9FF08B1DA
:1078E0001AF0ACFE0C20054B444300221A5510BD83
:1078F0000128F7D10248F0E7007400202876002024
:10790000907400200128F8B505460E461F462BD17D
:1079100094B2184A5278013A012A17D816480AF048
:1079200008FA224614483B4631460AF02FFC04462A
:1079300011480AF023FA84B9104B1B680BB90020D8
:10794000F8BD2146284698472046F9E70A482246CE
:107950000AF01CFC04460028F6D0022C14BF6FF07D
:1079600006006FF00500EBE70228E8D1044892B268
:10797000EEE700BF4C76002090740020386F0020A6
:1079800000740020012802D1044800F079BB0228CD
:1079900001D10348F9E76FF0060070470C60002042
:1079A00020600020012807B50AD10A480DF107011F
:1079B00000F0A3FB50B16FF0060003B05DF804FBCC
:1079C0000228F8D104480DF10701F1E79DF80700FE
:1079D000F3E700BF0C60002020600020704700002B
:1079E000012802D1044800F0EFBA022801D103486F
:1079F000F9E76FF0060070470C600020206000205F
:107A0000F8B5224D224F00240C23224A63439B5C8D
:107A1000CBB1022C1BD1204E3368DA69D103FCD4E0
:107A2000DA695202FCD51C480AF097FD33681A48FF
:107A300010221A621A6822F010021A6009F029FF57
:107A4000F06F25F029FD0134032CDDD1F8BD012CA8
:107A5000F9D108232B624FF480132B6255E8003FC5
:107A600043F0020345E80032002AF7D157E8003F0F
:107A700043F4800347E80032002AF7D1074AD2F8DE
:107A8000803043F08063C2F88030DCE7003801408A
:107A900008380140287600200074002000080058B3
:107AA00073B50B4C0B4E4FF0FF35012D0BD92378DE
:107AB0004BB133780193A37A0093227A637A616899
:107AC0000020FFF7F3FD0135022DEED102B070BDAD
:107AD000287600204C76002070B51D4B02689A4233
:107AE000044615D109F0D5FE1A4E002516F8011BE3
:107AF0000220013509F0C6F9802DF7D11549164845
:107B00002A4600F070FA13492A4620460AF08CFCF7
:107B10002268124B9A4216D1204609F0BAFE104E46
:107B2000002516F8011B0120013509F0ABF9802D65
:107B3000F7D10B490B482A4600F055FA08492A4666
:107B400020460AF071FCBDE87040074809F000BA11
:107B50000080004020750020206000200038014097
:107B6000A87500200C600020A07500200268054B5D
:107B70009A4205D1044B1B6813B1012108461847EE
:107B8000704700BF00380140386F00207047000088
:107B9000F8B52F4B02689A4204461DD109F079FED0
:107BA0002C4B2D4F1B685D68C5F18005ADB20026DA
:107BB000B5423FDC284929482A4600F014FA8022C1
:107BC000254920460AF030FC254B1A78012A03D1BA
:107BD00000221A7008F0F2FE2268224B9A4224D149
:107BE000204609F056FE204B204F1B685D68C5F10A
:107BF0008005ADB20026B54223DC1C491C482A464C
:107C000000F0F1F98022194920460AF00DFC144BCE
:107C10001A78012A03D100221A7008F0CFFE154B02
:107C20001B6813B1012108469847BDE8F840124887
:107C300009F08EB917F8011B022009F023F901366B
:107C4000B6E717F8011B012009F01CF90136D2E74D
:107C5000008000404073002020750020206000203C
:107C6000346F002000380140A0730020A875002068
:107C70000C600020386F0020A075002073B5314BD8
:107C800000261E7003685A6A8DF807202E4A934218
:107C9000054619D12D482E4C0AF075FC2D49266257
:107CA0001523C4E9001320468023C4E90266C4E911
:107CB0000436C4E9066625F07DFB08B11AF0BEFC67
:107CC000EC67A562FFF7C6FC2A68234B9A421BD1DA
:107CD0002248234C0AF057FC224A1123C4E900230E
:107CE000204600238022C4E90233C4E90423C4E906
:107CF0000633236225F05EFB08B11AF09FFCEC67A7
:107D00000120A562FFF7B8FC2C680F4B9C420DD1F7
:107D10009DF80710022009F0B5F82B68A34205D1A1
:107D2000114801220DF1070100F05DF90F4809F03B
:107D30000FF90F4B1A781AB901221A7008F036FEA3
:107D400002B070BDEF93002000800040007400205E
:107D50004073002008000240003801409074002069
:107D6000A07300204400024020600020A075002085
:107D7000346F002070B596B005461422002103A888
:107D80000CF0D4F93822002108A80CF0CFF92B68A8
:107D90005F4A934266D15F4B012408A8CDE90843AE
:107DA0001FF0CAFC08B11AF049FC4FF0B04316208E
:107DB0001A6E42F480421A661B6E03F480430193EC
:107DC000019BFFF729FBB0F1904F38D10120FFF75D
:107DD00035FC0220FFF732FC4F4B9B6A082B36D153
:107DE0001720FFF71EFB12230390002604930123A4
:107DF000CDE9053649484A4C072303A9079322F0E9
:107E000089FC484826621123C4E9000380232046E8
:107E1000C4E90266C4E90436C4E9066625F0CAFA74
:107E200008B11AF00BFC00222420EC671146A56271
:107E30001BF0D2FF24201CF001F816B070BD1620F4
:107E4000FFF7EAFA354B9842C3D10220BFE716206C
:107E5000FFF7E7FA04461720FFF7E3FA0443039419
:107E60000223C2E7304A9342E7D1202308936B688C
:107E7000B3F5166F94BF4FF440634FF4006308A846
:107E80000C931FF059FC08B11AF0D8FB4FF0B04327
:107E90000120DA6D42F00102DA65DB6D03F00103C7
:107EA0000293029BFFF7CAFB0220FFF7BAFA0446CF
:107EB0000320FFF7B6FA0222012300260443CDE98E
:107EC000042303A908234FF09040CDE906630394EF
:107ED00022F020FC154C1649A6611523C4E90013B5
:107EE0008023C4E9043620462023C4E90266C4E99D
:107EF000073625F05FFA08B11AF0A0FB0022262011
:107F0000EC671146A5621BF067FF262093E700BFD0
:107F10000038014002000300907400200004004873
:107F2000A073002044000240008000404073002005
:107F30000800024070B51B4A0368934204461DD1F5
:107F40004FF0B0421620136E23F480431366FFF700
:107F500063FA05461620FFF764FA06461720FFF776
:107F600060FA46EA0001284622F086FCE06F25F020
:107F700093FA2420BDE870401BF06EBF0A4A93427A
:107F80000FD14FF0B0420C21D36D23F00103D36524
:107F90004FF0904022F070FCA06F25F07DFA262073
:107FA000E8E770BD003801400080004008B5054B8F
:107FB00002689A4205D109F006FFBDE80840FFF7C4
:107FC00049BB08BD00800040C26803699A4282BF75
:107FD00040681B180133981A704708B54168FFF7CD
:107FE000F3FF081A08BD2DE9F743044601A8164619
:107FF000884608F0B7FF2046FFF7EFFF864228BF0C
:1080000006462046FFF7E9FFE3682569A268AB4210
:108010009CBF636801335D1B814623692068AE42C3
:1080200002FB030013D8724341460CF057F8236952
:1080300062683344934296BF236900239B192361EE
:1080400001A808F091FF304603B0BDE8F08305FBBE
:1080500002F73A4641460CF041F8A2682068751BC9
:108060006A4308EB07010CF039F84E452561E7D962
:1080700023696268934234BF01330023E360DFE782
:108080002DE9F341044601A81646884608F06AFF28
:108090002046FFF799FFE768E5682369A268216831
:1080A000864228BF06469D4284BF636801335D1B3C
:1080B000AE4202FB071110D8724340460CF00EF896
:1080C00062683744974288BF0027E76001A808F03C
:1080D0004BFF304602B0BDE8F08105FB02F73A469F
:1080E00040460BF0FBFFA2682168751B6A4308EB52
:1080F00007000BF0F3FFE560E8E710B5044608461B
:10810000E26823699A4223D0A268E1682368541E7A
:10811000072C18D8DFE804F00408170C17171710FD
:108120005B5C0370002010BD33F811300380F9E769
:1081300053F821300360F5E703EBC103D3E90023D3
:10814000C0E90023EEE701FB02310BF0C7FFE9E7CE
:108150006FF00E00E7E70FB400B5ADF5037D1AF040
:10816000C7FDC0B201280AD185AB849A01934FF4B0
:10817000007102A81DF0D6FF02A808F0F9FC0DF569
:10818000037D5DF804EB04B070471AF0A5BD08B597
:108190001AF0AEFDC0B208BD014B00221A70704744
:1081A000EF9300207047000008B518F0DCF8024695
:1081B00058B1064B064900209A4208BF042003F537
:1081C000C31303F520638B42F6D108BDC0AFD2358F
:1081D000C0FF953608B518F0C6F8024658B1064BF0
:1081E000064900209A4208BF062003F5C31303F591
:1081F00020638B42F6D108BD6086973660D65A3729
:1082000018F0B1B8014808F0B3BC00BF087201080B
:1082100008B5034808F09CFE024B00221A7008BD06
:108220007C600020EF93002030B58BB004463423EF
:1082300068468DF8003027F023FE14B3019D27F027
:10824000A1FDF0B9E30702D528461BF073F8A0079B
:1082500003D505F138001BF085F8610703D505F15A
:1082600058001BF097F8220703D505F5EE701BF0B8
:10827000ABF8A30603D505F564701BF0BFF827F033
:1082800077FD0BB030BD10B527F07CFD012804460A
:1082900004D030B908F076FE204610BD6FF005001E
:1082A000FBE76FF00600F8E710B5134B134A1B68A5
:1082B0000446407860B92179117003B1984723785A
:1082C000012B17D123792BB10D4808F051FC05E0A3
:1082D0000021F1E761780B4808F04AFC002002F029
:1082E00003FB207C02F064FB21460020BDE8104027
:1082F00018F032BF0448E8E7F8790020C77800207A
:108300001A7201083372010854720108022813B569
:10831000044605D0144802B0BDE8104008F028BC5F
:10832000124808F025FCFF238DF803300DF10302FD
:108330004FF0043301210E4801931AF0DFF801AA2F
:1083400004210C481AF0DAF8204608F09DFB0120C1
:1083500008F09AFB4FF000635A681B6883F30888A3
:10836000904702B010BD00BF63720108747201082B
:10837000004000080440000870B5044601468AB079
:10838000032018F0E9FE23780A2B10D00E2B0CD115
:108390003E4808F0EDFB3E4A0023684613708DF816
:1083A00000308DF8043027F0B9FE0AB070BD637854
:1083B0000D2B64D1374808F0DBFB354B1A78042AC3
:1083C0001CD0022600201E7008F0DCFD002232497D
:1083D000104608F0D3FD0546B8B925F0D5FA42425B
:1083E00002F01F0200F01F004FF47A7158BF504294
:1083F00000FB01113246284608F0C2FDA37D032B85
:108400001FD8DFE803F00B24272A40F2E32123489A
:1084100008F0AEFB002008F0B5FDEFE7204A00238E
:108420001380237E617E1B0243EA0143E17D0B43FF
:108430005360E37E217F1B0243EA0143A17E0B438D
:108440009360D4E90101174B83E80300ADE7144AB8
:108450000123E5E7124A0223E2E7237E617E104A08
:108460001B0243EA0143E17D0B43D360E37E217F9E
:108470001B0243EA0143A17E0B431361E1E70E2B8C
:10848000DFD1094808F074FBDBE700BF89720108FF
:10849000C077002094720108458B0008A172010882
:1084A000A4770020B8770020B1720108704717F058
:1084B0005ABF7FB5054617F054FF431EDBB2012BB0
:1084C000044603D900F0FD03082B1DD101A81AF0C2
:1084D00027FC002201A91346012011F8016B1EB1EF
:1084E00000FA02F633439BB201320C2AF5D104F0B4
:1084F000FD02082A01D0012C02D123F480739BB223
:108500002B80002004B070BD6FF00200FAE7F0B5D8
:108510008FB006460F4617F024FFFF23ADF800305A
:108520004FF47F43ADF80230431EDBB20024012B31
:10853000CDE901440546039403D900F0FD03082B5F
:108540007ED1FFF7A0FE044600286FD1338823B9FF
:10855000012D50D140F2FF1333800C22002101A8DD
:108560000BF0E4FD3088002240FA02F1CE07D3B2CE
:108570000ED50EAE03F0FE0103F00103314406EB0D
:10858000430331F8346C33F8383C334321F8343C3E
:1085900001320C2AE8D105F0FD03082B01D0012D92
:1085A0000ED1BDF80C30002203F47F43ADF80C303F
:1085B00011460126D5B2072D28D909B1ADF80C30E6
:1085C00023238DF8103004A801AB059327F0A6FDF6
:1085D000054668B924238DF8103004A801AB059333
:1085E00027F09CFD1AF058FFD8B927F0C1FB00B363
:1085F0006FF006041AE005F0FD03082B04BFFF230B
:108600003380022DA9D140F6FF73A5E740FA02F5A9
:10861000ED0741BF06FA02F10B439BB20121013283
:10862000C8E728461AF03EFF0028DED020460FB0EB
:10863000F0BD002FFAD001A81AF07CFB0446F5E744
:108640006FF00204F2E700002DE9F04395B0044614
:108650000D4690461F4617F0D6FC611C064629D1F0
:108660006A1C0AD0003D18BF012517F058FE85424C
:1086700003D0284617F055FE50BBB8F1FF3F07D096
:1086800017F051FE404503D0404617F04EFEF8B9B2
:108690007B1C07D017F04BFEB84203D0384617F0CA
:1086A00048FEA8B9BCB9204608F06CFC754B1C60AC
:1086B00000200DE0B4F1000918BF4FF0010917F0D8
:1086C0002AFE8145CCD0484617F027FE0028C7D0A7
:1086D00015B0BDE8F08317F044FE17F056FE0028F1
:1086E00000F0CC80012E40F096808DF800601AF0EA
:1086F000B9FC02238DF8050068468DF8043028F097
:1087000007FA614B049A1A600446002854D117F006
:1087100055FD012808BF5D4B0AA808BF1C70342313
:108720008DF8283027F0ACFB0B9B988817F011FED2
:10873000FFF72DFD0028CBD034230AA88DF8283070
:1087400027F09EFB0AA827F09BFB0028B0D1504DD4
:108750000B9B2A7893F858404E480C2606FB0233B0
:10876000D3F8901308F004FA012C0B9A01D0082CCE
:108770006ED12B78D2F8C420474903F0070301FBE0
:108780000321464808F0F4F90B9B4548D3F8C41080
:1087900008F0EEF90B9B434893F9491008F0E8F90B
:1087A0000B9B414893F9481008F0E2F90B9B3F48B6
:1087B000D96808F0DDF97BE7012812D00B282BD10E
:1087C000304D002008F0DEFB2C6801342C6017F0DF
:1087D000AEFD844208D900232B600499344808F088
:1087E000C7F96FF0050073E700223249104608F020
:1087F000C5FB044648B917F096FD4FF47A71414322
:108800002246204608F0BCFBE7E740F264612A48B4
:1088100008F0AEF9E1E716B16FF0060058E7012362
:1088200068468DF800308DF8043027F077FC00287A
:10883000F2D117F0C3FC022807D18DF80400684676
:108840008DF8006027F06AFC72E717F0B7FC6FE75D
:10885000022C297809D13023B1FBF3F003FB10116E
:10886000CBB2D2F8C420154989E706FB0122D2F821
:108870009413002985D1D2F8901382E76FF010008D
:1088800026E700BFA077002044770020C0770020B3
:10889000F5830020EF720108C0270900EC7201087F
:1088A000FE72010810730108267301083B7301086A
:1088B000D4720108C1880008BE720108400D03008F
:1088C0004FF0FF331A4619460120FFF7BDBE0000E6
:1088D0002DE9F0419AB00D4602A981E80C008046CE
:1088E0001AF0C0FB074617F090FB0646002800F080
:1088F000038126F079FC10B16FF005009BE019F0C0
:1089000043F804460028F7D117F058FC022840F03D
:1089100095808DF8440010A88DF8404027F0FEFBAC
:108920008DF826701AF040FC60B11AF03DFC012869
:1089300002D1002017F0E8FC052310A88DF8403084
:1089400028F0E6F86F4B1B78012B05D1092310A8FE
:108950008DF8403028F0DCF805A9E8B227F030FAAD
:108960000746FFF714FC60B19DF814309DF8152000
:108970006549664851F82710D21A00922A4608F035
:10898000F7F8002F79D000238DF818300893ADF850
:10899000243006A828F090FF5D4B0A9A1A6005461D
:1089A000FFF7F5FB00283FD0342310A88DF84030A6
:1089B00027F066FA10A827F063FA002834D1554F43
:1089C000119B3A7893F8586053484FF00C0808FB15
:1089D0000233D3F8901308F0CBF8012E119A01D08E
:1089E000082E66D13B78D2F8C4204C4903F0070327
:1089F00001FB03214A4808F0BBF8119B4948D3F812
:108A0000C41008F0B5F8119B474893F9491008F0D5
:108A1000AFF8119B454893F9481008F0A9F8119B4D
:108A20004348D96808F0A4F8002D58D1002C0CBF99
:108A30006FF0020000201AB0BDE8F08117F0BEFB15
:108A400001287FF46DAF3B4B1B787BB1022B7FF489
:108A500067AF204608F096FA0C238DF82C3017F0FB
:108A6000F3FB00F007008DF8300002E009238DF8D9
:108A70002C300BA828F04CF852E79DF808308DF800
:108A80001C309DF80B30ADF82450CDF8208053B148
:108A90009DF80C305BB900238DF81830264B00226E
:108AA0001A70344675E717F025FB0028F3D0012330
:108AB000F2E7022E397809D13023B1FBF3F003FB42
:108AC0001011CBB2D2F8C4201C4991E708FB012257
:108AD000D2F8941300298DD1D2F890138AE7A5F12A
:108AE0000E03DBB2012B7FF607AF0B2D07D10A99DE
:108AF000134808F03DF8FFE66FF00B009BE76FF0BE
:108B0000060098E7017A00205477010847730108AE
:108B100044770020F5830020EF720108C027090088
:108B2000EC720108FE720108107301082673010837
:108B30003B730108C0770020C7780020400D030078
:108B4000D47201081FB501238DF808308DF8093063
:108B5000002103238DF80A308DF80B10009104AB2F
:108B600013E90C000248FFF7B3FE05B05DF804FB03
:108B70002C7801082DE9F04F43788DB00446002B86
:108B800040F0A780B0F90E00774F784E237C3880F4
:108B900040B2337001F012FF237B002B3BD0607C8E
:108BA0007349B7F9002051F8201096F90030714848
:108BB000DFF8C491DFF8C4A107F0DAFFA378012B36
:108BC0000CBF6F486F4807F0D3FFE1786E4807F09D
:108BD000CFFF4FF000085FFA88FB584619F078FE87
:108BE000054640B9227BEBB29A4200F2A38051467F
:108BF000584607F085FF08F10108B8F1030FEAD1E4
:108C0000227BA16861480BF069FA614B227B1A70E4
:108C1000604BE2781A706379012B00F0938023781F
:108C2000012B02D15C4B01221A705C4B1A782AB3DB
:108C3000DFF86C9100221A7099F80030F3B996F9B8
:108C40000030584DDFF8608100932A78B7F9003082
:108C500098F80010554807F08BFF554B1B686BB117
:108C6000544899F80020027098F8002042702A7841
:108C700082703A888280327882719847E278E02A5E
:108C800011D04D4B1B6873B14C4802702279427071
:108C9000A2684260227B0272E2894281227C0273D6
:108CA0006269026198472146012018F055FA44484C
:108CB00090F802316BB1002380F802318DF80B304F
:108CC00000938DF80930DDE90223B0F80011FFF7B9
:108CD000FFFDFFF75CFA50B3342302A88DF808308B
:108CE00027F0CEF802A827F0CBF8002838D1637C13
:108CF00073BB344807F03CFFA169334807F038FFE5
:108D0000E178324807F034FFB4F90E10304807F02C
:108D10002FFF94F910102F4807F02AFF21792E48D1
:108D200007F026FF039B2D48996907F021FF0DB03E
:108D3000BDE8F08FA2684946D25C584607F0E0FED5
:108D400001354FE717F03AFA00287FF468AF69E77A
:108D5000012B01D12248CDE7022BCDD12148C9E713
:108D6000214807F005FFE2E7E8790020007A0020BB
:108D7000D477010899730108BE7301082A780108A5
:108D8000AA730108B5730108E97A0108C8780020C0
:108D9000C8790020C979002048770020D2790020C6
:108DA000D37900209C77002041770020C37301080D
:108DB000F0790020CA790020F4790020D4790020CD
:108DC000C2770020E27301083F7401085174010862
:108DD0005B740108657401086E7401087E740108F3
