:020000040800F2
:1060000000FC0020B96C0008716D0008FD6D0008EF
:10601000696E00086B6E00086D6E000800000000DD
:106020000000000000000000000000006F6E00088B
:10603000716E000800000000736E0008736E0008A7
:10604000456D0008456D0008916E0008456D00081B
:10605000456D0008456D0008E76E0008ED6E00080C
:10606000F36E0008F96E0008FF6E00089D6E0008D0
:10607000A96E0008B56E0008C16E0008456D0008E5
:10608000456D0008456D0008456D0008456D000828
:10609000456D0008456D0008056F0008456D000856
:1060A000456D0008456D0008456D0008456D000808
:1060B000456D0008456D0008456D0008456D0008F8
:1060C000413101084D310108456D0008456D00085A
:1060D000CD6E0008E56E0008996F0008456D000858
:1060E000456D0008456F0008796E0008456D000891
:1060F000456D0008456D0008456D0008456D0008B8
:10610000456D0008456D0008856E0008B16F0008F8
:10611000456D0008456D0008456D0008456D000897
:10612000456D0008456D0008456D0008456D000887
:08613000456D0008456D0008F3
:1061400010B5054C237833B9044B13B10448AFF3B1
:1061500000800123237010BD506D0020000000005E
:10616000E07F010808B5034B1BB103490348AFF3B7
:10617000008008BD00000000546D0020E07F010891
:1061800010F8012B11F8013B012A28BF9A42F7D0E1
:10619000D01A7047034613F8012B002AFBD1181AB6
:1061A00001387047000000000000000000000000FF
:1061B00001F0FF01102A2BDB10F0070F08D010F8B8
:1061C000013B013A8B422DD010F0070F42B3F6D1BC
:1061D000F0B441EA012141EA014122F007047FF0D5
:1061E00000070023F0E80256083C85EA010586EA2C
:1061F000010685FA47F5A3FA87F586FA47F6A5FA68
:1062000087F68EB9EED1F0BC01F0FF0102F0070273
:1062100032B110F8013B013A83EA010313B1F8D11E
:106220000020704701387047002D06BF35460338FF
:10623000073815F0010F07D1013015F4807F02BF38
:10624000013015F4C03F0130F0BC0138704700BF89
:1062500070B54FF0FF0C4CF4E06C1CEA11541DBFFC
:106260001CEA135594EA0C0F95EA0C0F00F0DEF8C7
:106270002C4481EA030621EA4C5123EA4C5350EAAC
:10628000013518BF52EA033541F4801143F48013FD
:1062900038D0A0FB02CE4FF00005E1FB02E506F08E
:1062A0000042E0FB03E54FF00006E1FB03569CF0E3
:1062B000000F18BF4EF0010EA4F1FF04B6F5007FE9
:1062C00064F5407404D25FEA4E0E6D4146EB06065B
:1062D00042EAC62141EA55514FEAC52040EA5E50E4
:1062E0004FEACE2EB4F1FD0C88BFBCF5E06F1ED88E
:1062F000BEF1004F08BF5FEA500E50F1000041EBC5
:10630000045170BD06F0004646EA010140EA020071
:1063100081EA0301B4EB5C04C2BFD4EB0C0541EA93
:10632000045170BD41F480114FF0000E013C00F3A8
:10633000AB8014F1360FDEBF002001F0004170BDCC
:10634000C4F10004203C35DA0C341BDC04F11404E5
:10635000C4F1200500FA05F320FA04F001FA05F271
:1063600040EA020001F0004221F0004110EBD3703E
:1063700021FA04F642EB06015EEA430E08BF20EA6A
:10638000D37070BDC4F10C04C4F1200500FA04F30D
:1063900020FA05F001FA04F240EA020001F000419F
:1063A00010EBD37041F100015EEA430E08BF20EA12
:1063B000D37070BDC4F1200500FA05F24EEA020E5A
:1063C00020FA04F301FA05F243EA020321FA04F089
:1063D00001F0004121FA04F220EA020000EBD37040
:1063E0005EEA430E08BF20EAD37070BD94F0000F40
:1063F0000FD101F00046400041EB010111F4801F74
:1064000008BF013CF7D041EA060195F0000F18BF24
:10641000704703F00046520043EB030313F4801F60
:1064200008BF013DF7D043EA0603704794EA0C0F1A
:106430000CEA135518BF95EA0C0F0CD050EA410630
:1064400018BF52EA4306D1D181EA030101F00041AD
:106450004FF0000070BD50EA410606BF10461946D5
:1064600052EA430619D094EA0C0F02D150EA0136E1
:1064700013D195EA0C0F05D152EA03361CBF104622
:1064800019460AD181EA030101F0004141F0FE41C1
:1064900041F470014FF0000070BD41F0FE4141F445
:1064A000780170BD70B54FF0FF0C4CF4E06C1CEA45
:1064B00011541DBF1CEA135594EA0C0F95EA0C0FFA
:1064C00000F0A7F8A4EB050481EA030E52EA0335B5
:1064D0004FEA013100F088804FEA03334FF08055D6
:1064E00045EA131343EA12634FEA022245EA111503
:1064F00045EA10654FEA00260EF000419D4208BFB4
:10650000964244F1FD0404F5407402D25B084FEA60
:106510003202B61A65EB03055B084FEA32024FF40C
:1065200080104FF4002CB6EB020E75EB030E22BF69
:10653000B61A754640EA0C005B084FEA3202B6EB29
:10654000020E75EB030E22BFB61A754640EA5C00D8
:106550005B084FEA3202B6EB020E75EB030E22BF68
:10656000B61A754640EA9C005B084FEA3202B6EB69
:10657000020E75EB030E22BFB61A754640EADC0028
:1065800055EA060E18D04FEA051545EA16754FEA8A
:1065900006164FEAC30343EA52734FEAC2025FEAA8
:1065A0001C1CC0D111F4801F0BD141EA00014FF037
:1065B00000004FF0004CB6E711F4801F04BF014308
:1065C0000020B4F1FD0C88BFBCF5E06F3FF6AFAE24
:1065D000B5EB030C04BFB6EB020C5FEA500C50F1B4
:1065E000000041EB045170BD0EF0004E4EEA113137
:1065F00014EB5C04C2BFD4EB0C0541EA045170BD3E
:1066000041F480114FF0000E013C90E645EA060E81
:106610008DE60CEA135594EA0C0F08BF95EA0C0FAF
:106620003FF43BAF94EA0C0F0AD150EA01347FF4F7
:1066300034AF95EA0C0F7FF425AF104619462CE7CE
:1066400095EA0C0F06D152EA03353FF4FDAE104631
:10665000194622E750EA410618BF52EA43067FF482
:10666000C5AE50EA41047FF40DAF52EA43057FF412
:10667000EBAE12E74FEA410C7FEA6C5C02D150EAC4
:10668000013C0AD14FEA430C7FEA6C5C02D152EA2A
:10669000033C02D14FF0000070474FF001007047FB
:1066A0004FF0FF0C1CEAD0521EBF1CEAD15392EAF5
:1066B0000C0F93EA0C0F6FD01A4480EA010C4002D1
:1066C00018BF5FEA41211ED04FF0006343EA50102B
:1066D00043EA5111A0FB01310CF00040B1F5000F6D
:1066E0003EBF490041EAD3715B0040EA010062F11C
:1066F0007F02FD2A1DD8B3F1004F40EBC25008BF06
:1067000020F00100704790F0000F0CF0004C08BF23
:1067100049024CEA502040EA51207F3AC2BFD2F1F0
:10672000FF0340EAC250704740F400004FF00003FE
:10673000013A5DDC12F1190FDCBF00F00040704738
:10674000C2F10002410021FA02F1C2F1200200FA76
:1067500002FC5FEA310040F1000053EA4C0308BF3D
:1067600020EADC70704792F0000F00F0004C02BF8E
:10677000400010F4000F013AF9D040EA0C0093F009
:10678000000F01F0004C02BF490011F4000F013B63
:10679000F9D041EA0C018FE70CEAD15392EA0C0FD1
:1067A00018BF93EA0C0F0AD030F0004C18BF31F03C
:1067B000004CD8D180EA010000F00040704790F012
:1067C000000F17BF90F0004F084691F0000F91F0B6
:1067D000004F14D092EA0C0F01D142020FD193EA7C
:1067E0000C0F03D14B0218BF084608D180EA010004
:1067F00000F0004040F0FE4040F40000704740F0E0
:10680000FE4040F4400070474FF0FF0C1CEAD052AD
:106810001EBF1CEAD15392EA0C0F93EA0C0F69D009
:10682000A2EB030280EA010C49024FEA402037D074
:106830004FF0805343EA111143EA10130CF000406B
:106840008B4238BF5B0042F17D024FF4000C8B425B
:1068500024BF5B1A40EA0C00B3EB510F24BFA3EB3B
:10686000510340EA5C00B3EB910F24BFA3EB91030B
:1068700040EA9C00B3EBD10F24BFA3EBD10340EA65
:10688000DC001B0118BF5FEA1C1CE0D1FD2A3FF6AB
:1068900050AF8B4240EBC25008BF20F00100704760
:1068A0000CF0004C4CEA50207F32C2BFD2F1FF0303
:1068B00040EAC250704740F400004FF00003013A34
:1068C00037E792F0000F00F0004C02BF400010F4D8
:1068D000000F013AF9D040EA0C0093F0000F01F0EC
:1068E000004C02BF490011F4000F013BF9D041EA0E
:1068F0000C0195E70CEAD15392EA0C0F08D1420241
:106900007FF47DAF93EA0C0F7FF470AF084676E713
:1069100093EA0C0F04D14B023FF44CAF08466EE7EC
:1069200030F0004C18BF31F0004CCAD130F00042BA
:106930007FF45CAF31F000437FF43CAF5FE700BF12
:1069400010B59AB04822002108A80EF0E3FA1822E8
:10695000002102A80EF0DEFA21F06CFD4FF0B042EB
:106960000024D2F8903023F01803C2F89030D2F807
:10697000003423F4C06343F40073C2F80034D2F847
:106980000034119403F4C06301934FF48072019BAF
:106990000C922E234022089381230B930D92012306
:1069A000B02208A8CDE90E341093129213941FF070
:1069B000F3F908B11AF054FE4F23022102A8CDE9E1
:1069C0000234CDE90444CDE906441FF087FC08B148
:1069D0001AF046FE1AB010BD13B50378082B00F26A
:1069E000A280DFE803F013848BA0949405A09A00A2
:1069F000047920461AF086FF204605F0E7FB0021C7
:106A0000204602B0BDE810401AF084BF00201AF002
:106A100079FF012826D101201AF074FF012804D043
:106A200001200AF0FFFA00282ADC02201AF06AFF8F
:106A3000012804D002200AF0F5FA00283BDC02B05D
:106A400010BD012201A900200AF0B4F900201AF0BB
:106A500059FF044630B90AF0C1FA48B99DF804104C
:106A600005F020FB00200AF0DDFA0028E9DCD2E77F
:106A70000128F7D19DF8041020460AF009FAF1E741
:106A8000012201A910460AF095F901201AF03AFFF7
:106A90000028C5D101200AF0A1FA28B99DF80410F8
:106AA000012005F0FFFABBE70128B9D19DF80410D9
:106AB0000AF0EEF9B4E7012201A902200AF07AF9FE
:106AC00002201AF01FFF0028B4D102200AF086FA33
:106AD00028B99DF80410022005F0E4FAAAE701287D
:106AE000A8D19DF8041002200AF0D2F9A2E729F0FB
:106AF0003DF902B0BDE8104019F060BB0E4B1B68B9
:106B0000002B9CD0406802B0BDE810401847406898
:106B100002B0BDE810400AF01DBB406802B0BDE8FD
:106B2000104009F0B9BF054B1B6E002B87D002B097
:106B3000BDE81040184700BF707A0020C0B90308B4
:106B400030B52D4B2D4A9A6085B01EF059FEFFF7E7
:106B5000F7FE4FF0B0430B209A6C42F004029A64A7
:106B60009A6C02F004020392039A9A6C42F00102BA
:106B70009A649B6C002203F0010311460293029B6E
:106B80001CF044F90B201CF073F90AF0D7FA09F055
:106B90003DFF1BF02FF80024014605462346032243
:106BA0000120CDE900440AF02FF8234603222946AC
:106BB0000220CDE900440AF027F81BF013FE1BF079
:106BC000B7F802F0E1FDE5B228461AF09BFE10B9D5
:106BD000284605F0FBFA0134032CF4D10AF096FAAA
:106BE0001BF0EEFD012804D105B0BDE8304003F0F4
:106BF0001DBE05B030BD00BF00ED00E00060000824
:106C000008B50AF091FABDE8084019F0D7BA0000BB
:106C100013B5FFF795FF4FF0B043DA6C42F0020274
:106C2000DA64DB6C03F002030193019B0BF0AAFE14
:106C300018F086F9F0B1164801F04BFB154B1648D9
:106C40001A68164B196801F044FB15480AF076F8EB
:106C500018F0CAF901280FD002280FD010B9114836
:106C60000AF06CF8104CFFF7CBFF237843B90BF018
:106C70008BFEF8E70D48DFE70D48F1E70D48EFE739
:106C80001AF088FE0028EED0002009F087FFEAE71E
:106C90003B800108BC02002051800108B0020020A6
:106CA00061800108758001086C6D00204680010834
:106CB000818001088C800108174885461AF0E2FCA3
:106CC00016481749174A002302E0D458C450043329
:106CD000C4188C42F9D3144A144C002301E0136009
:106CE0000432A242FBD312481249134A002302E0A5
:106CF000D458C4500433C4188C42F9D30F4A104CF2
:106D0000002301E013600432A242FBD30EF086F8A8
:106D1000FFF77EFFFEE7000000FC002000000020DF
:106D2000D002002000C00308D0020020985E00209E
:106D300000600020506D0020D0AD0108506D002093
:106D400068A9002000F05AB80368074A934206D1A8
:106D5000DA69D20606D510221A6200F0D7BF034ABC
:106D60009342F5D0704700BF0080004000380140DA
:106D70004FF0B0434FF0FF319A6B9963DA6BD963F0
:106D80009A6B00229A63D86BDA63186C1964186CDA
:106D90001A64586C5964586C5A64986A9962986A73
:106DA0009A62D86AD962D86ADA62186B1963196B69
:106DB0001A635A6C42F001025A645A6C22F00102C2
:106DC0005A64D3F8902042F48032C3F89020D3F86C
:106DD000902022F48032C3F89020BFF34F8F0549F2
:106DE000054BCA6802F4E0621343CB60BFF34F8FD8
:106DF00000BFFDE700ED00E00400FA054FF0B043EE
:106E00004FF0FF319A6B9963DA6BD9639A6B00226A
:106E10009A63D86BDA63186C1964186C1A64586C2E
:106E20005964586C5A64986A9962986A9A62D86AE6
:106E3000D962D86ADA62186B1963196B1A635A6CD3
:106E400042F001025A645A6C22F001025A64D3F8EB
:106E5000902042F48032C3F89020D3F8902022F49E
:106E60008032C3F89020FEE7FEE7FEE7FEE77047BA
:106E700070471EF0DBBC0000014820F0CDB800BF19
:106E8000D8440020014822F0ACBB00BFD002002053
:106E9000014821F0FBB800BFD8440020014825F08C
:106EA000D7BC00BFC4730020014825F0D1BC00BF8F
:106EB000F46E0020014825F0CBBC00BF546F0020C9
:106EC000014825F0C5BC00BF2474002010B5044C57
:106ED00020460AF04BFE2046BDE81040FFF734BFC5
:106EE000147500207047012022F07EBD022022F0A0
:106EF0007BBD042022F078BD082022F075BD102053
:106F000022F072BD0E4BDA68920602D5202022F0E4
:106F10006BBDDA68500601D54020F8E7DA68110643
:106F200001D58020F3E7DA68D20502D54FF48070EE
:106F3000EDE7DB689B0502D54FF40070E7E770478B
:106F400000080058134BDA68510503D54FF48060F0
:106F500022F04ABDDA68120502D54FF40060F7E767
:106F6000DA68D00402D54FF48050F1E7DA68910472
:106F700002D54FF40050EBE7DA68520402D54FF423
:106F80008040E5E7DB681B0402D54FF40040DFE7F3
:106F9000704700BF0008005810B5044C20460AF0A6
:106FA000E5FD2046BDE81040FFF7CEBE847400200A
:106FB000014824F023BE00BF104500204FF0B0432D
:106FC00082B0DA6C0243DA64DB6C18400190019BFA
:106FD00002B070471FB514284FF00003CDE902330B
:106FE0000C460CD8092812D90A380A280FD8DFE82D
:106FF00000F07B0E0E0E0E820E0E74116D00FE2838
:1070000000F08380FF2800F08280FD287AD06FF0A6
:10701000030059E03F4A404B0193137843F00103CA
:1070200013703E483E4A4FF00043C0E900233D4BF9
:1070300004221B688360426100230122C2614FF475
:10704000805106220383C0E90333C0E90933C0E954
:107050000C12837680F8203080F82C30836380F81F
:107060003C30C3640AF088F808B11AF0F9FA2B48EA
:107070000AF04CFC08B11AF0F3FA0023274801A9E2
:10708000CDE902330AF000FA08B11AF0E9FA234810
:107090000AF066FB08B11AF0E3FA0A211F480AF069
:1070A00095F91E480AF014FC1C480AF0EAF91E4B38
:1070B000019A80B29A42208004BF00EB40002080F9
:1070C00016480AF0B1FB002004B010BD114A174B5E
:1070D0000193137843F00203A2E70E4A144B019385
:1070E000137843F004039BE70A4A124B0193137889
:1070F00043F0080394E7074A0F4B0193137843F0DA
:1071000010038DE70D4B01938BE70D4BFBE7064B0F
:10711000F9E700BF6D6D002004000008706D0020CD
:107120000024014004600020004000B80800000C6A
:1071300010000010400000180008002C001000B0E3
:10714000002000B470477047014B1878704700BFAB
:1071500009600020014B1878704700BF08600020CC
:1071600010B5044686B01422002101A80DF0D2FE0D
:1071700022685E4B9A4240F08E804FF0B0435C4CE8
:107180001A6E42F400721A661B6E03F400730093C9
:10719000009B2378DA0708D5132000F03DF9B0F101
:1071A000904F7AD10120FFF709FF23789B0708D57C
:1071B000142000F031F9B0F1904F76D10120FFF7A3
:1071C000FDFE2378580708D5122000F025F9B0F10C
:1071D000904F72D10120FFF7F1FE2378190708D5EF
:1071E0000A2000F019F9B0F1904F6ED10120FFF79D
:1071F000E5FE2378DA0608D50F2000F00DF9B0F18E
:10720000904F6AD10120FFF7D9FE00234FF0030C05
:10721000CDE902C32378DB0709D5132000F001F97B
:107220000190132000F0F8F801A922F08DFA2378DC
:10723000980709D5142000F0F4F80190142000F00C
:10724000EBF801A922F080FA2378590709D512201A
:1072500000F0E7F80190122000F0DEF801A922F01A
:1072600073FA23781A0709D50A2000F0DAF801909A
:107270000A2000F0D1F801A922F066FA2378DB0693
:1072800009D50F2000F0CDF801900F2000F0C4F8D0
:1072900001A922F059FA06B010BD132000F0BCF885
:1072A000144B984281D102207DE7142000F0B4F8FD
:1072B000104B984285D1022081E7122000F0ACF8F3
:1072C0000C4B984289D1022085E70A2000F0A4F8EF
:1072D000084B98428DD1022089E70F2000F09CF8DE
:1072E000044B984291D102208DE700BF0024014059
:1072F0006D6D00200004004838B5334B02689A4297
:1073000060D14FF0B042314C136E23F4007313661A
:107310002378DD070ED5132000F07EF805461320F4
:1073200000F07FF80146284622F0C0FA237823F0C7
:1073300001032370237898070ED5142000F06CF811
:107340000546142000F06DF80146284622F0AEFAFA
:10735000237823F002032370237859070ED51220D7
:1073600000F05AF80546122000F05BF80146284666
:1073700022F09CFA237823F00403237023781A0761
:107380000ED50A2000F048F805460A2000F049F81A
:107390000146284622F08AFA237823F00803237056
:1073A0002378DB060ED50F2000F036F805460F20B7
:1073B00000F037F80146284622F078FA237823F0C7
:1073C0001003237038BD00BF002401406D6D002004
:1073D000034B00221A70034B01221A70704700BF42
:1073E000739C0020719C0020C26891FAA1F0B0FA51
:1073F00080F0430003209840104091FAA1F1B1FAC7
:1074000081F14900C8407047024B53F8203003B166
:1074100018477047346E0020000900F59010800274
:10742000704700F00F030120984080B270472F286A
:1074300008B5034600D908BDFFF7EEFF03F00F02C1
:1074400001230168934093FAA3F2B2FA82F042005A
:1074500003209040084093FAA3F3B3FA83F35B0050
:10746000D840E8D001284FF0000008BF0120E2E733
:1074700030B52F2887B00B4623D800F00F04012128
:10748000A1400222032B019104921CD8012B1DD98B
:107490004FF488130293FFF7BFFF0546FFF7A4FFE1
:1074A000012819D0022817D001A9284622F04CF94A
:1074B000A4B90620224602211BF0A8FC06201BF0DE
:1074C000D7FC07B030BD043B012B02D94FF4441365
:1074D000E0E74FF40413DDE70390E5E7012C06D164
:1074E0000720002202211BF091FC0720E7E7022C75
:1074F00006D10820002221461BF088FC0820DEE788
:10750000032C06D10920002202211BF07FFC092058
:10751000D5E7042C06D10A20002202211BF076FCBC
:107520000A20CCE7053C042C4FF000024FF002018A
:1075300004D816201BF06AFC1620C0E729201BF097
:1075400065FC2920BBE70000044B00F00F0053F856
:1075500020200AB943F8201000207047346E002024
:10756000F8B50F4D0F4E104F00240F2C05DDA4F180
:107570001203052B01D91C2C0ED155F824305BB910
:1075800006EB44035B783BB139782046FFF770FF88
:1075900006492046FFF7D8FF0134302CE5D1F8BD6D
:1075A000346E0020D46D00200A600020D1730008E2
:1075B0002DE9F041194D1A4E86B0002402270F2CF8
:1075C00005DDA4F11203052B01D91C2C1FD155F8A0
:1075D0002430E3B916F81410012918D104F00F0370
:1075E0009940204601910497FFF716FF8046FFF768
:1075F000FBFE03902046FFF71AFF012801D10290FD
:1076000001E00028FBD001A9404622F09DF801349A
:10761000302CD4D106B0BDE8F08100BF346E00201C
:10762000D46D002008B50A480BF01CF90022114661
:107630000C201BF0EBFB0C201BF01AFC00220D2091
:1076400011461BF0E3FBBDE808400D201BF010BC09
:107650000C6000207047000038B5054D002415F877
:10766000013B0BB1FFF7DEFF0134042CF7D138BD2D
:10767000B46F0020F0B5064689B01422002103A89B
:107680000DF048FC3268404B9A426BD14FF0B04449
:107690000520236E43F480532366236E03F4805346
:1076A0000093009BFFF7B8FEB0F1904F5CD1E36C04
:1076B00043F00103E364E36C03F001030193019BD6
:1076C0000520FFF7AEFE04460620FFF7AAFE04439E
:1076D000039405240025022720460794CDE904756C
:1076E0000695FFF799FE03A922F02EF80720FFF771
:1076F00098FECDE9030707200794CDE90575FFF74C
:107700008BFE03A922F020F8204C21492562082392
:10771000C4E900131023C4E9023520468023C4E9DC
:107720000435C4E9065524F05FFE08B119F098FF4E
:10773000184A7465A662184C0723C4E90023002385
:107740008022C4E90233C4E90423C4E90633204695
:107750004FF40053236224F047FE08B119F080FF74
:10776000B465A66209B0F0BD0520FFF755FE0B4BCE
:107770009842A5D1E36C43F00203E364E36C03F0A9
:1077800002030293029B9BE700300140546F0020EC
:10779000300002401C000240F46E0020000400484B
:1077A0004FF0B04382B09A6C02439A649B6C1840CD
:1077B0000190019B02B070474FF0B04382B0DA6C89
:1077C0000243DA64DB6C18400190019B02B0704701
:1077D00010B5064C0649802220460AF015FF2268A3
:1077E000136843F01003136010BD00BF84740020C1
:1077F000A4750020012810B50BD1094C094980223D
:1078000020460AF001FF2268136843F0100313605A
:1078100010BD0228FCD1BDE81040FFF7D9BF00BF62
:10782000147500202C7600202DE9F7439DF8285090
:107830009DF82C80012B14BF00274FF40057012D19
:1078400004460E4669D0032D6AD0002D6BD000256A
:10785000013AD2B2022A6BD8664B53F82290012C1F
:1078600070D10420FFF79CFF2046FFF799FF00220C
:1078700011460E201BF0CAFA0E201BF0F9FA5E4BDF
:107880005E4883F801805E4B0561C0E900360C2438
:107890000023C0E90297C0E90543C0E9073343620A
:1078A000B8F1000F49D0B8F1020F01BF082383627D
:1078B0004FF40043836351480AF01AFE08B119F0EF
:1078C000CFFE4E4800210AF083FF08B119F0C8FE30
:1078D0004A4800210AF0A1FF08B119F0C1FE47484B
:1078E0000AF057FF08B119F0BBFE0120FFF782FF35
:1078F0004FF44013009302AB13E906003F480AF02F
:10790000D1FE08B119F0ACFE4FF0B042936843F4D9
:107910000043936003B0BDE8F0834FF4C06597E780
:107920004FF4806594E7022A05D14FF0805996E71D
:107930004FF0000993E7A94691E7C0F828800AF0C4
:10794000A5FDBBE7022CE5D12B4B2E4C83F8028022
:107950000420FFF725FF0120FFF722FF0022114638
:107960000B201BF053FA0B201BF082FA264B2561EB
:10797000C4E900360C2200232046C4E90297C4E97A
:107980000523C4E90833A36263660AF07FFD08B1EA
:1079900019F066FE1B4800210AF01AFF08B119F021
:1079A0005FFE184800210AF038FF08B119F058FEB0
:1079B00014480AF0EEFE08B119F052FEFFF708FF76
:1079C0004FF44013009302AB13E906000D480AF090
:1079D00069FE08B119F044FE0C4AD2F8803043F039
:1079E0008053C2F880302268936843F48003936028
:1079F0008AE700BF94800108D0760020147500202B
:107A000000380140847400200080004000080058C5
:107A10002DE9F3419DF820809DF824C0CDE9008C2C
:107A200016461D4604460F46FFF7FEFE064B0C2089
:107A30004443181901221A5547600672457280F8AE
:107A40000A8002B0BDE8F081AC760020022810B5B3
:107A500004460BD1074809F0EBFF08B119F000FE0E
:107A60000C20054B444300221A5510BD0128F7D1C4
:107A70000248F0E784740020AC76002014750020E2
:107A80000128F8B505460E461F462BD194B2184A78
:107A90005278013A012A17D816480AF03AFA2246D3
:107AA00014483B4631460AF061FC044611480AF08E
:107AB00055FA84B9104B1B680BB90020F8BD21465C
:107AC000284698472046F9E70A4822460AF04EFC25
:107AD00004460028F6D0022C14BF6FF006006FF0A9
:107AE0000500EBE70228E8D1044892B2EEE700BFB8
:107AF000D076002014750020BC6F00208474002014
:107B0000012802D1044800F079BB022801D10348C2
:107B1000F9E76FF006007047706000208460002075
:107B2000012807B50AD10A480DF1070100F0A3FBAF
:107B300050B16FF0060003B05DF804FB0228F8D1E5
:107B400004480DF10701F1E79DF80700F3E700BFD6
:107B5000706000208460002070470000012802D17E
:107B6000044800F0EFBA022801D10348F9E76FF0AA
:107B7000060070477060002084600020F8B5224D38
:107B8000224F00240C23224A63439B5CCBB1022C7E
:107B90001BD1204E3368DA69D103FCD4DA69520272
:107BA000FCD51C480AF0C9FD33681A4810221A6235
:107BB0001A6822F010021A6009F05BFFF06F24F0DF
:107BC00085FC0134032CDDD1F8BD012CF9D108234B
:107BD0002B624FF480132B6255E8003F43F0020301
:107BE00045E80032002AF7D157E8003F43F480030C
:107BF00047E80032002AF7D1074AD2F8803043F034
:107C00008063C2F88030DCE700380140083801406A
:107C1000AC760020847400200008005873B50B4C2B
:107C20000B4E4FF0FF35012D0BD923784BB1337834
:107C30000193A37A0093227A637A61680020FFF7A8
:107C4000F3FD0135022DEED102B070BDAC760020FF
:107C5000D076002070B51D4B02689A42044615D1BB
:107C600009F007FF1A4E002516F8011B0220013506
:107C700009F0ECF9802DF7D1154916482A4600F095
:107C800070FA13492A4620460AF0BEFC2268124BBD
:107C90009A4216D1204609F0ECFE104E002516F847
:107CA000011B0120013509F0D1F9802DF7D10B49D5
:107CB0000B482A4600F055FA08492A4620460AF0A1
:107CC000A3FCBDE87040074809F028BA00800040D6
:107CD000A475002084600020003801402C7600202C
:107CE00070600020247600200268054B9A4205D17E
:107CF000044B1B6813B1012108461847704700BFA9
:107D000000380140BC6F002070470000F8B52F4BD1
:107D100002689A4204461DD109F0ABFE2C4B2D4F50
:107D20001B685D68C5F18005ADB20026B5423FDC39
:107D3000284929482A4600F014FA8022254920467D
:107D40000AF062FC254B1A78012A03D100221A702E
:107D500008F01CFF2268224B9A4224D1204609F0E9
:107D600088FE204B204F1B685D68C5F18005ADB2D1
:107D70000026B54223DC1C491C482A4600F0F1F9D4
:107D80008022194920460AF03FFC144B1A78012A38
:107D900003D100221A7008F0F9FE154B1B6813B1CD
:107DA000012108469847BDE8F840124809F0B6B9E5
:107DB00017F8011B022009F049F90136B6E717F858
:107DC000011B012009F042F90136D2E70080004092
:107DD000C4730020A475002084600020B86F0020C8
:107DE00000380140247400202C76002070600020B0
:107DF000BC6F00202476002073B5314B00261E7026
:107E000003685A6A8DF807202E4A9342054619D115
:107E10002D482E4C0AF0A7FC2D4926621523C4E9F3
:107E2000001320468023C4E90266C4E90436C4E98D
:107E3000066624F0D9FA08B119F012FCEC67A562C5
:107E4000FFF7C6FC2A68234B9A421BD12248234CD9
:107E50000AF089FC224A1123C4E9002320460023AA
:107E60008022C4E90233C4E90423C4E9063323624F
:107E700024F0BAFA08B119F0F3FBEC670120A5620F
:107E8000FFF7B8FC2C680F4B9C420DD19DF80710F2
:107E9000022009F0DBF82B68A34205D1114801222A
:107EA0000DF1070100F05DF90F4809F037F90F4BAC
:107EB0001A781AB901221A7008F060FE02B070BD7B
:107EC000739C00200080004084740020C473002054
:107ED000080002400038014014750020247400207E
:107EE000440002408460002024760020B86F002007
:107EF00070B596B005461422002103A80DF00AF8CB
:107F00003822002108A80DF005F82B685F4A93423B
:107F100066D15F4B012408A8CDE908431EF026FC7A
:107F200008B119F09DFB4FF0B04316201A6E42F4D1
:107F300080421A661B6E03F480430193019BFFF796
:107F40006BFAB0F1904F38D10120FFF735FC0220D9
:107F5000FFF732FC4F4B9B6A082B36D11720FFF7F7
:107F600060FA12230390002604930123CDE905361D
:107F700049484A4C072303A9079321F0E5FB4848E9
:107F800026621123C4E9000380232046C4E9026667
:107F9000C4E90436C4E9066624F026FA08B119F0EB
:107FA0005FFB00222420EC671146A5621AF02EFF29
:107FB00024201AF05DFF16B070BD1620FFF72CFAD2
:107FC000354B9842C3D10220BFE71620FFF729FAAC
:107FD00004461720FFF725FA044303940223C2E75F
:107FE000304A9342E7D1202308936B68B3F5166FAC
:107FF00094BF4FF440634FF4006308A80C931EF045
:10800000B5FB08B119F02CFB4FF0B0430120DA6D3D
:1080100042F00102DA65DB6D03F001030293029B7B
:10802000FFF7CAFB0220FFF7FCF904460320FFF725
:10803000F8F90222012300260443CDE9042303A911
:1080400008234FF09040CDE90663039421F07CFBB8
:10805000154C1649A6611523C4E900138023C4E911
:10806000043620462023C4E90266C4E9073624F01A
:10807000BBF908B119F0F4FA00222620EC6711468A
:10808000A5621AF0C3FE262093E700BF0038014026
:10809000020003001475002000040048247400202E
:1080A0004400024000800040C473002008000240E9
:1080B00070B51B4A0368934204461DD14FF0B0428D
:1080C0001620136E23F480431366FFF7A5F90546C7
:1080D0001620FFF7A6F906461720FFF7A2F946EA91
:1080E0000001284621F0E2FBE06F24F0EFF92420A4
:1080F000BDE870401AF0CABE0A4A93420FD14FF051
:10810000B0420C21D36D23F00103D3654FF09040B2
:1081100021F0CCFBA06F24F0D9F92620E8E770BD50
:10812000003801400080004008B5054B02689A42C3
:1081300005D109F038FFBDE80840FFF749BB08BD8D
:1081400000800040C26803699A4282BF40681B18E1
:108150000133981A704708B54168FFF7F3FF081A12
:1081600008BD2DE9F743044601A81646884608F0E5
:10817000DFFF2046FFF7EFFF864228BF0646204676
:10818000FFF7E9FFE3682569A268AB429CBF63681B
:1081900001335D1B814623692068AE4202FB030068
:1081A00013D8724341460CF08DFE23696268334454
:1081B000934296BF236900239B19236101A808F00D
:1081C000B9FF304603B0BDE8F08305FB02F73A463D
:1081D00041460CF077FEA2682068751B6A4308EBE5
:1081E00007010CF06FFE4E452561E7D923696268EF
:1081F000934234BF01330023E360DFE72DE9F3410D
:10820000044601A81646884608F092FF2046FFF76C
:1082100099FFE768E5682369A2682168864228BF5C
:1082200006469D4284BF636801335D1BAE4202FB7C
:10823000071110D8724340460CF044FE6268374480
:10824000974288BF0027E76001A808F073FF304617
:1082500002B0BDE8F08105FB02F73A4640460CF05B
:1082600031FEA2682168751B6A4308EB07000CF019
:1082700029FEE560E8E710B504460846E268236990
:108280009A4223D0A268E1682368541E072C18D8AC
:10829000DFE804F00408170C171717105B5C037075
:1082A000002010BD33F811300380F9E753F8213076
:1082B0000360F5E703EBC103D3E90023C0E9002322
:1082C000EEE701FB02310CF0FDFDE9E76FF00E0077
:1082D000E7E70FB400B5ADF5037D19F023FDC0B29B
:1082E00001280AD185AB849A01934FF4007102A84A
:1082F0001CF032FF02A808F021FD0DF5037D5DF8AA
:1083000004EB04B0704719F001BD08B519F00AFD7F
:10831000C0B208BD014B00221A707047739C002048
:108320007047000008B517F01EF8024658B1064B1A
:10833000064900209A4208BF042003F5C31303F541
:1083400020638B42F6D108BDC0AFD235C0FF953651
:1083500008B517F008F8024658B1064B0649002048
:108360009A4208BF062003F5C31303F520638B422E
:10837000F6D108BD6086973660D65A3716F0F3BF3F
:10838000014808F0DBBC00BFA080010808B5034825
:1083900008F0C4FE024B00221A7008BDE060002005
:1083A000739C002030B58BB00446342368468DF8AA
:1083B000003026F07FFD14B3019D26F0FDFCF0B9DE
:1083C000E30702D5284619F0CFFFA00703D505F132
:1083D000380019F0E1FF610703D505F1580019F0E5
:1083E000F3FF220703D505F5EE701AF007F8A30690
:1083F00003D505F564701AF01BF826F0D3FC0BB01A
:1084000030BD10B526F0D8FC0128044604D030B9A0
:1084100008F09EFE204610BD6FF00500FBE76FF0F0
:108420000600F8E710B5134B134A1B680446407862
:1084300060B92179117003B198472378012B17D1C6
:1084400023792BB10D4808F079FC05E00021F1E714
:1084500061780B4808F072FC002002F011FB207CD0
:1084600002F072FB21460020BDE8104017F086BEE6
:108470000448E8E77C7A00204B790020B2800108AC
:10848000CB800108EC800108022813B5044605D012
:10849000144802B0BDE8104008F050BC124808F083
:1084A0004DFCFF238DF803300DF103024FF0043330
:1084B00001210E48019319F033F801AA04210C4858
:1084C00019F02EF8204608F0C7FB012008F0C4FB85
:1084D0004FF000635A681B6883F30888904702B026
:1084E00010BD00BFFB8001080C810108004000089E
:1084F0000440000870B5044601468AB0032017F016
:108500003DFE23780A2B10D00E2B0CD13E4808F0EC
:1085100015FC3E4A0023684613708DF800308DF834
:10852000043026F015FE0AB070BD63780D2B64D1BF
:10853000374808F003FC354B1A78042A1CD0022671
:1085400000201E7008F004FE00223249104608F098
:10855000FBFD0546B8B924F031FA424202F01F0291
:1085600000F01F004FF47A7158BF504200FB011118
:108570003246284608F0EAFDA37D032B1FD8DFE82A
:1085800003F00B24272A40F2E321234808F0D6FB0E
:10859000002008F0DDFDEFE7204A00231380237E52
:1085A000617E1B0243EA0143E17D0B435360E37E9E
:1085B000217F1B0243EA0143A17E0B439360D4E970
:1085C0000101174B83E80300ADE7144A0123E5E7F7
:1085D000124A0223E2E7237E617E104A1B0243EA2D
:1085E0000143E17D0B43D360E37E217F1B0243EA1D
:1085F0000143A17E0B431361E1E70E2BDFD1094854
:1086000008F09CFBDBE700BF2181010844780020D3
:108610002C810108C18C00083981010828780020CC
:108620003C78002049810108704716F09CBE7FB558
:10863000054616F096FE431EDBB2012B044603D915
:1086400000F0FD03082B1DD101A819F083FB0022C7
:1086500001A91346012011F8016B1EB100FA02F6C0
:1086600033439BB201320C2AF5D104F0FD02082AF3
:1086700001D0012C02D123F480739BB22B80002007
:1086800004B070BD6FF00200FAE7F0B58FB0064697
:108690000F4616F066FEFF23ADF800304FF47F431F
:1086A000ADF80230431EDBB20024012BCDE90144BA
:1086B0000546039403D900F0FD03082B7ED1FFF794
:1086C000A0FE044600286FD1338823B9012D50D174
:1086D00040F2FF1333800C22002101A80CF01AFC99
:1086E0003088002240FA02F1CE07D3B20ED50EAE8A
:1086F00003F0FE0103F00103314406EB430331F8BC
:10870000346C33F8383C334321F8343C01320C2AC2
:10871000E8D105F0FD03082B01D0012D0ED1BDF8E5
:108720000C30002203F47F43ADF80C3011460126D3
:10873000D5B2072D28D909B1ADF80C3023238DF817
:10874000103004A801AB059326F002FD054668B978
:1087500024238DF8103004A801AB059326F0F8FC13
:1087600019F0B4FED8B926F01DFB00B36FF0060473
:108770001AE005F0FD03082B04BFFF233380022D10
:10878000A9D140F6FF73A5E740FA02F5ED0741BF16
:1087900006FA02F10B439BB201210132C8E72846D9
:1087A00019F09AFE0028DED020460FB0F0BD002F51
:1087B000FAD001A819F0D8FA0446F5E76FF00204E0
:1087C000F2E700002DE9F04395B004460D469046CF
:1087D0001F4616F018FC611C064629D16A1C0AD0F7
:1087E000003D18BF012516F09AFD854203D02846AA
:1087F00016F097FD50BBB8F1FF3F07D016F093FD80
:10880000404503D0404616F090FDF8B97B1C07D0D8
:1088100016F08DFDB84203D0384616F08AFDA8B98F
:10882000BCB9204608F094FC754B1C6000200DE09C
:10883000B4F1000918BF4FF0010916F06CFD814535
:10884000CCD0484616F069FD0028C7D015B0BDE869
:10885000F08316F086FD16F098FD002800F0CC801D
:10886000012E40F096808DF8006019F015FC02236F
:108870008DF8050068468DF8043027F063F9614BE8
:10888000049A1A600446002854D116F097FC012877
:1088900008BF5D4B0AA808BF1C7034238DF8283030
:1088A00026F008FB0B9B988816F053FDFFF72DFD73
:1088B0000028CBD034230AA88DF8283026F0FAFA05
:1088C0000AA826F0F7FA0028B0D1504D0B9B2A7861
:1088D00093F858404E480C2606FB0233D3F8901309
:1088E00008F02CFA012C0B9A01D0082C6ED12B78B1
:1088F000D2F8C420474903F0070301FB032146488F
:1089000008F01CFA0B9B4548D3F8C41008F016FA7F
:108910000B9B434893F9491008F010FA0B9B414810
:1089200093F9481008F00AFA0B9B3F48D96808F001
:1089300005FA7BE7012812D00B282BD1304D0020FF
:1089400008F006FC2C6801342C6016F0F0FC844220
:1089500008D900232B600499344808F0EFF96FF030
:10896000050073E700223249104608F0EDFB04468B
:1089700048B916F0D8FC4FF47A714143224620469C
:1089800008F0E4FBE7E740F264612A4808F0D6F912
:10899000E1E716B16FF0060058E7012368468DF84D
:1089A00000308DF8043026F0D3FB0028F2D116F009
:1089B00005FC022807D18DF8040068468DF8006098
:1089C00026F0C6FB72E716F0F9FB6FE7022C297858
:1089D00009D13023B1FBF3F003FB1011CBB2D2F875
:1089E000C420154989E706FB0122D2F89413002917
:1089F00085D1D2F8901382E76FF0100026E700BF10
:108A000024780020C8770020447800207984002052
:108A100087810108C0270900848101089681010827
:108A2000A8810108BE810108D38101086C81010879
:108A30003D8A000856810108400D03004FF0FF33C6
:108A40001A4619460120FFF7BDBE00002DE9F0418E
:108A50009AB00D4602A981E80C00804619F01CFB73
:108A6000074616F0D2FA0646002800F0038125F0EA
:108A7000D5FB10B16FF005009BE017F097FF04469F
:108A80000028F7D116F09AFB022840F095808DF867
:108A9000440010A88DF8404026F05AFB8DF826704F
:108AA00019F09CFB60B119F099FB012802D100205C
:108AB00016F02AFC052310A88DF8403027F042F864
:108AC0006F4B1B78012B05D1092310A88DF840307E
:108AD00027F038F805A9E8B226F08CF90746FFF729
:108AE00014FC60B19DF814309DF815206549664866
:108AF00051F82710D21A00922A4608F01FF9002FC9
:108B000079D000238DF818300893ADF8243006A8EA
:108B100027F0ECFE5D4B0A9A1A600546FFF7F5FB5D
:108B200000283FD0342310A88DF8403026F0C2F939
:108B300010A826F0BFF9002834D1554F119B3A7880
:108B400093F8586053484FF00C0808FB0233D3F8F1
:108B5000901308F0F3F8012E119A01D0082E66D177
:108B60003B78D2F8C4204C4903F0070301FB0321F2
:108B70004A4808F0E3F8119B4948D3F8C41008F0BC
:108B8000DDF8119B474893F9491008F0D7F8119B7D
:108B9000454893F9481008F0D1F8119B4348D9682B
:108BA00008F0CCF8002D58D1002C0CBF6FF002005B
:108BB00000201AB0BDE8F08116F000FB01287FF418
:108BC0006DAF3B4B1B787BB1022B7FF467AF204628
:108BD00008F0BEFA0C238DF82C3016F035FB00F0AF
:108BE00007008DF8300002E009238DF82C300BA827
:108BF00026F0A8FF52E79DF808308DF81C309DF84C
:108C00000B30ADF82450CDF8208053B19DF80C30D6
:108C10005BB900238DF81830264B00221A703446B9
:108C200075E716F067FA0028F3D00123F2E7022E69
:108C3000397809D13023B1FBF3F003FB1011CBB22B
:108C4000D2F8C4201C4991E708FB0122D2F8941302
:108C500000298DD1D2F890138AE7A5F10E03DBB27B
:108C6000012B7FF607AF0B2D07D10A99134808F0A7
:108C700065F8FFE66FF00B009BE76FF0060098E7E2
:108C8000857A0020EC850108DF810108C877002083
:108C90007984002087810108C027090084810108A8
:108CA00096810108A8810108BE810108D3810108CD
:108CB000447800204B790020400D03006C810108AE
:108CC0001FB501238DF808308DF8093000210323EA
:108CD0008DF80A308DF80B10009104AB13E90C00ED
:108CE0000248FFF7B3FE05B05DF804FBC486010837
:108CF0002DE9F04F43788DB00446002B40F0AA8058
:108D0000B0F90E00794F7A4E237C388040B2337030
:108D100001F020FF237B002B3BD0607C7549B7F925
:108D2000002051F8201096F900307348DFF8CC91FC
:108D3000DFF8CCA108F002F8A378012B0CBF714832
:108D4000714807F0FBFFE178704807F0F7FF4FF03C
:108D500000085FFA88FB584618F0D4FD054640B974
:108D6000227BEBB29A4200F2A6805146584607F0A9
:108D7000AFFF08F10108B8F1030FEAD1227BA16827
:108D800063480CF09FF8634B227B1A70624BE278C9
:108D90001A706379012B00F096802378012B05D19E
:108DA0000020FFF78DFF5D4B01221A705C4B1A7893
:108DB0002AB3DFF8709100221A7099F80030F3B9E5
:108DC00096F90030584DDFF8648100932A78B7F99E
:108DD000003098F80010564807F0B0FF554B1B685C
:108DE0006BB1554899F80020027098F80020427045
:108DF0002A7882703A888280327882719847E27845
:108E0000E02A11D04D4B1B6873B14D480270227996
:108E10004270A2684260227B0272E2894281227C17
:108E200002736269026198472146012017F0A6F992
:108E3000444890F802316BB1002380F802318DF87C
:108E40000B3000938DF80930DDE90223B0F80011F2
:108E5000FFF7FCFDFFF759FA50B3342302A88DF851
:108E6000083026F027F802A826F024F8002838D188
:108E7000637C73BB344807F061FFA169334807F096
:108E80005DFFE178324807F059FFB4F90E10314820
:108E900007F054FF94F910102F4807F04FFF217985
:108EA0002E4807F04BFF039B2D48996907F046FFBA
:108EB0000DB0BDE8F08FA2684946D25C584607F075
:108EC00007FF01354CE716F079F900287FF465AF0C
:108ED00066E7012B01D12348CDE7022BCDD12248F3
:108EE000C9E7224807F02AFFE2E700BF6C7A0020BA
:108EF000847A00206C8601083182010856820108BC
:108F0000C2860108428201084D8201088189010858
:108F10004C7900204C7A00204D7A0020CC7700203C
:108F2000567A0020577A002020780020C57700204C
:108F30005B820108747A00204E7A0020787A002043
:108F4000587A0020467800207A820108D7820108EA
:108F5000E9820108F3820108FD8201080683010805
:108F60001683010897820108B4820108248301084E
:108F7000F0B591B0002603ACC4E90166054603963E
:108F800016F0EFF9431EDBB2012B0AD9082808D0EE
:108F900005286AD00A2804D06FF00604204611B0D4
:108FA000F0BD15BB2046ADF8185018F0D3FE0028D0
:108FB000F2D1BDF818302A46012114F8010B20B176
:108FC00001FA05F213439BB2012201350C2DF4D1B5
:108FD0000AB1ADF81830002106A8FFF756FB044689
:108FE0000028D9D119F078FAD8E71A2301A98DF809
:108FF00004302BF0D4FB1E230090C6B206A88DF8D7
:10900000183025F057FF079B0022A3F10C010C201C
:10901000D3B29E4203D859D16FF00204BEE70132A9
:1090200000FB02F7CF59AF42F2D11A0910A901EBA8
:10903000420203F00F03012101FA03F322F8343C4A
:1090400006A823238DF81830079426F081F800280D
:10905000A2D1242306A807948DF8183026F078F8BA
:109060000446002898D12846BCE7CDB90723ADF8BF
:109070000C3006A823238DF81830079426F068F8E2
:10908000002889D1242306A88DF81830079426F0EB
:109090005FF8002880D1284619F01EFA04467DE7C3
:1090A0001E2306A88DF8183025F004FF07993346D3
:1090B0000C2000FB03F28A58AA4203D1012202FAD3
:1090C00003F3D4E70133042BF3D1A5E7002465E7CC
:1090D000014B1868704700BF3C780020014BB3F982
:1090E000000070476C7A0020014B93F90000704734
:1090F000847A002070B5094E3478944228BF144613
:1091000005462246084606490BF0DCFE054B1A7858
:109110002A7000221A703270204670BD4C7A0020EE
:109120004C7900204D7A0020014B1878704700BF21
:109130004B79002030B58BB00C46054616F011F97E
:1091400016F023F9B8B12D2368468DF800308DF85C
:10915000045025F0FDFF38B9094B9D6074B12846D5
:1091600018F0A0FF0BB030BD03280CBF6FF0020059
:109170006FF00600F6E76FF01000F3E72046F1E726
:10918000FC600020F0B5044601468BB0022016F0CA
:10919000F5FF2378013B0B2B4AD8DFE813F00C00D6
:1091A000490049004900D1004900490049008C00AC
:1091B0004900F400B90065787A4E7B4F002D39D113
:1091C0007A4807F0BBFD284607F0C2FF356015F06E
:1091D000F5FF02280AD18DF8040068468DF800508A
:1091E00025F0B6FF10B1724807F0A8FD3B680BB13F
:1091F0000020984718F050FF0021FFF79BFF15F063
:10920000DDFFFFF782F898B1342368468DF800300F
:1092100025F050FE684625F04DFE002847D16548F0
:1092200007F08CFD019B6448D3F8E41007F086FD3D
:109230000BB0F0BD022D1CD0EB1E012B1BD85F48DC
:1092400007F07CFD002007F083FF356801353560AD
:1092500016F06DF8854213D9002333603B6823B1C3
:1092600057486378436007F059FF564BDB6A9847CD
:10927000C5E75548E4E72946544807F05FFDE1E7B4
:1092800000225349104607F05FFF054648B916F023
:109290004AF84FF47A7141432A46284607F056FFB0
:1092A000DCE740F22221494807F048FDD6E749486B
:1092B00007F044FDBCE7484D64782E78DCB9012EF8
:1092C00009D1464807F03AFD454B1B680BB12046D3
:1092D000984700232B7015F071FF0128A8D1414B4E
:1092E0001A78042AA4D018700B2368468DF8003031
:1092F00026F028FC9CE7012E9AD13B4807F01EFD82
:10930000374B1B680BB13046984700232B708FE713
:109310006378002B8CD1334A8DF80030042101236F
:10932000684611708DF8043025F012FF00287FF494
:109330007FAF2E4807F002FD0220FFF7C1FC77E760
:109340002B4B01221A702B4B227A1A702A4B627A0D
:109350001A706378294C2370002B3FF469AF2848BA
:1093600007F0ECFC274B1A68002A3FF461AF26484F
:1093700023780370002343708370838083710BB064
:10938000BDE8F04010476378002B3FF451AF1F4811
:1093900007F0D4FC134B1A78042A1CBF03221A705E
:1093A0000923A2E724780020707A0020488301086E
:1093B00056830108A7830108BD8301086B83010858
:1093C000E8600020C0B903088983010856810108BC
:1093D0003D8A000824830108857A0020CC83010897
:1093E000807A002044780020DE830108F48301089D
:1093F000567A0020C577002020780020577A002078
:10940000FF830108747A00204E7A00204981010808
:1094100070B58AB00C46054615F0A3FF15F0B5FFF0
:10942000C8B12E236EB268468DF800308DF8046006
:1094300025F08EFE40B90A4B83F8246074B12846AB
:1094400018F0C0FE0AB070BD03280CBF6FF0020018
:109450006FF00600F6E76FF01000F3E72046F1E743
:10946000FC60002030B58BB00D46044615F079FF46
:1094700015F08BFF002843D015F0C7FDB8B10023CD
:1094800068468DF8003025F015FD10B16FF006002C
:1094900011E09DF80430012B1ED0022B2BD0002BA5
:1094A000F4D1012C09D0022C0BD0002CEED155B3F5
:1094B000204618F0E5FD0BB030BD144B00221A70A9
:1094C000F5E7134B8DF8044001221A70684625F029
:1094D0003FFE0028EBD0D9E7012CF7D0022C05D0B5
:1094E000002CD3D100238DF80430EFE7084A8DF823
:1094F00004401370EAE7012CDFD0022CF0D1D6E74C
:109500006FF01000D7E72846D5E700BF4478002069
:10951000FC85002030B58FB00D46044615F021FFC4
:1095200015F033FF002800F0A58001238DF81030DE
:10953000002C4DD18DF8143004A825F009FE002828
:109540004AD1002C53D11021684618F071FC0F232A
:1095500004A88DF81030CDF814D025F0F9FD0028BE
:109560003AD10421684618F08BFC07238DF810309F
:10957000009B04A81BBA059325F0EAFD60BB1021EF
:10958000684618F0F5FC0C2304A88DF81030CDF8CF
:1095900014D025F0DDFDF8B90D2304A88DF81030A6
:1095A000CDF814D025F0D4FDB0B90E2304A88DF861
:1095B0001030CDF814D025F0CBFD68B918F05AFD65
:1095C0002146FFF74FFF48B9002D45D1284605E059
:1095D00004A825F06FFC18B16FF006000FB030BD85
:1095E0009DF81430012B08BF8DF81400A4E7082162
:1095F000684618F06DFC022304A88DF81030CDF8F1
:1096000014D025F0A5FD0028E6D10821684618F001
:10961000BFFB032304A88DF81030CDF814D025F03B
:1096200097FD0028D8D11021684618F0D9FB0823EF
:1096300004A88DF81030CDF814D025F089FD00284D
:10964000CAD1092304A88DF81030CDF814D025F024
:109650007FFD0028B8D0BFE718F0E8FCA04205D095
:1096600018F048F918F03CF916F04CF8204618F0BC
:10967000E3FCB3E76FF01000B0E710B5012100B1D3
:109680000846FFF747FF4FF0FF33BDE810401A468A
:1096900019460120FFF796B870B5044D06460446FA
:1096A0000FCD0FC42B682360304670BD2878002092
:1096B000014B1878704700BF44780020014B1878A0
:1096C000704700BF857A002010B5044615F09DFC58
:1096D00028B1012C06D8054B00201C7010BD6FF07E
:1096E0000B00FBE76FF00200F8E700BF857A00206F
:1096F00038B504460D46032829D8DFE800F0021FDC
:10970000222502F0CBFC10B3124B134A43F824007D
:10971000426253F824201149916253F824201049E1
:10972000D16253F824200F49116353F824300E49B5
:109730005B682846F2229847002038BD16F08AFE62
:10974000E1E717F02FF9DEE717F050FBDBE74FF00A
:10975000FF30F2E7D00300202183000829860008AB
:109760007B96000821000208D376002000B58BB05C
:1097700030238DF8003068461923019325F0E8FC6A
:109780000BB05DF804FB0000F0B58FB0054615F096
:10979000C4FB15F029FC012828D001F0C7FF0024E4
:1097A00015F00CFD022805D015F02DFC10B1AB4BC7
:1097B000DB6A984715F018FC012814D19CB915F004
:1097C000AEFD80B115F0A7FD054615F0A8FD0646D3
:1097D00015F0A9FD074615F0AAFD3A4603463146A5
:1097E0002846FEF7EFFF20460FB0F0BDCDB929F0B7
:1097F000CFFC9B489B4B03609B4B43609B4B9C491E
:1098000083609C4BC3600023C1E900339A4B8B609B
:109810002A469A4BCB6025F0E9F888B16FF0060430
:10982000BEE7142D04D1022029F0B2FC0025E0E7A8
:10983000152D01D10320F7E7162DDAD10420F3E727
:109840008F4B01221A7035238DF8103004A88D4BF0
:10985000059325F07DFC0028E0D16B1E012B03D978
:1098600005F0FD03082B29D1002301A8ADF8023033
:1098700018F070FA0446002892D1BDF8023001AA0F
:109880000146012412F8016B26B104FA00F10B43E2
:109890009BB2012101300C28F4D109B1ADF802309E
:1098A00015F061FD0146002800F0B78015F05BFD62
:1098B000FFF75EFB044600287FF472AF052D00F031
:1098C000B18018F0B3FB0021FFF724FE0446002806
:1098D0007FF466AF16F0DDFA044600287FF460AF2F
:1098E00018F0C8FB2146FFF7BDFD044600287FF4B1
:1098F00057AF18F0ADFB214615F0C9FD044600280E
:109900007FF44EAF18F0C8FB2146FFF713FC044666
:1099100000287FF445AF18F0D1FB214615F0BFFEBB
:10992000044600287FF43CAF18F00AFC214615F0ED
:1099300090FE18F0D5FB214615F0CFFD0446002817
:109940007FF42EAF18F002FC214615F004FE044609
:1099500000287FF425AF18F00BFC214615F01BFE04
:10996000044600287FF41CAF18F026FC2146FFF7C0
:109970004FFD044600287FF413AF18F0C1FE00210C
:1099800015F025FC044600287FF40AAF342304A810
:109990008DF8103025F08EFA059D15F0D8FCA880C2
:1099A00015F0DDFC003818BF012085F8AF0115F077
:1099B0002AFB002843D034482AF08EFE334831F089
:1099C00083FDFFF7D3FE25F0EDF9054600287FF46F
:1099D00025AF2F492F4816F0D3FA2F492846FFF715
:1099E00087FE014600287FF419AF0120FFF780FEB3
:1099F000014600287FF412AF0220FFF779FE00280D
:109A00007FF40CAF25490320FFF772FE00287FF496
:109A100005AF234816F0E4FFC2E60DF10200FEF7A1
:109A200034FE47E715F09FFC00283FF44AAF0020C2
:109A3000FFF79EFA044600283FF443AFB0E615F066
:109A400061FE15F0B9FB0028B5D018F025FB2146C2
:109A5000FFF770FB0028AED0A2E600BFC0B9030834
:109A60001078002025840008F18C000885910008FA
:109A700000780020F5840008A58300088D83000885
:109A80004A79002000030001D0600020D860002047
:109A9000D077002098600020E0770020F077002049
:109AA00015830008F0B58BB0064615F049FAC0B230
:109AB000002800F08180022E04D16FF010042046AF
:109AC0000BB0F0BD042EF8D015F04BFCB04200F006
:109AD0009F80304615F059FC0028EED0FEF791FC2F
:109AE000044618B14B4B1B78002BE8D116F004FA52
:109AF0000028E4D118F0F0FC07460028DFD1002E42
:109B00005FD1012029F044FB3546434943482A46AA
:109B100024F06CFF002878D12C2368468DF80030A3
:109B200025F0C8F9002870D19DF8040018F0BAFAA1
:109B300004460028C3D1202768468DF8007025F020
:109B4000B9F9002861D19DF8080018F0BDFA044663
:109B50000028B4D168468DF8007025F0ABF90028D4
:109B600053D1019818F0E0FA04460028A7D12F231A
:109B700068468DF8003025F09DF9002845D19DF804
:109B8000040018F01FFB0446002898D16B1EDBB2BE
:109B9000012B28D905F0FD03082B24D0002E18BF77
:109BA0003546284618F0CAF80446002887D12846CA
:109BB000FFF7EAFD044682E7022E85D0042E83D00B
:109BC0007BE7142E04D1022029F0E2FA3D469CE7FF
:109BD000152E01D10320F7E7162E01D10420F3E75B
:109BE0003546064691E7242368468DF8003025F077
:109BF00061F950B9019818F0B7F8044600287FF4CD
:109C00005EAF18F069FC0028C8D06FF0060456E774
:109C1000002454E74A7900200078002010780020C2
:109C200038B515F0E1F9012809D006F0B5FDD8B135
:109C30001D491E4807F082F86FF0060412E015F087
:109C400090FBA0F11403DBB2022B054698BF002560
:109C5000FEF7D7FB04460028E7D028462AF09AFDF5
:109C60000028E2D0204638BD16F046F90028E3D19E
:109C700015F0BAF9012801D00024F3E715F071FBC3
:109C8000A0F11403DBB2022B054698BF002515F0A6
:109C900068FBFFF779FD04460028EDD028462AF03E
:109CA00079FD0028E8D0DDE74C8601081A84010818
:109CB00013B5064C6368984728B9E36A019302B06C
:109CC000BDE81040184702B010BD00BFC0B903087E
:109CD000014B5B68184700BFC0B9030808B5034BC8
:109CE0005B689847003818BF012008BDC0B9030859
:109CF00008B506F043FF024A13680133136008BD3C
:109D0000E47D0020F7B5164C164E2368164D3068DA
:109D10002F68013B2360154B21681A686423434375
:109D2000511A3844B3FBF0F3114807F007F82368E1
:109D300010493BB14B6B019341F2883003B0BDE851
:109D4000F04018470C48336002782B600B6B01938E
:109D500022F00802027003B0BDE8F040184700BFCF
:109D6000DC7C0020AC7A0020B07A0020E07C00206F
:109D700084860108C0B90308B47A0020024A136837
:109D800001331360FFF7BEBFAC7A0020FFF7F6BFC8
:109D900010B5064C206801302060114604481A4670
:109DA00006F0CCFFBDE81040FFF7ACBFB07A002052
:109DB000A2860108F8B52D4D2D4F2B78BA6A2D4C8F
:109DC0002D4E002B33D0236D2C48013B2365E17DC4
:109DD0009047616C2A4806F0B1FF3268216D29482E
:109DE000511A06F0ABFFE26C636C13446364626C5F
:109DF000A36C9A4282BF244B1B686364606CFB684F
:109E00009847236D23B1BDE8F84020481BF0F6B811
:109E10001F4A1E48137823F0040313701BF02EF81A
:109E200010B11A481BF09AF800232B70F8BD194D99
:109E300012482B68013B2B60E17D9047326829680E
:109E40001048511A06F07AFF2B68002BDBD1104A1C
:109E50000E48137823F0040313701BF00FF800284A
:109E6000E4D0BDE8F84009481BF078B8D87C002061
:109E7000C0B90308FC600020E07C0020E47C0020E6
:109E8000C5860108D7860108D47C0020B87A002056
:109E9000B47A0020DC7C0020F8B52E4D2E4F2B78B4
:109EA000BA6A2E4C2E4E002B35D0236D2D48013B27
:109EB0002365E17D9047616C2B4806F03FFF3268D7
:109EC000216D2A48511A06F039FF226D33689B1A1A
:109ED000274A1278B3FBF2F102FB1133254A52F8FC
:109EE00023306364606CFB689847236D23B1BDE841
:109EF000F84021481BF082B8204A1F48137823F00D
:109F0000040313701AF0BAFF10B11B481BF026F8B7
:109F100000232B70F8BD1A4D12482B68013B2B60B3
:109F2000E17D9047326829681048511A06F006FF13
:109F30002B68002BDBD1114A0F48137823F0040360
:109F400013701AF09BFF0028E4D0BDE8F8400A48DF
:109F50001BF004B8D87C0020C0B90308FC600020C6
:109F6000E07C0020E47C0020C5860108D78601083B
:109F7000D07A0020D47A0020B87A0020B47A002069
:109F8000DC7C002010B5094B1B6813B1084B1B6D1E
:109F90003BB9084C236823B106F0F8FD2368013B68
:109FA0002360BDE81040044806F0C8BEDC7C0020F9
:109FB000FC600020E47D0020F386010870B50D4CA4
:109FC000C00000220221824200D170BDC1F3001303
:109FD00083EA1123D51043EA410302F00706C3F3D5
:109FE000080103F00103B340665D3343635501325A
:109FF000E9E700BFE47C0020064B10B5064C1B6B64
:10A000009847236823B106F0C1FD2368013B236014
:10A0100010BD00BFC0B90308E47D002038B50D4D68
:10A02000287810F0010411D1FFF762FE2B7843F07D
:10A0300001032B70084B186B93F82410074B4FF655
:10A04000FF72DB6B49B29847204638BD6FF00500C0
:10A05000FBE700BFB47A0020FC600020C0B9030811
:10A060000F4B104810B500221A701AF007FF10B1FC
:10A070000C481AF073FF0C481AF000FF10B10A48A0
:10A080001AF06CFF094B0A4CDB6A9847236803B946
:10A0900010BD06F07BFD2368013B2360F6E700BF9F
:10A0A000B47A0020B87A0020DC7E0020C0B9030812
:10A0B000E47D00202DE9F04F284A137899078DB0F0
:10A0C000064648D4264C274D206B43F002031370FC
:10A0D000EB689847206894F82410A26A6368A76820
:10A0E0000A9394F80CB00B97A78A94F816C094F8CA
:10A0F00018E094F8198094F81A9094F81BA0E36A79
:10A10000BFB2CDE907A30B9B0093CDE901B70A9B32
:10A11000EF69CDE90589CDE903CE49B2C0B2B847B0
:10A12000636BB3B96B6B6FF07F409847322006F0DA
:10A13000ABFC2B6C00209847EB6A30809847074AAD
:10A14000B6F90000137823F0020313700DB0BDE8D8
:10A15000F08F6B6EE7E76FF00500F7E7B47A002049
:10A16000FC600020C0B9030810B50446FFF7C0FD2D
:10A17000226B144B1344144A934220D894F8243091
:10A180000933DBB21F2B1AD86368062B17D8A368D4
:10A19000053B072B13D8237B013B032B0FD82368E8
:10A1A000022B0CD8A36A094AA3F59653934206D80A
:10A1B00007485422214622F028FC002010BD6FF0F1
:10A1C0000200FBE7802E0FF7809E4730780D0700D6
:10A1D000FC60002008B50349542222F016FC002040
:10A1E00008BD00BFFC6000202DE9F04F324C2578FF
:10A1F0008DB015F004050B905BD1FFF779FD237846
:10A200002E482F4E43F00403237006F097FD2D488F
:10A210002D4B03602D4B83602D4B43602D4B2E4CFB
:10A22000C3602E4B036133689847E07DFFF7C6FE9D
:10A23000206BF3689847206894F82410A26A63683A
:10A24000A7680A9794F80CC0A78A94F816E094F8C7
:10A25000188094F8199094F81AA094F81BB0E46A46
:10A26000BFB2CDE907B40A9C0094CDE903E8CDE97B
:10A2700001C749B2C0B2CDE9059AF469A047184BAD
:10A280000B9A1A601A68174B17481A604FF0FF3183
:10A29000164B00952A461AF0D1FD4FF4FA71124878
:10A2A0001AF0FEFE10481AF0A9FE28460DB0BDE8CF
:10A2B000F08F6FF00500F9E7B47A0020FE86010800
:10A2C000C0B90308887A0020859F0008919D000886
:10A2D000F99F00087D9D0008FC6000208D9D00080E
:10A2E000DC7C0020E07C0020B87A0020B59D0008CE
:10A2F0002DE9F04F2C4D0446287810F008088DB059
:10A300004FD1002C4DDDFFF7F3FC2B78274843F0AD
:10A3100008032B70264B0360264B8360264B274D8A
:10A320004360274BC360274B03612B689847264B3C
:10A330001C601A68254C264B206B1A60EB68984706
:10A3400020686168A268237B26690A96A68A276A24
:10A3500094F816C094F817E094F81890CDF82C9063
:10A3600094F8199094F81AA094F81BB0247FCDF8B3
:10A370000CC0CDE908B40B9CB6B2CDE904E4BFB281
:10A380000A9C0094C0B2CDE9069ACDE90167AC6998
:10A39000A04741F288306B6B984740460DB0BDE84E
:10A3A000F08F6FF00500F9E7B47A0020887A00207A
:10A3B000859F0008919D0008F99F0008C0B9030817
:10A3C0007D9D00088D9D0008DC7C0020FC60002045
:10A3D000E07C00202DE9F04F364C257815F004057F
:10A3E0008DB0074663D1FFF783FC23783248334EA4
:10A3F00043F004032370324B324C01221A70324B6B
:10A400000360324B8360324B4360324BC360324B4C
:10A410000361336898477B6C6364BB6CA364FB6C1B
:10A42000E3643B6D2365E07DFFF7C8FD2B4B626C59
:10A430001A602B4B226D1A60606CF3689847206895
:10A4400094F82410A26A6368A7680B9794F80CC06C
:10A45000A78A94F816E094F8188094F8199094F864
:10A460001AA094F81BB0E46ABFB2CDE907B40B9C04
:10A470000094CDE903E8CDE901C749B2C0B2CDE906
:10A48000059AF469A047174B174800952A464FF0E4
:10A49000FF311AF0D3FC4FF4FA7113481AF000FEA2
:10A4A00011481AF0ABFD28460DB0BDE8F08F6FF0F3
:10A4B0000500F9E7B47A0020887A0020C0B90308C3
:10A4C000D87C0020FC600020859F0008919D00083A
:10A4D000F99F00087D9D00088D9D0008D47C002018
:10A4E000E07C0020B59D0008B87A00202DE9F04FEF
:10A4F000944D297811F004048BB0064640F01E817B
:10A50000DFF84482FFF7F4FB214690484FF40072D5
:10A510000AF000FD88F80040214623468B4C802934
:10A52000CAB203D19BB188F8001009E0F06C736CDB
:10A5300000FB0133B06C83421CD9013A88F800203B
:10A5400000276FF0004998F80030BB4217DC14F088
:10A5500008FF7F4B0A2800F2EE80DFE810F04A0087
:10A56000B600BC00C200C800CE00D400DA00E00093
:10A57000EC00E60044F8213001310123CFE722F05E
:10A580001DFA98F8002054F82710D31B99FBF3F319
:10A59000013390FBF3F33B449F4208BF002354F880
:10A5A0002300414044F8271054F8271054F82300A2
:10A5B000414044F8231054F8271054F82300414038
:10A5C00044F8271054F8231054F82200414044F86E
:10A5D000231054F8231054F82200414044F822106C
:10A5E00054F8231054F822204A4044F8232001371D
:10A5F000A9E79A68574998688F5657492CF07EFB0F
:10A6000004462B785548DFF8588143F004032B703B
:10A61000544B4F4D01221A70534B0360534B8360D0
:10A62000534B4360534BC360534B0361D8F8003026
:10A630009847464B1B686B64B36CAB64F36CEB647C
:10A64000336D2B65E87DFFF7B9FC4C4B6A6C1A60E3
:10A650004B4B2A6D1A60686CD8F80C309847286804
:10A6600095F82410AA6A2E7BAB8A95F816C095F847
:10A6700018E095F8199095F81AA095F81BB0ED6AB6
:10A6800000979BB2CDE903CECDE907B5CDE90163D3
:10A6900049B22346C0B20024CDE9059AD8F81C502F
:10A6A000A847384B3848009422464FF0FF311AF043
:10A6B000C5FB4FF4FA7134481AF0F2FC32481AF034
:10A6C0009DFC20460BB0BDE8F08F9A682F49986832
:10A6D0008F562F4992E79A682E4998688F562E49CF
:10A6E0008CE79A682D4998688F562D4986E79A68B5
:10A6F0002C4998688F562C4980E79A682B499868AE
:10A700008F562B497AE79A682A4998688F562A49C2
:10A7100074E79A68294998688F5629496EE79A68BC
:10A72000284998688F56284968E79A6827499868A1
:10A730008F56274962E70024072762E76FF005007C
:10A74000C0E700BFB47A0020D07A0020D47A00207D
:10A75000FC600020A088010808870108887A002092
:10A76000C0B90308D87C0020859F0008919D00088F
:10A77000F99F00087D9D00088D9D0008D47C002075
:10A78000E07C0020999E0008B87A0020A888010883
:10A7900028870108A088010868870108A0880108A7
:10A7A00088870108A0880108A8870108A0880108F7
:10A7B000C8870108B888010808880108A08801082E
:10A7C000E8870108BE88010860880108A888010898
:10A7D0002088010808B503490C2222F016F9002050
:10A7E00008BD00BFF060002038B505460B4CFFF7F0
:10A7F0007FFAAB68A3602B68094823606B68094D3A
:10A800006360094B43602B6898472068EB6B228993
:10A8100094F904109847002038BD00BFF060002074
:10A82000887A0020C0B90308F99F000810B58AB0E3
:10A8300088B314F0E8FB0128044609D114F0E5FBC5
:10A8400030B94FF0FF331A4619462046FDF7BAFFDC
:10A85000002026F00FF901221149042006F074FCB3
:10A86000024698B941F28831042006F06FFC462375
:10A87000012468468DF800308DF8044024F068FC0F
:10A88000204614F068FD00200AB010BD472105489D
:10A8900006F054FAEBE7042006F05AFCF3E700BF99
:10A8A00055A90008DF8001082DE9F043254D264E0B
:10A8B000264FDFF89C8085B0062301223370AA70F2
:10A8C000002302222B706B70EA702B716B718DF874
:10A8D00008008DF809308DF80B304FF0E00957F87B
:10A8E000042BDCB2B2B11369A3B1204615F03CFCD5
:10A8F00080B157F8043CDB68984758B198F80A20B3
:10A90000D8F80C1028460AF0DDFA98F80A303370AF
:10A910008DF80890631CDAB2042A5BB2DFD1002301
:10A92000009304AB13E90C0031780648FEF78EF86B
:10A9300020B9074B587005B0BDE8F0834FF0FF30E9
:10A94000F9E700BFE87D0020DA7E0020D003002078
:10A95000C485002010B514F056FB0128044609D127
:10A9600014F053FB30B94FF0FF331A461946204616
:10A97000FDF728FFBDE810400220FFF795BF00005B
:10A98000F0B54FF4807285B000213948394D3A4C0A
:10A990000AF0C0FA00232B7023F058FC80B2C828BC
:10A9A00084BF143880B2E36806389842606143D3AC
:10A9B0000021A17023712B782D4E2278F2545A1C5D
:10A9C000D2B26078B0549A1CD2B2A078B054DA1CDB
:10A9D000D2B2E078B054581D0433DBB22279F2547D
:10A9E000A368C0B21944287030440AF06BFA2B787F
:10A9F00021791944C9B200233046DAB291422FD8E6
:10AA00001E4B1B481B788DF8083001238DF80B3046
:10AA1000A369003B18BF01238DF80C3000238DF88B
:10AA200009300093013104ABC9B213E90C0029705D
:10AA3000FEF70CF805B0F0BD21695B1AB3FBF0F628
:10AA4000F2B200FB16364EB9A270A278984202F11B
:10AA5000FF3228BF1846A2702071ACE70132F3E73D
:10AA600016F8012B475C3A4442540133C5E700BF56
:10AA7000F47E0020F47F0020FC830020F57F00207E
:10AA80000D4A1378BBB10D4B80B9997809B9117093
:10AA900070471A78197960F341021A70DA78013236
:10AAA000DA701A690A441A61FFF76ABF1A7842F02D
:10AAB00002021A70F8E7704718840020FC83002017
:10AAC0002DE9F8431C46431EDBB2DE2B0E4605463D
:10AAD00011462AD8B4F5806F27D8164F164BDFF8E9
:10AAE0005C904FF001082246384683F800800AF057
:10AAF000E9F9C9F80040124C237823F0030343EA34
:10AB000008032370FF2006F017FB00232361D9F808
:10AB10000030E3600B4B607084F80380A760A6618F
:10AB20001D70BDE8F843FFF72BBF6FF00200BDE8D2
:10AB3000F88300BFF67F002018840020F8830020EF
:10AB4000FC830020F57F0020014B1870704700BF88
:10AB500079840020024B034A1B78D054704700BF11
:10AB600079840020198400202DE9F0438BB0232341
:10AB7000054668468DF8003024F09CF9024600280E
:10AB800052D12B4B2B4ED3F800E093F906800746A9
:10AB9000BCB2002006EB020C00EB0209CE4581B2EC
:10ABA00030D11CF90090C1452CD10F291CD1052CA6
:10ABB00006D14FF0FF321A6000200BB0BDE8F083E1
:10ABC0000134A4B22101019A196032F8142002F074
:10ABD00001029A80725C9A711549082228460AF08F
:10ABE00071F96FF00D00E8E7013188B212FA81F2D5
:10ABF0000121814001981A6030F81700B25C0140D1
:10AC00009980E8E701301028C6D10137062F02F1FC
:10AC10001002BDD100221A60019A128802F00102CE
:10AC20009A80044A1278D6E76FF00600C5E700BFA5
:10AC3000506100201984002010B5064B1B680446A3
:10AC400003B19847044B0CB100225A7000225A718C
:10AC500010BD00BFB88500209F85002038B5114C7D
:10AC600000236370A37017F0CFF9C0B2B0B90E48DB
:10AC700006F064F80D4B02225A720D4A156815B1A0
:10AC800093E80700A847E37853B9237943B9094B00
:10AC90001B6B9847BDE8384005F078BF0648E7E7EA
:10ACA00038BD00BF9F850020CE880108A885002000
:10ACB000B4850020C0B90308E988010813B5144C15
:10ACC00000236370FDF721FB18B11249124806F00A
:10ACD00035F8124B1B6803B1984717F095F9C0B2CD
:10ACE00090B90F4806F02AF805F050FF23796BB1B0
:10ACF000012363700B4C236B9847636B0193002017
:10AD000002B0BDE8104018470748EBE702B010BD9D
:10AD10009F850020B9890108D5890108BC850020DC
:10AD200004890108C0B903081689010808B5064B53
:10AD300000225A70FDF7E9FA28B1BDE8084003493E
:10AD4000034805F0FBBF08BD9F850020C2890108AC
:10AD5000D589010810B5124B00225A709A781AB999
:10AD6000DA780AB91A7912B101225A7010BD17F0B7
:10AD70004BF9C0B290B90B4805F0E0FF0A4B012235
:10AD80005A720A4A146814B193E80700A047084BA6
:10AD90001B6B9847BDE8104005F0F8BE0548EBE78F
:10ADA0009F85002028890108A8850020B4850020FF
:10ADB000C0B903084589010808B517F025F9C0B2E4
:10ADC00008BD0000044B587820B9987810B9D8789D
:10ADD00000B91879704700BF9F85002017F088BB25
:10ADE0000A4B0B4A0344934210B5044605D814F0AD
:10ADF000A7F8084B20B19C4205D86FF0020010BDA7
:10AE00009C42FCD9F9E70020F9E700BF802E0FF73C
:10AE1000809E47300046C32317F07CBB05380728C7
:10AE20008CBF6FF002000020704708B517F084FB5C
:10AE30007D2806D0FA2806D0B0F5FA7F08BF022098
:10AE400008BD0020FCE70120FAE7000010B5044629
:10AE500017F0DAF8C0B268B97D2C01D1002010BD1E
:10AE6000FA2CFBD0B4F5FA7FF8D0092CF6D96FF0A4
:10AE70000200F4E717F0C8F8C0B20228EED1024B86
:10AE8000A4F596549C42F1E7780D070017F070BBCB
:10AE900003288CBF6FF002000020704717F07ABBC8
:10AEA000042894BF6FF002000020704717F084BBA5
:10AEB000053811288CBF6FF002000020704717F092
:10AEC0008DBB17F091BB17F09BBB17F0A7BB17F01A
:10AED000BFBB17F0CBBB08B517F060FC003818BF3C
:10AEE000012008BD17F060BC2DE9F041FF29ADF548
:10AEF000087D0C46174633D848AE0A460146304610
:10AF000009F0E0FF14F00F030ABF1022C3F1100391
:10AF10001346204618BFDAB21C4484421DDC1021BF
:10AF200007A8FFF7D4FF0DF12C08102103A8FFF7A5
:10AF3000CAFF4246102103A817F020FFE5B2CDF862
:10AF4000008007ABC4F303123946304617F023FFE5
:10AF500028460DF5087DBDE8F08132540130DCE76C
:10AF60006FF00200F5E7F0B5C9B00D4606461021B6
:10AF700007A814460BAFFFF7AAFF102103A8FFF79D
:10AF8000A2FF3A46102103A817F0F8FE07AB2A09E2
:10AF900000972146304617F016FF6219284612F82E
:10AFA000013C012B03D1681EC0B249B0F0BD022B99
:10AFB00005D112F8023C022BF6D1A81EF4E7032BB0
:10AFC00009D112F8023C032BEED112F8033C032BFB
:10AFD000EAD1E81EE8E7042B0DD112F8023C042B5D
:10AFE000E2D112F8033C042BDED112F8043C042B0E
:10AFF000DAD1281FD8E7052B11D112F8023C052B16
:10B00000D2D112F8033C052BCED112F8043C052B0B
:10B01000CAD112F8053C052BC6D1681FC4E7062B20
:10B0200015D112F8023C062BBED112F8033C062BB8
:10B03000BAD112F8043C062BB6D112F8053C062B07
:10B04000B2D112F8063C062BAED1A81FACE7072BF5
:10B0500019D112F8023C072BA6D112F8033C072B9A
:10B06000A2D112F8043C072B9ED112F8053C072B05
:10B070009AD112F8063C072B96D112F8073C072B01
:10B0800092D1E81F90E7082B22D112F8023C082B3E
:10B090008AD112F8033C082B86D112F8043C082B05
:10B0A00082D112F8053C082B7FF47EAF12F8063CE3
:10B0B000082B7FF479AF12F8073C082B7FF474AFAC
:10B0C00012F8083C082B7FF46FAFA5F108006BE77E
:10B0D000092B2AD112F8023C092B7FF465AF12F834
:10B0E000033C092B7FF460AF12F8043C092B7FF47A
:10B0F0005BAF12F8053C092B7FF456AF12F8063C03
:10B10000092B7FF451AF12F8073C092B7FF44CAFA9
:10B1100012F8083C092B7FF447AF12F8093C092BC1
:10B120007FF442AFA5F109003EE70A2B2FD112F8B8
:10B13000023C0A2B7FF438AF12F8033C0A2B7FF451
:10B1400033AF12F8043C0A2B7FF42EAF12F8053C03
:10B150000A2B7FF429AF12F8063C0A2B7FF424AFA8
:10B1600012F8073C0A2B7FF41FAF12F8083C0A2B99
:10B170007FF41AAF12F8093C0A2B7FF415AF12F8CE
:10B180000A3C0A2B7FF410AFA5F10A000CE70B2B49
:10B1900034D112F8023C0B2B7FF406AF12F8033CBB
:10B1A0000B2B7FF401AF12F8043C0B2B7FF4FCAEA9
:10B1B00012F8053C0B2B7FF4F7AE12F8063C0B2B74
:10B1C0007FF4F2AE12F8073C0B2B7FF4EDAE12F8D1
:10B1D000083C0B2B7FF4E8AE12F8093C0B2B7FF4F4
:10B1E000E3AE12F80A3C0B2B7FF4DEAE12F80B3CF8
:10B1F0000B2B7FF4D9AEA5F10B00D5E60C2B39D182
:10B2000012F8023C0C2B7FF4CFAE12F8033C0C2B4F
:10B210007FF4CAAE12F8043C0C2B7FF4C5AE12F8D2
:10B22000053C0C2B7FF4C0AE12F8063C0C2B7FF4CF
:10B23000BBAE12F8073C0C2B7FF4B6AE12F8083CFC
:10B240000C2B7FF4B1AE12F8093C0C2B7FF4ACAEA2
:10B2500012F80A3C0C2B7FF4A7AE12F80B3C0C2B17
:10B260007FF4A2AE12F80C3C0C2B7FF49DAEA5F13E
:10B270000C0099E60D2B3ED112F8023C0D2B7FF409
:10B2800093AE12F8033C0D2B7FF48EAE12F8043C03
:10B290000D2B7FF489AE12F8053C0D2B7FF484AEA4
:10B2A00012F8063C0D2B7FF47FAE12F8073C0D2BF5
:10B2B0007FF47AAE12F8083C0D2B7FF475AE12F8CD
:10B2C000093C0D2B7FF470AE12F80A3C0D2B7FF475
:10B2D0006BAE12F80B3C0D2B7FF466AE12F80C3CF3
:10B2E0000D2B7FF461AE12F80D3C0D2B7FF45CAE9C
:10B2F000A5F10D0058E60E2B43D112F8023C0E2B9F
:10B300007FF452AE12F8033C0E2B7FF44DAE12F8D0
:10B31000043C0E2B7FF448AE12F8053C0E2B7FF454
:10B3200043AE12F8063C0E2B7FF43EAE12F8073CFB
:10B330000E2B7FF439AE12F8083C0E2B7FF434AE9E
:10B3400012F8093C0E2B7FF42FAE12F80A3C0E2B9C
:10B350007FF42AAE12F80B3C0E2B7FF425AE12F8C8
:10B360000C3C0E2B7FF420AE12F80D3C0E2B7FF41C
:10B370001BAE12F80E3C0E2B7FF416AEA5F10E009C
:10B3800012E60F2B48D112F8023C0F2B7FF40CAEC3
:10B3900012F8033C0F2B7FF407AE12F8043C0F2B7E
:10B3A0007FF402AE12F8053C0F2B7FF4FDAD12F8CE
:10B3B000063C0F2B7FF4F8AD12F8073C0F2B7FF4FF
:10B3C000F3AD12F8083C0F2B7FF4EEAD12F8093CF8
:10B3D0000F2B7FF4E9AD12F80A3C0F2B7FF4E4AD9C
:10B3E00012F80B3C0F2B7FF4DFAD12F80C3C0F2B47
:10B3F0007FF4DAAD12F80D3C0F2B7FF4D5AD12F8C7
:10B400000E3C0F2B7FF4D0AD12F80F3C0F2B7FF4C6
:10B41000CBADA5F10F00C7E5102B08BFA5F11000BB
:10B42000C2E500002DE9F04F324E4FF00009C1B0E7
:10B4300005460C4690461F4686F8019086F8029015
:10B4400017F0CCF800283FD04FF480724946684688
:10B4500009F060FD23071EBF24F00F041034A4B2CE
:10B4600021466A462846FFF77EFDC4B22246694659
:10B47000214809F027FD16F0C7FDC0B23A46414603
:10B4800028BB1E48DFF870A0DFF874B005F056FC4A
:10B490002546D146EDB91B4805F050FC1A4B1B4818
:10B4A0001B68A0F8068007720471C0F8009045720E
:10B4B0000BB107C89847F3780BB933798BB10123E7
:10B4C000737041B0BDE8F08F22462946D0E710489E
:10B4D000D8E71AF8011B5846013D05F02FFCADB224
:10B4E000D8E70C4B1B6B984741B0BDE8F04F05F017
:10B4F0004DBB00BF9F850020A08400206289010809
:10B5000086890108C2860108B4850020A88500202C
:10B5100074890108C0B9030817F0DAB817F0DEB86B
:10B5200017F006B9F82801D817F008B96FF0020033
:10B53000704717F0EBB817F0EFB817F00BB917F02A
:10B540000FB917F019B9000070B5074B5D6C0446D0
:10B55000010A4FF4E860A847E1B22B4640F241707F
:10B56000BDE87040184700BFC0B903082DE9F04F8F
:10B570009BB017F0EFF80B9017F0C8F80C9017F08D
:10B58000D7F80F9017F0AAF8109017F0A1F80D90C7
:10B5900017F0F2F8119005F057FA002800F0A38098
:10B5A00014A805F05DFADDF850B09DF864809DF8B0
:10B5B0005470BDF8625016F027FDC0B2002840F06C
:10B5C0008A80169C9DF86060013616F01DFD10F013
:10B5D000FF0244D1129217F0ABF86FF07F4308934B
:10B5E0000C9BDFF844A107930B9B129A0E90CDE9B8
:10B5F0000253DAF81C30129301205FFA86F9DDF865
:10B6000048C00490CDE90522CDE9007923464FFAE0
:10B6100088F11392E0470E9B139A0092B3FA83F3DA
:10B620005B0909930C9B08930B9B0393BDF83C307B
:10B63000CDE90153DAF818300B930120CDE904204D
:10B64000CDE906224B463A4621460B9FB8470120DA
:10B65000DAF85430FF2198471198FFF775FF16F07C
:10B66000D3FCC0B20228304F2ED100206FF07F43B0
:10B67000CDE907030D9B0093FB690B934FF0010A83
:10B68000F6B2CDE90500CDE9030ACDE90165109ACE
:10B69000DDF82CC023464FFA88F1E047002005234F
:10B6A000CDE90153CDE90700CDE905A0CDE90300BF
:10B6B000009033462146BD690D9ACDF824A0A847D5
:10B6C0007B6DFF21504698475846FB6898470020FD
:10B6D0001BB0BDE8F08F16F097FCC0B2022804BF83
:10B6E000179C64086EE716F003FF834616F064FFAC
:10B6F000804616F00FFF074616F04CFF054616F081
:10B7000083FCC0B230B9FFF790FB044616F030FF5F
:10B71000461C5AE716F078FCC0B20228F6D1FFF7B3
:10B7200084FB4408F2E700BFC0B903080A4808B523
:10B730000A4B03600A4B83600A4B43600A4BC360A9
:10B740000A4B03610A4B83610A4B1B689847FFF75A
:10B750000DFF002008BD00BF7C840020BDAC0008A8
:10B7600025B400082DAD000855AD00085DAC0008FB
:10B7700039AC0008C0B90308F8B5254D6B7806460A
:10B780000C46174623B12B7913B96FF00500F8BDAD
:10B79000FFF7ECFE16F022FF10B321461D4A30469B
:10B7A000FFF7A2FBC4B21C4E05F0E8F9336B9847D3
:10B7B00001236B70D7B9B36A164821469847FCF746
:10B7C000A4FD0028E3D021461448124D144E05F084
:10B7D000B5FAA4B2A4B9134805F0B0FA2046D6E7EA
:10B7E000224631460B4809F06DFBDCE76B71B36B09
:10B7F00098476B79002BFCD16B78002BDBD1C4E729
:10B8000015F8011B3046013C05F098FAA4B2E1E7B7
:10B810009F850020A0840020C0B903088B890108FF
:10B8200086890108C2860108B0F5803F70B50446DC
:10B8300041D2431E0D2B214898BF0F240C2200211A
:10B8400009F068FB1E4B5CB19A781AB9DA780AB92C
:10B850001A792AB11B4805F071FA6FF0050070BD26
:10B860000122194D5A704CB99C705C70DC701C71CF
:10B8700005F08CF92B6B98470020F0E74FF6FF712D
:10B880008C426E6B09D19A70FFF770FE2B6B984754
:10B890000020B04705F072F9EEE74FF6FE718C42DA
:10B8A00001D1DA70F0E74FF6FD718C4201D11A71C7
:10B8B000EAE72046EDE76FF00200D0E7A885002018
:10B8C0009F850020A5890108C0B903080C4B0D4ACB
:10B8D0000344934210B5044602D96FF0020010BD34
:10B8E00013F02EFB084B40B19C42F6D9204616F0CF
:10B8F00005FEFFF73BFE0020F1E79C42F6D9ECE79E
:10B90000802E0FF7809E47300046C32308B5431FA3
:10B91000072B05D816F004FEFFF728FE002008BD0F
:10B920006FF00200FBE7000010B5044616F06CFB58
:10B9300010F0FF000CD17D2C14D0FA2C1CD0B4F5E3
:10B94000FA7F1BD0092C0ED96FF00204204610BDDF
:10B9500016F05AFBC0B2022805D1094BA4F5965245
:10B960009A42F0E70446204616F0F0FD044600280F
:10B97000ECD1FFF7FBFDE9E70124F4E70224F2E74D
:10B98000780D0700032808B505D816F0F7FDFFF776
:10B99000EDFD002008BD6FF00200FBE7042808B5AC
:10B9A00005D916F0FDFDFFF7E1FD002008BD6FF0A1
:10B9B0000200FBE708B5431F112B05D816F002FE65
:10B9C000FFF7D4FD002008BD6FF00200FBE7000088
:10B9D000084BA0F516729A4210B5044606D8FFF738
:10B9E000C5FD2046BDE8104016F05ABE6FF00200BB
:10B9F00010BD00BFE80A0300084BA0F516729A427A
:10BA000010B5044606D8FFF7B1FD2046BDE810404A
:10BA100016F052BE6FF0020010BD00BF8891040006
:10BA200010B516F0AFFE044613F077FAFFF79EFD4F
:10BA3000204610BD014B1878704700BFC485002018
:10BA4000014B5878704700BFC4850020024820226F
:10BA5000002120F0EEBF00BFD885002038B50B4D87
:10BA60000B4C78B171B1012323700A4BE160627213
:10BA70002860836000252582FFF7E8FF6570A574C4
:10BA8000A58638BD00232B602370F3E7C085002016
:10BA9000C48500201DC0000810B50E4C94F8353048
:10BAA0006BB194F83600002184F8351018B90146BE
:10BAB000FDF7D8FC03E00128FAD00228F8D094F86A
:10BAC000343033B1002384F83430BDE8104013F033
:10BAD00025BA10BDC485002070B54E4B6422196A8A
