:020000040800F2
:1060000000FC002045780008FD7800088979000828
:10601000F5790008F7790008F97900080000000018
:10602000000000000000000000000000FB790008F4
:10603000FD79000800000000FF790008FF790008E2
:10604000D1780008D17800081D7A0008D1780008BE
:10605000D1780008D1780008737A0008797A0008AE
:106060007F7A0008857A00088B7A0008297A000870
:10607000357A0008417A00084D7A0008D178000886
:10608000D1780008D1780008D1780008D1780008CC
:10609000D1780008D1780008917A0008D1780008FA
:1060A000D1780008D1780008D1780008D1780008AC
:1060B000D1780008D1780008D1780008D17800089C
:1060C0004DAA02084FAA0208D1780008D17800082A
:1060D000597A0008717A0008257B0008D1780008F9
:1060E000D1780008D17A0008057A0008D178000834
:1060F000D1780008D1780008D1780008D17800085C
:10610000D1780008D1780008117A00083D7B00089A
:10611000D1780008D1780008D1780008D17800083B
:10612000D1780008D1780008D1780008D17800082B
:08613000D1780008D1780008C5
:1061400010B5054C237833B9044B13B10448AFF3B1
:1061500000800123237010BD680F002000000000A4
:1061600040EC020808B5034B1BB103490348AFF3E9
:10617000008008BD000000006C0F002040EC020809
:1061800010F8012B11F8013B012A28BF9A42F7D0E1
:10619000D01A7047034613F8012B002AFBD1181AB6
:1061A00001387047000000000000000000000000FF
:1061B00001F0FF01102A2BDB10F0070F08D010F8B8
:1061C000013B013A8B422DD010F0070F42B3F6D1BC
:1061D000F0B441EA012141EA014122F007047FF0D5
:1061E00000070023F0E80256083C85EA010586EA2C
:1061F000010685FA47F5A3FA87F586FA47F6A5FA68
:1062000087F68EB9EED1F0BC01F0FF0102F0070273
:1062100032B110F8013B013A83EA010313B1F8D11E
:106220000020704701387047002D06BF35460338FF
:10623000073815F0010F07D1013015F4807F02BF38
:10624000013015F4C03F0130F0BC0138704700BF89
:1062500081F0004102E000BF83F0004330B54FEA17
:1062600041044FEA430594EA050F08BF90EA020F84
:106270001FBF54EA000C55EA020C7FEA645C7FEA17
:10628000655C00F0E2804FEA5454D4EB5555B8BF3A
:106290006D420CDD2C4480EA020281EA030382EAAB
:1062A000000083EA010180EA020281EA0303362D3D
:1062B00088BF30BD11F0004F4FEA01314FF4801C10
:1062C0004CEA113102D0404261EB410113F0004F22
:1062D0004FEA03334CEA133302D0524263EB4303D9
:1062E00094EA050F00F0A780A4F10104D5F1200E77
:1062F0000DDB02FA0EFC22FA05F2801841F10001D2
:1063000003FA0EF2801843FA05F359410EE0A5F1A5
:1063100020050EF1200E012A03FA0EFC28BF4CF0D6
:10632000020C43FA05F3C01851EBE37101F000458C
:1063300007D54FF0000EDCF1000C7EEB00006EEB99
:106340000101B1F5801F1BD3B1F5001F0CD3490823
:106350005FEA30004FEA3C0C04F101044FEA44527A
:1063600012F5800F80F09A80BCF1004F08BF5FEA01
:10637000500C50F1000041EB045141EA050130BDE1
:106380005FEA4C0C404141EB0101013C28BFB1F5F3
:10639000801FE9D291F0000F04BF01460020B1FA3E
:1063A00081F308BF2033A3F10B03B3F120020CDA11
:1063B0000C3208DD02F1140CC2F10C0201FA0CF0EF
:1063C00021FA02F10CE002F11402D8BFC2F1200C54
:1063D00001FA02F120FA0CFCDCBF41EA0C0190400A
:1063E000E41AA2BF01EB0451294330BD6FEA040453
:1063F0001F3C1CDA0C340EDC04F11404C4F120023E
:1064000020FA04F001FA02F340EA030021FA04F34F
:1064100045EA030130BDC4F10C04C4F1200220FAA6
:1064200002F001FA04F340EA0300294630BD21FAE4
:1064300004F0294630BD94F0000F83F4801306BFAA
:1064400081F480110134013D4EE77FEA645C18BF9E
:106450007FEA655C29D094EA050F08BF90EA020F35
:1064600005D054EA000C04BF1946104630BD91EA2D
:10647000030F1EBF0021002030BD5FEA545C05D130
:106480004000494128BF41F0004130BD14F580046F
:106490003CBF01F5801130BD01F0004545F0FE41E3
:1064A00041F470014FF0000030BD7FEA645C1ABF18
:1064B000194610467FEA655C1CBF0B46024650EA4F
:1064C000013406BF52EA033591EA030F41F400217B
:1064D00030BD00BF90F0000F04BF0021704730B501
:1064E0004FF4806404F132044FF000054FF00001D6
:1064F00050E700BF90F0000F04BF0021704730B597
:106500004FF4806404F1320410F0004548BF40426B
:106510004FF000013EE700BF42004FEAE2014FEAC0
:1065200031014FEA02701FBF12F07F4393F07F4F9B
:1065300081F06051704732F07F4208BF704793F09E
:106540007F4F04BF41F40021704730B54FF46074B1
:1065500001F0004521F000411CE700BF50EA0102B4
:1065600008BF704730B54FF000050AE050EA01025D
:1065700008BF704730B511F0004502D5404261EBCD
:1065800041014FF4806404F132045FEA915C3FF40E
:10659000D8AE4FF003025FEADC0C18BF03325FEAAB
:1065A000DC0C18BF033202EBDC02C2F1200300FA5C
:1065B00003FC20FA02F001FA03FE40EA0E0021FA81
:1065C00002F11444BDE600BF70B54FF0FF0C4CF46F
:1065D000E06C1CEA11541DBF1CEA135594EA0C0F21
:1065E00095EA0C0F00F0DEF82C4481EA030621EA5C
:1065F0004C5123EA4C5350EA013518BF52EA033597
:1066000041F4801143F4801338D0A0FB02CE4FF048
:106610000005E1FB02E506F00042E0FB03E54FF078
:106620000006E1FB03569CF0000F18BF4EF0010E70
:10663000A4F1FF04B6F5007F64F5407404D25FEA6C
:106640004E0E6D4146EB060642EAC62141EA55511F
:106650004FEAC52040EA5E504FEACE2EB4F1FD0C61
:1066600088BFBCF5E06F1ED8BEF1004F08BF5FEADF
:10667000500E50F1000041EB045170BD06F0004691
:1066800046EA010140EA020081EA0301B4EB5C043E
:10669000C2BFD4EB0C0541EA045170BD41F4801136
:1066A0004FF0000E013C00F3AB8014F1360FDEBF5B
:1066B000002001F0004170BDC4F10004203C35DA37
:1066C0000C341BDC04F11404C4F1200500FA05F3BA
:1066D00020FA04F001FA05F240EA020001F000425B
:1066E00021F0004110EBD37021FA04F642EB0601D1
:1066F0005EEA430E08BF20EAD37070BDC4F10C04FB
:10670000C4F1200500FA04F320FA05F001FA04F2BE
:1067100040EA020001F0004110EBD37041F10001AA
:106720005EEA430E08BF20EAD37070BDC4F12005B5
:1067300000FA05F24EEA020E20FA04F301FA05F21D
:1067400043EA020321FA04F001F0004121FA04F2C5
:1067500020EA020000EBD3705EEA430E08BF20EA95
:10676000D37070BD94F0000F0FD101F000464000CF
:1067700041EB010111F4801F08BF013CF7D041EA51
:10678000060195F0000F18BF704703F00046520055
:1067900043EB030313F4801F08BF013DF7D043EA26
:1067A0000603704794EA0C0F0CEA135518BF95EADC
:1067B0000C0F0CD050EA410618BF52EA4306D1D163
:1067C00081EA030101F000414FF0000070BD50EA82
:1067D000410606BF1046194652EA430619D094EA0C
:1067E0000C0F02D150EA013613D195EA0C0F05D1F6
:1067F00052EA03361CBF104619460AD181EA03014A
:1068000001F0004141F0FE4141F470014FF0000001
:1068100070BD41F0FE4141F4780170BD70B54FF09C
:10682000FF0C4CF4E06C1CEA11541DBF1CEA13551C
:1068300094EA0C0F95EA0C0F00F0A7F8A4EB0504FE
:1068400081EA030E52EA03354FEA013100F08880F5
:106850004FEA03334FF0805545EA131343EA1263BE
:106860004FEA022245EA111545EA10654FEA002673
:106870000EF000419D4208BF964244F1FD0404F52C
:10688000407402D25B084FEA3202B61A65EB030588
:106890005B084FEA32024FF480104FF4002CB6EB45
:1068A000020E75EB030E22BFB61A754640EA0C00C5
:1068B0005B084FEA3202B6EB020E75EB030E22BF05
:1068C000B61A754640EA5C005B084FEA3202B6EB46
:1068D000020E75EB030E22BFB61A754640EA9C0005
:1068E0005B084FEA3202B6EB020E75EB030E22BFD5
:1068F000B61A754640EADC0055EA060E18D04FEA93
:10690000051545EA16754FEA06164FEAC30343EA32
:1069100052734FEAC2025FEA1C1CC0D111F4801FFF
:106920000BD141EA00014FF000004FF0004CB6E7F8
:1069300011F4801F04BF01430020B4F1FD0C88BF97
:10694000BCF5E06F3FF6AFAEB5EB030C04BFB6EBA2
:10695000020C5FEA500C50F1000041EB045170BD95
:106960000EF0004E4EEA113114EB5C04C2BFD4EBC2
:106970000C0541EA045170BD41F480114FF0000E46
:10698000013C90E645EA060E8DE60CEA135594EAC2
:106990000C0F08BF95EA0C0F3FF43BAF94EA0C0FC5
:1069A0000AD150EA01347FF434AF95EA0C0F7FF43A
:1069B00025AF104619462CE795EA0C0F06D152EA8E
:1069C00003353FF4FDAE1046194622E750EA410672
:1069D00018BF52EA43067FF4C5AE50EA41047FF483
:1069E0000DAF52EA43057FF4EBAE12E74FF0FF3CE8
:1069F00006E000BF4FF0010C02E000BF4FF0010CB9
:106A00004DF804CD4FEA410C7FEA6C5C4FEA430C31
:106A100018BF7FEA6C5C1BD001B050EA410C0CBF80
:106A200052EA430C91EA030F02BF90EA020F0020E2
:106A3000704710F1000F91EA030F58BF994208BF49
:106A400090422CBFD8176FEAE37040F00100704706
:106A50004FEA410C7FEA6C5C02D150EA013C07D15D
:106A60004FEA430C7FEA6C5CD6D152EA033CD3D0A8
:106A70005DF8040B704700BF8446104662468C46A2
:106A80001946634600E000BF01B5FFF7B7FF0028D5
:106A900048BF10F1000F01BD4DF808EDFFF7F4FFFE
:106AA0000CBF012000205DF808FB00BF4DF808ED89
:106AB000FFF7EAFF34BF012000205DF808FB00BFAC
:106AC0004DF808EDFFF7E0FF94BF012000205DF8CE
:106AD00008FB00BF4DF808EDFFF7CEFF94BF012083
:106AE00000205DF808FB00BF4DF808EDFFF7C4FF7C
:106AF00034BF012000205DF808FB00BF4FEA410CC5
:106B00007FEA6C5C02D150EA013C0AD14FEA430CA7
:106B10007FEA6C5C02D152EA033C02D14FF00000E4
:106B200070474FF0010070474FEA410212F5001222
:106B300015D211D56FF47873B3EB625212D94FEAC4
:106B4000C12343F0004343EA505311F0004F23FAAE
:106B500002F018BF404270474FF00000704750EA03
:106B6000013005D111F0004008BF6FF000407047C0
:106B70004FF00000704700BF80F0004002E000BF0F
:106B800081F0004142001FBF5FEA410392EA030F18
:106B90007FEA226C7FEA236C6AD04FEA1262D2EB62
:106BA0001363C1BFD218414048404140B8BF5B4267
:106BB000192B88BF704710F0004F40F4000020F000
:106BC0007F4018BF404211F0004F41F4000121F016
:106BD0007F4118BF494292EA030F3FD0A2F1010260
:106BE00041FA03FC10EB0C00C3F1200301FA03F19E
:106BF00000F0004302D5494260EB4000B0F5000FC1
:106C000013D3B0F1807F06D340084FEA310102F17F
:106C10000102FE2A51D2B1F1004F40EBC25008BF31
:106C200020F0010040EA03007047490040EB0000FB
:106C3000013A28BFB0F5000FEDD2B0FA80FCACF1FC
:106C4000080CB2EB0C0200FA0CF0AABF00EBC25029
:106C500052421843BCBFD0401843704792F0000F17
:106C600081F4000106BF80F400000132013BB5E76A
:106C70004FEA41037FEA226C18BF7FEA236C21D0E0
:106C800092EA030F04D092F0000F08BF0846704745
:106C900090EA010F1CBF0020704712F07F4F04D113
:106CA000400028BF40F00040704712F100723CBF26
:106CB00000F50000704700F0004343F0FE4040F450
:106CC000000070477FEA226216BF08467FEA23630E
:106CD0000146420206BF5FEA412390EA010F40F4F9
:106CE000800070474FF0000304E000BF10F0004345
:106CF00048BF40425FEA000C08BF704743F096432C
:106D000001464FF000001CE050EA010208BF704746
:106D10004FF000030AE000BF50EA010208BF7047CD
:106D200011F0004302D5404261EB41015FEA010CE2
:106D300002BF84460146002043F0B64308BFA3F1DA
:106D40008053A3F50003BCFA8CF2083AA3EBC253BC
:106D500010DB01FA02FC634400FA02FCC2F12002DB
:106D6000BCF1004F20FA02F243EB020008BF20F012
:106D70000100704702F1200201FA02FCC2F1200278
:106D800050EA4C0021FA02F243EB020008BF20EA6D
:106D9000DC7070474FF0FF0C1CEAD0521EBF1CEA9B
:106DA000D15392EA0C0F93EA0C0F6FD01A4480EA89
:106DB000010C400218BF5FEA41211ED04FF0006372
:106DC00043EA501043EA5111A0FB01310CF000409E
:106DD000B1F5000F3EBF490041EAD3715B0040EAC4
:106DE000010062F17F02FD2A1DD8B3F1004F40EB94
:106DF000C25008BF20F00100704790F0000F0CF067
:106E0000004C08BF49024CEA502040EA51207F3A2A
:106E1000C2BFD2F1FF0340EAC250704740F4000005
:106E20004FF00003013A5DDC12F1190FDCBF00F0F6
:106E300000407047C2F10002410021FA02F1C2F1A4
:106E4000200200FA02FC5FEA310040F1000053EA40
:106E50004C0308BF20EADC70704792F0000F00F08E
:106E6000004C02BF400010F4000F013AF9D040EA94
:106E70000C0093F0000F01F0004C02BF490011F428
:106E8000000F013BF9D041EA0C018FE70CEAD15326
:106E900092EA0C0F18BF93EA0C0F0AD030F0004CA6
:106EA00018BF31F0004CD8D180EA010000F000405A
:106EB000704790F0000F17BF90F0004F084691F018
:106EC000000F91F0004F14D092EA0C0F01D1420252
:106ED0000FD193EA0C0F03D14B0218BF084608D11B
:106EE00080EA010000F0004040F0FE4040F4000065
:106EF000704740F0FE4040F4400070474FF0FF0CF8
:106F00001CEAD0521EBF1CEAD15392EA0C0F93EA3E
:106F10000C0F69D0A2EB030280EA010C49024FEA90
:106F2000402037D04FF0805343EA111143EA101349
:106F30000CF000408B4238BF5B0042F17D024FF401
:106F4000000C8B4224BF5B1A40EA0C00B3EB510FDC
:106F500024BFA3EB510340EA5C00B3EB910F24BFC5
:106F6000A3EB910340EA9C00B3EBD10F24BFA3EB4A
:106F7000D10340EADC001B0118BF5FEA1C1CE0D112
:106F8000FD2A3FF650AF8B4240EBC25008BF20F0C5
:106F9000010070470CF0004C4CEA50207F32C2BF19
:106FA000D2F1FF0340EAC250704740F400004FF0B6
:106FB0000003013A37E792F0000F00F0004C02BFE7
:106FC000400010F4000F013AF9D040EA0C0093F0B1
:106FD000000F01F0004C02BF490011F4000F013B0B
:106FE000F9D041EA0C0195E70CEAD15392EA0C0F73
:106FF00008D142027FF47DAF93EA0C0F7FF470AFAB
:10700000084676E793EA0C0F04D14B023FF44CAFED
:1070100008466EE730F0004C18BF31F0004CCAD182
:1070200030F000427FF45CAF31F000437FF43CAFBE
:107030005FE700BF4FF0FF3C06E000BF4FF0010CE0
:1070400002E000BF4FF0010C4DF804CD4FEA4002C2
:107050004FEA41037FEA226C18BF7FEA236C11D00C
:1070600001B052EA530C18BF90EA010F58BFB2EBBF
:10707000030088BFC81738BF6FEAE17018BF40F03F
:10708000010070477FEA226C02D15FEA402C05D1F3
:107090007FEA236CE4D15FEA412CE1D05DF8040B78
:1070A000704700BF844608466146FFE70FB5FFF70B
:1070B000C9FF002848BF10F1000F0FBD4DF808EDC3
:1070C000FFF7F4FF0CBF012000205DF808FB00BFB4
:1070D0004DF808EDFFF7EAFF34BF012000205DF80E
:1070E00008FB00BF4DF808EDFFF7E0FF94BF01205B
:1070F00000205DF808FB00BF4DF808EDFFF7D2FF58
:1071000094BF012000205DF808FB00BF4DF808ED9A
:10711000FFF7C8FF34BF012000205DF808FB00BF67
:1071200053B94AB9002908BF00281CBF4FF0FF31EE
:107130004FF0FF3000F074B9ADF1080C6DE904CEEA
:1071400000F006F8DDF804E0DDE9022304B0704742
:107150002DE9F047089E0D4604468846002B4DD188
:107160008A42944668D9B2FA82F252B101FA02F325
:10717000C2F1200120FA01F10CFA02FC41EA0308F5
:1071800094404FEA1C45210CB8FBF5FE1FFA8CF722
:1071900005FB1E8341EA03430EFB07F199420BD91D
:1071A0001CEB03030EF1FF3080F01E81994240F288
:1071B0001B81AEF1020E63445B1AA4B2B3FBF5F07F
:1071C00005FB103344EA034400FB07F7A7420AD942
:1071D0001CEB040400F1FF3380F00881A74240F269
:1071E000058164440238E41B40EA0E4000211EB1D0
:1071F000D4400023C6E90043BDE8F0878B4208D99C
:10720000002E00F0EE800021C6E900050846BDE82A
:10721000F087B3FA83F100294AD1AB4202D382420C
:1072200000F2F980841A65EB030301209846002ED2
:10723000E2D0C6E90048DFE702B9FFDEB2FA82F227
:10724000002A40F09180A1EB0C054FEA1C471FFA81
:107250008CFE0121B5FBF7F307FB1350250C45EA23
:1072600000450EFB03F0A84208D91CEB050503F10D
:10727000FF3802D2A84200F2CB8043462D1AA4B2B6
:10728000B5FBF7F007FB105544EA05440EFB00FE82
:10729000A64508D91CEB040400F1FF3502D2A6452F
:1072A00000F2BB802846A4EB0E0440EA03409EE7B0
:1072B000C1F120078B4022FA07FC4CEA030C20FAAC
:1072C00007F405FA01F31C43FD404FEA1C4900FA9C
:1072D00001F3B5FBF9F8200C1FFA8CFE09FB1855D9
:1072E00040EA054508FB0EF0A84202FA01F20BD96C
:1072F0001CEB050508F1FF3A80F08880A84240F2B7
:107300008580A8F1020865442D1AA4B2B5FBF9F0F6
:1073100009FB105544EA054500FB0EFEAE4508D9B1
:107320001CEB050500F1FF346CD2AE456AD902387A
:10733000654440EA0840A0FB0294A5EB0E05A54277
:10734000C846A64656D353D05EB1B3EB080265EBF0
:107350000E0505FA07F722FA01F3CD401F43C6E9EF
:1073600000750021BDE8F087C2F1200320FA03F187
:107370000CFA02FC25FA03F395400D434FEA1C4733
:107380001FFA8CFEB3FBF7F107FB11302B0C43EA1D
:10739000004301FB0EF0984204FA02F408D91CEBFA
:1073A000030301F1FF382FD298422DD902396344EB
:1073B0001B1AADB2B3FBF7F007FB103345EA0345E8
:1073C00000FB0EF3AB4208D91CEB050500F1FF38BA
:1073D00016D2AB4214D902386544ED1A40EA014195
:1073E00038E73146304607E78646E5E61846FAE6CE
:1073F0004B45A9D2B9EB020864EB0C0E0138A3E7A8
:107400004046EAE7204694E74146D1E7D0467BE78D
:10741000023B654432E7084609E76444023842E724
:10742000704700BF10B59AB04822002108A824F088
:107430007DFB1822002102A824F078FB0FF0C4FF86
:107440004FF0B0420024D2F8903023F01803C2F875
:107450009030D2F8003423F4C06343F40073C2F8D0
:107460000034D2F80034119403F4C06301934FF454
:107470008072019B0C922E234022089381230B9350
:107480000D920123B02208A8CDE90E341093129278
:1074900013940FF03DFA08B100F0C0F94F23022118
:1074A00002A8CDE90234CDE90444CDE906440FF049
:1074B000D1FC08B100F0B2F91AB010BD13B50378D1
:1074C000082B00F2A280DFE803F013848BA09494D1
:1074D00005A09A00047920460CF03CF9204607F0FC
:1074E00003FD0021204602B0BDE810400CF03AB97F
:1074F00000200CF02FF9012826D101200CF02AF9E8
:10750000012804D001200DF0E5FB00282ADC022030
:107510000CF020F9012804D002200DF0DBFB00283C
:107520003BDC02B010BD012201A900200DF09AFA47
:1075300000200CF00FF9044630B90DF0A7FB48B954
:107540009DF8041007F03CFC00200DF0C3FB002860
:10755000E9DCD2E70128F7D19DF8041020460DF0B0
:10756000EFFAF1E7012201A910460DF07BFA0120A4
:107570000CF0F0F80028C5D101200DF087FB28B9E8
:107580009DF80410012007F01BFCBBE70128B9D1CE
:107590009DF804100DF0D4FAB4E7012201A90220ED
:1075A0000DF060FA02200CF0D5F80028B4D10220CA
:1075B0000DF06CFB28B99DF80410022007F000FCC8
:1075C000AAE70128A8D19DF8041002200DF0B8FA0E
:1075D000A2E716F08FFE02B0BDE8104007F0D6BB60
:1075E0000E4B1B68002B9CD0406802B0BDE81040D9
:1075F0001847406802B0BDE810400DF001BC40687B
:1076000002B0BDE810400DF09BB8054B1B6E002B7F
:1076100087D002B0BDE81040184700BF6C1E0020A4
:10762000C417030830B52D4B2D4A9A6085B00DF074
:107630008FFCFFF7F7FE4FF0B0430B209A6C42F03F
:1076400004029A649A6C02F004020392039A9A6C00
:1076500042F001029A649B6C002203F00103114680
:107660000293029B0FF008FE0B200FF037FE0DF087
:10767000BBFB0CF03DF80CF01DF90024014605465B
:10768000234603220120CDE900440DF011F92346E1
:10769000032229460220CDE900440DF009F90CF03F
:1076A000CBFE0CF0A5F902F03BFFE5B228460CF04A
:1076B00051F810B9284607F017FC0134032CF4D117
:1076C0000DF07AFB0CF0A6FE012804D105B0BDE850
:1076D000304003F077BF05B030BD00BF00ED00E0E3
:1076E0000060000808B50DF075FBBDE8084007F024
:1076F0004DBB000013B5FFF795FF4FF0B043DA6CB8
:1077000042F00202DA64DB6C03F002030193019B96
:1077100022F0C4FC00F05AF8F0B1164801F0B3FCB6
:10772000154B16481A68164B196801F0ACFC154841
:107730000DF05AF905F016FA01280FD002280FD0E3
:1077400010B911480DF050F9104CFFF7CBFF23781A
:1077500043B922F0A5FCF8E70D48DFE70D48F1E753
:107760000D48EFE70CF03EF80028EED000200DF0B9
:1077700069F8EAE7FAEE0208500F002010EF02085D
:10778000440F002020EF020834EF0208840F00208D
:1077900005EF020840EF02084BEF020800F0CEBEF2
:1077A00000F0D1BE70470000BFF34F8F0549064B74
:1077B000CA6802F4E0621343CB60BFF34F8F00BF8F
:1077C000FDE700BF00ED00E00400FA0570B586B0EB
:1077D0001022002102A824F0A9F94FF0B0430E4D69
:1077E000DA6C42F00202DA64DB6C03F002034FF45D
:1077F0008056009301A92846009B019610F01AF8C4
:107800003146284610F03CF931460446284610F02F
:10781000C3F8204606B070BD00040048BFF34F8F88
:107820000549064BCA6802F4E0621343CB60BFF31C
:107830004F8F00BFFDE700BF00ED00E00400FA0538
:107840007047000017488546FFF7FAFF16481749AA
:10785000174A002302E0D458C4500433C4188C42A1
:10786000F9D3144A144C002301E013600432A242FD
:10787000FBD312481249134A002302E0D458C450E3
:107880000433C4188C42F9D30F4A104C002301E092
:1078900013600432A242FBD324F0CCF8FFF72AFF96
:1078A000FEE7000000FC002000000020680F002020
:1078B000F0230308680F0020809E002000000020B5
:1078C000680F0020F0230308680F0020809E00202E
:1078D00000F05AB80368074A934206D1DA69D20623
:1078E00006D510221A6201F0EBB8034A9342F5D094
:1078F000704700BF00800040003801404FF0B043A7
:107900004FF0FF319A6B9963DA6BD9639A6B00225F
:107910009A63D86BDA63186C1964186C1A64586C23
:107920005964586C5A64986A9962986A9A62D86ADB
:10793000D962D86ADA62186B1963196B1A635A6CC8
:1079400042F001025A645A6C22F001025A64D3F8E0
:10795000902042F48032C3F89020D3F8902022F493
:107960008032C3F89020BFF34F8F0549054BCA689A
:1079700002F4E0621343CB60BFF34F8F00BFFDE71B
:1079800000ED00E00400FA054FF0B0434FF0FF3186
:107990009A6B9963DA6BD9639A6B00229A63D86BFE
:1079A000DA63186C1964186C1A64586C5964586C52
:1079B0005A64986A9962986A9A62D86AD962D86A4F
:1079C000DA62186B1963196B1A635A6C42F0010280
:1079D0005A645A6C22F001025A64D3F8902042F49F
:1079E0008032C3F89020D3F8902022F48032C3F87C
:1079F0009020FEE7FEE7FEE7FEE7704770470DF0D8
:107A0000BDBA0000014813F07BBD00BFBC120020CE
:107A1000014810F04CBA00BF6C9A0020014813F0E6
:107A20003FBF00BFBC12002001480FF09DBE00BF49
:107A3000C017002001480FF097BE00BFF4120020CD
:107A400001480FF091BE00BF5413002001480FF011
:107A50008BBE00BF2018002010B5044C20460DF04E
:107A6000D1FF2046BDE81040FFF734BF10190020B9
:107A70007047012010F010B8022010F00DB804205B
:107A800010F00AB8082010F007B8102010F004B861
:107A90000E4BDA68920602D520200FF0FDBFDA689F
:107AA000500601D54020F8E7DA68110601D580209C
:107AB000F3E7DA68D20502D54FF48070EDE7DB68B2
:107AC0009B0502D54FF40070E7E7704700080058A7
:107AD000134BDA68510503D54FF480600FF0DCBF1B
:107AE000DA68120502D54FF40060F7E7DA68D004CF
:107AF00002D54FF48050F1E7DA68910402D54FF4D3
:107B00000050EBE7DA68520402D54FF48040E5E715
:107B1000DB681B0402D54FF40040DFE7704700BF6D
:107B20000008005810B5044C20460DF06BFF2046AD
:107B3000BDE81040FFF7CEBE80180020014810F0CD
:107B4000C9BF00BFEC0F00204FF0B04382B0DA6C29
:107B50000243DA64DB6C18400190019B02B070476D
:107B60001FB514284FF00003CDE902330C460CD8A2
:107B7000092812D90A380A280FD8DFE800F07B0E4E
:107B80000E0E0E820E0E74116D00FE2800F0838022
:107B9000FF2800F08280FD287AD06FF0030059E0C2
:107BA0003F4A404B0193137843F0010313703E4862
:107BB0003E4A4FF00043C0E900233D4B04221B68BE
:107BC0008360426100230122C2614FF4805106228A
:107BD0000383C0E90333C0E90933C0E90C1283769B
:107BE00080F8203080F82C30836380F83C30C36408
:107BF0000DF00EFA08B1FFF711FE2B480DF0D2FD83
:107C000008B1FFF70BFE0023274801A9CDE9023395
:107C10000DF086FB08B1FFF701FE23480DF0ECFCE8
:107C200008B1FFF7FBFD0A211F480DF01BFB1E48A2
:107C30000DF09AFD1C480DF070FB1E4B019A80B2AE
:107C40009A42208004BF00EB4000208016480DF0CF
:107C500037FD002004B010BD114A174B0193137873
:107C600043F00203A2E70E4A144B0193137843F04A
:107C700004039BE70A4A124B0193137843F008036D
:107C800094E7074A0F4B0193137843F010038DE7F5
:107C90000D4B01938BE70D4BFBE7064BF9E700BF5C
:107CA000850F002004000008880F002000240140F8
:107CB00008000020004000B80800000C1000001070
:107CC000400000180008002C001000B0002000B494
:107CD00070477047014B1878704700BF0D000020B7
:107CE000014B1878704700BF0C00002010B5044607
:107CF00086B01422002101A823F018FF22685E4BF1
:107D00009A4240F08E804FF0B0435C4C1A6E42F4C1
:107D100000721A661B6E03F400730093009B2378B5
:107D2000DA0708D5132000F095FAB0F1904F7AD118
:107D30000120FFF709FF23789B0708D5142000F0E6
:107D400089FAB0F1904F76D10120FFF7FDFE23783C
:107D5000580708D5122000F07DFAB0F1904F72D18B
:107D60000120FFF7F1FE2378190708D50A2000F05B
:107D700071FAB0F1904F6ED10120FFF7E5FE237844
:107D8000DA0608D50F2000F065FAB0F1904F6AD1FD
:107D90000120FFF7D9FE00234FF0030CCDE902C309
:107DA0002378DB0709D5132000F059FA019013203E
:107DB00000F050FA01A90FF03DFD2378980709D58E
:107DC000142000F04CFA0190142000F043FA01A9AD
:107DD0000FF030FD2378590709D5122000F03FFA43
:107DE0000190122000F036FA01A90FF023FD23784C
:107DF0001A0709D50A2000F032FA01900A2000F093
:107E000029FA01A90FF016FD2378DB0609D50F200A
:107E100000F025FA01900F2000F01CFA01A90FF0E4
:107E200009FD06B010BD132000F014FA144B98425F
:107E300081D102207DE7142000F00CFA104B98420B
:107E400085D1022081E7122000F004FA0C4B984201
:107E500089D1022085E70A2000F0FCF9084B9842FE
:107E60008DD1022089E70F2000F0F4F9044B9842ED
:107E700091D102208DE700BF00240140850F002032
:107E80000004004838B5334B02689A4260D14FF085
:107E9000B042314C136E23F4007313662378DD0770
:107EA0000ED5132000F0D6F90546132000F0D7F9BF
:107EB000014628460FF070FD237823F0010323705C
:107EC000237898070ED5142000F0C4F90546142035
:107ED00000F0C5F9014628460FF05EFD237823F037
:107EE00002032370237859070ED5122000F0B2F94F
:107EF0000546122000F0B3F9014628460FF04CFD6C
:107F0000237823F00403237023781A070ED50A2060
:107F100000F0A0F905460A2000F0A1F90146284624
:107F20000FF03AFD237823F0080323702378DB0653
:107F30000ED50F2000F08EF905460F2000F08FF9C6
:107F4000014628460FF028FD237823F01003237004
:107F500038BD00BF00240140850F00200A4B00F10E
:107F60001002C1781970817859704178997010F8B1
:107F7000041BD970904203F10403F2D1034B102289
:107F80001A800020704700BFF81000200E0000206B
:107F90002DE9F04FDFF8FC80DFF8FCC0DFF8FCB023
:107FA00085B002AF0446164640460022C8E900C22A
:107FB000C8E909223D8ED7F834A079609946C8F8FF
:107FC0000820C8F80CB0C8F81420C8F82C2010F00D
:107FD0007AF908B1FFF722FC2E4810F098F908B1A1
:107FE000FFF71CFC2C480422C8E900020022C8F854
:107FF0000820002C3AD1C8F814400022012125485D
:10800000C8F80CB0C8E90912C8F82C2010F05BF9C8
:1080100008B1FFF703FC2B071DBF25F00F04103438
:10802000A4B22C46A300073323F00703ADEB030DE6
:1080300002AE22460021304623F078FD2A4649460A
:10804000304623F04BFD7A68FF2300935346BAB9BC
:1080500010482246314610F0D1FB70B90D4810F09F
:1080600056F998B90C37BD46BDE8F08F012C0CBF0E
:1080700020224022C8E90462BFE76FF00600F1E762
:1080800022463146034810F04DFCE6E7FFF7C6FBF9
:108090000020E7E7EC0F002000180058081100202E
:1080A00021F00803102B10B501D0202913D10B4B60
:1080B00000F11002C4781C7084785C7044789C7065
:1080C00010F8044BDC70904203F10403F2D1044B2E
:1080D0000020198010BD6FF01F00FBE70811002081
:1080E0001811002007B5CDE9001200220346114601
:1080F0001046FFF74DFF03B05DF804FB70B586B086
:1081000004460D4616460021102202A823F00EFD5B
:10811000074B08491A8802A823F0E0FCCDE9005675
:10812000234602AA00210120FFF732FF06B070BDEE
:108130000E000020F810002070B586B004460D46F1
:1081400016460021102202A823F0F0FC074B084934
:108150001A8802A823F0C2FC0121CDE9005623466B
:1081600002AA0846FFF714FF06B070BD0E000020FB
:10817000F810002008B5FFF793FFC0B208BD08B59E
:1081800010230A461946FFF7ADFFC0B208BD70B50F
:108190001446054618460E46FFF7E0FE23019BB243
:1081A000324619462846FFF7A9FFC0B270BD70B528
:1081B0001446054618460E46FFF7D0FE23019BB233
:1081C000324619462846FFF7B7FFC0B270BD00001F
:1081D000034B00221A70034B01221A70704700BF34
:1081E0002A7A0020287A0020C26891FAA1F0B0FA19
:1081F00080F0430003209840104091FAA1F1B1FAB9
:1082000081F14900C8407047024B53F8203003B158
:1082100018477047FC110020002201230342D1B20D
:1082200002F101020DD02F290ED8084B0848002278
:108230001A70082300F8313000EBC10041600CF0E7
:10824000C3BD5B009BB2E9E7704700BF2A7A0020FC
:108250007C110020000900F590108002704700F0AA
:108260000F030120984080B270472F2808B50346BD
:1082700000D908BDFFF7EEFF03F00F0201230168EC
:10828000934093FAA3F2B2FA82F0420003209040A6
:10829000084093FAA3F3B3FA83F35B00D840E8D025
:1082A00001284FF0000008BF0120E2E730B52F2879
:1082B00087B00B4623D800F00F040121A140022211
:1082C000032B019104921CD8012B1DD94FF4881364
:1082D0000293FFF7BFFF0546FFF786FF012819D07D
:1082E000022817D001A928460FF0A4FAA4B9062045
:1082F000224602210EF0C0FF06200EF0EFFF07B06D
:1083000030BD043B012B02D94FF44413E0E74FF496
:108310000413DDE70390E5E7012C06D107200022D6
:1083200002210EF0A9FF0720E7E7022C06D1082062
:10833000002221460EF0A0FF0820DEE7032C06D124
:108340000920002202210EF097FF0920D5E7042C16
:1083500006D10A20002202210EF08EFF0A20CCE76F
:10836000053C042C4FF000024FF0020104D8162007
:108370000EF082FF1620C0E729200EF07DFF292095
:10838000BBE70000044B00F00F0053F820200AB9AF
:1083900043F8201000207047FC110020F8B50F4D65
:1083A0000F4E104F00240F2C05DDA4F11203052BF6
:1083B00001D91C2C0ED155F824305BB906EB4403CF
:1083C0005B783BB139782046FFF770FF06492046BD
:1083D000FFF7D8FF0134302CE5D1F8BDFC110020A7
:1083E0001A11002010000020D18100082DE9F04171
:1083F000194D1A4E86B0002402270F2C05DDA4F17A
:108400001203052B01D91C2C1FD155F82430E3B9D8
:1084100016F81410012918D104F00F0399402046D2
:1084200001910497FFF716FF8046FFF7DDFE0390EA
:108430002046FFF71AFF012801D1029001E0002831
:10844000FBD001A940460FF0F5F90134302CD4D10E
:1084500006B0BDE8F08100BFFC1100201A11002019
:1084600000B58DB02C22002101A823F05FFB174836
:10847000174B03604FF080420023C0E90433C0E98A
:108480000723836083614FF48073436213F0B6F86F
:1084900008B1FFF7C3F90D4813F0D8F908B1FFF799
:1084A000BDF94FF07C5300220793084808924FF41F
:1084B000807301A9029206920B9313F0FBF808B1A6
:1084C000FFF7ACF900200DB05DF804FBBC120020F2
:1084D0000028004007B5074B0DF106001B699847BF
:1084E000BDF806304FF47A7202FB0030002103B071
:1084F0005DF804FB381E03087047704770B50D46E1
:10850000144606460CF06EFD30600CF071FD2860DC
:108510000CF074FD206070BDBFF34F8F0549064B12
:10852000CA6802F4E0621343CB60BFF34F8F00BF11
:10853000FDE700BF00ED00E00400FA0572B6EFF3BE
:10854000108303607047036883F3108862B6704736
:1085500070474FF0B04382B09A6C02439A649B6CB0
:1085600018400190019B02B070474FF0B04382B0B9
:10857000DA6C0243DA64DB6C18400190019B02B0B4
:108580007047000010B5064C0649802220460DF0C9
:1085900087FF2268136843F01003136010BD00BF0B
:1085A00080180020A0190020012810B50BD1094C1B
:1085B0000949802220460DF073FF2268136843F0BA
:1085C0001003136010BD0228FCD1BDE81040FFF776
:1085D000D9BF00BF10190020281A00202DE9F74349
:1085E0009DF828509DF82C80012B14BF00274FF4D4
:1085F0000057012D04460E4669D0032D6AD0002D88
:108600006BD00025013AD2B2022A6BD8664B53F8E0
:108610002290012C70D10420FFF79BFF2046FFF72A
:1086200098FF002211460E200EF026FE0E200EF0BE
:1086300055FE5E4B5E4883F801805E4B0561C0E9E4
:1086400000360C240023C0E90297C0E90543C0E9C5
:1086500007334362B8F1000F49D0B8F1020F01BFF0
:10866000082383624FF40043836351480DF08CFE6E
:1086700008B1FFF7D3F84E4800210DF0F5FF08B11F
:10868000FFF7CCF84A4800210EF013F808B1FFF7C5
:10869000C5F847480DF0C9FF08B1FFF7BFF8012042
:1086A000FFF782FF4FF44013009302AB13E906007B
:1086B0003F480DF043FF08B1FFF7B0F84FF0B0426C
:1086C000936843F40043936003B0BDE8F0834FF434
:1086D000C06597E74FF4806594E7022A05D14FF013
:1086E000805996E74FF0000993E7A94691E7C0F853
:1086F00028800DF017FEBBE7022CE5D12B4B2E4C4A
:1087000083F802800420FFF724FF0120FFF721FFF8
:10871000002211460B200EF0AFFD0B200EF0DEFD07
:10872000264B2561C4E900360C2200232046C4E90B
:108730000297C4E90523C4E90833A36263660DF018
:10874000F1FD08B1FFF76AF81B4800210DF08CFF1E
:1087500008B1FFF763F8184800210DF0AAFF08B12F
:10876000FFF75CF814480DF060FF08B1FFF756F80A
:10877000FFF708FF4FF44013009302AB13E9060024
:108780000D480DF0DBFE08B1FFF748F80C4AD2F8AF
:10879000803043F08053C2F880302268936843F4FD
:1087A000800393608AE700BFF4EF0208CC1A002030
:1087B000101900200038014080180020008000407F
:1087C000000800582DE9F3419DF820809DF824C051
:1087D000CDE9008C16461D4604460F46FFF7FEFE07
:1087E000064B0C204443181901221A5547600672A3
:1087F000457280F80A8002B0BDE8F081A81A002016
:10880000022810B504460BD107480DF05DF808B1F9
:10881000FFF704F80C20054B444300221A5510BD05
:108820000128F7D10248F0E780180020A81A00209C
:10883000101900200128F8B505460E461F462BD119
:1088400094B2184A5278013A012A17D816480DF006
:10885000ACFA224614483B4631460DF0D3FC0446A0
:1088600011480DF0C7FA84B9104B1B680BB90020F2
:10887000F8BD2146284698472046F9E70A4822468F
:108880000DF0C0FC04460028F6D0022C14BF6FF097
:1088900006006FF00500EBE70228E8D1044892B229
:1088A000EEE700BFCC1A002010190020B8130020FA
:1088B00080180020012802D1044800F079BB02286A
:1088C00001D10348F9E76FF006007047140000205B
:1088D00028000020012807B50AD10A480DF1070138
:1088E00000F0A3FB50B16FF0060003B05DF804FB8D
:1088F0000228F8D104480DF10701F1E79DF80700BF
:10890000F3E700BF1400002028000020704700009B
:10891000012802D1044800F0EFBA022801D103482F
:10892000F9E76FF0060070471400002028000020CF
:10893000F8B5224D224F00240C23224A63439B5C4E
:10894000CBB1022C1BD1204E3368DA69D103FCD4A1
:10895000DA695202FCD51C480DF03BFE33681A4818
:1089600010221A621A6822F010021A600CF0CDFF71
:10897000F06F0EF0E7FD0134032CDDD1F8BD012CC2
:10898000F9D108232B624FF480132B6255E8003F86
:1089900043F0020345E80032002AF7D157E8003FD0
:1089A00043F4800347E80032002AF7D1074AD2F89F
:1089B000803043F08063C2F88030DCE7003801404B
:1089C00008380140A81A002080180020000800582C
:1089D00073B50B4C0B4E4FF0FF35012D0BD923789F
:1089E0004BB133780193A37A0093227A637A61685A
:1089F0000020FFF7F3FD0135022DEED102B070BD6E
:108A0000A81A0020CC1A002070B51D4B02689A42AB
:108A1000044615D10CF079FF1A4E002516F8011BFB
:108A2000022001350CF06AF9802DF7D1154916485E
:108A30002A4600F070FA13492A4620460DF030FD10
:108A40002268124B9A4216D120460CF05EFF104E5F
:108A5000002516F8011B012001350CF04FF9802D7F
:108A6000F7D10B490B482A4600F055FA08492A4627
:108A700020460DF015FDBDE8704007480CF0A4B984
:108A800000800040A019002028000020003801408C
:108A9000281A002014000020201A00200268054B2C
:108AA0009A4205D1044B1B6813B1012108461847AF
:108AB000704700BF00380140B81300207047000025
:108AC000F8B52F4B02689A4204461DD10CF01DFFE9
:108AD0002C4B2D4F1B685D68C5F18005ADB200269B
:108AE000B5423FDC284929482A4600F014FA802282
:108AF000254920460DF0D4FC254B1A78012A03D1D4
:108B000000221A700BF096FE2268224B9A4224D162
:108B100020460CF0FAFE204B204F1B685D68C5F123
:108B20008005ADB20026B54223DC1C491C482A460C
:108B300000F0F1F98022194920460DF0B1FC144BE8
:108B40001A78012A03D100221A700BF073FE154B1C
:108B50001B6813B1012108469847BDE8F840124848
:108B60000CF032B917F8011B02200CF0C7F80136DF
:108B7000B6E717F8011B01200CF0C0F80136D2E768
:108B800000800040C0170020A0190020280000200D
:108B9000B41300200038014020180020281A0020BB
:108BA00014000020B8130020201A002073B5314BA8
:108BB00000261E7003685A6A8DF807202E4A9342D9
:108BC000054619D12D482E4C0DF019FD2D49266270
:108BD0001523C4E9001320468023C4E90266C4E9D2
:108BE0000436C4E906660EF03BFC08B1FEF716FE3B
:108BF000EC67A562FFF7C6FC2A68234B9A421BD19B
:108C00002248234C0DF0FBFC224A1123C4E9002327
:108C1000204600238022C4E90233C4E90423C4E9C6
:108C2000063323620EF01CFC08B1FEF7F7FDEC677B
:108C30000120A562FFF7B8FC2C680F4B9C420DD1B8
:108C40009DF8071002200CF059F82B68A34205D1BB
:108C5000114801220DF1070100F05DF90F480CF0F9
:108C6000B3F80F4B1A781AB901221A700BF0DAFD1B
:108C700002B070BD2A7A00200080004080180020D9
:108C8000C0170020080002400038014010190020E1
:108C9000201800204400024028000020201A002054
:108CA000B413002070B596B005461422002103A825
:108CB00022F03CFF3822002108A822F037FF2B6861
:108CC0005F4A934266D15F4B012408A8CDE908436F
:108CD0000EF0E2F908B1FEF7A1FD4FF0B043162007
:108CE0001A6E42F480421A661B6E03F480430193AD
:108CF000019BFFF7AFFAB0F1904F38D10120FFF799
:108D000034FC0220FFF731FC4F4B9B6A082B36D115
:108D10001720FFF7A4FA12230390002604930123DF
:108D2000CDE9053649484A4C072303A907930EF0BD
:108D300081FD484826621123C4E9000380232046B0
:108D4000C4E90266C4E90436C4E906660EF088FB8D
:108D500008B1FEF763FD00222420EC671146A562EE
:108D60000EF08AFA24200EF0B9FA16B070BD162063
:108D7000FFF770FA354B9842C3D10220BFE71620A7
:108D8000FFF76DFA04461720FFF769FA04430394CE
:108D90000223C2E7304A9342E7D1202308936B684D
:108DA000B3F5166F94BF4FF440634FF4006308A807
:108DB0000C930EF071F908B1FEF730FD4FF0B0439F
:108DC0000120DA6D42F00102DA65DB6D03F0010388
:108DD0000293029BFFF7C9FB0220FFF740FA04460B
:108DE0000320FFF73CFA0222012300260443CDE9C9
:108DF000042303A908234FF09040CDE906630394B0
:108E00000EF018FD154C1649A6611523C4E9001390
:108E10008023C4E9043620462023C4E90266C4E95D
:108E200007360EF01DFB08B1FEF7F8FC00222620E5
:108E3000EC671146A5620EF01FFA262093E700BFEB
:108E4000003801400200030010190020000400480F
:108E5000201800204400024000800040C01700207D
:108E60000800024070B51B4A0368934204461DD1B6
:108E70004FF0B0421620136E23F480431366FFF7C1
:108E8000E9F905461620FFF7EAF906461720FFF72D
:108E9000E6F946EA000128460EF07EFDE06F0EF08E
:108EA00051FB2420BDE870400EF026BA0A4A9342D6
:108EB0000FD14FF0B0420C21D36D23F00103D365E5
:108EC0004FF090400EF068FDA06F0EF03BFB2620A7
:108ED000E8E770BD003801400080004008B5054B50
:108EE00002689A4205D10CF0AAFFBDE80840FFF7DE
:108EF00049BB08BD00800040C26803699A4282BF36
:108F000040681B180133981A704708B54168FFF78D
:108F1000F3FF081A08BD2DE9F743044601A81646D9
:108F200088460BF05BFF2046FFF7EFFF864228BF25
:108F300006462046FFF7E9FFE3682569A268AB42D1
:108F40009CBF636801335D1B814623692068AE4284
:108F500002FB030013D87243414622F0BFFD236990
:108F600062683344934296BF236900239B192361AF
:108F700001A80BF035FF304603B0BDE8F08305FBD8
:108F800002F73A46414622F0A9FDA2682068751B07
:108F90006A4308EB070122F0A1FD4E452561E7D9A0
:108FA00023696268934234BF01330023E360DFE743
:108FB0002DE9F341044601A8164688460BF00EFF42
:108FC0002046FFF799FFE768E5682369A2682168F2
:108FD000864228BF06469D4284BF636801335D1BFD
:108FE000AE4202FB071110D87243404622F076FDD4
:108FF00062683744974288BF0027E76001A80BF0FA
:10900000EFFE304602B0BDE8F08105FB02F73A46BC
:10901000404622F063FDA2682168751B6A4308EB95
:10902000070022F05BFDE560E8E710B5044608465E
:10903000E26823699A4223D0A268E1682368541E3B
:10904000072C18D8DFE804F00408170C17171710BE
:109050005B5C0370002010BD33F811300380F9E72A
:1090600053F821300360F5E703EBC103D3E9002394
:10907000C0E90023EEE701FB023122F02FFDE9E712
:109080006FF00E00E7E70FB400B5ADF5037D0AF011
:10909000A9FCC0B201280AD185AB849A01934FF490
:1090A000007102A812F0CAF802A80BF09DFC0DF5A1
:1090B000037D5DF804EB04B070470AF087BC08B587
:1090C0000AF090FCC0B208BD014B00221A70704734
:1090D0002A7A00207047000008B503F002FF02461C
:1090E00058B1064B064900209A4208BF042003F5F8
:1090F000C31303F520638B42F6D108BDC0AFD23550
:10910000C0FF953608B503F0ECFE024658B1064B99
:10911000064900209A4208BF062003F5C31303F551
:1091200020638B42F6D108BD6086973660D65A37E9
:1091300003F0D7BE01480BF057BC00BF00F0020897
:1091400008B503480BF040FE024B00221A7008BD20
:10915000840000202A7A002030B58BB004463423E6
:1091600068468DF8003014F0B7F914B3019D14F07F
:1091700035F9F0B9E30702D528460AF03BFFA0070E
:1091800003D505F138000AF04DFF610703D505F15D
:1091900058000AF05FFF220703D505F5EE700AF0CC
:1091A00073FFA30603D505F564700AF087FF14F07A
:1091B0000BF90BB030BD10B514F010F901280446BE
:1091C00004D030B90BF01AFE204610BD6FF0050038
:1091D000FBE76FF00600F8E710B5134B134A1B6866
:1091E0000446407860B92179117003B1984723781B
:1091F000012B17D123792BB10D480BF0F5FB05E0BE
:109200000021F1E761780B480BF0EEFB002002F043
:1092100003FB207C02F004FD21460020BDE8104045
:1092200005F094BD0448E8E7781E0020471D0020A3
:1092300012F002082BF002084CF00208022813B5C5
:10924000044605D0144802B0BDE810400BF0CCBB7A
:1092500012480BF0C9FBFF238DF803300DF1030218
:109260004FF0043301210E4801930BF0CBF901AA12
:1092700004210C480BF0C6F920460BF041FB0120FD
:109280000BF03EFB4FF000635A681B6883F30888BD
:10929000904702B010BD00BF5BF002086CF00208FE
:1092A000004000080440000870B5044601468AB03A
:1092B000032005F04BFD23780A2B10D00E2B0CD188
:1092C0003E480BF091FB3E4A0023684613708DF830
:1092D00000308DF8043014F04DFA0AB070BD637898
:1092E0000D2B64D137480BF07FFB354B1A78042ADD
:1092F0001CD0022600201E700BF080FD0022324997
:1093000010460BF077FD0546B8B90BF07DFD4242E3
:1093100002F01F0200F01F004FF47A7158BF504254
:1093200000FB0111324628460BF066FDA37D032B9E
:109330001FD8DFE803F00B24272A40F2E32123485B
:109340000BF052FB00200BF059FDEFE7204A002301
:109350001380237E617E1B0243EA0143E17D0B43C0
:109360005360E37E217F1B0243EA0143A17E0B434E
:109370009360D4E90101174B83E80300ADE7144A79
:109380000123E5E7124A0223E2E7237E617E104AC9
:109390001B0243EA0143E17D0B43D360E37E217F5F
:1093A0001B0243EA0143A17E0B431361E1E70E2B4D
:1093B000DFD109480BF018FBDBE700BF81F00208A2
:1093C000401C00208CF00208759A000899F00208F1
:1093D000241C0020381C0020A9F00208704703F06C
:1093E00080BD7FB5054603F07AFD431EDBB2012B3D
:1093F000044603D900F0FD03082B1DD101A80AF093
:1094000009FB002201A91346012011F8016B1EB1CE
:1094100000FA02F633439BB201320C2AF5D104F074
:10942000FD02082A01D0012C02D123F480739BB2E3
:109430002B80002004B070BD6FF00200FAE7F0B599
:109440008FB006460F4603F04AFDFF23ADF800300B
:109450004FF47F43ADF80230431EDBB20024012BF2
:10946000CDE901440546039403D900F0FD03082B20
:109470007ED1FFF7A0FE044600286FD1338823B9C0
:10948000012D50D140F2FF1333800C22002101A89E
:1094900022F04CFB3088002240FA02F1CE07D3B212
:1094A0000ED50EAE03F0FE0103F00103314406EBCE
:1094B000430331F8346C33F8383C334321F8343CFF
:1094C00001320C2AE8D105F0FD03082B01D0012D53
:1094D0000ED1BDF80C30002203F47F43ADF80C3000
:1094E00011460126D5B2072D28D909B1ADF80C30A7
:1094F00023238DF8103004A801AB059314F03AF93A
:10950000054668B924238DF8103004A801AB0593F3
:1095100014F030F90AF004FED8B913F055FF00B387
:109520006FF006041AE005F0FD03082B04BFFF23CB
:109530003380022DA9D140F6FF73A5E740FA02F56A
:10954000ED0741BF06FA02F10B439BB20121013244
:10955000C8E728460AF0EAFD0028DED020460FB012
:10956000F0BD002FFAD001A80AF05EFA0446F5E734
:109570006FF00204F2E700002DE9F04395B00446D5
:109580000D4690461F4603F0FCFA611C064629D1A1
:109590006A1C0AD0003D18BF012503F07EFC8542FD
:1095A00003D0284603F07BFC50BBB8F1FF3F07D047
:1095B00003F077FC404503D0404603F074FCF8B953
:1095C0007B1C07D003F071FCB84203D0384603F08F
:1095D0006EFCA8B9BCB920460BF010FC754B1C60A2
:1095E00000200DE0B4F1000918BF4FF0010903F0AD
:1095F00050FC8145CCD0484603F04DFC0028C7D034
:1096000015B0BDE8F08303F06AFC03F07CFC002891
:1096100000F0CC80012E40F096808DF800600AF0BA
:1096200081FB02238DF8050068468DF8043014F0A4
:109630004DFD614B049A1A600446002854D103F092
:109640007BFB012808BF5D4B0AA808BF1C703423B0
:109650008DF8283013F040FF0B9B988803F037FCFF
:10966000FFF72DFD0028CBD034230AA88DF8283031
:1096700013F032FF0AA813F02FFF0028B0D1504D8D
:109680000B9B2A7893F858404E480C2606FB023371
:10969000D3F890130BF0A8F9012C0B9A01D0082CE9
:1096A0006ED12B78D2F8C420474903F0070301FBA1
:1096B000032146480BF098F90B9B4548D3F8C4109A
:1096C0000BF092F90B9B434893F949100BF08CF97E
:1096D0000B9B414893F948100BF086F90B9B3F48D0
:1096E000D9680BF081F97BE7012812D00B282BD128
:1096F000304D00200BF082FB2C6801342C6003F00D
:10970000D4FB844208D900232B60049934480BF021
:109710006BF96FF0050073E70022324910460BF039
:1097200069FB044648B903F0BCFB4FF47A7141432E
:10973000224620460BF060FBE7E740F264612A48CE
:109740000BF052F9E1E716B16FF0060058E701237C
:1097500068468DF800308DF8043014F00BF80028BE
:10976000F2D103F0E9FA022807D18DF80400684627
:109770008DF8006013F0FEFF72E703F0DDFA6FE78B
:10978000022C297809D13023B1FBF3F003FB10112F
:10979000CBB2D2F8C420154989E706FB0122D2F8E2
:1097A0009413002985D1D2F8901382E76FF010004E
:1097B00026E700BF201C0020C41B0020401C002006
:1097C00048290020E7F00208C0270900E4F0020859
:1097D000F6F0020808F102081EF1020833F102084F
:1097E000CCF00208F1970008B6F00208400D030023
:1097F0004FF0FF331A4619460120FFF7BDBE0000A7
:109800002DE9F0419AB00D4602A981E80C0080468E
:109810000AF088FA074603F0B6F90646002800F079
:10982000038113F00DF810B16FF005009BE004F018
:1098300003FD04460028F7D103F07EFA022840F029
:1098400095808DF8440010A88DF8404013F092FFE9
:109850008DF826700AF008FB60B10AF005FB0128BC
:1098600002D1002003F00EFB052310A88DF8403034
:1098700014F02CFC6F4B1B78012B05D1092310A889
:109880008DF8403014F022FC05A9E8B213F0C4FDB5
:109890000746FFF714FC60B19DF814309DF81520C1
:1098A0006549664851F82710D21A00922A460BF0F3
:1098B0009BF8002F79D000238DF818300893ADF86D
:1098C000243006A815F0D6FA5D4B0A9A1A600546B0
:1098D000FFF7F5FB00283FD0342310A88DF8403067
:1098E00013F0FAFD10A813F0F7FD002834D1554FFE
:1098F000119B3A7893F8586053484FF00C0808FBD6
:109900000233D3F890130BF06FF8012E119A01D0A7
:10991000082E66D13B78D2F8C4204C4903F00703E7
:1099200001FB03214A480BF05FF8119B4948D3F82B
:10993000C4100BF059F8119B474893F949100BF0EC
:1099400053F8119B454893F948100BF04DF8119BC3
:109950004348D9680BF048F8002D58D1002C0CBFB3
:109960006FF0020000201AB0BDE8F08103F0E4F9C6
:1099700001287FF46DAF3B4B1B787BB1022B7FF44A
:1099800067AF20460BF03AFA0C238DF82C3003F029
:1099900019FA00F007008DF8300002E009238DF875
:1099A0002C300BA814F092FB52E79DF808308DF88C
:1099B0001C309DF80B30ADF82450CDF8208053B109
:1099C0009DF80C305BB900238DF81830264B00222F
:1099D0001A70344675E703F04BF90028F3D00123E1
:1099E000F2E7022E397809D13023B1FBF3F003FB03
:1099F0001011CBB2D2F8C4201C4991E708FB012218
:109A0000D2F8941300298DD1D2F890138AE7A5F1EA
:109A10000E03DBB2012B7FF607AF0B2D07D10A999E
:109A200013480AF0E1FFFFE66FF00B009BE76FF0D1
:109A3000060098E7811E00204CF502083FF102085D
:109A4000C41B002048290020E7F00208C0270900B5
:109A5000E4F00208F6F0020808F102081EF102081C
:109A600033F10208401C0020471D0020400D030078
:109A7000CCF002081FB501238DF808308DF80930AD
:109A8000002103238DF80A308DF80B10009104ABF0
:109A900013E90C000248FFF7B3FE05B05DF804FBC4
:109AA00024F602082DE9F04F43788DB00446002BD0
:109AB00040F0A780B0F90E00774F784E237C3880B5
:109AC00040B2337002F0B2F8237B002B3BD0607CB5
:109AD0007349B7F9002051F8201096F90030714809
:109AE000DFF8C491DFF8C4A10AF07EFFA378012B50
:109AF0000CBF6F486F480AF077FFE1786E480AF0B4
:109B000073FF4FF000085FFA88FB584609F022FE09
:109B1000054640B9227BEBB29A4200F2A38051463F
:109B200058460AF029FF08F10108B8F1030FEAD1FD
:109B3000227BA168614821F0D1FF614B227B1A7022
:109B4000604BE2781A706379012B00F093802378E0
:109B5000012B02D15C4B01221A705C4B1A782AB39C
:109B6000DFF86C9100221A7099F80030F3B996F979
:109B70000030584DDFF8608100932A78B7F9003043
:109B800098F8001055480AF02FFF554B1B686BB131
:109B9000544899F80020027098F8002042702A7802
:109BA00082703A888280327882719847E278E02A1F
:109BB00011D04D4B1B6873B14C4802702279427032
:109BC000A2684260227B0272E2894281227C027397
:109BD0006269026198472146012005F0B7F84448C0
:109BE00090F802316BB1002380F802318DF80B3010
:109BF00000938DF80930DDE90223B0F80011FFF77A
:109C0000FFFDFFF75CFA50B3342302A88DF808304B
:109C100013F062FC02A813F05FFC002838D1637CCB
:109C200073BB34480AF0E0FEA16933480AF0DCFE59
:109C3000E17832480AF0D8FEB4F90E1030480AF044
:109C4000D3FE94F910102F480AF0CEFE21792E4849
:109C50000AF0CAFE039B2D4899690AF0C5FE0DB0B3
:109C6000BDE8F08FA2684946D25C58460AF084FEEF
:109C700001354FE703F060F800287FF468AF69E72B
:109C8000012B01D12248CDE7022BCDD12148C9E7D4
:109C900021480AF0A9FEE2E7681E0020801E00208D
:109CA000CCF5020891F10208B6F1020822F602088A
:109CB000A2F10208ADF10208E1F80208481D0020F7
:109CC000481E0020491E0020C81B0020521E0020F4
:109CD000531E00201C1C0020C11B0020BBF10208E9
:109CE000701E00204A1E0020741E0020541E0020FA
:109CF000421C0020DAF1020837F2020849F2020899
:109D000053F202085DF2020866F2020876F20208D7
:109D1000F7F1020814F2020884F20208F0B591B0DB
:109D2000002603ACC4E901660546039603F0D7F8A4
:109D3000431EDBB2012B0AD9082808D005286AD0B7
:109D40000A2804D06FF00604204611B0F0BD15BB00
:109D50002046ADF8185009F05DFE0028F2D1BDF89C
:109D600018302A46012114F8010B20B101FA05F23E
:109D700013439BB2012201350C2DF4D10AB1ADF889
:109D80001830002106A8FFF75AFB04460028D9D155
:109D90000AF0CCF9D8E71A2301A98DF8043017F09E
:109DA00053FC1E230090C6B206A88DF8183013F09D
:109DB00093FB079B0022A3F10C010C20D3B29E421F
:109DC00003D859D16FF00204BEE7013200FB02F75D
:109DD000CF59AF42F2D11A0910A901EB420203F0A8
:109DE0000F03012101FA03F322F8343C06A82323D0
:109DF0008DF81830079413F0BDFC0028A2D124235D
:109E000006A807948DF8183013F0B4FC0446002817
:109E100098D12846BCE7CDB90723ADF80C3006A889
:109E200023238DF81830079413F0A4FC002889D15F
:109E3000242306A88DF81830079413F09BFC002803
:109E400080D128460AF072F904467DE71E2306A851
:109E50008DF8183013F040FB079933460C2000FBB7
:109E600003F28A58AA4203D1012202FA03F3D4E78B
:109E70000133042BF3D1A5E7002465E7014B1868F3
:109E8000704700BF381C0020014BB3F90000704739
:109E9000681E0020014B93F900007047801E0020CF
:109EA00070B5094E3478944228BF144605462246C0
:109EB0000846064921F012FE054B1A782A70002246
:109EC0001A703270204670BD481E0020481D0020C8
:109ED000491E0020014B1878704700BF471D002025
:109EE00030B58BB00C46054602F0F9FF03F00BF8D5
:109EF000B8B12D2368468DF800308DF8045013F06A
:109F000039FC38B9094B9D6074B1284609F010FF3F
:109F10000BB030BD03280CBF6FF002006FF00600DD
:109F2000F6E76FF01000F3E72046F1E7A00000200D
:109F3000F0B5044601468BB0022004F007FF2378F9
:109F4000013B0B2B4AD8DFE813F00C004900490015
:109F50004900D1004900490049008C004900F40043
:109F6000B90065787A4E7B4F002D39D17A480AF0D6
:109F70003BFD28460AF042FF356002F0DDFE022874
:109F80000AD18DF8040068468DF8005013F0F2FBFA
:109F900010B172480AF028FD3B680BB100209847C9
:109FA00009F0C0FE0021FFF79BFF02F0C5FEFFF79E
:109FB00086F898B1342368468DF8003013F08CFA97
:109FC000684613F089FA002847D165480AF00CFD6D
:109FD000019B6448D3F8E4100AF006FD0BB0F0BD15
:109FE000022D1CD0EB1E012B1BD85F480AF0FCFC95
:109FF00000200AF003FF35680135356002F055FF97
:10A00000854213D9002333603B6823B157486378F6
:10A0100043600AF0D9FE564BDB6A9847C5E75548BE
:10A02000E4E7294654480AF0DFFCE1E700225349FF
:10A0300010460AF0DFFE054648B902F032FF4FF441
:10A040007A7141432A4628460AF0D6FEDCE740F200
:10A05000222149480AF0C8FCD6E749480AF0C4FC66
:10A06000BCE7484D64782E78DCB9012E09D146480A
:10A070000AF0BAFC454B1B680BB1204698470023F9
:10A080002B7002F059FE0128A8D1414B1A78042AFE
:10A09000A4D018700B2368468DF8003014F016F821
:10A0A0009CE7012E9AD13B480AF09EFC374B1B6877
:10A0B0000BB13046984700232B708FE76378002B55
:10A0C0008CD1334A8DF80030042101236846117089
:10A0D0008DF8043013F04EFB00287FF47FAF2E483C
:10A0E0000AF082FC0220FFF7C5FC77E72B4B012228
:10A0F0001A702B4B227A1A702A4B627A1A70637884
:10A10000294C2370002B3FF469AF28480AF06CFCFF
:10A11000274B1A68002A3FF461AF26482378037062
:10A12000002343708370838083710BB0BDE8F040DF
:10A1300010476378002B3FF451AF1F480AF054FCDE
:10A14000134B1A78042A1CBF03221A700923A2E7B2
:10A15000201C00206C1E0020A8F20208B6F20208A3
:10A1600007F302081DF30208CBF202088C0000205E
:10A17000C4170308E9F20208B6F00208F1970008D4
:10A1800084F20208811E00202CF302087C1E0020AD
:10A19000401C00203EF3020854F30208521E002027
:10A1A000C11B00201C1C0020531E00205FF302086E
:10A1B000701E00204A1E0020A9F0020870B58AB067
:10A1C0000C46054602F08BFE02F09DFEC8B12E2320
:10A1D0006EB268468DF800308DF8046013F0CAFA4C
:10A1E00040B90A4B83F8246074B1284609F030FE68
:10A1F0000AB070BD03280CBF6FF002006FF00600BC
:10A20000F6E76FF01000F3E72046F1E7A00000202A
:10A2100030B58BB00D46044602F061FE02F073FECD
:10A22000002843D002F0AFFCB8B1002368468DF897
:10A23000003013F051F910B16FF0060011E09DF8F5
:10A240000430012B1ED0022B2BD0002BF4D1012C7B
:10A2500009D0022C0BD0002CEED155B3204609F0CA
:10A2600055FD0BB030BD144B00221A70F5E7134BAF
:10A270008DF8044001221A70684613F07BFA00281A
:10A28000EBD0D9E7012CF7D0022C05D0002CD3D18C
:10A2900000238DF80430EFE7084A8DF8044013706E
:10A2A000EAE7012CDFD0022CF0D1D6E76FF01000E6
:10A2B000D7E72846D5E700BF401C00201C510020EE
:10A2C00030B58FB00D46044602F009FE02F01BFEC9
:10A2D000002800F09B8001238DF81030002C4DD118
:10A2E0008DF8143004A813F045FA00284AD1002C48
:10A2F00053D11021684609F0FBFB0F2304A88DF809
:10A300001030CDF814D013F035FA00283AD10421DA
:10A31000684609F015FC07238DF81030009B04A84F
:10A320001BBA059313F026FA60BB1021684609F0AA
:10A3300065FC0C2304A88DF81030CDF814D013F070
:10A3400019FAF8B90D2304A88DF81030CDF814D0FF
:10A3500013F010FAB0B90E2304A88DF81030CDF820
:10A3600014D013F007FA68B909F0CAFC2146FFF7C8
:10A370004FFF48B9002D45D1284605E004A813F049
:10A38000ABF818B16FF006000FB030BD9DF8143077
:10A39000012B08BF8DF81400A4E70821684609F0D6
:10A3A000F7FB022304A88DF81030CDF814D013F079
:10A3B000E1F90028E6D10821684609F049FB0323AA
:10A3C00004A88DF81030CDF814D013F0D3F900287C
:10A3D000D8D11021684609F063FB082304A88DF842
:10A3E0001030CDF814D013F0C5F90028CAD10923D4
:10A3F00004A88DF81030CDF814D013F0BBF9002864
:10A40000B8D0BFE7204609F05DFCBDE76FF0100053
:10A41000BAE710B5012100B10846FFF751FF4FF030
:10A42000FF33BDE810401A4619460120FFF7A4B8D3
:10A4300070B5044D064604460FCD0FC42B6823604B
:10A44000304670BD241C0020014B1878704700BFB7
:10A45000401C0020014B1878704700BF811E00206F
:10A4600010B5044602F08FFB28B1012C06D8054B2D
:10A4700000201C7010BD6FF00B00FBE76FF00200B6
:10A48000F8E700BF811E002038B504460D460328BA
:10A4900029D8DFE800F0021F222503F033FB10B3B8
:10A4A000124B134A43F82400426253F82420114906
:10A4B000916253F824201049D16253F824200F49A7
:10A4C000116353F824300E495B682846F2229847FE
:10A4D000002038BD03F004FCE1E703F0A9FEDEE74D
:10A4E00004F0CAF8DBE74FF0FF30F2E70851002034
:10A4F000D5900008DD93000813A40008A1EC000823
:10A50000CF1A002000B58BB030238DF8003068469C
:10A510001923019313F02EF90BB05DF804FB000032
:10A52000F0B58FB00546FDF73DF902F01BFB0128A1
:10A5300028D002F067F9002402F0FEFB022805D0C3
:10A5400002F01FFB10B1AB4BDB6A984702F00AFB2D
:10A55000012814D19CB902F0A0FC80B102F099FC52
:10A56000054602F09AFC064602F09BFC074602F004
:10A570009CFC3A46034631462846FEF7FDFF20463E
:10A580000FB0F0BDCDB917F0BDFB9B489B4B0360EE
:10A590009B4B43609B4B9C4983609C4BC360002357
:10A5A000C1E900339A4B8B602A469A4BCB6012F07C
:10A5B0002FFD88B16FF00604BEE7142D04D10220F0
:10A5C00017F0A0FB0025E0E7152D01D10320F7E7E8
:10A5D000162DDAD10420F3E78F4B01221A703523B0
:10A5E0008DF8103004A88D4B059313F0C3F80028A4
:10A5F000E0D16B1E012B03D905F0FD03082B29D1F7
:10A60000002301A8ADF8023009F004FA044600283E
:10A6100092D1BDF8023001AA0146012412F8016B63
:10A6200026B104FA00F10B439BB2012101300C2842
:10A63000F4D109B1ADF8023002F053FC0146002814
:10A6400000F0B78002F04DFCFFF768FB04460028DD
:10A650007FF472AF052D00F0B18009F02DFB0021D1
:10A66000FFF72EFE044600287FF466AF01F090FA53
:10A67000044600287FF460AF09F042FB2146FFF753
:10A68000C7FD044600287FF457AF09F027FB214699
:10A6900002F032FD044600287FF44EAF09F042FB81
:10A6A0002146FFF71DFC044600287FF445AF09F062
:10A6B0004BFB214602F028FE044600287FF43CAF05
:10A6C00009F084FB214602F0F9FD09F04FFB214619
:10A6D00002F038FD044600287FF42EAF09F07CFB21
:10A6E000214602F06DFD044600287FF425AF09F0F5
:10A6F00085FB214602F084FD044600287FF41CAF50
:10A7000009F0A0FB2146FFF759FD044600287FF41D
:10A7100013AF09F01FFE002102F017FB04460028CA
:10A720007FF40AAF342304A88DF8103012F0D4FE61
:10A73000059D02F0CAFBA88002F0CFFB003818BFCD
:10A74000012085F8AF0102F01CFA002843D03448FC
:10A7500018F07AFD33481FF011F9FFF7D3FE12F01D
:10A7600033FE054600287FF425AF2F492F4804F01B
:10A7700083FA2F492846FFF787FE014600287FF419
:10A7800019AF0120FFF780FE014600287FF412AFC9
:10A790000220FFF779FE00287FF40CAF2549032043
:10A7A000FFF772FE00287FF405AF234803F05EFD3B
:10A7B000C2E60DF10200FEF742FE47E702F091FB10
:10A7C00000283FF44AAF0020FFF7A8FA044600280B
:10A7D0003FF443AFB0E602F0CAFD02F0ABFA002846
:10A7E000B5D009F09FFA2146FFF77AFB0028AED0DA
:10A7F000A2E600BFC41703080C1C0020D991000872
:10A80000A59A0008319F0008FC1B0020A9920008AF
:10A810005991000841910008461D002000030001E5
:10A82000740000207C000020CC1B00203C00002095
:10A83000DC1B0020EC1B0020C9900008F0B58BB099
:10A840000646FCF7C3FFC0B2002800F08180022E4C
:10A8500004D16FF0100420460BB0F0BD042EF8D0E8
:10A8600002F03DFBB04200F09F80304602F04BFB0F
:10A870000028EED0FEF79FFC044618B14B4B1B7826
:10A88000002BE8D101F0B6F90028E4D109F04EFC24
:10A8900007460028DFD1002E5FD1012017F032FAE1
:10A8A0003546434943482A4612F0B2FB002878D186
:10A8B0002C2368468DF8003012F00EFE002870D16F
:10A8C0009DF8040009F034FA04460028C3D120277B
:10A8D00068468DF8007012F0FFFD002861D19DF8E8
:10A8E000080009F037FA04460028B4D168468DF80C
:10A8F000007012F0F1FD002853D1019809F05AFAC6
:10A9000004460028A7D12F2368468DF8003012F0A6
:10A91000E3FD002845D19DF8040009F099FA0446AA
:10A92000002898D16B1EDBB2012B28D905F0FD035E
:10A93000082B24D0002E18BF3546284609F05EF8B3
:10A940000446002887D12846FFF7EAFD044682E73F
:10A95000022E85D0042E83D07BE7142E04D1022052
:10A9600017F0D0F93D469CE7152E01D10320F7E7FB
:10A97000162E01D10420F3E73546064691E724233D
:10A9800068468DF8003012F0A7FD50B9019809F023
:10A990004BF8044600287FF45EAF09F0C7FB00289F
:10A9A000C8D06FF0060456E7002454E7461D002087
:10A9B000FC1B00200C1C002038B502F0D3F8012845
:10A9C00009D008F05BFDD8B11D491E480AF00CF80B
:10A9D0006FF0060412E002F082FAA0F11403DBB279
:10A9E000022B054698BF0025FEF7E5FB044600282C
:10A9F000E7D0284616F023FE0028E2D0204638BDD6
:10AA000001F0F8F80028E3D102F0ACF8012801D0F9
:10AA10000024F3E702F063FAA0F11403DBB2022B87
:10AA2000054698BF002502F05AFAFFF779FD044663
:10AA30000028EDD0284616F002FE0028E8D0DDE719
:10AA4000ACF502087AF3020813B5064C6368984720
:10AA500028B9E36A019302B0BDE81040184702B07C
:10AA600010BD00BFC4170308014B5B68184700BF47
:10AA7000C417030808B5034B5B689847003818BF34
:10AA8000012008BDC417030808B509F0CBFE024A2F
:10AA900013680133136008BDE0210020F7B5164CA0
:10AAA000164E2368164D30682F68013B2360154B06
:10AAB00021681A6864234343511A3844B3FBF0F306
:10AAC000114809F091FF236810493BB14B6B01938A
:10AAD00041F2883003B0BDE8F04018470C483360BD
:10AAE00002782B600B6B019322F00802027003B016
:10AAF000BDE8F040184700BFD8200020A81E002065
:10AB0000AC1E0020DC200020E4F50208C417030876
:10AB1000B01E0020024A136801331360FFF7BEBF66
:10AB2000A81E0020FFF7F6BF10B5064C20680130C4
:10AB30002060114604481A4609F056FFBDE810404F
:10AB4000FFF7ACBFAC1E002002F60208F8B52D4D91
:10AB50002D4F2B78BA6A2D4C2D4E002B33D0236D00
:10AB60002C48013B2365E17D9047616C2A4809F040
:10AB70003BFF3268216D2948511A09F035FFE26C1C
:10AB8000636C13446364626CA36C9A4282BF244B6F
:10AB90001B686364606CFB689847236D23B1BDE854
:10ABA000F840204810F004B91F4A1E48137823F0DB
:10ABB0000403137010F04CF810B11A4810F0A8F804
:10ABC00000232B70F8BD194D12482B68013B2B60F8
:10ABD000E17D9047326829681048511A09F004FF56
:10ABE0002B68002BDBD1104A0E48137823F00403A6
:10ABF000137010F02DF80028E4D0BDE8F8400948A3
:10AC000010F086B8D4200020C4170308A00000204C
:10AC1000DC200020E020002025F6020837F602089C
:10AC2000D0200020B41E0020B01E0020D82000201C
:10AC3000F8B52E4D2E4F2B78BA6A2E4C2E4E002B87
:10AC400035D0236D2D48013B2365E17D9047616C34
:10AC50002B4809F0C9FE3268216D2A48511A09F0C3
:10AC6000C3FE226D33689B1A274A1278B3FBF2F1B8
:10AC700002FB1133254A52F823306364606CFB6891
:10AC80009847236D23B1BDE8F840214810F090B8F3
:10AC9000204A1F48137823F0040313700FF0D8FFE5
:10ACA00010B11B4810F034F800232B70F8BD1A4D7A
:10ACB00012482B68013B2B60E17D90473268296880
:10ACC0001048511A09F090FE2B68002BDBD1114A75
:10ACD0000F48137823F0040313700FF0B9FF002816
:10ACE000E4D0BDE8F8400A4810F012B8D4200020A3
:10ACF000C4170308A0000020DC200020E020002072
:10AD000025F6020837F60208CC1E0020D01E0020CF
:10AD1000B41E0020B01E0020D820002010B5094B22
:10AD20001B6813B1084B1B6D3BB9084C236823B15A
:10AD300009F080FD2368013B2360BDE81040044812
:10AD400009F052BED8200020A0000020E021002001
:10AD500053F6020870B50D4CC00000220221824259
:10AD600000D170BDC1F3001383EA1123D51043EA6B
:10AD7000410302F00706C3F3080103F00103B340E7
:10AD8000665D334363550132E9E700BFE0200020F0
:10AD9000064B10B5064C1B6B9847236823B109F08E
:10ADA00049FD2368013B236010BD00BFC4170308A1
:10ADB000E021002038B50D4D287810F0010411D1A4
:10ADC000FFF762FE2B7843F001032B70084B186BE2
:10ADD00093F82410074B4FF6FF72DB6B49B298478C
:10ADE000204638BD6FF00500FBE700BFB01E002015
:10ADF000A0000020C41703080F4B104810B5002214
:10AE00001A700FF025FF10B10C480FF081FF0C48AD
:10AE10000FF01EFF10B10A480FF07AFF094B0A4CE1
:10AE2000DB6A9847236803B910BD09F003FD236866
:10AE3000013B2360F6E700BFB01E0020B41E0020D7
:10AE4000D8220020C4170308E02100202DE9F04F8C
:10AE5000284A137899078DB0064648D4264C274DCA
:10AE6000206B43F002031370EB689847206894F856
:10AE70002410A26A6368A7680A9394F80CB00B9731
:10AE8000A78A94F816C094F818E094F8198094F8FA
:10AE90001A9094F81BA0E36ABFB2CDE907A30B9BFD
:10AEA0000093CDE901B70A9BEF69CDE90589CDE9AA
:10AEB00003CE49B2C0B2B847636BB3B96B6B6FF0E6
:10AEC0007F409847322009F0EFFA2B6C002098471A
:10AED000EB6A30809847074AB6F90000137823F0F0
:10AEE000020313700DB0BDE8F08F6B6EE7E76FF0F3
:10AEF0000500F7E7B01E0020A0000020C4170308DB
:10AF000010B50446FFF7C0FD226B144B1344144ADE
:10AF1000934220D894F824300933DBB21F2B1AD87F
:10AF20006368062B17D8A368053B072B13D8237B30
:10AF3000013B032B0FD82368022B0CD8A36A094AC4
:10AF4000A3F59653934206D807485422214609F0A8
:10AF500082FF002010BD6FF00200FBE7802E0FF78C
:10AF6000809E4730780D0700A000002008B50349F7
:10AF7000542209F070FF002008BD00BFA00000208F
:10AF80002DE9F04F324C25788DB015F004050B906B
:10AF90005BD1FFF779FD23782E482F4E43F0040351
:10AFA000237009F021FD2D482D4B03602D4B83604C
:10AFB0002D4B43602D4B2E4CC3602E4B03613368E9
:10AFC0009847E07DFFF7C6FE206BF368984720683E
:10AFD00094F82410A26A6368A7680A9794F80CC0D2
:10AFE000A78A94F816E094F8188094F8199094F8C9
:10AFF0001AA094F81BB0E46ABFB2CDE907B40A9C6A
:10B000000094CDE903E8CDE901C749B2C0B2CDE96A
:10B01000059AF469A047184B0B9A1A601A68174BE7
:10B0200017481A604FF0FF31164B00952A460FF073
:10B03000F5FD4FF4FA7112480FF0F4FE10480FF0CE
:10B04000B7FE28460DB0BDE8F08F6FF00500F9E7B8
:10B05000B01E00205EF60208C4170308841E0020FC
:10B060001DAD000829AB000891AD000815AB000824
:10B07000A000002025AB0008D8200020DC20002004
:10B08000B41E00204DAB00082DE9F04F2C4D0446B6
:10B09000287810F008088DB04FD1002C4DDDFFF757
:10B0A000F3FC2B78274843F008032B70264B0360F2
:10B0B000264B8360264B274D4360274BC360274BAD
:10B0C00003612B689847264B1C601A68254C264B59
:10B0D000206B1A60EB68984720686168A268237B40
:10B0E00026690A96A68A276A94F816C094F817E08B
:10B0F00094F81890CDF82C9094F8199094F81AA020
:10B1000094F81BB0247FCDF80CC0CDE908B40B9C9B
:10B11000B6B2CDE904E4BFB20A9C0094C0B2CDE956
:10B12000069ACDE90167AC69A04741F288306B6BA4
:10B13000984740460DB0BDE8F08F6FF00500F9E785
:10B14000B01E0020841E00201DAD000829AB0008A1
:10B1500091AD0008C417030815AB000825AB000823
:10B16000D8200020A0000020DC2000202DE9F04F96
:10B17000364C257815F004058DB0074663D1FFF7EE
:10B1800083FC23783248334E43F004032370324B60
:10B19000324C01221A70324B0360324B8360324BC7
:10B1A0004360324BC360324B0361336898477B6C1A
:10B1B0006364BB6CA364FB6CE3643B6D2365E07D5F
:10B1C000FFF7C8FD2B4B626C1A602B4B226D1A6087
:10B1D000606CF3689847206894F82410A26A63684A
:10B1E000A7680B9794F80CC0A78A94F816E094F817
:10B1F000188094F8199094F81AA094F81BB0E46A97
:10B20000BFB2CDE907B40B9C0094CDE903E8CDE9CA
:10B2100001C749B2C0B2CDE9059AF469A047174BFE
:10B22000174800952A464FF0FF310FF0F7FC4FF416
:10B23000FA7113480FF0F6FD11480FF0B9FD2846DA
:10B240000DB0BDE8F08F6FF00500F9E7B01E0020EB
:10B25000841E0020C4170308D4200020A000002072
:10B260001DAD000829AB000891AD000815AB000822
:10B2700025AB0008D0200020DC2000204DAB0008CA
:10B28000B41E00202DE9F04F944D297811F00404EC
:10B290008BB0064640F01E81DFF84482FFF7F4FBD6
:10B2A000214690484FF4007220F040FC88F800409E
:10B2B000214623468B4C8029CAB203D19BB188F822
:10B2C000001009E0F06C736C00FB0133B06C83423A
:10B2D0001CD9013A88F8002000276FF0004998F83F
:10B2E0000030BB4217DC01F0FAFD7F4B0A2800F268
:10B2F000EE80DFE810F04A00B600BC00C200C800D3
:10B30000CE00D400DA00E000EC00E60044F8213082
:10B3100001310123CFE709F077FD98F8002054F8B8
:10B320002710D31B99FBF3F3013390FBF3F33B445A
:10B330009F4208BF002354F82300414044F82710DF
:10B3400054F8271054F82300414044F8231054F8CF
:10B35000271054F82300414044F8271054F82310D4
:10B3600054F82200414044F8231054F8231054F8B4
:10B370002200414044F8221054F8231054F82220AF
:10B380004A4044F823200137A9E79A68574998684A
:10B390008F56574919F0FCFE04462B785548DFF8C4
:10B3A000588143F004032B70544B4F4D01221A7007
:10B3B000534B0360534B8360534B4360534BC36009
:10B3C000534B0361D8F800309847464B1B686B64B9
:10B3D000B36CAB64F36CEB64336D2B65E87DFFF706
:10B3E000B9FC4C4B6A6C1A604B4B2A6D1A60686C46
:10B3F000D8F80C309847286895F82410AA6A2E7B54
:10B40000AB8A95F816C095F818E095F8199095F85C
:10B410001AA095F81BB0ED6A00979BB2CDE903CE58
:10B42000CDE907B5CDE9016349B22346C0B2002496
:10B43000CDE9059AD8F81C50A847384B38480094F5
:10B4400022464FF0FF310FF0E9FB4FF4FA71344818
:10B450000FF0E8FC32480FF0ABFC20460BB0BDE823
:10B46000F08F9A682F4998688F562F4992E79A680B
:10B470002E4998688F562E498CE79A682D4998680E
:10B480008F562D4986E79A682C4998688F562C4923
:10B4900080E79A682B4998688F562B497AE79A6813
:10B4A0002A4998688F562A4974E79A682949986802
:10B4B0008F5629496EE79A68284998688F56284917
:10B4C00068E79A68274998688F56274962E70024F9
:10B4D000072762E76FF00500C0E700BFB01E00203D
:10B4E000CC1E0020D01E0020A000002000F8020882
:10B4F00068F60208841E0020C4170308D420002028
:10B500001DAD000829AB000891AD000815AB00087F
:10B5100025AB0008D0200020DC20002031AC000842
:10B52000B41E002008F8020888F6020800F8020895
:10B53000C8F6020800F80208E8F6020800F8020857
:10B5400008F7020800F8020828F7020818F80208AD
:10B5500068F7020800F8020848F702081EF8020817
:10B56000C0F7020808F8020880F7020808B5034986
:10B570000C2209F070FC002008BD00BF94000020E0
:10B5800038B505460B4CFFF77FFAAB68A3602B6814
:10B59000094823606B68094D6360094B43602B6861
:10B5A00098472068EB6B228994F904109847002093
:10B5B00038BD00BF94000020841E0020C41703087B
:10B5C00091AD000810B58AB088B301F0DAFA01280D
:10B5D000044609D101F0D7FA30B94FF0FF331A46CB
:10B5E00019462046FDF7C8FF002013F007FD012291
:10B5F0001149042009F0FEFB024698B941F2883156
:10B60000042009F0F9FB4623012468468DF8003038
:10B610008DF8044012F0AEF8204601F05AFC0020EC
:10B620000AB010BD4721054809F0DEF9EBE7042018
:10B6300009F0E4FBF3E700BFEDB600083FF00208B5
:10B640002DE9F043254D264E264FDFF89C8085B02E
:10B65000062301223370AA70002302222B706B7024
:10B66000EA702B716B718DF808008DF809308DF838
:10B670000B304FF0E00957F8042BDCB2B2B113697C
:10B68000A3B1204603F058FB80B157F8043CDB68B7
:10B69000984758B198F80A20D8F80C10284620F09E
:10B6A0001DFA98F80A3033708DF80890631CDAB2EE
:10B6B000042A5BB2DFD10023009304AB13E90C0032
:10B6C00031780648FEF79CF820B9074B587005B052
:10B6D000BDE8F0834FF0FF30F9E700BFE421002020
:10B6E000D622002008510020942A002010B501F035
:10B6F00048FA0128044609D101F045FA30B94FF063
:10B70000FF331A4619462046FDF736FFBDE81040C4
:10B710000220FFF795BF0000F0B54FF4807285B0AE
:10B7200000213948394D3A4C20F000FA00232B70A3
:10B7300011F09EF880B2C82884BF143880B2E36844
:10B7400006389842606143D30021A17023712B78A1
:10B750002D4E2278F2545A1CD2B26078B0549A1C02
:10B76000D2B2A078B054DA1CD2B2E078B054581DEE
:10B770000433DBB22279F254A368C0B219442870B2
:10B78000304420F0ABF92B7821791944C9B2002359
:10B790003046DAB291422FD81E4B1B481B788DF8E9
:10B7A000083001238DF80B30A369003B18BF01233B
:10B7B0008DF80C3000238DF809300093013104AB73
:10B7C000C9B213E90C002970FEF71AF805B0F0BDF4
:10B7D00021695B1AB3FBF0F6F2B200FB16364EB9E4
:10B7E000A270A278984202F1FF3228BF1846A270D8
:10B7F0002071ACE70132F3E716F8012B475C3A44BD
:10B8000042540133C5E700BFF0220020F02300209E
:10B81000F8270020F12300200D4A1378BBB10D4B0F
:10B8200080B9997809B9117070471A78197960F35D
:10B8300041021A70DA780132DA701A690A441A6120
:10B84000FFF76ABF1A7842F002021A70F8E77047F1
:10B8500014280020F82700202DE9F8431C46431E39
:10B86000DBB2DE2B0E46054611462AD8B4F5806FB2
:10B8700027D8164F164BDFF85C904FF00108224690
:10B88000384683F8008020F029F9C9F80040124CAE
:10B89000237823F0030343EA08032370FF2009F011
:10B8A000A1FA00232361D9F80030E3600B4B6070EC
:10B8B00084F80380A760A6611D70BDE8F843FFF718
:10B8C0002BBF6FF00200BDE8F88300BFF223002019
:10B8D00014280020F4270020F8270020F12300205E
:10B8E00084B0F0B58BB010AC84E80F00684D002335
:10B8F0008DF803300A4605EB830149688A4200F05F
:10B90000C4800D33342BF6D1614B00245868E6B265
:10B91000002840F0AF8010AB4FF4807713F8081B7D
:10B920008DF87040CDE9022316ABCDE90430022931
:10B930004FF6FF7306938DF81C101A9BADF8047038
:10B940008DF8066059D163B308939DF86C308DF87B
:10B95000243001A812F05EFA002840F096809DF88D
:10B9600006000DF1030207A912F0FEFA9DF803305C
:10B9700023F003031843C0B2002840F0868034222D
:10B9800010A902FB045020F0A9F8414808F0B4FBCC
:10B99000002818BF6FF006000BB0BDE8F04004B0FF
:10B9A000704701F09CFA0A286FD8DFE800F0060A19
:10B9B000161A1C1E20220A240A00364B0893022362
:10B9C00002E0354B089308238DF82430089B1A9326
:10B9D0009DF824308DF86C30BBE7304B0893002382
:10B9E000F2E72F4BFAE72F4BF8E72F4BF6E72F4BF9
:10B9F000F4E72F4BE2E72F4BF0E74BB108939DF8AC
:10BA00006C308DF82430BDF86E30ADF82630A0E7EC
:10BA100001F065FA0A2838D8DFE800F0060A161A9D
:10BA20001C1E20220A262800234B0893032302E031
:10BA3000194B089308238DF82430089B1A939DF81E
:10BA400024308DF86C30DEE71C4B08930223F2E7BC
:10BA50001B4BEAE7134BE8E7134BE6E7194BE4E728
:10BA6000134B08930423E6E7174BDEE70A4B0893D2
:10BA70000A23E0E70134042C03F134037FF446AFDA
:10BA800012483422002120F051F86FF00F0083E7B4
:10BA90001828002000EA0637A070083720441E1E30
:10BAA0008068D92E2876E81908E6D333E013F336F8
:10BAB000F080A633E069CD3340F7093720937F1D2E
:10BAC0004026CA2E6063053710D62D05E8280020D1
:10BAD000104A38B5002314465168814213D13425E9
