:020000040800F2
:1000000000FC0020E5270008A908000835090008C1
:1000100037090008390900083B0900080000000002
:100020000000000000000000000000003D09000882
:100030003F090008000000004109000843090008CA
:1000400035280008352800087509000835280008FB
:10005000352800083528000835280008352800080C
:1000600035280008352800083528000835280008FC
:1000700035280008352800083528000835280008EC
:1000800035280008352800083528000835280008DC
:100090000000000035280008352800083528000831
:1000A00035280008352800083528000835280008BC
:1000B00035280008352800083528000835280008AC
:1000C000352800083528000835280008352800089C
:1000D000352800088509000835280008352800085B
:1000E000352800083528000855090008352800087B
:1000F0003528000800000000000000003528000836
:10010000352800083528000865090008352800084A
:10011000352800083528000835280008352800084B
:10012000352800083528000835280008352800083B
:080130003528000835280008FD
:1001380010B5054C237833B9044B13B10448AFF319
:1001480000800123237010BD6860002000000000BB
:100158006C28000808B5034B1BB103490348AFF3EB
:10016800008008BD000000006C6000206C280008BA
:1001780070B50D4D0D4C641BA4100026A64209D184
:100188000B4D0C4C02F06EFB641BA4100026A6421B
:1001980005D170BD55F8043B98470136EEE755F890
:1001A800043B98470136F2E7502C0008502C000811
:1001B800502C0008542C000802440346934200D1F6
:1001C800704703F8011BF9E730B593B0002102919D
:1001D8003C2203A8FFF7F0FF01226549654802F0B9
:1001E80045FA00286AD0644800F028FA66E000243E
:1001F80018E00125614B00221A70614B1B78012B16
:1002080030D0002D3AD15D4B1B78002BF5D0631C04
:100218009BB212AA1444564A127804F8402C3F2B79
:10022800E5D81C46631E12AA134413F8403C0D2B54
:1002380001D00A2BDED1534A6B4692E8030083E8CB
:1002480003000322504902A83AF020F90028D0D030
:1002580003224E4902A83AF019F908B90125C9E75D
:100268000024C7E72EF038FD1EF092FF484B5B686C
:10027800B3F1043FC5D001F099F8C2E7013C12ABD5
:100288001C44002304F8403C424902A802F0D0FA7A
:1002980048B1414902A802F0CBFA20B13F4902A86F
:1002A80002F0C6FA68B93E4800F0C8F93D4800F0C7
:1002B800C5F94022002102A8FFF77EFF00252C4641
:1002C800A1E7394902A802F0B3FAE8B1374902A810
:1002D80002F0AEFA28B3364902A802F0A9FA48B3E8
:1002E800344902A802F0A4FA002830D0324902A802
:1002F80002F09EFA78B3314902A802F099FA002870
:1003080032D11EF0FDFAD4E72D4B01221A704FF0BE
:1003180001312C4800F04AFA164801F0FDF813B0F4
:1003280030BD294800F08AF900F09CFA274800F00F
:1003380085F9BEE7BFF34F8F2549CA6802F4E0622A
:10034800244B1343CB60BFF34F8F00BFFDE7224818
:1003580000F074F9ADE7214800F070F900F0DCFF17
:10036800074B01221A70A4E71D4800F067F9A0E7BF
:1003780085600020D0600020A02800088760002049
:100388008460002088280008982800089C28000815
:1003980000400008BC280008C8280008D428000825
:1003A800005000088C2A0008E4280008F0280008FB
:1003B8003C29000848290008642900088029000809
:1003C8008660002004400008F82800080C2900086E
:1003D80000ED00E00400FA0558290008702900081B
:1003E8008829000808B5064B1B7813B1012B03D0E8
:1003F80008BDFFF7E9FEFBE700F00AFAF8E700BFDF
:100408008660002010B59AB04822002108A8FFF79E
:10041800D3FE00240294039404940594069407944C
:1004280026F0BEFF4FF0B042D2F8903023F0180308
:10043800C2F8903002F58062136823F4C06343F475
:1004480000731360136803F4C0630193019B2E23A8
:10045800089381230B93012310934FF480720C921D
:10046800119440220D92B022129213940F940E937D
:1004780008A824F047FC70B94F2302930023039384
:100488000493059306930793022102A824F0DCFE47
:1004980018B91AB010BD20F0A1F820F09FF800009C
:1004A80008B5234B5B68B3F1043F20D1214B4FF0D3
:1004B80000629A60204B01221A70204B00221A70A9
:1004C80000F064FA1A4B1B68B3F15A3F16D0184B68
:1004D8001B68B3F15A3F22D1194800F0AFF8144B0A
:1004E8005B68B3F1043F20D0FFF77CFFFCE700F026
:1004F80007FE24F03BF9FFF785FFE1E7114B1A6887
:10050800114B1340B3F1005FE1D1094B5B68B3F1C4
:10051800013FDCD000F02EF900F036F9D7E74FF0B4
:100528005A31034800F042F9D6E700F057FEDBE7FE
:100538000040000800ED00E0846000208660002094
:100548009C290008006000080000FE2F10B58446B2
:100558000378302B03D000242046234654E0437808
:10056800782B35D0582B36D00024204623464BE034
:100578002401A3F1300E5FFA8EFEBEF1090F21D8D7
:10058800303B1C4401300A2815D81CF8003093B1C0
:10059800A3F14102D2B2052AEAD9A3F1610E5FFAAA
:1005A8008EFEBEF1050FE3D9A3F1300E5FFA8EFE81
:1005B800BEF1090FDCD91CF80030002B3BD10C60D0
:1005C800012010BD052A01D8373BDAE7573BD8E7A9
:1005D80000240220D7E700240220D4E76B2A1ED08B
:1005E8004B2A1CD06D2A20D04D2A1ED0A2F1300EE5
:1005F8005FFA8EFEBEF1090FE3D804EB840402EB28
:100608004402A2F1300401330A2BDAD80028D8D1E9
:100618001CF80320002AE1D10C600120F3E7002B2D
:10062800E0D0A4020C600120EDE7002BDED0240509
:100638000C600120E7E70020C3E7000008B5014689
:10064800002201E0013292B28B5C002BFAD16423C4
:10065800014801F004FE08BDD060002000B583B059
:100668008DF80700094BD3F88430A02B09D06423F8
:1006780001220DF10701054801F0F1FD03B05DF815
:1006880004FB024B2022C3F88420F0E7D06000204E
:100698000FB400B5ADF5037D84AB53F8042B01937B
:1006A8004FF4007102A823F00DFD02A81CF0A4FC71
:1006B800642382B202A9044801F0D1FD0DF5037D3F
:1006C8005DF804EB04B07047D060002000F178407A
:1006D800C00A704710B584B004460023039327F07E
:1006E80039FA0E4B4FF400421A612046FFF7EEFF2D
:1006F800C4F1006303F5E833DB0A0222009201909B
:10070800029303A9684627F039FC28B9002427F08A
:1007180033FA204604B010BD0124F8E70040005821
:10072800F0B583B005460C46174627F013FA0026A5
:1007380002E0083508340236BE4215D26B462068FE
:10074800616803C3DDE900232946012027F080FA08
:100758000028F0D128686A680099019B9A4208BF6E
:100768008842E6D0032400E0002427F005FA20465A
:1007780003B0F0BD08B5034800F08DFE23F0AAFFD2
:1007880008BD00BFD060002008B5054A5368054978
:100798000B6005490B60126882F30888984708BD0A
:1007A80000600008886000208C60002070B588B068
:1007B80004460D4600230793134ED6E90023CDE9DE
:1007C800042327F0C7F9114B4FF400421A61304651
:1007D800FFF77CFF0223019302900123039307A9EB
:1007E80001A827F0CBFB50B9B4420AD00595DDE942
:1007F80004230549012027F02BFA27F0BDF908B09A
:1008080070BD0495F3E700BF0040000800400058A1
:1008180000B583B00023019301A800F035FA10B1A8
:1008280003B05DF804FB4FF05A310A48FFF7BEFFEA
:100838004FF002310848FFF7B9FF084B1A68084B18
:100848001340B3F1005FEBD1FFF794FFFFF79CFF74
:10085800E6E700BF00400008044000080060000808
:100868000000FE2F08B54FF05A310A48FFF79EFFE7
:10087800094B1A68094B1340B3F1005F00D008BD5B
:10088800044B5B68B3F1013FF9D0FFF773FFFFF743
:100898007BFFF4E700400008006000080000FE2F1E
:1008A8004FF0B0439A6B4FF0FF319963DA6BD9631D
:1008B8009A6B00229A63D86BDA63186C1964186C07
:1008C8001A64586C5964586C5A64986A9962986AA0
:1008D8009A62D86AD962D86ADA62186B1963196B96
:1008E8001A635A6C42F001025A645A6C22F00102EF
:1008F8005A64D3F8902042F48032C3F89020D3F899
:10090800902022F48032C3F89020BFF34F8F05491E
:10091800CA6802F4E062044B1343CB60BFF34F8F05
:1009280000BFFDE700ED00E00400FA0570477047DE
:100938007047FEE770477047704708B523F02CFFF3
:1009480023F036FF00F078FA08BD000008B5024829
:1009580025F018FB08BD00BFD044002008B50248A8
:1009680027F0F5FD08BD00BFD002002008B50248F9
:1009780026F042FB08BD00BFD044002008B502485D
:1009880000F048FE08BD00BFD060002008B5174839
:10099800174B03604FF4E133436000238360C36067
:1009A80003610C2242618361C36103624362836213
:1009B80001F094FD70B900210C4801F0C5FE60B942
:1009C80000210A4801F0E5FE50B9084801F09DFEF3
:1009D80048B908BD1FF002FEEDE71FF0FFFDEFE785
:1009E8001FF0FCFDF1E71FF0F9FDF2E7D0600020F1
:1009F8000044004008B5074B1B78012B03D1064B78
:100A080001221A7008BD01220449054801F02EFE92
:100A1800F5E700BF86600020876000208560002021
:100A2800D060002010B596B00446002111911291B3
:100A3800139114911591382203A8FFF7BDFB226882
:100A48001E4B9A4201D016B010BD022303934FF4F7
:100A58004023059303A824F03FFE58BB4FF0B04352
:100A68009A6D42F400329A659A6D02F4003202924D
:100A7800029ADA6C42F00102DA64DB6C03F00103DB
:100A88000193019B0C2311930223129301231393C7
:100A9800002414940723159311A94FF0904027F0D0
:100AA80009FE22462146252021F066F9252021F05D
:100AB80095F9C8E71FF092FDD0E700BF0044004059
:100AC80008B50268094B9A4200D008BD4FF0B04201
:100AD800936D23F4003393650C214FF0904027F079
:100AE8009BFE252021F088F9EFE700BF0044004075
:100AF800BFF34F8F0549CA6802F4E062044B134301
:100B0800CB60BFF34F8F00BFFDE700BF00ED00E0F3
:100B18000400FA0541F4807106E080F4815080F009
:100B2800010011F4803F09D14000490011F4807F91
:100B380000D0013010F4803FF3D0EEE780B2704768
:100B480038B504464518002004E014F8011B80B2AB
:100B5800FFF7E0FFAC42F8D3002180B2FFF7DAFFDD
:100B68000021FFF7D7FF38BD2DE9F04182B00646D6
:100B78000C46154600230B60134601220DF10701B0
:100B8800404801F0DBFB8046002872D19DF8071031
:100B9800182919D84BB2002B48D0013917290FD87A
:100BA800DFE801F048310E0C0E0E0E0E0E0E0E0E82
:100BB8000E0E0E0E0E0E0E0E0E0E0E3400270AE04E
:100BC8004FF00108002706E0412935D0612937D1C7
:100BD8004FF0020800279DF8073033707F2F49D95E
:100BE8002B463A1DB11C274801F0A8FB8046002877
:100BF80045D1B278F378DB43DBB29A422AD04FF082
:100C08000108002736E04FF48067E4E72B4601220D
:100C18000DF107011B4801F091FBA8B99DF80730B9
:100C2800182B15D04FF001080027D4E74FF0010822
:100C38000027D0E78027CEE74FF002080027CAE751
:100C48004FF001080027C6E74FF001080027C2E768
:100C58000227C0E7F3191A795D7905EB02253946B1
:100C6800301DFFF76DFFA84204D04FF001080027A0
:100C780000E000272760404602B0BDE8F081002769
:100C8800F8E700BFD06000202DE9F04F89B001904F
:100C98004FF000084646DFF888B1C1464546C246CF
:100CA800BAF1000F40F0B880002E40F0B5805D4BDF
:100CB80000221A70574685E0079D3DB1022D0AD1E2
:100CC8000620FFF7CBFC3D4602267BE00620FFF717
:100CD800C5FC012776E0544B9A78524B1B789A4210
:100CE8000BD1002B53D1504B1B79CBB90620FFF702
:100CF800B5FC3D460127BA4664E01520FFF7AEFC77
:100D08003D465FE00133494881540132197809B101
:100D18003F2AF7D945490020885401333A4608E06C
:100D28003A46434BF2E7013308A8104400F8181C70
:100D380001321978202901D00F2AF4D908AB1A44B6
:100D4800002302F8183C06A902A8FFF7FFFB069A41
:100D5800384B9A4213D83248FFF7BCFC069B019ADD
:100D680013600620FFF77AFC4320FFF777FC2D4A33
:100D78001378013313703D464FF0010922E0182023
:100D8800FFF76CFC1820FFF769FC0526E3E7AA08C3
:100D980027495846FFF7C4FC28B9079B9B440620FF
:100DA800FFF75CFCE3E71820FFF758FC1820FFF773
:100DB80055FC0426DBE71820FFF750FC1820FFF746
:100DC8004DFC2646002F7FF46BAF002E7FF468AFF2
:100DD8004FF4FA7207A91448FFF7C6FE0446002824
:100DE8003FF46AAF0228E6D0B9F1000F00D0013510
:100DF800052D07D91820FFF731FC1820FFF72EFC26
:100E08000226DFE74320FFF729FC08F10108B8F1C3
:100E18003B0FD7D9FFF76CFE304609B0BDE8F08F1D
:100E28000060000866650020606100209060002076
:100E3800646100200110030008B50A4BA3FB0023DE
:100E48001B0B43F6982202FB130343B9064B1B788E
:100E58002BB1064A1278934202D0044A137008BD97
:100E6800FFF746FE73B2E745666500206765002018
:100E7800BFF34F8F0549CA6802F4E062044B13437D
:100E8800CB60BFF34F8F00BFFDE700BF00ED00E070
:100E98000400FA05704770477047704770477047FD
:100EA800704770477047704770477047014B012281
:100EB8001A707047E402002070B505460E460024FB
:100EC80005E05B690BB130469847013464B2042CE5
:100ED80024DC134B53F82430002BF6D0032DF4D820
:100EE80001A252F825F000BFCB0E0008010F000840
:100EF8000D0F0008190F00089B69002BE5D030463C
:100F08009847E2E7DB69002BDFD030469847DCE7FB
:100F18001B6A002BD9D030469847D6E770BD00BF72
:100F2800D003002008B501460320FFF7C5FF08BD20
:100F380008B501460020FFF7BFFF08BDF8B5044615
:100F48000E4615461F460A4601460748FFF7A0FB0E
:100F580005FB06F205FB04F10448FFF799FB394647
:100F68000348FFF795FBF8BDAC290008D029000815
:100F7800F029000808B50648FFF78AFB054B01224F
:100F88001A704FF002310448FFF710FC08BD00BF8B
:100F9800142A00085A6600200440000808B51346C1
:100FA8000A46194600F1006000F5C0401FF0CCF970
:100FB800002008BD08B513460A46194600F100602E
:100FC80000F5C0401FF06AFA002008BD00B583B0E4
:100FD800012810D0022806D1104B01221A7010489F
:100FE800FFF756FB16E00D4B00221A700D48FFF76D
:100FF8004FFBFFF73DFF00218DF800108DF8011021
:10100800019168461DF0A6FD044B01221A7006489E
:10101800FFF73EFB03B05DF804FB00BF5B660020F2
:101028004C2A0008242A0008382A000838B5044643
:10103800114822F0D9FE38B92378012B11D0214666
:101048000220FFF739FF38BD0B4D284622F03CFF40
:1010580044F62061284622F0D9FF284622F084FF72
:10106800EAE76378002BEAD1044B01221A7004489E
:10107800FFF70EFBE3E700BF7466002070660020F0
:10108800602A000838B504460D4822F0ADFE50B974
:10109800237F1BB10B4B5B6B03B1984721460120A3
:1010A800FFF70AFF38BD064D284622F00DFF44F62B
:1010B8002061284622F0AAFF284622F055FFE7E7DC
:1010C800746600200060002008B52CF05DF838B97F
:1010D800074B1B782BB90748FFF7B0FA1DF010FC37
:1010E80008BD0548FFF7AAFA044B01221A70F7E772
:1010F80070660020702A0008782A00085C660020C4
:1011080008B50648064A121A064939F0CFF90648C2
:10111800064A121A0021FFF74FF808BD0000002008
:10112800D0020020B8AF0308D0020020905E002053
:1011380008B5124B43F82010114A4A6253F8202090
:101148001049916253F820200F49D16253F820309A
:101158000E4A5A63032808D0084B53F820305B68BE
:10116800F2220B490020984708BD044B53F8203061
:101178005B68F222064907489847F5E7D003002044
:10118800A10E0008A30E0008A50E0008FDEF010837
:10119800686500203860002010B51EF045F9044647
:1011A80001201EF03BF821460120FFF7C1FF1EF089
:1011B800D7FB044602201EF031F821460220FFF733
:1011C800B7FF1EF0D1FD044603201EF027F8214684
:1011D8000320FFF7ADFF002010BD000038B5164909
:1011E80016482EF07DFC1DF0AAFB154C20701FF050
:1011F800E5FE003818BF012060701FF0A9FEA0703E
:101208001FF000FFE0700125257120F02FFA00384B
:1012180018BF01206071F223A3710A4BA360214615
:1012280009481DF097FEFFF7B7FF08481EF08EFE2D
:10123800074B1D7038BD00BF486000205860002073
:10124800606600206865002000600020386000208B
:101258005B66002010B51CF05CFE1DF047FB1FF01C
:101268001DFD10F0FF0435D0142C37D0152C39D0C3
:10127800162C3BD01DF063FBC2B2214921482CF04B
:101288006BFBB8BB1DF05BFB1F4C20701FF096FE7C
:10129800003818BF012060701FF05AFEA0701FF0C0
:1012A800B1FEE0700123237120F0E0F9003818BF87
:1012B80001206071F223A371144BA36021461448E6
:1012C8001DF048FEFFF768FF1DF044FB2CF020FDE1
:1012D800002010BD012030F011FFC5E7022030F0DA
:1012E8000DFFC3E7032030F009FFC1E7042030F009
:1012F80005FFBFE70748FFF7A1F94FF0FF30E8E720
:101308004860002058600020606600206865002062
:1013180000600020902A000810B584B04FF0B04358
:101328009A6C42F004029A649A6C02F004020392E6
:10133800039A9A6C42F001029A649B6C03F00103D1
:101348000293029B002211460B2020F015FD0B2072
:1013580020F044FD22F018FDFFF77CFF1DF0D0FAC5
:10136800012816D00D48FFF769F90D4C00230093AA
:101378000C4B01224FF0FF31204622F015FD44F6B8
:101388002061204622F042FE204622F0EDFD04B006
:1013980010BD0548FFF752F9E7E700BFC02A00086B
:1013A80074660020D1100008B02A000800B583B088
:1013B8001DF0DAFD30B9194A1378DBB2002111703B
:1013C800012B02D003B05DF804FB154B1B78002BF2
:1013D800F8D11448FFF732F9134B1B78CBB9134BEC
:1013E8001B7813B91EF024F8ECE71148FFF726F92B
:1013F800FF2100202AF0B2FA0E4B18700E4A6B46F5
:1014080092E8030083E80300002118461DF0A2FBC0
:10141800D8E70A48FFF712F9FFF72AFD5C660020B3
:101428005B660020CC2A00085A660020E4020020EF
:10143800EC2A00086865002090280008042B0008A2
:10144800026852E8003F23F4907342E80031002913
:10145800F6D1026802F1080353E8003F23F08053F5
:1014680023F00103083242E800310029F1D1C36EAC
:10147800012B06D02023C0F888300023C3660367F9
:101488007047026852E8003F23F0100342E8003139
:101498000029F6D1EEE7E8B138B505462423C0F8AF
:1014A80084300268136823F0010313600368002482
:1014B8001C6003685C6003689C60FFF701FBC5F86B
:1014C8008C40C5F88440C5F88840EC6685F88040B3
:1014D800204638BD01207047704708B5026852E8B9
:1014E800003F23F0400342E800310029F6D12023D1
:1014F800C0F8843000234367FFF7EEFF08BD70474C
:1015080008B5806A0023A0F85E30A0F85630FFF7CF
:10151800F6FF08BD7047000010B50446226852E87F
:10152800003F23F4907342E800310029F6D1226885
:1015380002F1080353E8003F23F0805323F001032E
:10154800083242E800310029F1D1E36E012B1CD0AA
:1015580023689A6812F0400F35D0226802F1080318
:1015680053E8003F23F04003083242E800310029E5
:10157800F3D1E36F9BB11B4A9A63E06F2AF05EF8E0
:1015880070B3E06F836B98472AE0226852E8003F07
:1015980023F0100342E800310029F6D1D8E70023F0
:1015A800A4F85E30A36522680F21116221688A6958
:1015B80042F008028A612022C4F88820E3662046A7
:1015C800FFF7A8FF0CE00022A4F85E20A2650F2117
:1015D80019622023C4F88830E2662046FFF79AFF94
:1015E800002010BDF115000808B5806A0022A0F897
:1015F8005E2003680F21196201688B6943F00803B4
:101608008B612023C0F88830C266FFF783FF08BDCE
:101618007047000070B504460168CB6908688D689A
:1016280040F60F021A4008D113F0200F05D010F031
:10163800200F34D115F0805F31D12AB1954A2A4064
:1016480033D1954E304230D1E26E012A00F0C3808A
:1016580013F4801F03D015F4800F40F05B8113F062
:10166800800F07D010F0800F40F05B8115F4000F59
:1016780040F0578113F0400F03D010F0400F40F0B6
:10168800578113F4000F03D010F0804F40F05481BD
:1016980013F0807F02D00028C0F2528170BD236F02
:1016A800002BFBD020469847F8E713F0010F09D02C
:1016B80010F4807F06D001260E62D4F88C103143D6
:1016C800C4F88C1013F0020F0BD015F0010F08D0DE
:1016D800216802260E62D4F88C1041F00401C4F887
:1016E8008C1013F0040F0BD015F0010F08D02168EF
:1016F80004260E62D4F88C1041F00201C4F88C1054
:1017080013F0080F0BD010F0200F00D13AB1226867
:1017180008211162D4F88C200A43C4F88C2013F4F1
:10172800006F0CD010F0806F09D022684FF4006170
:101738001162D4F88C2042F02002C4F88C20D4F82E
:101748008C20002AAAD013F0200F09D010F0200F07
:1017580002D115F0805F03D0236F0BB12046984764
:10176800D4F88C2023689B6813F0400F02D112F044
:10177800280F29D02046FFF763FE23689B6813F0E3
:10178800400F1DD0226802F1080353E8003F23F000
:101798004003083242E800310029F3D1E36F5BB11E
:1017A8003E4A9A63E06F29F049FF00283FF476AF7C
:1017B800E06F836B984771E72046FFF7A0FE6DE75F
:1017C8002046FFF79CFE69E72046FFF798FE0023B6
:1017D800C4F88C3062E713F0100F3FF439AF10F003
:1017E800100F3FF435AF10230B6223689B6813F08A
:1017F800400F55D0E26F13685B689BB2002B3FF433
:101808004DAFB4F85C1099427FF648AFA4F85E304B
:1018180013681B6813F0200F31D1226852E8003F8B
:1018280023F4807342E800310029F6D1226802F1DE
:10183800080353E8003F23F00103083242E800316F
:101848000029F3D1226802F1080353E8003F23F08E
:101858004003083242E800310029F3D12023C4F8BC
:1018680088300023E366226852E8003F23F0100323
:1018780042E800310029F6D1E06F29F0A9FEB4F85A
:101888005C10B4F85E309BB2C91A89B22046FFF7E3
:10189800BFFE03E70100001020010004091500083D
:1018A800B4F85C10B4F85E309BB2C91A89B2B4F8C7
:1018B8005E309BB2002B3FF4F1AE00293FF4EEAE50
:1018C800226852E8003F23F4907342E80030002871
:1018D800F6D1226802F1080353E8003F23F0805351
:1018E80023F00103083242E800300028F1D1202318
:1018F800C4F888300023E3662367226852E8003F73
:1019080023F0100342E800300028F6D12046FFF704
:101918007FFEC3E64FF480130B62204600F0F2FE10
:10192800BCE6636F002B3FF4B9AE20469847B5E696
:101938002046FFF7D2FDB1E6204600F0E5FEADE611
:10194800204600F0E0FEA9E608B5B0F86030D0F80F
:101958008820222A05D00268936943F0080393611E
:1019680008BD0268516ADBB2826D0B401370836D4B
:1019780001338365B0F85E309BB2013B9BB2A0F89F
:101988005E30B0F85E309BB2002BE9D1026852E8B5
:10199800003F23F4907342E800310029F6D1026831
:1019A80002F1080353E8003F23F00103083242E83C
:1019B80000310029F3D12023C0F8883000230367C1
:1019C800C36E012B16D10023C366026852E8003F9C
:1019D80023F0100342E800310029F6D10368DA69E0
:1019E80012F0100F01D010221A62B0F85C10FFF745
:1019F8000FFEB5E7FEF7FEFFB2E708B5B0F86020C6
:101A0800D0F88830222B05D00268936943F0080388
:101A1800936108BD03685B6A816D13400B80836D19
:101A280002338365B0F85E309BB2013B9BB2A0F8ED
:101A38005E30B0F85E309BB2002BEAD1026852E803
:101A4800003F23F4907342E800310029F6D1026880
:101A580002F1080353E8003F23F00103083242E88B
:101A680000310029F3D12023C0F888300023036710
:101A7800C36E012B16D10023C366026852E8003FEB
:101A880023F0100342E800310029F6D10368DA692F
:101A980012F0100F01D010221A62B0F85C10FFF794
:101AA800B7FDB6E7FEF7A6FFB3E700002DE9F84358
:101AB800B0F860600368DD69D3F80090D3F8088057
:101AC800D0F88820222A05D09A6942F008029A6143
:101AD800BDE8F8830446B0F8687008E0D4F88C30A4
:101AE800002B4CD1B4F85E309BB2002B4ED0002FA7
:101AF80000F0878015F0200F00F083802368596A72
:101B0800F3B2A26D0B401370A36D0133A365B4F853
:101B18005E309BB2013B9BB2A4F85E302368DD695E
:101B280015F0070FDED015F0010F09D019F4807FEA
:101B380006D001221A62D4F88C301343C4F88C30D2
:101B480015F0020F0BD018F0010F08D023680222FD
:101B58001A62D4F88C3043F00403C4F88C3015F0C2
:101B6800040FBBD018F0010FB8D0236804221A6202
:101B7800D4F88C3043F00203C4F88C30AEE720462A
:101B8800FFF7BDFC0023C4F88C30ABE7226852E8AD
:101B9800003F23F4807342E800310029F6D122681F
:101BA80002F1080353E8003F23F0805323F00103B8
:101BB800083242E800310029F1D12023C4F88830E6
:101BC80000232367E36E012B03D02046FEF712FFA4
:101BD8008DE70023E366226852E8003F23F01003F4
:101BE80042E800310029F6D12368DA6912F0100FB3
:101BF80001D010221A62B4F85C102046FFF708FDE5
:101C080075E7B4F85E309BB2002B3FF461AFB4F8CF
:101C180068209A427FF65CAF226802F1080353E815
:101C2800003F23F08053083242E800310029F3D105
:101C3800054B2367226852E8003F43F0200342E83F
:101C480000310029F6D143E7511900082DE9F8437E
:101C5800B0F860600368DD69D3F80090D3F80880B5
:101C6800D0F88820222A05D09A6942F008029A61A1
:101C7800BDE8F8830446B0F8687008E0D4F88C3002
:101C8800002B4BD1B4F85E309BB2002B4DD0002F07
:101C980000F0868015F0200F00F0828023685B6AD0
:101CA800A26D33401380A36D0233A365B4F85E3090
:101CB8009BB2013B9BB2A4F85E302368DD6915F046
:101CC800070FDFD015F0010F09D019F4807F06D077
:101CD80001221A62D4F88C301343C4F88C3015F002
:101CE800020F0BD018F0010F08D0236802221A62E5
:101CF800D4F88C3043F00403C4F88C3015F0040F8A
:101D0800BCD018F0010FB9D0236804221A62D4F8A5
:101D18008C3043F00203C4F88C30AFE72046FFF75D
:101D2800EEFB0023C4F88C30ACE7226852E8003F91
:101D380023F4807342E800310029F6D1226802F1C9
:101D4800080353E8003F23F0805323F001030832CF
:101D580042E800310029F1D12023C4F8883000235B
:101D68002367E36E012B03D02046FEF743FE8EE780
:101D78000023E366226852E8003F23F0100342E89C
:101D880000310029F6D12368DA6912F0100F01D06A
:101D980010221A62B4F85C102046FFF739FC76E787
:101DA800B4F85E309BB2002B3FF462AFB4F8682001
:101DB8009A427FF65DAF226802F1080353E8003FBC
:101DC80023F08053083242E800310029F3D1064B52
:101DD8002367226852E8003F43F0200342E80031BD
:101DE8000029F6D144E700BF031A000870B504467D
:101DF800016883680269134342691343C269134344
:101E080008689D4A024013430B602268536823F414
:101E18004053E1680B435360A1692268974B9A428B
:101E280001D0236A1943936823F06E4323F4306387
:101E38000B4393602268D36A23F00F03616A0B4354
:101E4800D36223688E4A93421CD08E4A934231D083
:101E58008A4A93424BD0102288498B4268D0E06965
:101E6800B0F5004F00F0A580082A00F21F81DFE8D6
:101E780012F0D300F500D1001D01F8001D011D016D
:101E88001D01FB004FF0B042D2F8882002F0030297
:101E980042F44032A2F54032032A09D8DFE802F0C2
:101EA80002043C060122D7E70422D5E70822D3E73B
:101EB8001022D1E74FF0B042D2F8882002F00C028D
:101EC80042F44022A2F540220C2A0ED8DFE802F0A4
:101ED800070D0D0D090D0D0D260D0D0D0B00002222
:101EE800BAE70422B8E70822B6E71022B4E74FF0B1
:101EF800B042D2F8882002F44062B2F5006F0FD0E9
:101F080005D87AB1B2F5806F0ED10422A4E7B2F5F4
:101F1800406F0BD108229FE702229DE702229BE730
:101F2800022299E7002297E7102295E7102293E70B
:101F3800082A00F29C80DFE802F0089A3A9A379A59
:101F48009A9A05004FF4004004E023F06DFA002847
:101F580000F08F80626A4C4B33F81220B0FBF2F32A
:101F6800656805EB4501994200F29480B3EB053FA3
:101F780000F292800026334631461BF085FC0902A8
:101F880041EA106100026B08C0182A46334641F145
:101F980000011BF079FCA0F540723C4B9A427DD8B9
:101FA8002368D860304650E022F02EFECFE738484C
:101FB800D0E7082A74D8DFE802F0072705732A73E8
:101FC80073730B00324803E023F02EFA002869D01F
:101FD800626A2D4B33F81230B0FBF3F06268530895
:101FE80003EB4000B0FBF2F080B2A0F110024FF614
:101FF800EF739A4258D820F00F03C0F342001843F9
:102008002368D860002020E023F01EFADEE722F0E3
:10201800FBFDDBE71E4803E023F006FA002847D063
:10202800626A194B33F81230B0FBF3F0636800EBC7
:102038005300B0FBF3F080B2A0F110024FF6EF733B
:102048009A4237D82368D86000200123A4F86A3060
:10205800A4F8683000232367636770BD23F0F4F9A0
:10206800DCE722F0D1FDD9E74FF40040D8E70120A2
:10207800EBE70020E9E700BFF369FFCF00800040ED
:102088000038014000440040242B0008FFFC0F00EA
:102098000024F4000120D8E70120D6E70120D4E786
:1020A8000120D2E70020D0E70120CEE70120CCE7CD
:1020B8000020CAE70120C8E7836A13F0010F06D0A1
:1020C8000268536823F40033C16A0B435360836A80
:1020D80013F0020F06D00268536823F48033016BB3
:1020E8000B435360836A13F0040F06D002685368E9
:1020F80023F48023416B0B435360836A13F0080F6A
:1021080006D00268536823F40043816B0B43536085
:10211800836A13F0100F06D00268936823F4805383
:10212800C16B0B439360836A13F0200F06D00268DB
:10213800936823F40053016C0B439360836A13F094
:10214800400F0AD00268536823F48013416C0B4394
:102158005360436CB3F5801F0BD0836A13F0800F74
:1021680006D00268536823F40023C16C0B43536004
:1021780070470268536823F4C003816C0B435360B3
:10218800EBE72DE9F84305460F4616469946DDF874
:1021980020802C68E46937EA04030CBF4FF0010C77
:1021A8004FF0000CB44557D1B8F1FF3FF1D022F001
:1021B800FFFAA0EB090040452FD8B8F1000F2CD04A
:1021C8002B681A6812F0040FE3D0DA6912F4006F72
:1021D800DFD04FF400621A622A6852E8003F23F405
:1021E800D07342E800310029F6D12A6802F10803C9
:1021F80053E8003F23F00103083242E80031002988
:10220800F3D12023C5F88430C5F88830C5F88C3060
:10221800002385F8803003201FE02A6852E8003F39
:1022280023F4D07342E800310029F6D12A6802F17C
:10223800080353E8003F23F00103083242E8003165
:102248000029F3D12023C5F88430C5F8883000234D
:1022580085F88030032000E00020BDE8F8832DE9F0
:10226800F04182B01E46D0F88430202B58D1044665
:102278000D469046002957D0002A57D090F8803054
:10228800012B55D0012380F880300023C0F88C3012
:102298002123C0F8843022F08BFA0746A4F8548032
:1022A800A4F85680A368B3F5805F05D04FF0000806
:1022B800002384F8803014E0236913B14FF000083C
:1022C800F6E7A8460025F3E738F8023B2268C3F38F
:1022D80008039362B4F8562092B2013A92B2A4F875
:1022E8005620B4F856309BB273B100963B46002294
:1022F80080212046FFF745FFE0B9002DE4D015F80E
:10230800012B23689A62E5E700963B4600224021AC
:102318002046FFF736FF78B92023C4F8843000E060
:10232800022002B0BDE8F0810120FAE70120F8E7B9
:102338000220F6E70320F4E70320F2E72DE9F04353
:1023480083B01E46D0F88830202B40F081800446A8
:102358000D46904600297FD0002A7FD090F8803023
:10236800012B7DD0012380F880300023C0F88C3009
:102378002222C0F88820C36622F01AFA0746A4F879
:102388005C80A4F85E80A368B3F5805F06D0A3B92B
:10239800226972B9FF22A4F8602014E0226922B9E8
:1023A80040F2FF12A4F860200DE0FF22A4F860209C
:1023B80009E07F22A4F8602005E0B3F1805F0DD02A
:1023C8000022A4F86020B4F86080B3F5805F0FD0D5
:1023D8004FF00009002384F880301EE022691AB902
:1023E8007F22A4F86020EEE73F22A4F86020EAE705
:1023F800236913B14FF00009ECE7A9460025E9E786
:1024080023685B6A08EA030329F8023BB4F85E20F4
:1024180092B2013A92B2A4F85E20B4F85E309BB250
:102428008BB100963B46002220212046FFF7A9FEEB
:10243800C0B9002DE4D023685A6A5FFA88F31340C4
:1024480005F8013BE2E72023C4F88830002000E0CB
:10245800022003B0BDE8F0830120FAE70120F8E785
:102468000220F6E70320F4E730B583B004460023E2
:10247800C0F88C3022F09CF905462268126812F0E8
:10248800080F0FD123681B6813F0040F18D12023FD
:10249800C4F88430C4F888300020E06684F88000EE
:1024A80003B030BD6FF07E430093034600224FF423
:1024B80000112046FFF765FE0028E3D00320EFE770
:1024C8006FF07E4300932B4600224FF48001204694
:1024D800FFF757FE0028DAD00320E1E778B310B5FC
:1024E8000446D0F884300BB32423C4F8843022681F
:1024F800136823F0010313602046FFF777FC0128D7
:1025080013D0A36ABBB92268536823F4904353607D
:102518002268936823F02A0393602268136843F0C3
:10252800010313602046FFF79FFF10BD80F880303D
:10253800FEF778FAD8E72046FFF7BEFDE3E701206B
:102548007047000010B48165A0F85C20A0F85E20F8
:10255800002303678368B3F5805F06D0A3B90369D6
:1025680073B9FF23A0F8603014E0036923B940F27F
:10257800FF13A0F860300DE0FF23A0F8603009E0F9
:102588007F23A0F8603005E0B3F1805F2DD00023F1
:10259800A0F860300023C0F88C302223C0F88830BF
:1025A800016801F1080353E8003F43F001030831D3
:1025B80041E80034002CF3D1436EB3F1005F1ED024
:1025C8008368B3F5805F43D0244B0367002380F80A
:1025D8008030026852E8003F43F4907342E80031CB
:1025E8000029F6D1002010BC704703691BB97F236E
:1025F800A0F86030CEE73F23A0F86030CAE7B0F813
:1026080068309342DCD88368B3F5805F1AD0144BE6
:102618000367002380F88030026852E8003F43F4E3
:10262800807342E800310029F6D1026802F10803FC
:1026380053E8003F43F08053083242E80031002954
:10264800F3D1CFE70369002BE1D1064B0367E0E73D
:102658000369002BB8D1044B0367B7E75119000889
:10266800B51A0008551C0008031A000838B5D0F838
:102678008830202B17D1C1B1CAB10023C3660368C3
:102688000C4CA3420CD05B6813F4000F08D004680C
:1026980054E8003F43F0806344E80035002DF6D14C
:1026A800FFF750FF00E0022038BD0120FCE70120C1
:1026B800FAE700BF00800040436E2BB90123A0F861
:1026C8006A30A0F86830704730B403689A68C2F37B
:1026D80042629968490F094D6B5CDB00084C615CEC
:1026E80093FBF1F3A0F86A30AB5CDB00A25C93FBD0
:1026F800F2F3A0F8683030BC704700BF442B0008E4
:102708003C2B000870477047704790F88030012BC9
:1027180018D0012380F880302423C0F8843003685F
:102728001A68196821F00101196022F0005200238B
:10273800436601680A602022C0F8842080F880304F
:10274800184670470220704738B590F88030012B42
:102758001DD00446012380F880302423C0F884303B
:1027680003681D681A6822F001021A6002689368FB
:1027780023F0604319439160FFF79EFF23681D60B3
:102788002023C4F88430002084F8800038BD02205B
:10279800FCE738B590F88030012B1DD004460123A2
:1027A80080F880302423C0F8843003681D681A68D4
:1027B80022F001021A600268936823F060631943EB
:1027C8009160FFF779FF23681D602023C4F88430E7
:1027D800002084F8800038BD0220FCE70D488546BB
:1027E8001DF00EFF0C480D490D4A002302E0D45895
:1027F800C4500433C4188C42F9D30A4A0A4C002343
:1028080001E013600432A242FBD3FDF7B1FCFDF7EF
:1028180047FEFEE700FC0020006000206860002002
:10282800205000086860002090660020FEE7000045
:1028380030B50B4D044614F8013B5A5D02F0030213
:10284800012A11F8012BA85C00F0030008BF20330F
:10285800012808BF2032981A01D1002AEBD130BDD7
:102868004D2B0008F8B500BFF8BC08BC9E46704761
:10287800F8B500BFF8BC08BC9E46704700000000D1
:10288800982800089C2800080101000068650020BD
:1028980061742B0041542B0048414C5F5541525400
:1028A8005F526563656976655F4954206661696C46
:1028B8000D0A000061742B76657273696F6E0000F3
:1028C80061742B7665723D3F0000000061742B62D5
:1028D8006F6F747665723D3F0000000061742B7560
:1028E800706461746500000061742B72756E00007D
:1028F80053746F7020426F6F74204D6F64650D0ABA
:10290800000000004A756D70206661696C65642E70
:10291800204E6F206C6567616C206170706C696314
:102928006174696F6E2064657465637465642E0DE7
:102938000A00000061742B72657365740000000062
:1029480061742B626F6F7473746174757300000027
:10295800426F6F74204D6F64650D0A0061742B66B9
:10296800756F74610000000046554F544120737420
:102978006172740D0A00000061742B6A6F696E0041
:102988004154206E6F7420737570706F72742E0DC1
:102998000A0000003C424F4F54204D4F44453E0D25
:1029A8000A0000005245434549564544202020204E
:1029B8003A20253564202F2025356420467261672A
:1029C8006D656E74730D0A002020202020202020C1
:1029D800202020202020253564202F202535642024
:1029E80042797465730D0A004C4F535420202020FF
:1029F800202020203A202020202020202537642055
:102A0800467261676D656E74730D0A004F6E46728B
:102A18006167446F6E650D0A000000007377697482
:102A2800636820636C61737320610D0A0000000005
:102A380073776974636820636C61737320620D0A2D
:102A48000000000073776974636820636C617373B6
:102A580020630D0A0000000066756F7461206A6FBC
:102A6800696E65640D0A00006A6F696E0D0A0000E0
:102A7800497354784672616D6550656E64696E6716
:102A8800203D20310D0A00004C6F52614D616349B1
:102A98006E697469616C697A6174696F6E206661C8
:102AA800696C65640D0A00006A6F696E207375634E
:102AB800636573730D0A00006A6F696E2066616949
:102AC8006C0D0A0049734D6353657373696F6E53D8
:102AD800746172746564203D3D2066616C73650D98
:102AE8000A00000073656E64696E672072616E6427
:102AF8006F6D207061636B65740D0A0073656E6499
:102B0800696E67206672616764617461626C6F6385
:102B18006B617574687265710D0A0000010002002E
:102B28000400060008000A000C0010002000400005
:102B380080000001080402040801010101010103E9
:102B48000701000000202020202020202020282805
:102B58002828282020202020202020202020202055
:102B68002020202020881010101010101010101095
:102B780010101010100404040404040404040410C5
:102B88001010101010104141414141410101010153
:102B9800010101010101010101010101010101011D
:102BA8001010101010104242424242420202020229
:102BB80002020202020202020202020202020202ED
:102BC800101010102000000000000000000000009D
:102BD80000000000000000000000000000000000ED
:102BE80000000000000000000000000000000000DD
:102BF80000000000000000000000000000000000CD
:102C080000000000000000000000000000000000BC
:102C180000000000000000000000000000000000AC
:102C2800000000000000000000000000000000009C
:102C3800000000000000000000000000000000008C
:082C4800000000000000000084
:082C50005D0100080000000016
:082C5800390100080000000032
:105000005255495F424F4F545F302E385F53544DD5
:105010003332574C45354343000000000000000088
:105020000000000000000000000000009F0E0008CB
:1050300000000000A70E0008A90E0008AB0E000833
:10504000AD0E0008AF0E0008B10E0008D50F000825
:10505000B30E0008B50E0008BD0F0008A50F00082C
:10506000450F00087D0F0008000000000000000050
:105070009D0E00089F0E0008390F00088D100008D3
:08508000351000082D0F000897
:04000005080027E5E3
:00000001FF
