:020000040800F2
:1060000000FC002045780008FD7800088979000828
:10601000F5790008F7790008F97900080000000018
:10602000000000000000000000000000FB790008F4
:10603000FD79000800000000FF790008FF790008E2
:10604000D1780008D17800081D7A0008D1780008BE
:10605000D1780008D1780008737A0008797A0008AE
:106060007F7A0008857A00088B7A0008297A000870
:10607000357A0008417A00084D7A0008D178000886
:10608000D1780008D1780008D1780008D1780008CC
:10609000D1780008D1780008917A0008D1780008FA
:1060A000D1780008D1780008D1780008D1780008AC
:1060B000D1780008D1780008D1780008D17800089C
:1060C000EDAE0208F9AE0208D1780008D1780008D8
:1060D000597A0008717A0008257B0008D1780008F9
:1060E000D1780008D17A0008057A0008D178000834
:1060F000D1780008D1780008D1780008D17800085C
:10610000D1780008D1780008117A00083D7B00089A
:10611000D1780008D1780008D1780008D17800083B
:10612000D1780008D1780008D1780008D17800082B
:08613000D1780008D1780008C5
:1061400010B5054C237833B9044B13B10448AFF3B1
:1061500000800123237010BDE80F00200000000024
:106160007800030808B5034B1BB103490348AFF39C
:10617000008008BD00000000EC0F0020780003083C
:1061800010F8012B11F8013B012A28BF9A42F7D0E1
:10619000D01A7047034613F8012B002AFBD1181AB6
:1061A00001387047000000000000000000000000FF
:1061B00001F0FF01102A2BDB10F0070F08D010F8B8
:1061C000013B013A8B422DD010F0070F42B3F6D1BC
:1061D000F0B441EA012141EA014122F007047FF0D5
:1061E00000070023F0E80256083C85EA010586EA2C
:1061F000010685FA47F5A3FA87F586FA47F6A5FA68
:1062000087F68EB9EED1F0BC01F0FF0102F0070273
:1062100032B110F8013B013A83EA010313B1F8D11E
:106220000020704701387047002D06BF35460338FF
:10623000073815F0010F07D1013015F4807F02BF38
:10624000013015F4C03F0130F0BC0138704700BF89
:1062500081F0004102E000BF83F0004330B54FEA17
:1062600041044FEA430594EA050F08BF90EA020F84
:106270001FBF54EA000C55EA020C7FEA645C7FEA17
:10628000655C00F0E2804FEA5454D4EB5555B8BF3A
:106290006D420CDD2C4480EA020281EA030382EAAB
:1062A000000083EA010180EA020281EA0303362D3D
:1062B00088BF30BD11F0004F4FEA01314FF4801C10
:1062C0004CEA113102D0404261EB410113F0004F22
:1062D0004FEA03334CEA133302D0524263EB4303D9
:1062E00094EA050F00F0A780A4F10104D5F1200E77
:1062F0000DDB02FA0EFC22FA05F2801841F10001D2
:1063000003FA0EF2801843FA05F359410EE0A5F1A5
:1063100020050EF1200E012A03FA0EFC28BF4CF0D6
:10632000020C43FA05F3C01851EBE37101F000458C
:1063300007D54FF0000EDCF1000C7EEB00006EEB99
:106340000101B1F5801F1BD3B1F5001F0CD3490823
:106350005FEA30004FEA3C0C04F101044FEA44527A
:1063600012F5800F80F09A80BCF1004F08BF5FEA01
:10637000500C50F1000041EB045141EA050130BDE1
:106380005FEA4C0C404141EB0101013C28BFB1F5F3
:10639000801FE9D291F0000F04BF01460020B1FA3E
:1063A00081F308BF2033A3F10B03B3F120020CDA11
:1063B0000C3208DD02F1140CC2F10C0201FA0CF0EF
:1063C00021FA02F10CE002F11402D8BFC2F1200C54
:1063D00001FA02F120FA0CFCDCBF41EA0C0190400A
:1063E000E41AA2BF01EB0451294330BD6FEA040453
:1063F0001F3C1CDA0C340EDC04F11404C4F120023E
:1064000020FA04F001FA02F340EA030021FA04F34F
:1064100045EA030130BDC4F10C04C4F1200220FAA6
:1064200002F001FA04F340EA0300294630BD21FAE4
:1064300004F0294630BD94F0000F83F4801306BFAA
:1064400081F480110134013D4EE77FEA645C18BF9E
:106450007FEA655C29D094EA050F08BF90EA020F35
:1064600005D054EA000C04BF1946104630BD91EA2D
:10647000030F1EBF0021002030BD5FEA545C05D130
:106480004000494128BF41F0004130BD14F580046F
:106490003CBF01F5801130BD01F0004545F0FE41E3
:1064A00041F470014FF0000030BD7FEA645C1ABF18
:1064B000194610467FEA655C1CBF0B46024650EA4F
:1064C000013406BF52EA033591EA030F41F400217B
:1064D00030BD00BF90F0000F04BF0021704730B501
:1064E0004FF4806404F132044FF000054FF00001D6
:1064F00050E700BF90F0000F04BF0021704730B597
:106500004FF4806404F1320410F0004548BF40426B
:106510004FF000013EE700BF42004FEAE2014FEAC0
:1065200031014FEA02701FBF12F07F4393F07F4F9B
:1065300081F06051704732F07F4208BF704793F09E
:106540007F4F04BF41F40021704730B54FF46074B1
:1065500001F0004521F000411CE700BF50EA0102B4
:1065600008BF704730B54FF000050AE050EA01025D
:1065700008BF704730B511F0004502D5404261EBCD
:1065800041014FF4806404F132045FEA915C3FF40E
:10659000D8AE4FF003025FEADC0C18BF03325FEAAB
:1065A000DC0C18BF033202EBDC02C2F1200300FA5C
:1065B00003FC20FA02F001FA03FE40EA0E0021FA81
:1065C00002F11444BDE600BF70B54FF0FF0C4CF46F
:1065D000E06C1CEA11541DBF1CEA135594EA0C0F21
:1065E00095EA0C0F00F0DEF82C4481EA030621EA5C
:1065F0004C5123EA4C5350EA013518BF52EA033597
:1066000041F4801143F4801338D0A0FB02CE4FF048
:106610000005E1FB02E506F00042E0FB03E54FF078
:106620000006E1FB03569CF0000F18BF4EF0010E70
:10663000A4F1FF04B6F5007F64F5407404D25FEA6C
:106640004E0E6D4146EB060642EAC62141EA55511F
:106650004FEAC52040EA5E504FEACE2EB4F1FD0C61
:1066600088BFBCF5E06F1ED8BEF1004F08BF5FEADF
:10667000500E50F1000041EB045170BD06F0004691
:1066800046EA010140EA020081EA0301B4EB5C043E
:10669000C2BFD4EB0C0541EA045170BD41F4801136
:1066A0004FF0000E013C00F3AB8014F1360FDEBF5B
:1066B000002001F0004170BDC4F10004203C35DA37
:1066C0000C341BDC04F11404C4F1200500FA05F3BA
:1066D00020FA04F001FA05F240EA020001F000425B
:1066E00021F0004110EBD37021FA04F642EB0601D1
:1066F0005EEA430E08BF20EAD37070BDC4F10C04FB
:10670000C4F1200500FA04F320FA05F001FA04F2BE
:1067100040EA020001F0004110EBD37041F10001AA
:106720005EEA430E08BF20EAD37070BDC4F12005B5
:1067300000FA05F24EEA020E20FA04F301FA05F21D
:1067400043EA020321FA04F001F0004121FA04F2C5
:1067500020EA020000EBD3705EEA430E08BF20EA95
:10676000D37070BD94F0000F0FD101F000464000CF
:1067700041EB010111F4801F08BF013CF7D041EA51
:10678000060195F0000F18BF704703F00046520055
:1067900043EB030313F4801F08BF013DF7D043EA26
:1067A0000603704794EA0C0F0CEA135518BF95EADC
:1067B0000C0F0CD050EA410618BF52EA4306D1D163
:1067C00081EA030101F000414FF0000070BD50EA82
:1067D000410606BF1046194652EA430619D094EA0C
:1067E0000C0F02D150EA013613D195EA0C0F05D1F6
:1067F00052EA03361CBF104619460AD181EA03014A
:1068000001F0004141F0FE4141F470014FF0000001
:1068100070BD41F0FE4141F4780170BD70B54FF09C
:10682000FF0C4CF4E06C1CEA11541DBF1CEA13551C
:1068300094EA0C0F95EA0C0F00F0A7F8A4EB0504FE
:1068400081EA030E52EA03354FEA013100F08880F5
:106850004FEA03334FF0805545EA131343EA1263BE
:106860004FEA022245EA111545EA10654FEA002673
:106870000EF000419D4208BF964244F1FD0404F52C
:10688000407402D25B084FEA3202B61A65EB030588
:106890005B084FEA32024FF480104FF4002CB6EB45
:1068A000020E75EB030E22BFB61A754640EA0C00C5
:1068B0005B084FEA3202B6EB020E75EB030E22BF05
:1068C000B61A754640EA5C005B084FEA3202B6EB46
:1068D000020E75EB030E22BFB61A754640EA9C0005
:1068E0005B084FEA3202B6EB020E75EB030E22BFD5
:1068F000B61A754640EADC0055EA060E18D04FEA93
:10690000051545EA16754FEA06164FEAC30343EA32
:1069100052734FEAC2025FEA1C1CC0D111F4801FFF
:106920000BD141EA00014FF000004FF0004CB6E7F8
:1069300011F4801F04BF01430020B4F1FD0C88BF97
:10694000BCF5E06F3FF6AFAEB5EB030C04BFB6EBA2
:10695000020C5FEA500C50F1000041EB045170BD95
:106960000EF0004E4EEA113114EB5C04C2BFD4EBC2
:106970000C0541EA045170BD41F480114FF0000E46
:10698000013C90E645EA060E8DE60CEA135594EAC2
:106990000C0F08BF95EA0C0F3FF43BAF94EA0C0FC5
:1069A0000AD150EA01347FF434AF95EA0C0F7FF43A
:1069B00025AF104619462CE795EA0C0F06D152EA8E
:1069C00003353FF4FDAE1046194622E750EA410672
:1069D00018BF52EA43067FF4C5AE50EA41047FF483
:1069E0000DAF52EA43057FF4EBAE12E74FF0FF3CE8
:1069F00006E000BF4FF0010C02E000BF4FF0010CB9
:106A00004DF804CD4FEA410C7FEA6C5C4FEA430C31
:106A100018BF7FEA6C5C1BD001B050EA410C0CBF80
:106A200052EA430C91EA030F02BF90EA020F0020E2
:106A3000704710F1000F91EA030F58BF994208BF49
:106A400090422CBFD8176FEAE37040F00100704706
:106A50004FEA410C7FEA6C5C02D150EA013C07D15D
:106A60004FEA430C7FEA6C5CD6D152EA033CD3D0A8
:106A70005DF8040B704700BF8446104662468C46A2
:106A80001946634600E000BF01B5FFF7B7FF0028D5
:106A900048BF10F1000F01BD4DF808EDFFF7F4FFFE
:106AA0000CBF012000205DF808FB00BF4DF808ED89
:106AB000FFF7EAFF34BF012000205DF808FB00BFAC
:106AC0004DF808EDFFF7E0FF94BF012000205DF8CE
:106AD00008FB00BF4DF808EDFFF7CEFF94BF012083
:106AE00000205DF808FB00BF4DF808EDFFF7C4FF7C
:106AF00034BF012000205DF808FB00BF4FEA410CC5
:106B00007FEA6C5C02D150EA013C0AD14FEA430CA7
:106B10007FEA6C5C02D152EA033C02D14FF00000E4
:106B200070474FF0010070474FEA410212F5001222
:106B300015D211D56FF47873B3EB625212D94FEAC4
:106B4000C12343F0004343EA505311F0004F23FAAE
:106B500002F018BF404270474FF00000704750EA03
:106B6000013005D111F0004008BF6FF000407047C0
:106B70004FF00000704700BF80F0004002E000BF0F
:106B800081F0004142001FBF5FEA410392EA030F18
:106B90007FEA226C7FEA236C6AD04FEA1262D2EB62
:106BA0001363C1BFD218414048404140B8BF5B4267
:106BB000192B88BF704710F0004F40F4000020F000
:106BC0007F4018BF404211F0004F41F4000121F016
:106BD0007F4118BF494292EA030F3FD0A2F1010260
:106BE00041FA03FC10EB0C00C3F1200301FA03F19E
:106BF00000F0004302D5494260EB4000B0F5000FC1
:106C000013D3B0F1807F06D340084FEA310102F17F
:106C10000102FE2A51D2B1F1004F40EBC25008BF31
:106C200020F0010040EA03007047490040EB0000FB
:106C3000013A28BFB0F5000FEDD2B0FA80FCACF1FC
:106C4000080CB2EB0C0200FA0CF0AABF00EBC25029
:106C500052421843BCBFD0401843704792F0000F17
:106C600081F4000106BF80F400000132013BB5E76A
:106C70004FEA41037FEA226C18BF7FEA236C21D0E0
:106C800092EA030F04D092F0000F08BF0846704745
:106C900090EA010F1CBF0020704712F07F4F04D113
:106CA000400028BF40F00040704712F100723CBF26
:106CB00000F50000704700F0004343F0FE4040F450
:106CC000000070477FEA226216BF08467FEA23630E
:106CD0000146420206BF5FEA412390EA010F40F4F9
:106CE000800070474FF0000304E000BF10F0004345
:106CF00048BF40425FEA000C08BF704743F096432C
:106D000001464FF000001CE050EA010208BF704746
:106D10004FF000030AE000BF50EA010208BF7047CD
:106D200011F0004302D5404261EB41015FEA010CE2
:106D300002BF84460146002043F0B64308BFA3F1DA
:106D40008053A3F50003BCFA8CF2083AA3EBC253BC
:106D500010DB01FA02FC634400FA02FCC2F12002DB
:106D6000BCF1004F20FA02F243EB020008BF20F012
:106D70000100704702F1200201FA02FCC2F1200278
:106D800050EA4C0021FA02F243EB020008BF20EA6D
:106D9000DC7070474FF0FF0C1CEAD0521EBF1CEA9B
:106DA000D15392EA0C0F93EA0C0F6FD01A4480EA89
:106DB000010C400218BF5FEA41211ED04FF0006372
:106DC00043EA501043EA5111A0FB01310CF000409E
:106DD000B1F5000F3EBF490041EAD3715B0040EAC4
:106DE000010062F17F02FD2A1DD8B3F1004F40EB94
:106DF000C25008BF20F00100704790F0000F0CF067
:106E0000004C08BF49024CEA502040EA51207F3A2A
:106E1000C2BFD2F1FF0340EAC250704740F4000005
:106E20004FF00003013A5DDC12F1190FDCBF00F0F6
:106E300000407047C2F10002410021FA02F1C2F1A4
:106E4000200200FA02FC5FEA310040F1000053EA40
:106E50004C0308BF20EADC70704792F0000F00F08E
:106E6000004C02BF400010F4000F013AF9D040EA94
:106E70000C0093F0000F01F0004C02BF490011F428
:106E8000000F013BF9D041EA0C018FE70CEAD15326
:106E900092EA0C0F18BF93EA0C0F0AD030F0004CA6
:106EA00018BF31F0004CD8D180EA010000F000405A
:106EB000704790F0000F17BF90F0004F084691F018
:106EC000000F91F0004F14D092EA0C0F01D1420252
:106ED0000FD193EA0C0F03D14B0218BF084608D11B
:106EE00080EA010000F0004040F0FE4040F4000065
:106EF000704740F0FE4040F4400070474FF0FF0CF8
:106F00001CEAD0521EBF1CEAD15392EA0C0F93EA3E
:106F10000C0F69D0A2EB030280EA010C49024FEA90
:106F2000402037D04FF0805343EA111143EA101349
:106F30000CF000408B4238BF5B0042F17D024FF401
:106F4000000C8B4224BF5B1A40EA0C00B3EB510FDC
:106F500024BFA3EB510340EA5C00B3EB910F24BFC5
:106F6000A3EB910340EA9C00B3EBD10F24BFA3EB4A
:106F7000D10340EADC001B0118BF5FEA1C1CE0D112
:106F8000FD2A3FF650AF8B4240EBC25008BF20F0C5
:106F9000010070470CF0004C4CEA50207F32C2BF19
:106FA000D2F1FF0340EAC250704740F400004FF0B6
:106FB0000003013A37E792F0000F00F0004C02BFE7
:106FC000400010F4000F013AF9D040EA0C0093F0B1
:106FD000000F01F0004C02BF490011F4000F013B0B
:106FE000F9D041EA0C0195E70CEAD15392EA0C0F73
:106FF00008D142027FF47DAF93EA0C0F7FF470AFAB
:10700000084676E793EA0C0F04D14B023FF44CAFED
:1070100008466EE730F0004C18BF31F0004CCAD182
:1070200030F000427FF45CAF31F000437FF43CAFBE
:107030005FE700BF4FF0FF3C06E000BF4FF0010CE0
:1070400002E000BF4FF0010C4DF804CD4FEA4002C2
:107050004FEA41037FEA226C18BF7FEA236C11D00C
:1070600001B052EA530C18BF90EA010F58BFB2EBBF
:10707000030088BFC81738BF6FEAE17018BF40F03F
:10708000010070477FEA226C02D15FEA402C05D1F3
:107090007FEA236CE4D15FEA412CE1D05DF8040B78
:1070A000704700BF844608466146FFE70FB5FFF70B
:1070B000C9FF002848BF10F1000F0FBD4DF808EDC3
:1070C000FFF7F4FF0CBF012000205DF808FB00BFB4
:1070D0004DF808EDFFF7EAFF34BF012000205DF80E
:1070E00008FB00BF4DF808EDFFF7E0FF94BF01205B
:1070F00000205DF808FB00BF4DF808EDFFF7D2FF58
:1071000094BF012000205DF808FB00BF4DF808ED9A
:10711000FFF7C8FF34BF012000205DF808FB00BF67
:1071200053B94AB9002908BF00281CBF4FF0FF31EE
:107130004FF0FF3000F074B9ADF1080C6DE904CEEA
:1071400000F006F8DDF804E0DDE9022304B0704742
:107150002DE9F047089E0D4604468846002B4DD188
:107160008A42944668D9B2FA82F252B101FA02F325
:10717000C2F1200120FA01F10CFA02FC41EA0308F5
:1071800094404FEA1C45210CB8FBF5FE1FFA8CF722
:1071900005FB1E8341EA03430EFB07F199420BD91D
:1071A0001CEB03030EF1FF3080F01E81994240F288
:1071B0001B81AEF1020E63445B1AA4B2B3FBF5F07F
:1071C00005FB103344EA034400FB07F7A7420AD942
:1071D0001CEB040400F1FF3380F00881A74240F269
:1071E000058164440238E41B40EA0E4000211EB1D0
:1071F000D4400023C6E90043BDE8F0878B4208D99C
:10720000002E00F0EE800021C6E900050846BDE82A
:10721000F087B3FA83F100294AD1AB4202D382420C
:1072200000F2F980841A65EB030301209846002ED2
:10723000E2D0C6E90048DFE702B9FFDEB2FA82F227
:10724000002A40F09180A1EB0C054FEA1C471FFA81
:107250008CFE0121B5FBF7F307FB1350250C45EA23
:1072600000450EFB03F0A84208D91CEB050503F10D
:10727000FF3802D2A84200F2CB8043462D1AA4B2B6
:10728000B5FBF7F007FB105544EA05440EFB00FE82
:10729000A64508D91CEB040400F1FF3502D2A6452F
:1072A00000F2BB802846A4EB0E0440EA03409EE7B0
:1072B000C1F120078B4022FA07FC4CEA030C20FAAC
:1072C00007F405FA01F31C43FD404FEA1C4900FA9C
:1072D00001F3B5FBF9F8200C1FFA8CFE09FB1855D9
:1072E00040EA054508FB0EF0A84202FA01F20BD96C
:1072F0001CEB050508F1FF3A80F08880A84240F2B7
:107300008580A8F1020865442D1AA4B2B5FBF9F0F6
:1073100009FB105544EA054500FB0EFEAE4508D9B1
:107320001CEB050500F1FF346CD2AE456AD902387A
:10733000654440EA0840A0FB0294A5EB0E05A54277
:10734000C846A64656D353D05EB1B3EB080265EBF0
:107350000E0505FA07F722FA01F3CD401F43C6E9EF
:1073600000750021BDE8F087C2F1200320FA03F187
:107370000CFA02FC25FA03F395400D434FEA1C4733
:107380001FFA8CFEB3FBF7F107FB11302B0C43EA1D
:10739000004301FB0EF0984204FA02F408D91CEBFA
:1073A000030301F1FF382FD298422DD902396344EB
:1073B0001B1AADB2B3FBF7F007FB103345EA0345E8
:1073C00000FB0EF3AB4208D91CEB050500F1FF38BA
:1073D00016D2AB4214D902386544ED1A40EA014195
:1073E00038E73146304607E78646E5E61846FAE6CE
:1073F0004B45A9D2B9EB020864EB0C0E0138A3E7A8
:107400004046EAE7204694E74146D1E7D0467BE78D
:10741000023B654432E7084609E76444023842E724
:10742000704700BF10B59AB04822002108A825F087
:1074300041FD1822002102A825F03CFD10F0CEF8F5
:107440004FF0B0420024D2F8903023F01803C2F875
:107450009030D2F8003423F4C06343F40073C2F8D0
:107460000034D2F80034119403F4C06301934FF454
:107470008072019B0C922E234022089381230B9350
:107480000D920123B02208A8CDE90E341093129278
:1074900013940FF047FB08B100F0C0F94F2302210D
:1074A00002A8CDE90234CDE90444CDE906440FF049
:1074B000DBFD08B100F0B2F91AB010BD13B50378C6
:1074C000082B00F2A280DFE803F013848BA09494D1
:1074D00005A09A00047920460CF03EFA204607F0F9
:1074E000E1FD0021204602B0BDE810400CF03CBA9E
:1074F00000200CF031FA012826D101200CF02CFAE2
:10750000012804D001200DF0E3FC00282ADC022031
:107510000CF022FA012804D002200DF0D9FC00283A
:107520003BDC02B010BD012201A900200DF098FB48
:1075300000200CF011FA044630B90DF0A5FC48B952
:107540009DF8041007F01AFD00200DF0C1FC002882
:10755000E9DCD2E70128F7D19DF8041020460DF0B0
:10756000EDFBF1E7012201A910460DF079FB0120A6
:107570000CF0F2F90028C5D101200DF085FC28B9E6
:107580009DF80410012007F0F9FCBBE70128B9D1F0
:107590009DF804100DF0D2FBB4E7012201A90220EE
:1075A0000DF05EFB02200CF0D7F90028B4D10220C8
:1075B0000DF06AFC28B99DF80410022007F0DEFCEB
:1075C000AAE70128A8D19DF8041002200DF0B6FB0F
:1075D000A2E717F02DF802B0BDE8104007F0B4BCE8
:1075E0000E4B1B68002B9CD0406802B0BDE81040D9
:1075F0001847406802B0BDE810400DF001BD40687A
:1076000002B0BDE810400DF09DB9054B1B6E002B7C
:1076100087D002B0BDE81040184700BFF01E002020
:10762000FC2B030830B52D4B2D4A9A6085B00DF028
:1076300099FDFFF7F7FE4FF0B0430B209A6C42F034
:1076400004029A649A6C02F004020392039A9A6C00
:1076500042F001029A649B6C002203F00103114680
:107660000293029B0FF012FF0B200FF041FF0DF071
:10767000BBFC0CF037F90CF01FFA0024014605465C
:10768000234603220120CDE900440DF013FA2346DE
:10769000032229460220CDE900440DF00BFA0CF03C
:1076A000CDFF0CF0A7FA03F007F8E5B228460CF07E
:1076B00053F910B9284607F0F5FC0134032CF4D136
:1076C0000DF07AFC0CF0A8FF012804D105B0BDE84C
:1076D000304004F043B805B030BD00BF00ED00E01D
:1076E0000060000808B50DF075FCBDE8084007F023
:1076F0002BBC000013B5FFF795FF4FF0B043DA6CD9
:1077000042F00202DA64DB6C03F002030193019B96
:1077100022F03EFE00F05AF8F0B1164801F071FD7B
:10772000154B16481A68164B196801F06AFD154882
:107730000DF05AFA05F0E2FA01280FD002280FD016
:1077400010B911480DF050FA104CFFF7CBFF237819
:1077500043B922F01FFEF8E70D48DFE70D48F1E7D7
:107760000D48EFE70CF040F90028EED000200DF0B6
:107770006BF9EAE732030308D00F0020480303083F
:10778000C40F0020580303086C03030804100020F2
:107790003D030308780303088303030800F08CBF4C
:1077A00000F08FBF70470000BFF34F8F0549064BB5
:1077B000CA6802F4E0621343CB60BFF34F8F00BF8F
:1077C000FDE700BF00ED00E00400FA0570B586B0EB
:1077D0001022002102A825F06DFB4FF0B0430E4DA2
:1077E000DA6C42F00202DA64DB6C03F002034FF45D
:1077F0008056009301A92846009B019610F028F9B5
:107800003146284610F04AFA31460446284610F020
:10781000D1F9204606B070BD00040048BFF34F8F79
:107820000549064BCA6802F4E0621343CB60BFF31C
:107830004F8F00BFFDE700BF00ED00E00400FA0538
:107840007047000017488546FFF7FAFF16481749AA
:10785000174A002302E0D458C4500433C4188C42A1
:10786000F9D3144A144C002301E013600432A242FD
:10787000FBD312481249134A002302E0D458C450E3
:107880000433C4188C42F9D30F4A104C002301E092
:1078900013600432A242FBD325F090FAFFF72AFFCF
:1078A000FEE7000000FC002000000020E80F0020A0
:1078B00028380308E80F002050A70020000000200F
:1078C000E80F002028380308E80F002050A7002008
:1078D00000F05AB80368074A934206D1DA69D20623
:1078E00006D510221A6201F0A9B9034A9342F5D0D5
:1078F000704700BF00800040003801404FF0B043A7
:107900004FF0FF319A6B9963DA6BD9639A6B00225F
:107910009A63D86BDA63186C1964186C1A64586C23
:107920005964586C5A64986A9962986A9A62D86ADB
:10793000D962D86ADA62186B1963196B1A635A6CC8
:1079400042F001025A645A6C22F001025A64D3F8E0
:10795000902042F48032C3F89020D3F8902022F493
:107960008032C3F89020BFF34F8F0549054BCA689A
:1079700002F4E0621343CB60BFF34F8F00BFFDE71B
:1079800000ED00E00400FA054FF0B0434FF0FF3186
:107990009A6B9963DA6BD9639A6B00229A63D86BFE
:1079A000DA63186C1964186C1A64586C5964586C52
:1079B0005A64986A9962986A9A62D86AD962D86A4F
:1079C000DA62186B1963196B1A635A6C42F0010280
:1079D0005A645A6C22F001025A64D3F8902042F49F
:1079E0008032C3F89020D3F8902022F48032C3F87C
:1079F0009020FEE7FEE7FEE7FEE7704770470DF0D8
:107A0000C7BB0000014813F019BF00BF3C130020A2
:107A1000014810F05ABB00BFECA20020014814F04E
:107A2000DDB800BF3C13002001480FF0A7BF00BF26
:107A30004418002001480FF0A1BF00BF74130020BC
:107A400001480FF09BBF00BFD413002001480FF086
:107A500095BF00BFA418002010B5044C20460EF0BE
:107A6000DBF82046BDE81040FFF734BF9419002032
:107A70007047012010F01EB9022010F01BB904203D
:107A800010F018B9082010F015B9102010F012B934
:107A90000E4BDA68920602D5202010F00BB9DA6896
:107AA000500601D54020F8E7DA68110601D580209C
:107AB000F3E7DA68D20502D54FF48070EDE7DB68B2
:107AC0009B0502D54FF40070E7E7704700080058A7
:107AD000134BDA68510503D54FF4806010F0EAB813
:107AE000DA68120502D54FF40060F7E7DA68D004CF
:107AF00002D54FF48050F1E7DA68910402D54FF4D3
:107B00000050EBE7DA68520402D54FF48040E5E715
:107B1000DB681B0402D54FF40040DFE7704700BF6D
:107B20000008005810B5044C20460EF075F82046A9
:107B3000BDE81040FFF7CEBE04190020014811F047
:107B400067B900BF6C1000204FF0B04382B0DA6C10
:107B50000243DA64DB6C18400190019B02B070476D
:107B60001FB514284FF00003CDE902330C460CD8A2
:107B7000092812D90A380A280FD8DFE800F07B0E4E
:107B80000E0E0E820E0E74116D00FE2800F0838022
:107B9000FF2800F08280FD287AD06FF0030059E0C2
:107BA0003F4A404B0193137843F0010313703E4862
:107BB0003E4A4FF00043C0E900233D4B04221B68BE
:107BC0008360426100230122C2614FF4805106228A
:107BD0000383C0E90333C0E90933C0E90C1283769B
:107BE00080F8203080F82C30836380F83C30C36408
:107BF0000DF018FB08B1FFF711FE2B480DF0DCFE6D
:107C000008B1FFF70BFE0023274801A9CDE9023395
:107C10000DF090FC08B1FFF701FE23480DF0F6FDD2
:107C200008B1FFF7FBFD0A211F480DF025FC1E4897
:107C30000DF0A4FE1C480DF07AFC1E4B019A80B298
:107C40009A42208004BF00EB4000208016480DF0CF
:107C500041FE002004B010BD114A174B0193137868
:107C600043F00203A2E70E4A144B0193137843F04A
:107C700004039BE70A4A124B0193137843F008036D
:107C800094E7074A0F4B0193137843F010038DE7F5
:107C90000D4B01938BE70D4BFBE7064BF9E700BF5C
:107CA00005100020040000080810002000240140F6
:107CB00008000020004000B80800000C1000001070
:107CC000400000180008002C001000B0002000B494
:107CD00070477047014B1878704700BF0D000020B7
:107CE000014B1878704700BF0C00002010B5044607
:107CF00086B01422002101A825F0DCF822685E4B32
:107D00009A4240F08E804FF0B0435C4C1A6E42F4C1
:107D100000721A661B6E03F400730093009B2378B5
:107D2000DA0708D5132000F095FAB0F1904F7AD118
:107D30000120FFF709FF23789B0708D5142000F0E6
:107D400089FAB0F1904F76D10120FFF7FDFE23783C
:107D5000580708D5122000F07DFAB0F1904F72D18B
:107D60000120FFF7F1FE2378190708D50A2000F05B
:107D700071FAB0F1904F6ED10120FFF7E5FE237844
:107D8000DA0608D50F2000F065FAB0F1904F6AD1FD
:107D90000120FFF7D9FE00234FF0030CCDE902C309
:107DA0002378DB0709D5132000F059FA019013203E
:107DB00000F050FA01A90FF04BFE2378980709D57F
:107DC000142000F04CFA0190142000F043FA01A9AD
:107DD0000FF03EFE2378590709D5122000F03FFA34
:107DE0000190122000F036FA01A90FF031FE23783D
:107DF0001A0709D50A2000F032FA01900A2000F093
:107E000029FA01A90FF024FE2378DB0609D50F20FB
:107E100000F025FA01900F2000F01CFA01A90FF0E4
:107E200017FE06B010BD132000F014FA144B984250
:107E300081D102207DE7142000F00CFA104B98420B
:107E400085D1022081E7122000F004FA0C4B984201
:107E500089D1022085E70A2000F0FCF9084B9842FE
:107E60008DD1022089E70F2000F0F4F9044B9842ED
:107E700091D102208DE700BF0024014005100020B1
:107E80000004004838B5334B02689A4260D14FF085
:107E9000B042314C136E23F4007313662378DD0770
:107EA0000ED5132000F0D6F90546132000F0D7F9BF
:107EB000014628460FF07EFE237823F0010323704D
:107EC000237898070ED5142000F0C4F90546142035
:107ED00000F0C5F9014628460FF06CFE237823F028
:107EE00002032370237859070ED5122000F0B2F94F
:107EF0000546122000F0B3F9014628460FF05AFE5D
:107F0000237823F00403237023781A070ED50A2060
:107F100000F0A0F905460A2000F0A1F90146284624
:107F20000FF048FE237823F0080323702378DB0644
:107F30000ED50F2000F08EF905460F2000F08FF9C6
:107F4000014628460FF036FE237823F010032370F5
:107F500038BD00BF00240140051000200A4B00F18D
:107F60001002C1781970817859704178997010F8B1
:107F7000041BD970904203F10403F2D1034B102289
:107F80001A800020704700BF781100200E000020EA
:107F90002DE9F04FDFF8FC80DFF8FCC0DFF8FCB023
:107FA00085B002AF0446164640460022C8E900C22A
:107FB000C8E909223D8ED7F834A079609946C8F8FF
:107FC0000820C8F80CB0C8F81420C8F82C2010F00D
:107FD00018FB08B1FFF722FC2E4810F036FB08B161
:107FE000FFF71CFC2C480422C8E900020022C8F854
:107FF0000820002C3AD1C8F814400022012125485D
:10800000C8F80CB0C8E90912C8F82C2010F0F9FA29
:1080100008B1FFF703FC2B071DBF25F00F04103438
:10802000A4B22C46A300073323F00703ADEB030DE6
:1080300002AE22460021304624F03CFF2A46494643
:10804000304624F00FFF7A68FF2300935346BAB9F5
:1080500010482246314610F06FFD70B90D4810F0FF
:10806000F4FA98B90C37BD46BDE8F08F012C0CBF6F
:1080700020224022C8E90462BFE76FF00600F1E762
:1080800022463146034810F0EBFDE6E7FFF7C6FB5A
:108090000020E7E76C10002000180058881100202D
:1080A00021F00803102B10B501D0202913D10B4B60
:1080B00000F11002C4781C7084785C7044789C7065
:1080C00010F8044BDC70904203F10403F2D1044B2E
:1080D0000020198010BD6FF01F00FBE78811002001
:1080E0009811002007B5CDE9001200220346114681
:1080F0001046FFF74DFF03B05DF804FB70B586B086
:1081000004460D4616460021102202A824F0D2FE95
:10811000074B08491A8802A824F0A4FECDE90056AE
:10812000234602AA00210120FFF732FF06B070BDEE
:108130000E0000207811002070B586B004460D4670
:1081400016460021102202A824F0B4FE074B08496D
:108150001A8802A824F086FE0121CDE900562346A4
:1081600002AA0846FFF714FF06B070BD0E000020FB
:108170007811002008B5FFF793FFC0B208BD08B51D
:1081800010230A461946FFF7ADFFC0B208BD70B50F
:108190001446054618460E46FFF7E0FE23019BB243
:1081A000324619462846FFF7A9FFC0B270BD70B528
:1081B0001446054618460E46FFF7D0FE23019BB233
:1081C000324619462846FFF7B7FFC0B270BD00001F
:1081D000034B00221A70034B01221A70704700BF34
:1081E000AA820020A8820020C26891FAA1F0B0FA09
:1081F00080F0430003209840104091FAA1F1B1FAB9
:1082000081F14900C8407047024B53F8203003B158
:10821000184770477C120020002201230342D1B28C
:1082200002F101020DD02F290ED8084B0848002278
:108230001A70082300F8313000EBC10041600CF0E7
:10824000C3BE5B009BB2E9E7704700BFAA82002073
:10825000FC110020000900F590108002704700F02A
:108260000F030120984080B270472F2808B50346BD
:1082700000D908BDFFF7EEFF03F00F0201230168EC
:10828000934093FAA3F2B2FA82F0420003209040A6
:10829000084093FAA3F3B3FA83F35B00D840E8D025
:1082A00001284FF0000008BF0120E2E730B52F2879
:1082B00087B00B4623D800F00F040121A140022211
:1082C000032B019104921CD8012B1DD94FF4881364
:1082D0000293FFF7BFFF0546FFF786FF012819D07D
:1082E000022817D001A928460FF0B2FBA4B9062036
:1082F000224602210FF0CAF806200FF0F9F807B065
:1083000030BD043B012B02D94FF44413E0E74FF496
:108310000413DDE70390E5E7012C06D107200022D6
:1083200002210FF0B3F80720E7E7022C06D108205E
:10833000002221460FF0AAF80820DEE7032C06D120
:108340000920002202210FF0A1F80920D5E7042C12
:1083500006D10A20002202210FF098F80A20CCE76B
:10836000053C042C4FF000024FF0020104D8162007
:108370000FF08CF81620C0E729200FF087F829208D
:10838000BBE70000044B00F00F0053F820200AB9AF
:1083900043F82010002070477C120020F8B50F4DE4
:1083A0000F4E104F00240F2C05DDA4F11203052BF6
:1083B00001D91C2C0ED155F824305BB906EB4403CF
:1083C0005B783BB139782046FFF770FF06492046BD
:1083D000FFF7D8FF0134302CE5D1F8BD7C12002026
:1083E0009A11002010000020D18100082DE9F041F1
:1083F000194D1A4E86B0002402270F2C05DDA4F17A
:108400001203052B01D91C2C1FD155F82430E3B9D8
:1084100016F81410012918D104F00F0399402046D2
:1084200001910497FFF716FF8046FFF7DDFE0390EA
:108430002046FFF71AFF012801D1029001E0002831
:10844000FBD001A940460FF003FB0134302CD4D1FE
:1084500006B0BDE8F08100BF7C1200209A11002018
:1084600000B58DB02C22002101A824F023FD17486F
:10847000174B03604FF080420023C0E90433C0E98A
:108480000723836083614FF48073436213F054FACF
:1084900008B1FFF7C3F90D4813F076FB08B1FFF7F9
:1084A000BDF94FF07C5300220793084808924FF41F
:1084B000807301A9029206920B9313F099FA08B106
:1084C000FFF7ACF900200DB05DF804FB3C13002071
:1084D0000028004007B5074B0DF106001B699847BF
:1084E000BDF806304FF47A7202FB0030002103B071
:1084F0005DF804FB703203087047704708B50A48FE
:108500000FF095FE002211460C200EF0BFFF0C204C
:108510000EF0EEFF00220D2011460EF0B7FFBDE871
:1085200008400D200EF0E4BF14000020704700004A
:1085300038B5054D002415F8013B0BB1FFF7DEFF00
:108540000134042CF7D138BD34140020F0B50646B0
:1085500089B01422002103A824F0ACFC3268404BFF
:108560009A426BD14FF0B0440520236E43F4805300
:108570002366236E03F480530093009BFFF76AFE8B
:10858000B0F1904F5CD1E36C43F00103E364E36C22
:1085900003F001030193019B0520FFF760FE0446F1
:1085A0000620FFF75CFE0443039405240025022700
:1085B00020460794CDE904750695FFF74BFE03A905
:1085C0000FF046FA0720FFF74AFECDE90307072020
:1085D0000794CDE90575FFF73DFE03A90FF038FAC2
:1085E000204C214925620823C4E900131023C4E963
:1085F000023520468023C4E90435C4E906550FF04E
:1086000039F808B1FFF70AF9184A7465A662184CE0
:108610000723C4E9002300238022C4E90233C4E90C
:108620000423C4E9063320464FF4005323620FF0BD
:1086300021F808B1FFF7F2F8B465A66209B0F0BD01
:108640000520FFF707FE0B4B9842A5D1E36C43F0E2
:108650000203E364E36C03F002030293029B9BE7D3
:1086600000300140D4130020300002401C000240C2
:10867000741300200004004870B50D4614460646E9
:108680000CF0BAFD30600CF0BDFD28600CF0C0FDB0
:10869000206070BDBFF34F8F0549064BCA6802F4D6
:1086A000E0621343CB60BFF34F8F00BFFDE700BF15
:1086B00000ED00E00400FA0572B6EFF310830360EA
:1086C0007047036883F3108862B6704770474FF0B5
:1086D000B04382B09A6C02439A649B6C184001903C
:1086E000019B02B070474FF0B04382B0DA6C024396
:1086F000DA64DB6C18400190019B02B07047000007
:1087000010B5064C0649802220460DF0D3FF2268A2
:10871000136843F01003136010BD00BF041900205C
:10872000241A0020012810B50BD1094C09498022D8
:1087300020460DF0BFFF2268136843F0100313605A
:1087400010BD0228FCD1BDE81040FFF7D9BF00BF23
:1087500094190020AC1A00202DE9F7439DF8285009
:108760009DF82C80012B14BF00274FF40057012DDA
:1087700004460E4669D0032D6AD0002D6BD000252B
:10878000013AD2B2022A6BD8664B53F82290012CE0
:1087900070D10420FFF79BFF2046FFF798FF0022CF
:1087A00011460E200EF072FE0E200EF0A1FE5E4B62
:1087B0005E4883F801805E4B0561C0E900360C24F9
:1087C0000023C0E90297C0E90543C0E907334362CB
:1087D000B8F1000F49D0B8F1020F01BF082383623E
:1087E0004FF40043836351480DF0D8FE08B1FFF702
:1087F00015F84E4800210EF041F808B1FFF70EF8C9
:108800004A4800210EF05FF808B1FFF707F8474823
:108810000EF015F808B1FFF701F80120FFF782FF0D
:108820004FF44013009302AB13E906003F480DF0EC
:108830008FFF08B1FEF7F2FF4FF0B042936843F4A8
:108840000043936003B0BDE8F0834FF4C06597E741
:108850004FF4806594E7022A05D14FF0805996E7DE
:108860004FF0000993E7A94691E7C0F828800DF082
:1088700063FEBBE7022CE5D12B4B2E4C83F8028024
:108880000420FFF724FF0120FFF721FF00221146FB
:108890000B200EF0FBFD0B200EF02AFE264B25616F
:1088A000C4E900360C2200232046C4E90297C4E93B
:1088B0000523C4E90833A36263660DF03DFE08B1E9
:1088C000FEF7ACFF1B4800210DF0D8FF08B1FEF702
:1088D000A5FF184800210DF0F6FF08B1FEF79EFF36
:1088E00014480DF0ACFF08B1FEF798FFFFF708FF42
:1088F0004FF44013009302AB13E906000D480DF04E
:1089000027FF08B1FEF78AFF0C4AD2F8803043F007
:108910008053C2F880302268936843F480039360E8
:108920008AE700BF2C040308501B00209419002084
:108930000038014004190020008000400008005861
:108940002DE9F3419DF820809DF824C0CDE9008CED
:1089500016461D4604460F46FFF7FEFE064B0C204A
:108960004443181901221A5547600672457280F86F
:108970000A8002B0BDE8F0812C1B0020022810B54F
:1089800004460BD107480DF0A9F808B1FEF746FFE1
:108990000C20054B444300221A5510BD0128F7D185
:1089A0000248F0E7041900202C1B00209419002035
:1089B0000128F8B505460E461F462BD194B2184A39
:1089C0005278013A012A17D816480DF0F8FA2246D3
:1089D00014483B4631460DF01FFD044611480DF08A
:1089E00013FB84B9104B1B680BB90020F8BD21465E
:1089F000284698472046F9E70A4822460DF00CFD24
:108A000004460028F6D0022C14BF6FF006006FF069
:108A10000500EBE70228E8D1044892B2EEE700BF78
:108A2000501B0020941900203C1400200419002041
:108A3000012802D1044800F079BB022801D1034883
:108A4000F9E76FF006007047780000208C000020E6
:108A5000012807B50AD10A480DF1070100F0A3FB70
:108A600050B16FF0060003B05DF804FB0228F8D1A6
:108A700004480DF10701F1E79DF80700F3E700BF97
:108A8000780000208C00002070470000012802D1EF
:108A9000044800F0EFBA022801D10348F9E76FF06B
:108AA00006007047780000208C000020F8B5224DA9
:108AB000224F00240C23224A63439B5CCBB1022C3F
:108AC0001BD1204E3368DA69D103FCD4DA69520233
:108AD000FCD51C480DF087FE33681A4810221A6234
:108AE0001A6822F010021A600DF019F8F06F0EF0FB
:108AF00033FE0134032CDDD1F8BD012CF9D108235C
:108B00002B624FF480132B6255E8003F43F00203C1
:108B100045E80032002AF7D157E8003F43F48003CC
:108B200047E80032002AF7D1074AD2F8803043F0F4
:108B30008063C2F88030DCE700380140083801402B
:108B40002C1B0020041900200008005873B50B4CA2
:108B50000B4E4FF0FF35012D0BD923784BB13378F5
:108B60000193A37A0093227A637A61680020FFF769
:108B7000F3FD0135022DEED102B070BD2C1B00209B
:108B8000501B002070B51D4B02689A42044615D157
:108B90000CF0C5FF1A4E002516F8011B0220013506
:108BA0000CF0AAF9802DF7D1154916482A4600F095
:108BB00070FA13492A4620460DF07CFD2268124BBC
:108BC0009A4216D120460CF0AAFF104E002516F846
:108BD000011B012001350CF08FF9802DF7D10B49D5
:108BE0000B482A4600F055FA08492A4620460DF05F
:108BF00061FDBDE8704007480CF0E6B90080004018
:108C0000241A00208C00002000380140AC1A0020FB
:108C100078000020A41A00200268054B9A4205D172
:108C2000044B1B6813B1012108461847704700BF69
:108C3000003801403C14002070470000F8B52F4B6D
:108C400002689A4204461DD10CF069FF2C4B2D4F4F
:108C50001B685D68C5F18005ADB20026B5423FDCFA
:108C6000284929482A4600F014FA8022254920463E
:108C70000DF020FD254B1A78012A03D100221A702D
:108C80000BF0DAFE2268224B9A4224D120460CF0E7
:108C900046FF204B204F1B685D68C5F18005ADB2D3
:108CA0000026B54223DC1C491C482A4600F0F1F995
:108CB0008022194920460DF0FDFC144B1A78012A38
:108CC00003D100221A700BF0B7FE154B1B6813B1CD
:108CD000012108469847BDE8F84012480CF074B9E5
:108CE00017F8011B02200CF007F90136B6E717F858
:108CF000011B01200CF000F90136D2E70080004092
:108D000044180020241A00208C0000203814002071
:108D100000380140A4180020AC1A00207800002080
:108D20003C140020A41A002073B5314B00261E709D
:108D300003685A6A8DF807202E4A9342054619D1D6
:108D40002D482E4C0DF065FD2D4926621523C4E9F2
:108D5000001320468023C4E90266C4E90436C4E94E
:108D600006660EF087FC08B1FEF758FDEC67A562B9
:108D7000FFF7C6FC2A68234B9A421BD12248234C9A
:108D80000DF047FD224A1123C4E9002320460023A9
:108D90008022C4E90233C4E90423C4E90633236210
:108DA0000EF068FC08B1FEF739FDEC670120A56202
:108DB000FFF7B8FC2C680F4B9C420DD19DF80710B3
:108DC00002200CF099F82B68A34205D1114801222A
:108DD0000DF1070100F05DF90F480CF0F5F80F4BAD
:108DE0001A781AB901221A700BF01EFE02B070BD7B
:108DF000AA820020008000400419002044180020AE
:108E0000080002400038014094190020A4180020F6
:108E1000440002408C000020A41A002038140020D6
:108E200070B596B005461422002103A824F042F83C
:108E30003822002108A824F03DF82B685F4A9342AD
:108E400066D15F4B012408A8CDE908430EF02EFA45
:108E500008B1FEF7E3FC4FF0B04316201A6E42F45F
:108E600080421A661B6E03F480430193019BFFF757
:108E7000F1F9B0F1904F38D10120FFF734FC022016
:108E8000FFF731FC4F4B9B6A082B36D11720FFF7B9
:108E9000E6F912230390002604930123CDE9053659
:108EA00049484A4C072303A907930EF0D1FD4848CF
:108EB00026621123C4E9000380232046C4E9026628
:108EC000C4E90436C4E906660EF0D4FB08B1FEF727
:108ED000A5FC00222420EC671146A5620EF0D6FA0C
:108EE00024200EF005FB16B070BD1620FFF7B2F976
:108EF000354B9842C3D10220BFE71620FFF7AFF9E8
:108F000004461720FFF7ABF9044303940223C2E79A
:108F1000304A9342E7D1202308936B68B3F5166F6C
:108F200094BF4FF440634FF4006308A80C930EF015
:108F3000BDF908B1FEF772FC4FF0B0430120DA6DC5
:108F400042F00102DA65DB6D03F001030293029B3C
:108F5000FFF7C9FB0220FFF782F904460320FFF761
:108F60007EF90222012300260443CDE9042303A94C
:108F700008234FF09040CDE9066303940EF068FD9E
:108F8000154C1649A6611523C4E900138023C4E9D2
:108F9000043620462023C4E90266C4E907360EF0F1
:108FA00069FB08B1FEF73AFC00222620EC67114667
:108FB000A5620EF06BFA262093E700BF003801404F
:108FC000020003009419002000040048A4180020A7
:108FD0004400024000800040441800200800024085
:108FE00070B51B4A0368934204461DD14FF0B0424E
:108FF0001620136E23F480431366FFF72BF9054602
:109000001620FFF72CF906461720FFF728F946EA45
:10901000000128460EF0CEFDE06F0EF09DFB2420EF
:10902000BDE870400EF072BA0A4A93420FD14FF079
:10903000B0420C21D36D23F00103D3654FF0904073
:109040000EF0B8FDA06F0EF087FB2620E8E770BD9C
:10905000003801400080004008B5054B02689A4284
:1090600005D10CF0F6FFBDE80840FFF749BB08BD8D
:1090700000800040C26803699A4282BF40681B18A2
:109080000133981A704708B54168FFF7F3FF081AD3
:1090900008BD2DE9F743044601A8164688460BF0A3
:1090A0009DFF2046FFF7EFFF864228BF0646204679
:1090B000FFF7E9FFE3682569A268AB429CBF6368DC
:1090C00001335D1B814623692068AE4202FB030029
:1090D00013D87243414623F0C5FE236962683344C6
:1090E000934296BF236900239B19236101A80BF0CB
:1090F00077FF304603B0BDE8F08305FB02F73A4640
:10910000414623F0AFFEA2682068751B6A4308EB56
:10911000070123F0A7FE4E452561E7D92369626860
:10912000934234BF01330023E360DFE72DE9F341CD
:10913000044601A8164688460BF050FF2046FFF76C
:1091400099FFE768E5682369A2682168864228BF1D
:1091500006469D4284BF636801335D1BAE4202FB3D
:10916000071110D87243404623F07CFE62683744F2
:10917000974288BF0027E76001A80BF031FF304617
:1091800002B0BDE8F08105FB02F73A46404623F005
:1091900069FEA2682168751B6A4308EB070023F08B
:1091A00061FEE560E8E710B504460846E268236919
:1091B0009A4223D0A268E1682368541E072C18D86D
:1091C000DFE804F00408170C171717105B5C037036
:1091D000002010BD33F811300380F9E753F8213037
:1091E0000360F5E703EBC103D3E90023C0E90023E3
:1091F000EEE701FB023123F035FEE9E76FF00E00E8
:10920000E7E70FB400B5ADF5037D0AF0EDFCC0B2A1
:1092100001280AD185AB849A01934FF4007102A80A
:1092200012F0AAF902A80BF0DFFC0DF5037D5DF842
:1092300004EB04B070470AF0CBBC08B50AF0D4FCCC
:10924000C0B208BD014B00221A707047AA820020EC
:109250007047000008B503F010FF024658B1064BF6
:10926000064900209A4208BF042003F5C31303F502
:1092700020638B42F6D108BDC0AFD235C0FF953612
:1092800008B503F0FAFE024658B1064B0649002025
:109290009A4208BF062003F5C31303F520638B42EF
:1092A000F6D108BD6086973660D65A3703F0E5BE22
:1092B00001480BF099BC00BF3804030808B5034807
:1092C0000BF082FE024B00221A7008BDE80000205D
:1092D000AA82002030B58BB00446342368468DF84E
:1092E000003014F097FA14B3019D14F015FAF0B998
:1092F000E30702D528460AF07FFFA00703D505F152
:1093000038000AF091FF610703D505F158000AF013
:10931000A3FF220703D505F5EE700AF0B7FFA306F9
:1093200003D505F564700AF0CBFF14F0EBF90BB030
:1093300030BD10B514F0F0F90128044604D030B95E
:109340000BF05CFE204610BD6FF00500FBE76FF0F0
:109350000600F8E710B5134B134A1B680446407823
:1093600060B92179117003B198472378012B17D187
:1093700023792BB10D480BF037FC05E00021F1E714
:1093800061780B480BF030FC002002F011FB207CD0
:1093900002F012FD21460020BDE8104005F0B4BDEA
:1093A0000448E8E7FC1E0020CB1D00204A04030807
:1093B0006304030884040308022813B5044605D097
:1093C000144802B0BDE810400BF00EBC12480BF080
:1093D0000BFCFF238DF803300DF103024FF0043333
:1093E00001210E4801930BF00FFA01AA04210C4849
:1093F0000BF00AFA20460BF085FB01200BF082FBF4
:109400004FF000635A681B6883F30888904702B0E6
:1094100010BD00BF93040308A40403080040000823
:109420000440000870B5044601468AB0032005F0E8
:109430006BFD23780A2B10D00E2B0CD13E480BF07D
:10944000D3FB3E4A0023684613708DF800308DF838
:10945000043014F02DFB0AB070BD63780D2B64D17D
:1094600037480BF0C1FB354B1A78042A1CD0022672
:1094700000201E700BF0C2FD0022324910460BF096
:10948000B9FD0546B8B90BF0C9FD424202F01F0212
:1094900000F01F004FF47A7158BF504200FB0111D9
:1094A000324628460BF0A8FDA37D032B1FD8DFE82A
:1094B00003F00B24272A40F2E32123480BF094FB0E
:1094C00000200BF09BFDEFE7204A00231380237E52
:1094D000617E1B0243EA0143E17D0B435360E37E5F
:1094E000217F1B0243EA0143A17E0B439360D4E931
:1094F0000101174B83E80300ADE7144A0123E5E7B8
:10950000124A0223E2E7237E617E104A1B0243EAED
:109510000143E17D0B43D360E37E217F1B0243EADD
:109520000143A17E0B431361E1E70E2BDFD1094814
:109530000BF05AFBDBE700BFB9040308C41C002092
:10954000C4040308F19B0008D1040308A81C0020F0
:10955000BC1C0020E1040308704703F08EBD7FB5FA
:10956000054603F088FD431EDBB2012B044603D9F8
:1095700000F0FD03082B1DD101A80AF04DFB0022CD
:1095800001A91346012011F8016B1EB100FA02F681
:1095900033439BB201320C2AF5D104F0FD02082AB4
:1095A00001D0012C02D123F480739BB22B800020C8
:1095B00004B070BD6FF00200FAE7F0B58FB0064658
:1095C0000F4603F058FDFF23ADF800304FF47F4302
:1095D000ADF80230431EDBB20024012BCDE901447B
:1095E0000546039403D900F0FD03082B7ED1FFF755
:1095F000A0FE044600286FD1338823B9012D50D135
:1096000040F2FF1333800C22002101A823F052FC0A
:109610003088002240FA02F1CE07D3B20ED50EAE4A
:1096200003F0FE0103F00103314406EB430331F87C
:10963000346C33F8383C334321F8343C01320C2A83
:10964000E8D105F0FD03082B01D0012D0ED1BDF8A6
:109650000C30002203F47F43ADF80C301146012694
:10966000D5B2072D28D909B1ADF80C3023238DF8D8
:10967000103004A801AB059314F01AFA054668B936
:1096800024238DF8103004A801AB059314F010FAD0
:109690000AF048FED8B914F035F800B36FF00604AC
:1096A0001AE005F0FD03082B04BFFF233380022DD1
:1096B000A9D140F6FF73A5E740FA02F5ED0741BFD7
:1096C00006FA02F10B439BB201210132C8E728469A
:1096D0000AF02EFE0028DED020460FB0F0BD002F8D
:1096E000FAD001A80AF0A2FA0446F5E76FF00204E6
:1096F000F2E700002DE9F04395B004460D46904690
:109700001F4603F00AFB611C064629D16A1C0AD0D9
:10971000003D18BF012503F08CFC854203D028468C
:1097200003F089FC50BBB8F1FF3F07D003F085FC84
:10973000404503D0404603F082FCF8B97B1C07D0BB
:1097400003F07FFCB84203D0384603F07CFCA8B994
:10975000BCB920460BF052FC754B1C6000200DE09C
:10976000B4F1000918BF4FF0010903F05EFC814518
:10977000CCD0484603F05BFC0028C7D015B0BDE84C
:10978000F08303F078FC03F08AFC002800F0CC8022
:10979000012E40F096808DF800600AF0C5FB022390
:1097A0008DF8050068468DF8043014F02DFE614BED
:1097B000049A1A600446002854D103F089FB01285A
:1097C00008BF5D4B0AA808BF1C7034238DF82830F1
:1097D00014F020F80B9B988803F045FCFFF72DFD53
:1097E0000028CBD034230AA88DF8283014F012F8C2
:1097F0000AA814F00FF80028B0D1504D0B9B2A781E
:1098000093F858404E480C2606FB0233D3F89013C9
:109810000BF0EAF9012C0B9A01D0082C6ED12B78B1
:10982000D2F8C420474903F0070301FB032146484F
:109830000BF0DAF90B9B4548D3F8C4100BF0D4F9C0
:109840000B9B434893F949100BF0CEF90B9B414811
:1098500093F948100BF0C8F90B9B3F48D9680BF0FF
:10986000C3F97BE7012812D00B282BD1304D002003
:109870000BF0C4FB2C6801342C6003F0E2FB844243
:1098800008D900232B60049934480BF0ADF96FF030
:10989000050073E70022324910460BF0ABFB04468B
:1098A00048B903F0CAFB4FF47A714143224620467F
:1098B0000BF0A2FBE7E740F264612A480BF094F951
:1098C000E1E716B16FF0060058E7012368468DF80E
:1098D00000308DF8043014F0EBF80028F2D103F0DA
:1098E000F7FA022807D18DF8040068468DF8006069
:1098F00014F0DEF872E703F0EBFA6FE7022C297838
:1099000009D13023B1FBF3F003FB1011CBB2D2F835
:10991000C420154989E706FB0122D2F894130029D7
:1099200085D1D2F8901382E76FF0100026E700BFD0
:10993000A41C0020481C0020C41C0020CC290020AE
:109940001F050308C02709001C0503082E0503088E
:1099500040050308560503086B05030804050308C2
:109960006D990008EE040308400D03004FF0FF332B
:109970001A4619460120FFF7BDBE00002DE9F0414F
:109980009AB00D4602A981E80C0080460AF0CCFA94
:10999000074603F0C4F90646002800F0038113F0DF
:1099A000EDF810B16FF005009BE004F023FD0446D4
:1099B0000028F7D103F08CFA022840F095808DF84A
:1099C000440010A88DF8404014F072F88DF826700D
:1099D0000AF04CFB60B10AF049FB012802D10020DB
:1099E00003F01CFB052310A88DF8403014F00CFD8B
:1099F0006F4B1B78012B05D1092310A88DF840303F
:109A000014F002FD05A9E8B213F0A4FE0746FFF723
:109A100014FC60B19DF814309DF815206549664826
:109A200051F82710D21A00922A460BF0DDF8002FC9
:109A300079D000238DF818300893ADF8243006A8AB
:109A400015F0B6FB5D4B0A9A1A600546FFF7F5FB69
:109A500000283FD0342310A88DF8403013F0DAFEF0
:109A600010A813F0D7FE002834D1554F119B3A7837
:109A700093F8586053484FF00C0808FB0233D3F8B2
:109A800090130BF0B1F8012E119A01D0082E66D177
:109A90003B78D2F8C4204C4903F0070301FB0321B3
:109AA0004A480BF0A1F8119B4948D3F8C4100BF0B9
:109AB0009BF8119B474893F949100BF095F8119BBF
:109AC000454893F948100BF08FF8119B4348D9682B
:109AD0000BF08AF8002D58D1002C0CBF6FF002005B
:109AE00000201AB0BDE8F08103F0F2F901287FF4FC
:109AF0006DAF3B4B1B787BB1022B7FF467AF2046E9
:109B00000BF07CFA0C238DF82C3003F027FA00F0D0
:109B100007008DF8300002E009238DF82C300BA8E7
:109B200014F072FC52E79DF808308DF81C309DF857
:109B30000B30ADF82450CDF8208053B19DF80C3097
:109B40005BB900238DF81830264B00221A7034467A
:109B500075E703F059F90028F3D00123F2E7022E4C
:109B6000397809D13023B1FBF3F003FB1011CBB2EC
:109B7000D2F8C4201C4991E708FB0122D2F89413C3
:109B800000298DD1D2F890138AE7A5F10E03DBB23C
:109B9000012B7FF607AF0B2D07D10A9913480BF065
:109BA00023F8FFE66FF00B009BE76FF0060098E7E5
:109BB000051F00208409030877050308481C0020BE
:109BC000CC2900201F050308C02709001C05030835
:109BD0002E05030840050308560503086B05030816
:109BE000C41C0020CB1D0020400D03000405030809
:109BF0001FB501238DF808308DF8093000210323AB
:109C00008DF80A308DF80B10009104AB13E90C00AD
:109C10000248FFF7B3FE05B05DF804FB5C0A0308D9
:109C20002DE9F04F43788DB00446002B40F0AA8018
:109C3000B0F90E00794F7A4E237C388040B23370F1
:109C400002F0C0F8237B002B3BD0607C7549B7F94C
:109C5000002051F8201096F900307348DFF8CC91BD
:109C6000DFF8CCA10AF0C0FFA378012B0CBF71482C
:109C700071480AF0B9FFE17870480AF0B5FF4FF07B
:109C800000085FFA88FB584609F066FE054640B9B1
:109C9000227BEBB29A4200F2A680514658460AF067
:109CA0006DFF08F10108B8F1030FEAD1227BA1682A
:109CB000634823F0D7F8634B227B1A70624BE2783B
:109CC0001A706379012B00F096802378012B05D15F
:109CD0000020FFF78DFF5D4B01221A705C4B1A7854
:109CE0002AB3DFF8709100221A7099F80030F3B9A6
:109CF00096F90030584DDFF8648100932A78B7F95F
:109D0000003098F8001056480AF06EFF554B1B685B
:109D10006BB1554899F80020027098F80020427005
:109D20002A7882703A888280327882719847E27805
:109D3000E02A11D04D4B1B6873B14D480270227957
:109D40004270A2684260227B0272E2894281227CD8
:109D500002736269026198472146012005F0D4F838
:109D6000444890F802316BB1002380F802318DF83D
:109D70000B3000938DF80930DDE90223B0F80011B3
:109D8000FFF7FCFDFFF759FA50B3342302A88DF812
:109D9000083013F03FFD02A813F03CFD002838D135
:109DA000637C73BB34480AF01FFFA16933480AF093
:109DB0001BFFE17832480AF017FFB4F90E10314862
:109DC0000AF012FF94F910102F480AF00DFF2179C4
:109DD0002E480AF009FF039B2D4899690AF004FFF9
:109DE0000DB0BDE8F08FA2684946D25C58460AF033
:109DF000C5FE01354CE703F06BF800287FF465AF32
:109E000066E7012B01D12348CDE7022BCDD12248B3
:109E1000C9E722480AF0E8FEE2E700BFEC1E002096
:109E2000041F0020040A0308C9050308EE050308FF
:109E30005A0A0308DA050308E5050308190D0308A3
:109E4000CC1D0020CC1E0020CD1E00204C1C00206C
:109E5000D61E0020D71E0020A01C0020451C00207C
:109E6000F3050308F41E0020CE1E0020F81E00207B
:109E7000D81E0020C61C0020120603086F06030827
:109E8000810603088B060308950603089E0603084F
:109E9000AE0603082F0603084C060308BC06030899
:109EA000F0B591B0002603ACC4E9016605460396FF
:109EB00003F0E1F8431EDBB2012B0AD9082808D0D1
:109EC00005286AD00A2804D06FF00604204611B095
:109ED000F0BD15BB2046ADF8185009F09DFE0028D6
:109EE000F2D1BDF818302A46012114F8010B20B137
:109EF00001FA05F213439BB2012201350C2DF4D176
:109F00000AB1ADF81830002106A8FFF756FB044649
:109F10000028D9D10AF00CFAD8E71A2301A98DF844
:109F2000043017F02FFD1E230090C6B206A88DF84E
:109F3000183013F06FFC079B0022A3F10C010C20DA
:109F4000D3B29E4203D859D16FF00204BEE701326A
:109F500000FB02F7CF59AF42F2D11A0910A901EB69
:109F6000420203F00F03012101FA03F322F8343C0B
:109F700006A823238DF81830079413F099FD0028C4
:109F8000A2D1242306A807948DF8183013F090FD71
:109F90000446002898D12846BCE7CDB90723ADF880
:109FA0000C3006A823238DF81830079413F080FD99
:109FB000002889D1242306A88DF81830079413F0BF
:109FC00077FD002880D128460AF0B2F904467DE7E3
:109FD0001E2306A88DF8183013F01CFC0799334691
:109FE0000C2000FB03F28A58AA4203D1012202FA94
:109FF00003F3D4E70133042BF3D1A5E7002465E78D
:10A00000014B1868704700BFBC1C0020014BB3F91E
:10A0100000007047EC1E0020014B93F900007047D0
:10A02000041F002070B5094E3478944228BF1446AE
:10A03000054622460846064922F014FF054B1A78C9
:10A040002A7000221A703270204670BDCC1E00208B
:10A05000CC1D0020CD1E0020014B1878704700BF9A
:10A06000CB1D002030B58BB00C46054603F003F83D
:10A0700003F015F8B8B12D2368468DF800308DF83F
:10A08000045013F015FD38B9094B9D6074B1284692
:10A0900009F050FF0BB030BD03280CBF6FF0020079
:10A0A0006FF00600F6E76FF01000F3E72046F1E7E7
:10A0B00004010020F0B5044601468BB0022004F0F4
:10A0C00023FF2378013B0B2B4AD8DFE813F00C0069
:10A0D000490049004900D1004900490049008C006D
:10A0E0004900F400B90065787A4E7B4F002D39D1D4
:10A0F0007A480AF079FD28460AF080FF356002F0C0
:10A10000E7FE02280AD18DF8040068468DF8005059
:10A1100013F0CEFC10B172480AF066FD3B680BB13B
:10A120000020984709F000FF0021FFF79BFF02F095
:10A13000CFFEFFF782F898B1342368468DF80030DF
:10A1400013F068FB684613F065FB002847D16548AB
:10A150000AF04AFD019B6448D3F8E4100AF044FD7C
:10A160000BB0F0BD022D1CD0EB1E012B1BD85F489D
:10A170000AF03AFD00200AF041FF356801353560EC
:10A1800002F05FFF854213D9002333603B6823B19F
:10A190005748637843600AF017FF564BDB6A9847CD
:10A1A000C5E75548E4E7294654480AF01DFDE1E7B4
:10A1B0000022534910460AF01DFF054648B902F037
:10A1C0003CFF4FF47A7141432A4628460AF014FFB7
:10A1D000DCE740F2222149480AF006FDD6E749486B
:10A1E0000AF002FDBCE7484D64782E78DCB9012EF8
:10A1F00009D146480AF0F8FC454B1B680BB12046D4
:10A20000984700232B7002F063FE0128A8D1414B30
:10A210001A78042AA4D018700B2368468DF80030F1
:10A2200014F0F2F89CE7012E9AD13B480AF0DCFCCE
:10A23000374B1B680BB13046984700232B708FE7D4
:10A240006378002B8CD1334A8DF800300421012330
:10A25000684611708DF8043013F02AFC00287FF452
:10A260007FAF2E480AF0C0FC0220FFF7C1FC77E761
:10A270002B4B01221A702B4B227A1A702A4B627ACE
:10A280001A706378294C2370002B3FF469AF28487B
:10A290000AF0AAFC274B1A68002A3FF461AF26484F
:10A2A00023780370002343708370838083710BB025
:10A2B000BDE8F04010476378002B3FF451AF1F48D2
:10A2C0000AF092FC134B1A78042A1CBF03221A705E
:10A2D0000923A2E7A41C0020F01E0020E0060308CA
:10A2E000EE0603083F0703085507030803070308A2
:10A2F000F0000020FC2B030821070308EE040308EC
:10A300006D990008BC060308051F002064070308B8
:10A31000001F0020C41C0020760703088C070308D8
:10A32000D61E0020451C0020A01C0020D71E0020A7
:10A3300097070308F41E0020CE1E0020E104030846
:10A3400070B58AB00C46054602F095FE02F0A7FEF5
:10A35000C8B12E236EB268468DF800308DF80460C7
:10A3600013F0A6FB40B90A4B83F8246074B1284669
:10A3700009F070FE0AB070BD03280CBF6FF0020038
:10A380006FF00600F6E76FF01000F3E72046F1E704
:10A390000401002030B58BB00D46044602F06BFE80
:10A3A00002F07DFE002843D002F0B9FCB8B10023D2
:10A3B00068468DF8003013F02DFA10B16FF00600EA
:10A3C00011E09DF80430012B1ED0022B2BD0002B66
:10A3D000F4D1012C09D0022C0BD0002CEED155B3B6
:10A3E000204609F095FD0BB030BD144B00221A70C9
:10A3F000F5E7134B8DF8044001221A70684613F0FC
:10A4000057FB0028EBD0D9E7012CF7D0022C05D060
:10A41000002CD3D100238DF80430EFE7084A8DF8E3
:10A4200004401370EAE7012CDFD0022CF0D1D6E70C
:10A430006FF01000D7E72846D5E700BFC41C002006
:10A44000A051002030B58FB00D46044602F013FE37
:10A4500002F025FE002800F0A58001238DF81030C1
:10A46000002C4DD18DF8143004A813F021FB0028E6
:10A470004AD1002C53D11021684609F03BFC0F2330
:10A4800004A88DF81030CDF814D013F011FB00287B
:10A490003AD10421684609F055FC07238DF81030A5
:10A4A000009B04A81BBA059313F002FB60BB1021AC
:10A4B000684609F0A5FC0C2304A88DF81030CDF8EF
:10A4C00014D013F0F5FAF8B90D2304A88DF8103064
:10A4D000CDF814D013F0ECFAB0B90E2304A88DF81F
:10A4E0001030CDF814D013F0E3FA68B909F00AFD82
:10A4F0002146FFF74FFF48B9002D45D1284605E01A
:10A5000004A813F087F918B16FF006000FB030BD42
:10A510009DF81430012B08BF8DF81400A4E7082122
:10A52000684609F037FC022304A88DF81030CDF8F6
:10A5300014D013F0BDFA0028E6D10821684609F0CE
:10A5400089FB032304A88DF81030CDF814D013F044
:10A55000AFFA0028D8D11021684609F0A3FB0823E0
:10A5600004A88DF81030CDF814D013F0A1FA00280B
:10A57000CAD1092304A88DF81030CDF814D013F0F7
:10A5800097FA0028B8D0BFE709F098FCA04205D0A0
:10A5900009F0DAF909F0CEF902F03EFF204609F0A1
:10A5A00093FCB3E76FF01000B0E710B5012100B1E4
:10A5B0000846FFF747FF4FF0FF33BDE810401A464B
:10A5C00019460120FFF796B870B5044D06460446BB
:10A5D0000FCD0FC42B682360304670BDA81C00202F
:10A5E000014B1878704700BFC41C0020014B18783D
:10A5F000704700BF051F002010B5044602F08FFB16
:10A6000028B1012C06D8054B00201C7010BD6FF03E
:10A610000B00FBE76FF00200F8E700BF051F00200A
:10A6200038B504460D46032829D8DFE800F0021F9C
:10A63000222503F045FB10B3124B134A43F82400C4
:10A64000426253F824201149916253F824201049A2
:10A65000D16253F824200F49116353F824300E4976
:10A660005B682846F2229847002038BD03F016FCAC
:10A67000E1E703F0BBFEDEE704F0DCF8DBE74FF0D8
:10A68000FF30F2E78C5100205192000859950008E4
:10A69000ABA500085DEE0008531B002000B58BB091
:10A6A00030238DF8003068461923019313F000FA27
:10A6B0000BB05DF804FB0000F0B58FB00546FDF768
:10A6C00071F802F01BFB012828D002F067F9002482
:10A6D00002F0FEFB022805D002F01FFB10B1AB4BCD
:10A6E000DB6A984702F00AFB012814D19CB902F0FA
:10A6F000A0FC80B102F099FC054602F09AFC0646E7
:10A7000002F09BFC074602F09CFC3A4603463146A9
:10A710002846FEF7EFFF20460FB0F0BDCDB917F089
:10A720008FFC9B489B4B03609B4B43609B4B9C491E
:10A7300083609C4BC3600023C1E900339A4B8B605C
:10A740002A469A4BCB6012F001FE88B16FF00604E6
:10A75000BEE7142D04D1022017F072FC0025E0E7BB
:10A76000152D01D10320F7E7162DDAD10420F3E7E8
:10A770008F4B01221A7035238DF8103004A88D4BB1
:10A78000059313F095F90028E0D16B1E012B03D936
:10A7900005F0FD03082B29D1002301A8ADF80230F4
:10A7A00009F03AFA0446002892D1BDF8023001AA15
:10A7B0000146012412F8016B26B104FA00F10B43A3
:10A7C0009BB2012101300C28F4D109B1ADF802305F
:10A7D00002F053FC0146002800F0B78002F04DFC67
:10A7E000FFF75EFB044600287FF472AF052D00F0F2
:10A7F000B18009F063FB0021FFF724FE0446002826
:10A800007FF466AF01F090FA044600287FF460AF51
:10A8100009F078FB2146FFF7BDFD044600287FF4D0
:10A8200057AF09F05DFB214602F0BBFC044600284F
:10A830007FF44EAF09F078FB2146FFF713FC044686
:10A8400000287FF445AF09F081FB214602F0B1FDFD
:10A85000044600287FF43CAF09F0BAFB214602F021
:10A8600082FD09F085FB214602F0C1FC0446002868
:10A870007FF42EAF09F0B2FB214602F0F6FC04464D
:10A8800000287FF425AF09F0BBFB214602F00DFD47
:10A89000044600287FF41CAF09F0D6FB2146FFF7E1
:10A8A0004FFD044600287FF413AF09F055FE002148
:10A8B00002F017FB044600287FF40AAF342304A8F3
:10A8C0008DF8103012F0A6FF059D02F0CAFBA8809B
:10A8D00002F0CFFB003818BF012085F8AF0102F06D
:10A8E0001CFA002843D0344818F044FE33481FF0C7
:10A8F000BFF9FFF7D3FE12F005FF054600287FF4ED
:10A9000025AF2F492F4804F095FA2F492846FFF725
:10A9100087FE014600287FF419AF0120FFF780FE73
:10A92000014600287FF412AF0220FFF779FE0028CD
:10A930007FF40CAF25490320FFF772FE00287FF457
:10A9400005AF234803F070FDC2E60DF10200FEF7EB
:10A9500034FE47E702F091FB00283FF44AAF0020A5
:10A96000FFF79EFA044600283FF443AFB0E602F03A
:10A9700053FD02F0ABFA0028B5D009F0D5FA214614
:10A98000FFF770FB0028AED0A2E600BFFC2B030847
:10A99000901C002055930008219C0008B5A00008D9
:10A9A000801C002025940008D5920008BD92000864
:10A9B000CA1D002000030001D8000020E000002094
:10A9C000501C0020A0000020601C0020701C0020F3
:10A9D00045920008F0B58BB00646FCF7F7FEC0B212
:10A9E000002800F08180022E04D16FF01004204670
:10A9F0000BB0F0BD042EF8D002F03DFBB04200F0E9
:10AA00009F80304602F04BFB0028EED0FEF791FC11
:10AA1000044618B14B4B1B78002BE8D101F0B6F976
:10AA20000028E4D109F084FC07460028DFD1002E7D
:10AA30005FD1012017F004FB3546434943482A46BD
:10AA400012F084FC002878D12C2368468DF8003061
:10AA500012F0E0FE002870D19DF8040009F06AFAB7
:10AA600004460028C3D1202768468DF8007012F0F4
:10AA7000D1FE002861D19DF8080009F06DFA044666
:10AA80000028B4D168468DF8007012F0C3FE00288B
:10AA900053D1019809F090FA04460028A7D12F233A
:10AAA00068468DF8003012F0B5FE002845D19DF8BB
:10AAB000040009F0CFFA0446002898D16B1EDBB2DF
:10AAC000012B28D905F0FD03082B24D0002E18BF38
:10AAD0003546284609F094F80446002887D12846D0
:10AAE000FFF7EAFD044682E7022E85D0042E83D0CC
:10AAF0007BE7142E04D1022017F0A2FA3D469CE712
:10AB0000152E01D10320F7E7162E01D10420F3E71B
:10AB10003546064691E7242368468DF8003012F04A
:10AB200079FE50B9019809F081F8044600287FF4B5
:10AB30005EAF09F0FDFB0028C8D06FF0060456E7B1
:10AB4000002454E7CA1D0020801C0020901C002017
:10AB500038B502F0D3F8012809D008F089FDD8B142
:10AB60001D491E480AF040F86FF0060412E002F09A
:10AB700082FAA0F11403DBB2022B054698BF002530
:10AB8000FEF7D7FB04460028E7D0284616F0F5FE6E
:10AB90000028E2D0204638BD01F0F8F80028E3D1C3
:10ABA00002F0ACF8012801D00024F3E702F063FAC8
:10ABB000A0F11403DBB2022B054698BF002502F07A
:10ABC0005AFAFFF779FD04460028EDD0284616F022
:10ABD000D4FE0028E8D0DDE7E4090308B207030843
:10ABE00013B5064C6368984728B9E36A019302B02D
:10ABF000BDE81040184702B010BD00BFFC2B030891
:10AC0000014B5B68184700BFFC2B030808B5034BDA
:10AC10005B689847003818BF012008BDFC2B03086B
:10AC200008B509F001FF024A13680133136008BD3B
:10AC300064220020F7B5164C164E2368164D306876
:10AC40002F68013B2360154B21681A686423434336
:10AC5000511A3844B3FBF0F3114809F0C5FF2368DB
:10AC600010493BB14B6B019341F2883003B0BDE812
:10AC7000F04018470C48336002782B600B6B01934F
:10AC800022F00802027003B0BDE8F040184700BF90
:10AC90005C2100202C1F0020301F0020602100209C
:10ACA0001C0A0308FC2B0308341F0020024A136807
:10ACB00001331360FFF7BEBF2C1F0020FFF7F6BF64
:10ACC00010B5064C206801302060114604481A4631
:10ACD00009F08AFFBDE81040FFF7ACBF301F00202D
:10ACE0003A0A0308F8B52D4D2D4F2B78BA6A2D4C32
:10ACF0002D4E002B33D0236D2C48013B2365E17D85
:10AD00009047616C2A4809F06FFF3268216D29482D
:10AD1000511A09F069FFE26C636C13446364626C5E
:10AD2000A36C9A4282BF244B1B686364606CFB680F
:10AD30009847236D23B1BDE8F840204810F0D6B9FC
:10AD40001F4A1E48137823F00403137010F01EF9F5
:10AD500010B11A4810F07AF900232B70F8BD194D84
:10AD600012482B68013B2B60E17D904732682968CF
:10AD70001048511A09F038FF2B68002BDBD1104A1C
:10AD80000E48137823F00403137010F0FFF8002826
:10AD9000E4D0BDE8F840094810F058B95821002027
:10ADA000FC2B030804010020602100206421002006
:10ADB0005D0A03086F0A030854210020381F002091
:10ADC000341F00205C210020F8B52E4D2E4F2B782B
:10ADD000BA6A2E4C2E4E002B35D0236D2D48013BE8
:10ADE0002365E17D9047616C2B4809F0FDFE3268D8
:10ADF000216D2A48511A09F0F7FE226D33689B1A1B
:10AE0000274A1278B3FBF2F102FB1133254A52F8BC
:10AE100023306364606CFB689847236D23B1BDE801
:10AE2000F840214810F062B9204A1F48137823F0F7
:10AE30000403137010F0AAF810B11B4810F006F9C3
:10AE400000232B70F8BD1A4D12482B68013B2B6074
:10AE5000E17D9047326829681048511A09F0C4FE14
:10AE60002B68002BDBD1114A0F48137823F0040321
:10AE7000137010F08BF80028E4D0BDE8F8400A48C1
:10AE800010F0E4B858210020FC2B03080401002036
:10AE900060210020642100205D0A03086F0A030876
:10AEA000501F0020541F0020381F0020341F002096
:10AEB0005C21002010B5094B1B6813B1084B1B6DBA
:10AEC0003BB9084C236823B109F0B6FD2368013B68
:10AED0002360BDE81040044809F086BE5C210020D4
:10AEE00004010020642200208B0A030870B50D4C79
:10AEF000C00000220221824200D170BDC1F30013C4
:10AF000083EA1123D51043EA410302F00706C3F395
:10AF1000080103F00103B340665D3343635501321A
:10AF2000E9E700BF64210020064B10B5064C1B6BFF
:10AF30009847236823B109F07FFD2368013B236014
:10AF400010BD00BFFC2B03086422002038B50D4D56
:10AF5000287810F0010411D1FFF762FE2B7843F03E
:10AF600001032B70084B186B93F82410074B4FF616
:10AF7000FF72DB6B49B29847204638BD6FF0050081
:10AF8000FBE700BF341F002004010020FC2B030856
:10AF90000F4B104810B500221A700FF0F7FF10B1D8
:10AFA0000C4810F053F80C480FF0F0FF10B10A48AD
:10AFB00010F04CF8094B0A4CDB6A9847236803B938
:10AFC00010BD09F039FD2368013B2360F6E700BF9F
:10AFD000341F0020381F00205C230020FC2B0308B6
:10AFE000642200202DE9F04F284A137899078DB08C
:10AFF000064648D4264C274D206B43F002031370BD
:10B00000EB689847206894F82410A26A6368A768E0
:10B010000A9394F80CB00B97A78A94F816C094F88A
:10B0200018E094F8198094F81A9094F81BA0E36A39
:10B03000BFB2CDE907A30B9B0093CDE901B70A9BF3
:10B04000EF69CDE90589CDE903CE49B2C0B2B84771
:10B05000636BB3B96B6B6FF07F409847322009F098
:10B0600025FB2B6C00209847EB6A30809847074AF5
:10B07000B6F90000137823F0020313700DB0BDE899
:10B08000F08F6B6EE7E76FF00500F7E7341F0020E5
:10B0900004010020FC2B030810B50446FFF7C0FD97
:10B0A000226B144B1344144A934220D894F8243052
:10B0B0000933DBB21F2B1AD86368062B17D8A36895
:10B0C000053B072B13D8237B013B032B0FD82368A9
:10B0D000022B0CD8A36A094AA3F59653934206D8CB
:10B0E00007485422214609F0C0FF002010BD6FF030
:10B0F0000200FBE7802E0FF7809E4730780D070097
:10B100000401002008B50349542209F0AEFF0020D5
:10B1100008BD00BF040100202DE9F04F324C257816
:10B120008DB015F004050B905BD1FFF779FD237806
:10B130002E482F4E43F00403237009F055FD2D488F
:10B140002D4B03602D4B83602D4B43602D4B2E4CBC
:10B15000C3602E4B036133689847E07DFFF7C6FE5E
:10B16000206BF3689847206894F82410A26A6368FB
:10B17000A7680A9794F80CC0A78A94F816E094F888
:10B18000188094F8199094F81AA094F81BB0E46A07
:10B19000BFB2CDE907B40A9C0094CDE903E8CDE93C
:10B1A00001C749B2C0B2CDE9059AF469A047184B6E
:10B1B0000B9A1A601A68174B17481A604FF0FF3144
:10B1C000164B00952A460FF0C7FE4FF4FA7112484D
:10B1D0000FF0C6FF10480FF089FF28460DB0BDE8FC
:10B1E000F08F6FF00500F9E7341F0020960A03087E
:10B1F000FC2B0308081F0020B5AE0008C1AC0008F6
:10B2000029AF0008ADAC000804010020BDAC000867
:10B210005C21002060210020381F0020E5AC0008E0
:10B220002DE9F04F2C4D0446287810F008088DB019
:10B230004FD1002C4DDDFFF7F3FC2B78274843F06E
:10B2400008032B70264B0360264B8360264B274D4B
:10B250004360274BC360274B03612B689847264BFD
:10B260001C601A68254C264B206B1A60EB689847C7
:10B2700020686168A268237B26690A96A68A276AE5
:10B2800094F816C094F817E094F81890CDF82C9024
:10B2900094F8199094F81AA094F81BB0247FCDF874
:10B2A0000CC0CDE908B40B9CB6B2CDE904E4BFB242
:10B2B0000A9C0094C0B2CDE9069ACDE90167AC6959
:10B2C000A04741F288306B6B984740460DB0BDE80F
:10B2D000F08F6FF00500F9E7341F0020081F0020F1
:10B2E000B5AE0008C1AC000829AF0008FC2B03086C
:10B2F000ADAC0008BDAC00085C21002004010020BA
:10B30000602100202DE9F04F364C257815F004051A
:10B310008DB0074663D1FFF783FC23783248334E64
:10B3200043F004032370324B324C01221A70324B2B
:10B330000360324B8360324B4360324BC360324B0D
:10B340000361336898477B6C6364BB6CA364FB6CDC
:10B35000E3643B6D2365E07DFFF7C8FD2B4B626C1A
:10B360001A602B4B226D1A60606CF3689847206856
:10B3700094F82410A26A6368A7680B9794F80CC02D
:10B38000A78A94F816E094F8188094F8199094F825
:10B390001AA094F81BB0E46ABFB2CDE907B40B9CC5
:10B3A0000094CDE903E8CDE901C749B2C0B2CDE9C7
:10B3B000059AF469A047174B174800952A464FF0A5
:10B3C000FF310FF0C9FD4FF4FA7113480FF0C8FEBA
:10B3D00011480FF08BFE28460DB0BDE8F08F6FF0DE
:10B3E0000500F9E7341F0020081F0020FC2B03088C
:10B3F0005821002004010020B5AE0008C1AC0008AF
:10B4000029AF0008ADAC0008BDAC000854210020F5
:10B4100060210020E5AC0008381F00202DE9F04F26
:10B42000944D297811F004048BB0064640F01E813B
:10B43000DFF84482FFF7F4FB214690484FF4007296
:10B4400021F038FD88F80040214623468B4C8029A6
:10B45000CAB203D19BB188F8001009E0F06C736C9C
:10B4600000FB0133B06C83421CD9013A88F80020FC
:10B4700000276FF0004998F80030BB4217DC01F05C
:10B48000FAFD7F4B0A2800F2EE80DFE810F04A0058
:10B49000B600BC00C200C800CE00D400DA00E00054
:10B4A000EC00E60044F8213001310123CFE709F038
:10B4B000B5FD98F8002054F82710D31B99FBF3F33F
:10B4C000013390FBF3F33B449F4208BF002354F841
:10B4D0002300414044F8271054F8271054F8230063
:10B4E000414044F8231054F8271054F823004140F9
:10B4F00044F8271054F8231054F82200414044F82F
:10B50000231054F8231054F82200414044F822102C
:10B5100054F8231054F822204A4044F823200137DD
:10B52000A9E79A68574998688F56574919F0C2FF9A
:10B5300004462B785548DFF8588143F004032B70FC
:10B54000544B4F4D01221A70534B0360534B836091
:10B55000534B4360534BC360534B0361D8F80030E7
:10B560009847464B1B686B64B36CAB64F36CEB643D
:10B57000336D2B65E87DFFF7B9FC4C4B6A6C1A60A4
:10B580004B4B2A6D1A60686CD8F80C3098472868C5
:10B5900095F82410AA6A2E7BAB8A95F816C095F808
:10B5A00018E095F8199095F81AA095F81BB0ED6A77
:10B5B00000979BB2CDE903CECDE907B5CDE9016394
:10B5C00049B22346C0B20024CDE9059AD8F81C50F0
:10B5D000A847384B3848009422464FF0FF310FF00F
:10B5E000BBFC4FF4FA7134480FF0BAFD32480FF04B
:10B5F0007DFD20460BB0BDE8F08F9A682F49986812
:10B600008F562F4992E79A682E4998688F562E498F
:10B610008CE79A682D4998688F562D4986E79A6875
:10B620002C4998688F562C4980E79A682B4998686E
:10B630008F562B497AE79A682A4998688F562A4983
:10B6400074E79A68294998688F5629496EE79A687D
:10B65000284998688F56284968E79A682749986862
:10B660008F56274962E70024072762E76FF005003D
:10B67000C0E700BF341F0020501F0020541F0020CF
:10B6800004010020380C0308A00A0308081F00204A
:10B69000FC2B030858210020B5AE0008C1AC0008FF
:10B6A00029AF0008ADAC0008BDAC00085421002053
:10B6B00060210020C9AD0008381F0020400C03089D
:10B6C000C00A0308380C0308000B0308380C0308F1
:10B6D000200B0308380C0308400B0308380C030840
:10B6E000600B0308500C0308A00B0308380C030878
:10B6F000800B0308560C0308F80B0308400C0308E2
:10B70000B80B030808B503490C2209F0AEFC002071
:10B7100008BD00BFF800002038B505460B4CFFF708
:10B720007FFAAB68A3602B68094823606B68094DFA
:10B730006360094B43602B6898472068EB6B228954
:10B7400094F904109847002038BD00BFF80000208D
:10B75000081F0020FC2B030829AF000810B58AB091
:10B7600088B301F0DAFA0128044609D101F0D7FACA
:10B7700030B94FF0FF331A4619462046FDF7BAFF9D
:10B78000002013F0D9FD01221149042009F032FCF8
:10B79000024698B941F28831042009F02DFC462375
:10B7A000012468468DF800308DF8044012F080F9CD
:10B7B000204601F05AFC00200AB010BD4721054880
:10B7C00009F012FAEBE7042009F018FCF3E700BFD8
:10B7D00085B80008770403082DE9F043254D264E6F
:10B7E000264FDFF89C8085B0062301223370AA70B3
:10B7F000002302222B706B70EA702B716B718DF835
:10B8000008008DF809308DF80B304FF0E00957F83B
:10B81000042BDCB2B2B11369A3B1204603F06AFB7A
:10B8200080B157F8043CDB68984758B198F80A2073
:10B83000D8F80C10284621F015FB98F80A30337020
:10B840008DF80890631CDAB2042A5BB2DFD10023C2
:10B85000009304AB13E90C0031780648FEF78EF82C
:10B8600020B9074B587005B0BDE8F0834FF0FF30AA
:10B87000F9E700BF682200205A2300208C510020E5
:10B88000182B002010B501F048FA0128044609D110
:10B8900001F045FA30B94FF0FF331A4619462046F9
:10B8A000FDF728FFBDE810400220FFF795BF00001C
:10B8B000F0B54FF4807285B000213948394D3A4CCB
:10B8C00021F0F8FA00232B7011F070F980B2C8282B
:10B8D00084BF143880B2E36806389842606143D36D
:10B8E0000021A17023712B782D4E2278F2545A1C1E
:10B8F000D2B26078B0549A1CD2B2A078B054DA1C9C
:10B90000D2B2E078B054581D0433DBB22279F2543D
:10B91000A368C0B219442870304421F0A3FA2B78F0
:10B9200021791944C9B200233046DAB291422FD8A6
:10B930001E4B1B481B788DF8083001238DF80B3007
:10B94000A369003B18BF01238DF80C3000238DF84C
:10B9500009300093013104ABC9B213E90C0029701E
:10B96000FEF70CF805B0F0BD21695B1AB3FBF0F6E9
:10B97000F2B200FB16364EB9A270A278984202F1DC
:10B98000FF3228BF1846A2702071ACE70132F3E7FE
:10B9900016F8012B475C3A4442540133C5E700BF17
:10B9A00074230020742400207C28002075240020AB
:10B9B0000D4A1378BBB10D4B80B9997809B9117054
:10B9C00070471A78197960F341021A70DA780132F7
:10B9D000DA701A690A441A61FFF76ABF1A7842F0EE
:10B9E00002021A70F8E77047982800207C2800208F
:10B9F0002DE9F8431C46431EDBB2DE2B0E460546FE
:10BA000011462AD8B4F5806F27D8164F164BDFF8A9
:10BA10005C904FF001082246384683F8008021F000
:10BA200021FAC9F80040124C237823F0030343EABB
:10BA300008032370FF2009F0D5FA00232361D9F809
:10BA40000030E3600B4B607084F80380A760A66150
:10BA50001D70BDE8F843FFF72BBF6FF00200BDE893
:10BA6000F88300BF76240020982800207828002042
:10BA70007C2800207524002084B0F0B58BB010AC79
:10BA800084E80F00684D00238DF803300A4605EB6B
:10BA9000830149688A4200F0C4800D33342BF6D10B
:10BAA000614B00245868E6B2002840F0AF8010AB2C
:10BAB0004FF4807713F8081B8DF87040CDE902230E
:10BAC00016ABCDE9043002294FF6FF7306938DF8CB
:10BAD0001C101A9BADF804708DF8066059D163B341
