:020000040800F2
:1060000000FC0020B96C0008716D0008FD6D0008EF
:10601000696E00086B6E00086D6E000800000000DD
:106020000000000000000000000000006F6E00088B
:10603000716E000800000000736E0008736E0008A7
:10604000456D0008456D0008916E0008456D00081B
:10605000456D0008456D0008E76E0008ED6E00080C
:10606000F36E0008F96E0008FF6E00089D6E0008D0
:10607000A96E0008B56E0008C16E0008456D0008E5
:10608000456D0008456D0008456D0008456D000828
:10609000456D0008456D0008056F0008456D000856
:1060A000456D0008456D0008456D0008456D000808
:1060B000456D0008456D0008456D0008456D0008F8
:1060C0005D2C01085F2C0108456D0008456D000836
:1060D000CD6E0008E56E0008996F0008456D000858
:1060E000456D0008456F0008796E0008456D000891
:1060F000456D0008456D0008456D0008456D0008B8
:10610000456D0008456D0008856E0008B16F0008F8
:10611000456D0008456D0008456D0008456D000897
:10612000456D0008456D0008456D0008456D000887
:08613000456D0008456D0008F3
:1061400010B5054C237833B9044B13B10448AFF3B1
:1061500000800123237010BDD06C002000000000DF
:10616000606B010808B5034B1BB103490348AFF34B
:10617000008008BD00000000D46C0020606B0108A6
:1061800010F8012B11F8013B012A28BF9A42F7D0E1
:10619000D01A7047034613F8012B002AFBD1181AB6
:1061A00001387047000000000000000000000000FF
:1061B00001F0FF01102A2BDB10F0070F08D010F8B8
:1061C000013B013A8B422DD010F0070F42B3F6D1BC
:1061D000F0B441EA012141EA014122F007047FF0D5
:1061E00000070023F0E80256083C85EA010586EA2C
:1061F000010685FA47F5A3FA87F586FA47F6A5FA68
:1062000087F68EB9EED1F0BC01F0FF0102F0070273
:1062100032B110F8013B013A83EA010313B1F8D11E
:106220000020704701387047002D06BF35460338FF
:10623000073815F0010F07D1013015F4807F02BF38
:10624000013015F4C03F0130F0BC0138704700BF89
:1062500070B54FF0FF0C4CF4E06C1CEA11541DBFFC
:106260001CEA135594EA0C0F95EA0C0F00F0DEF8C7
:106270002C4481EA030621EA4C5123EA4C5350EAAC
:10628000013518BF52EA033541F4801143F48013FD
:1062900038D0A0FB02CE4FF00005E1FB02E506F08E
:1062A0000042E0FB03E54FF00006E1FB03569CF0E3
:1062B000000F18BF4EF0010EA4F1FF04B6F5007FE9
:1062C00064F5407404D25FEA4E0E6D4146EB06065B
:1062D00042EAC62141EA55514FEAC52040EA5E50E4
:1062E0004FEACE2EB4F1FD0C88BFBCF5E06F1ED88E
:1062F000BEF1004F08BF5FEA500E50F1000041EBC5
:10630000045170BD06F0004646EA010140EA020071
:1063100081EA0301B4EB5C04C2BFD4EB0C0541EA93
:10632000045170BD41F480114FF0000E013C00F3A8
:10633000AB8014F1360FDEBF002001F0004170BDCC
:10634000C4F10004203C35DA0C341BDC04F11404E5
:10635000C4F1200500FA05F320FA04F001FA05F271
:1063600040EA020001F0004221F0004110EBD3703E
:1063700021FA04F642EB06015EEA430E08BF20EA6A
:10638000D37070BDC4F10C04C4F1200500FA04F30D
:1063900020FA05F001FA04F240EA020001F000419F
:1063A00010EBD37041F100015EEA430E08BF20EA12
:1063B000D37070BDC4F1200500FA05F24EEA020E5A
:1063C00020FA04F301FA05F243EA020321FA04F089
:1063D00001F0004121FA04F220EA020000EBD37040
:1063E0005EEA430E08BF20EAD37070BD94F0000F40
:1063F0000FD101F00046400041EB010111F4801F74
:1064000008BF013CF7D041EA060195F0000F18BF24
:10641000704703F00046520043EB030313F4801F60
:1064200008BF013DF7D043EA0603704794EA0C0F1A
:106430000CEA135518BF95EA0C0F0CD050EA410630
:1064400018BF52EA4306D1D181EA030101F00041AD
:106450004FF0000070BD50EA410606BF10461946D5
:1064600052EA430619D094EA0C0F02D150EA0136E1
:1064700013D195EA0C0F05D152EA03361CBF104622
:1064800019460AD181EA030101F0004141F0FE41C1
:1064900041F470014FF0000070BD41F0FE4141F445
:1064A000780170BD70B54FF0FF0C4CF4E06C1CEA45
:1064B00011541DBF1CEA135594EA0C0F95EA0C0FFA
:1064C00000F0A7F8A4EB050481EA030E52EA0335B5
:1064D0004FEA013100F088804FEA03334FF08055D6
:1064E00045EA131343EA12634FEA022245EA111503
:1064F00045EA10654FEA00260EF000419D4208BFB4
:10650000964244F1FD0404F5407402D25B084FEA60
:106510003202B61A65EB03055B084FEA32024FF40C
:1065200080104FF4002CB6EB020E75EB030E22BF69
:10653000B61A754640EA0C005B084FEA3202B6EB29
:10654000020E75EB030E22BFB61A754640EA5C00D8
:106550005B084FEA3202B6EB020E75EB030E22BF68
:10656000B61A754640EA9C005B084FEA3202B6EB69
:10657000020E75EB030E22BFB61A754640EADC0028
:1065800055EA060E18D04FEA051545EA16754FEA8A
:1065900006164FEAC30343EA52734FEAC2025FEAA8
:1065A0001C1CC0D111F4801F0BD141EA00014FF037
:1065B00000004FF0004CB6E711F4801F04BF014308
:1065C0000020B4F1FD0C88BFBCF5E06F3FF6AFAE24
:1065D000B5EB030C04BFB6EB020C5FEA500C50F1B4
:1065E000000041EB045170BD0EF0004E4EEA113137
:1065F00014EB5C04C2BFD4EB0C0541EA045170BD3E
:1066000041F480114FF0000E013C90E645EA060E81
:106610008DE60CEA135594EA0C0F08BF95EA0C0FAF
:106620003FF43BAF94EA0C0F0AD150EA01347FF4F7
:1066300034AF95EA0C0F7FF425AF104619462CE7CE
:1066400095EA0C0F06D152EA03353FF4FDAE104631
:10665000194622E750EA410618BF52EA43067FF482
:10666000C5AE50EA41047FF40DAF52EA43057FF412
:10667000EBAE12E74FEA410C7FEA6C5C02D150EAC4
:10668000013C0AD14FEA430C7FEA6C5C02D152EA2A
:10669000033C02D14FF0000070474FF001007047FB
:1066A0004FF0FF0C1CEAD0521EBF1CEAD15392EAF5
:1066B0000C0F93EA0C0F6FD01A4480EA010C4002D1
:1066C00018BF5FEA41211ED04FF0006343EA50102B
:1066D00043EA5111A0FB01310CF00040B1F5000F6D
:1066E0003EBF490041EAD3715B0040EA010062F11C
:1066F0007F02FD2A1DD8B3F1004F40EBC25008BF06
:1067000020F00100704790F0000F0CF0004C08BF23
:1067100049024CEA502040EA51207F3AC2BFD2F1F0
:10672000FF0340EAC250704740F400004FF00003FE
:10673000013A5DDC12F1190FDCBF00F00040704738
:10674000C2F10002410021FA02F1C2F1200200FA76
:1067500002FC5FEA310040F1000053EA4C0308BF3D
:1067600020EADC70704792F0000F00F0004C02BF8E
:10677000400010F4000F013AF9D040EA0C0093F009
:10678000000F01F0004C02BF490011F4000F013B63
:10679000F9D041EA0C018FE70CEAD15392EA0C0FD1
:1067A00018BF93EA0C0F0AD030F0004C18BF31F03C
:1067B000004CD8D180EA010000F00040704790F012
:1067C000000F17BF90F0004F084691F0000F91F0B6
:1067D000004F14D092EA0C0F01D142020FD193EA7C
:1067E0000C0F03D14B0218BF084608D180EA010004
:1067F00000F0004040F0FE4040F40000704740F0E0
:10680000FE4040F4400070474FF0FF0C1CEAD052AD
:106810001EBF1CEAD15392EA0C0F93EA0C0F69D009
:10682000A2EB030280EA010C49024FEA402037D074
:106830004FF0805343EA111143EA10130CF000406B
:106840008B4238BF5B0042F17D024FF4000C8B425B
:1068500024BF5B1A40EA0C00B3EB510F24BFA3EB3B
:10686000510340EA5C00B3EB910F24BFA3EB91030B
:1068700040EA9C00B3EBD10F24BFA3EBD10340EA65
:10688000DC001B0118BF5FEA1C1CE0D1FD2A3FF6AB
:1068900050AF8B4240EBC25008BF20F00100704760
:1068A0000CF0004C4CEA50207F32C2BFD2F1FF0303
:1068B00040EAC250704740F400004FF00003013A34
:1068C00037E792F0000F00F0004C02BF400010F4D8
:1068D000000F013AF9D040EA0C0093F0000F01F0EC
:1068E000004C02BF490011F4000F013BF9D041EA0E
:1068F0000C0195E70CEAD15392EA0C0F08D1420241
:106900007FF47DAF93EA0C0F7FF470AF084676E713
:1069100093EA0C0F04D14B023FF44CAF08466EE7EC
:1069200030F0004C18BF31F0004CCAD130F00042BA
:106930007FF45CAF31F000437FF43CAF5FE700BF12
:1069400010B59AB04822002108A80DF0FDF81822D1
:10695000002102A80DF0F8F820F026FD4FF0B0421B
:106960000024D2F8903023F01803C2F89030D2F807
:10697000003423F4C06343F40073C2F80034D2F847
:106980000034119403F4C06301934FF48072019BAF
:106990000C922E234022089381230B930D92012306
:1069A000B02208A8CDE90E341093129213941EF071
:1069B000ADF908B119F016FE4F23022102A8CDE966
:1069C0000234CDE90444CDE906441EF041FC08B18F
:1069D00019F008FE1AB010BD13B50378082B00F2A9
:1069E000A280DFE803F013848BA0949405A09A00A2
:1069F0000479204619F040FF204605F0FFFA0021F7
:106A0000204602B0BDE8104019F03EBF002019F04A
:106A100033FF012826D1012019F02EFF012804D0D0
:106A200001200AF0FFF900282ADC022019F024FFD7
:106A3000012804D002200AF0F5F900283BDC02B05E
:106A400010BD012201A900200AF0B4F8002019F0BD
:106A500013FF044630B90AF0C1F948B99DF8041093
:106A600005F038FA00200AF0DDF90028E9DCD2E769
:106A70000128F7D19DF8041020460AF009F9F1E742
:106A8000012201A910460AF095F8012019F0F4FE40
:106A90000028C5D101200AF0A1F928B99DF80410F9
:106AA000012005F017FABBE70128B9D19DF80410C1
:106AB0000AF0EEF8B4E7012201A902200AF07AF800
:106AC000022019F0D9FE0028B4D102200AF086F97C
:106AD00028B99DF80410022005F0FCF9AAE7012866
:106AE000A8D19DF8041002200AF0D2F8A2E728F0FD
:106AF000F7F802B0BDE8104018F04EBB0E4B1B6813
:106B0000002B9CD0406802B0BDE810401847406898
:106B100002B0BDE810400AF01BBA406802B0BDE800
:106B2000104009F0B5BE054B1B6E002B87D002B09C
:106B3000BDE81040184700BF0C81002078A9030869
:106B400030B52D4B2D4A9A6085B01DF013FEFFF72E
:106B5000F7FE4FF0B0430B209A6C42F004029A64A7
:106B60009A6C02F004020392039A9A6C42F00102BA
:106B70009A649B6C002203F0010311460293029B6E
:106B80001BF0FEF80B201BF02DF90AF0D5F909F0E7
:106B900039FE19F0E9FF0024014605462346032289
:106BA0000120CDE9004409F02BFF234603222946AA
:106BB0000220CDE9004409F023FF1AF0CDFD1AF0C0
:106BC00071F802F0FFFCE5B2284619F055FE10B945
:106BD000284605F013FA0134032CF4D10AF094F995
:106BE0001AF0A8FD012804D105B0BDE8304003F03B
:106BF00035BD05B030BD00BF00ED00E0006000080D
:106C000008B50AF08FF9BDE8084018F0C5BA0000D1
:106C100013B5FFF795FF4FF0B043DA6C42F0020274
:106C2000DA64DB6C03F002030193019B0BF00EFDB1
:106C300017F086F9F0B1164801F081FA154B1648A5
:106C40001A68164B196801F07AFA154809F074FFB2
:106C500017F0CAF901280FD002280FD010B9114837
:106C600009F06AFF104CFFF7CBFF237843B90BF014
:106C7000EFFCF8E70D48DFE70D48F1E70D48EFE7D7
:106C800019F042FE0028EED0002009F083FEEAE76A
:106C9000BB6B0108BC020020D16B0108B0020020D0
:106CA000E16B0108F56B0108EC6C0020C66B010874
:106CB000016C01080C6C01081748854619F0A4FC0A
:106CC00016481749174A002302E0D458C450043329
:106CD000C4188C42F9D3144A144C002301E0136009
:106CE0000432A242FBD312481249134A002302E0A5
:106CF000D458C4500433C4188C42F9D30F4A104CF2
:106D0000002301E013600432A242FBD30CF0A0FE8A
:106D1000FFF77EFFFEE7000000FC002000000020DF
:106D2000D0020020B8AF0308D0020020905E0020FF
:106D300000600020D06C002050990108D06C002029
:106D4000B0A7002000F05AB80368074A934206D162
:106D5000DA69D20606D510221A6200F00DBF034A86
:106D60009342F5D0704700BF0080004000380140DA
:106D70004FF0B0434FF0FF319A6B9963DA6BD963F0
:106D80009A6B00229A63D86BDA63186C1964186CDA
:106D90001A64586C5964586C5A64986A9962986A73
:106DA0009A62D86AD962D86ADA62186B1963196B69
:106DB0001A635A6C42F001025A645A6C22F00102C2
:106DC0005A64D3F8902042F48032C3F89020D3F86C
:106DD000902022F48032C3F89020BFF34F8F0549F2
:106DE000054BCA6802F4E0621343CB60BFF34F8FD8
:106DF00000BFFDE700ED00E00400FA054FF0B043EE
:106E00004FF0FF319A6B9963DA6BD9639A6B00226A
:106E10009A63D86BDA63186C1964186C1A64586C2E
:106E20005964586C5A64986A9962986A9A62D86AE6
:106E3000D962D86ADA62186B1963196B1A635A6CD3
:106E400042F001025A645A6C22F001025A64D3F8EB
:106E5000902042F48032C3F89020D3F8902022F49E
:106E60008032C3F89020FEE7FEE7FEE7FEE77047BA
:106E700070471DF095BC000001481FF087B800BFA7
:106E8000D0440020014821F066BB00BFD0020020A2
:106E9000014820F0B5B800BFD0440020014824F0DC
:106EA00091BC00BF607A0020014824F08BBC00BF79
:106EB00094750020014824F085BC00BFF4750020C3
:106EC000014824F07FBC00BFC07A002010B5044CFC
:106ED00020460AF03FFD2046BDE81040FFF734BFD2
:106EE000B07B00207047012021F038BD022021F046
:106EF00035BD042021F032BD082021F02FBD102027
:106F000021F02CBD0E4BDA68920602D5202021F02C
:106F100025BDDA68500601D54020F8E7DA68110689
:106F200001D58020F3E7DA68D20502D54FF48070EE
:106F3000EDE7DB689B0502D54FF40070E7E770478B
:106F400000080058134BDA68510503D54FF48060F0
:106F500021F004BDDA68120502D54FF40060F7E7AE
:106F6000DA68D00402D54FF48050F1E7DA68910472
:106F700002D54FF40050EBE7DA68520402D54FF423
:106F80008040E5E7DB681B0402D54FF40040DFE7F3
:106F9000704700BF0008005810B5044C20460AF0A6
:106FA000D9FC2046BDE81040FFF7CEBE207B002074
:106FB000014823F0DDBD00BF084500204FF0B0437D
:106FC00082B0DA6C0243DA64DB6C18400190019BFA
:106FD00002B070471FB514284FF00003CDE902330B
:106FE0000C460CD8092812D90A380A280FD8DFE82D
:106FF00000F07B0E0E0E0E820E0E74116D00FE2838
:1070000000F08380FF2800F08280FD287AD06FF0A6
:10701000030059E03F4A404B0193137843F00103CA
:1070200013703E483E4A4FF00043C0E900233D4BF9
:1070300004221B688360426100230122C2614FF475
:10704000805106220383C0E90333C0E90933C0E954
:107050000C12837680F8203080F82C30836380F81F
:107060003C30C36409F07CFF08B119F0BBFA2B482F
:107070000AF040FB08B119F0B5FA0023274801A92E
:10708000CDE902330AF0F4F808B119F0ABFA23485D
:107090000AF05AFA08B119F0A5FA0A211F480AF0B5
:1070A00089F81E480AF008FB1C480AF0DEF81E4B5F
:1070B000019A80B29A42208004BF00EB40002080F9
:1070C00016480AF0A5FA002004B010BD114A174B6B
:1070D0000193137843F00203A2E70E4A144B019385
:1070E000137843F004039BE70A4A124B0193137889
:1070F00043F0080394E7074A0F4B0193137843F0DA
:1071000010038DE70D4B01938BE70D4BFBE7064B0F
:10711000F9E700BFED6C002004000008F06C0020CF
:107120000024014004600020004000B80800000C6A
:1071300010000010400000180008002C001000B0E3
:10714000002000B470477047014B1878704700BFAB
:1071500009600020014B1878704700BF08600020CC
:1071600010B5044686B01422002101A80CF0ECFCF6
:1071700022685E4B9A4240F08E804FF0B0435C4CE8
:107180001A6E42F400721A661B6E03F400730093C9
:10719000009B2378DA0708D5132000F02DF9B0F111
:1071A000904F7AD10120FFF709FF23789B0708D57C
:1071B000142000F021F9B0F1904F76D10120FFF7B3
:1071C000FDFE2378580708D5122000F015F9B0F11C
:1071D000904F72D10120FFF7F1FE2378190708D5EF
:1071E0000A2000F009F9B0F1904F6ED10120FFF7AD
:1071F000E5FE2378DA0608D50F2000F0FDF8B0F19F
:10720000904F6AD10120FFF7D9FE00234FF0030C05
:10721000CDE902C32378DB0709D5132000F0F1F88C
:107220000190132000F0E8F801A921F047FA237833
:10723000980709D5142000F0E4F80190142000F01C
:10724000DBF801A921F03AFA2378590709D5122071
:1072500000F0D7F80190122000F0CEF801A921F03B
:107260002DFA23781A0709D50A2000F0CAF80190F0
:107270000A2000F0C1F801A921F020FA2378DB06EA
:1072800009D50F2000F0BDF801900F2000F0B4F8F0
:1072900001A921F013FA06B010BD132000F0ACF8DC
:1072A000144B984281D102207DE7142000F0A4F80D
:1072B000104B984285D1022081E7122000F09CF803
:1072C0000C4B984289D1022085E70A2000F094F8FF
:1072D000084B98428DD1022089E70F2000F08CF8EE
:1072E000044B984291D102208DE700BF0024014059
:1072F000ED6C00200004004838B5334B02689A4218
:1073000060D14FF0B042314C136E23F4007313661A
:107310002378DD070ED5132000F06EF80546132004
:1073200000F06FF80146284621F07AFA237823F01E
:1073300001032370237898070ED5142000F05CF821
:107340000546142000F05DF80146284621F068FA51
:10735000237823F002032370237859070ED51220D7
:1073600000F04AF80546122000F04BF80146284686
:1073700021F056FA237823F00403237023781A07A8
:107380000ED50A2000F038F805460A2000F039F83A
:107390000146284621F044FA237823F0080323709D
:1073A0002378DB060ED50F2000F026F805460F20C7
:1073B00000F027F80146284621F032FA237823F01E
:1073C0001003237038BD00BF00240140ED6C002085
:1073D000034B00221A70034B01221A70704700BF42
:1073E0000F9B00200D9B0020024B53F8203003B16F
:1073F00018477047D4740020000900F590108002EF
:10740000704700F00F030120984080B270470000E1
:107410002F28F8B5054600F28280414E14224243DF
:1074200000F00F040123B018A340B35003294FF01C
:107430000202C2602DD801292ED94FF48812426071
:107440002846FFF7D9FFC76893FAA3F2B2FA82F28F
:10745000510003228A403A4093FAA3F3B3FA83F32C
:107460005B0022FA03F3012B4FF014021ED0022B13
:107470001CD0142101FB056121F020F9D4B90620AC
:10748000224602211AF07CFC0620BDE8F8401AF0E2
:10749000A9BC0439012906D9142202FB05624FF464
:1074A00044115160CCE74FF40412C8E702FB0562B7
:1074B0009360DEE7012C06D10720002202211AF09A
:1074C0005FFC0720E1E7022C06D1082000222146BC
:1074D0001AF056FC0820D8E7032C06D10920002218
:1074E00002211AF04DFC0920CFE7042C06D10A2016
:1074F000002202211AF044FC0A20C6E7053C042CB5
:107500004FF000024FF0020104D816201AF038FCA8
:107510001620BAE729201AF033FC2920B5E7F8BD78
:10752000546D0020044B00F00F0053F820200AB9DE
:1075300043F8201000207047D47400202DE9F84350
:10754000174E184D184FDFF86480DFF86490002460
:107550000F2C05DDA4F11203052B01D91C2C15D12C
:1075600057F8243093B973682B60B3686B60F36885
:10757000AB603369EB602B7C43B198F80010204678
:10758000FFF746FF49462046FFF7CCFF0134302C79
:1075900006F1140605F11405DAD1BDE8F88300BF41
:1075A000546D002014710020D47400200A60002063
:1075B000D1730008F8B5124E124D134F00240F2C52
:1075C00005DDA4F11203052B01D91C2C10D157F8AD
:1075D00024306BB933686B607368AB60B368EB6081
:1075E0002046F3682B612946FFF706FF21F066F875
:1075F0000134302C06F1140605F11405DFD1F8BD75
:1076000014710020546D0020D47400204FF0B0435A
:1076100082B09A6C02439A649B6C18400190019B63
:1076200002B070474FF0B04382B0DA6C0243DA64C4
:10763000DB6C18400190019B02B0704710B5064CFE
:107640000649802220460AF0D3FE2268136843F0E0
:107650001003136010BD00BF207B0020407C002081
:10766000012810B50BD1094C0949802220460AF0A7
:10767000BFFE2268136843F01003136010BD022898
:10768000FCD1BDE81040FFF7D9BF00BFB07B0020A0
:10769000C87C00202DE9F7439DF828509DF82C80E8
:1076A000012B14BF00274FF40057012D04460E464E
:1076B00069D0032D6AD0002D6BD00025013AD2B2DB
:1076C000022A6BD8664B53F82290012C70D104200B
:1076D000FFF79CFF2046FFF799FF002211460E207E
:1076E0001AF04EFB0E201AF07DFB5E4B5E4883F8CD
:1076F00001805E4B0561C0E900360C240023C0E91F
:107700000297C0E90543C0E907334362B8F1000FAF
:1077100049D0B8F1020F01BF082383624FF4004340
:10772000836351480AF0D8FD08B118F05BFF4E485A
:1077300000210AF041FF08B118F054FF4A48002127
:107740000AF05FFF08B118F04DFF47480AF015FF37
:1077500008B118F047FF0120FFF782FF4FF44013F4
:10776000009302AB13E906003F480AF08FFE08B110
:1077700018F038FF4FF0B042936843F40043936031
:1077800003B0BDE8F0834FF4C06597E74FF4806520
:1077900094E7022A05D14FF0805996E74FF000098F
:1077A00093E7A94691E7C0F828800AF063FDBBE79C
:1077B000022CE5D12B4B2E4C83F802800420FFF7DE
:1077C00025FF0120FFF722FF002211460B201AF0AF
:1077D000D7FA0B201AF006FB264B2561C4E90036C8
:1077E0000C2200232046C4E90297C4E90523C4E91A
:1077F0000833A36263660AF03DFD08B118F0F2FE9B
:107800001B4800210AF0D8FE08B118F0EBFE18481A
:1078100000210AF0F6FE08B118F0E4FE14480AF060
:10782000ACFE08B118F0DEFEFFF708FF4FF440137E
:10783000009302AB13E906000D480AF027FE08B1D9
:1078400018F0D0FE0C4AD2F8803043F08053C2F8D2
:1078500080302268936843F4800393608AE700BF16
:10786000146C01086C7D0020B07B002000380140C2
:10787000207B002000800040000800582DE9F341E3
:107880009DF820809DF824C0CDE9008C16461D4649
:1078900004460F46FFF7FEFE064B0C204443181922
:1078A00001221A5547600672457280F80A8002B0BC
:1078B000BDE8F081487D0020022810B504460BD1B8
:1078C000074809F0A9FF08B118F08CFE0C20054B01
:1078D000444300221A5510BD0128F7D10248F0E7B1
:1078E000207B0020487D0020B07B00200128F8B5D7
:1078F00005460E461F462BD194B2184A5278013ADB
:10790000012A17D816480AF0F8F9224614483B46CF
:1079100031460AF01FFC044611480AF013FA84B9F4
:10792000104B1B680BB90020F8BD2146284698472C
:107930002046F9E70A4822460AF00CFC04460028D3
:10794000F6D0022C14BF6FF006006FF00500EBE7D5
:107950000228E8D1044892B2EEE700BF6C7D002017
:10796000B07B002058760020207B0020012802D127
:10797000044800F079BB022801D10348F9E76FF011
:10798000060070470C60002020600020012807B529
:107990000AD10A480DF1070100F0A3FB50B16FF0C6
:1079A000060003B05DF804FB0228F8D104480DF18D
:1079B0000701F1E79DF80700F3E700BF0C60002026
:1079C0002060002070470000012802D1044800F028
:1079D000EFBA022801D10348F9E76FF006007047BB
:1079E0000C60002020600020F8B5224D224F0024BA
:1079F0000C23224A63439B5CCBB1022C1BD1204E4B
:107A00003368DA69D103FCD4DA695202FCD51C4828
:107A10000AF087FD33681A4810221A621A6822F0A9
:107A200010021A6009F019FFF06F23F009FD01340C
:107A3000032CDDD1F8BD012CF9D108232B624FF4C2
:107A400080132B6255E8003F43F0020345E8003203
:107A5000002AF7D157E8003F43F4800347E800329B
:107A6000002AF7D1074AD2F8803043F08063C2F889
:107A70008030DCE70038014008380140487D0020B4
:107A8000207B00200008005873B50B4C0B4E4FF0C4
:107A9000FF35012D0BD923784BB133780193A37AAD
:107AA0000093227A637A61680020FFF7F3FD0135C5
:107AB000022DEED102B070BD487D00206C7D00200B
:107AC00070B51D4B02689A42044615D109F0C5FEF7
:107AD0001A4E002516F8011B0220013509F0B6F9EF
:107AE000802DF7D1154916482A4600F070FA13493F
:107AF0002A4620460AF07CFC2268124B9A4216D194
:107B0000204609F0AAFE104E002516F8011B0120A0
:107B1000013509F09BF9802DF7D10B490B482A4616
:107B200000F055FA08492A4620460AF061FCBDE8F3
:107B30007040074809F0F0B900800040407C002008
:107B40002060002000380140C87C00200C6000202C
:107B5000C07C00200268054B9A4205D1044B1B688B
:107B600013B1012108461847704700BF0038014093
:107B70005876002070470000F8B52F4B02689A42F3
:107B800004461DD109F069FE2C4B2D4F1B685D6822
:107B9000C5F18005ADB20026B5423FDC2849294831
:107BA0002A4600F014FA8022254920460AF020FCDB
:107BB000254B1A78012A03D100221A7008F0E2FE40
:107BC0002268224B9A4224D1204609F046FE204BDF
:107BD000204F1B685D68C5F18005ADB20026B54237
:107BE00023DC1C491C482A4600F0F1F9802219497F
:107BF00020460AF0FDFB144B1A78012A03D100221B
:107C00001A7008F0BFFE154B1B6813B1012108461E
:107C10009847BDE8F840124809F07EB917F8011BF3
:107C2000022009F013F90136B6E717F8011B01200D
:107C300009F00CF90136D2E700800040607A00209C
:107C4000407C002020600020547600200038014055
:107C5000C07A0020C87C00200C60002058760020EC
:107C6000C07C002073B5314B00261E7003685A6A31
:107C70008DF807202E4A9342054619D12D482E4CE7
:107C80000AF065FC2D4926621523C4E9001320463D
:107C90008023C4E90266C4E90436C4E9066623F019
:107CA0005DFB08B118F09EFCEC67A562FFF7C6FC0F
:107CB0002A68234B9A421BD12248234C0AF047FCE6
:107CC000224A1123C4E90023204600238022C4E96C
:107CD0000233C4E90423C4E90633236223F03EFBE4
:107CE00008B118F07FFCEC670120A562FFF7B8FC33
:107CF0002C680F4B9C420DD19DF80710022009F013
:107D0000A5F82B68A34205D1114801220DF1070106
:107D100000F05DF90F4809F0FFF80F4B1A781AB917
:107D200001221A7008F026FE02B070BD0F9B0020E1
:107D300000800040207B0020607A00200800024084
:107D400000380140B07B0020C07A0020440002408F
:107D500020600020C07C00205476002070B596B0D2
:107D600005461422002103A80BF0EEFE3822002164
:107D700008A80BF0E9FE2B685F4A934266D15F4B7F
:107D8000012408A8CDE908431DF0AAFC08B118F0A9
:107D900029FC4FF0B04316201A6E42F480421A6656
:107DA0001B6E03F480430193019BFFF725FBB0F1A9
:107DB000904F38D10120FFF735FC0220FFF732FC4D
:107DC0004F4B9B6A082B36D11720FFF71AFB122363
:107DD0000390002604930123CDE9053649484A4C17
:107DE000072303A9079320F069FC48482662112362
:107DF000C4E9000380232046C4E90266C4E90436CE
:107E0000C4E9066623F0AAFA08B118F0EBFB0022D9
:107E10002420EC671146A56219F0B2FF242019F066
:107E2000E1FF16B070BD1620FFF7E6FA354B984219
:107E3000C3D10220BFE71620FFF7E3FA044617205C
:107E4000FFF7DFFA044303940223C2E7304A934268
:107E5000E7D1202308936B68B3F5166F94BF4FF4F6
:107E600040634FF4006308A80C931DF039FC08B17F
:107E700018F0B8FB4FF0B0430120DA6D42F0010278
:107E8000DA65DB6D03F001030293029BFFF7CAFB87
:107E90000220FFF7B6FA04460320FFF7B2FA0222E7
:107EA000012300260443CDE9042303A908234FF04E
:107EB0009040CDE90663039420F000FC154C164970
:107EC000A6611523C4E900138023C4E904362046C3
:107ED0002023C4E90266C4E9073623F03FFA08B15B
:107EE00018F080FB00222620EC671146A56219F0ED
:107EF00047FF262093E700BF00380140020003003F
:107F0000B07B002000040048C07A002044000240FA
:107F100000800040607A00200800024070B51B4AD3
:107F20000368934204461DD14FF0B0421620136EF1
:107F300023F480431366FFF75FFA05461620FFF728
:107F400060FA06461720FFF75CFA46EA0001284669
:107F500020F066FCE06F23F073FA2420BDE8704047
:107F600019F04EBF0A4A93420FD14FF0B0420C2194
:107F7000D36D23F00103D3654FF0904020F050FC07
:107F8000A06F23F05DFA2620E8E770BD00380140BD
:107F90000080004008B5054B02689A4205D109F0FF
:107FA000F6FEBDE80840FFF749BB08BD0080004071
:107FB000C26803699A4282BF40681B180133981A4D
:107FC000704708B54168FFF7F3FF081A08BD2DE9AF
:107FD000F743044601A81646884608F0A7FF204646
:107FE000FFF7EFFF864228BF06462046FFF7E9FF6E
:107FF000E3682569A268AB429CBF636801335D1BDF
:10800000814623692068AE4202FB030013D8724305
:1080100041460BF071FD236962683344934296BF79
:10802000236900239B19236101A808F081FF3046D2
:1080300003B0BDE8F08305FB02F73A4641460BF07A
:108040005BFDA2682068751B6A4308EB07010BF013
:1080500053FD4E452561E7D923696268934234BFD9
:1080600001330023E360DFE72DE9F341044601A873
:108070001646884608F05AFF2046FFF799FFE76842
:10808000E5682369A2682168864228BF06469D42AA
:1080900084BF636801335D1BAE4202FB071110D839
:1080A000724340460BF028FD62683744974288BF10
:1080B0000027E76001A808F03BFF304602B0BDE8AA
:1080C000F08105FB02F73A4640460BF015FDA26829
:1080D0002168751B6A4308EB07000BF00DFDE56096
:1080E000E8E710B504460846E26823699A4223D0BF
:1080F000A268E1682368541E072C18D8DFE804F052
:108100000408170C171717105B5C0370002010BDD4
:1081100033F811300380F9E753F821300360F5E7B5
:1081200003EBC103D3E90023C0E90023EEE701FB21
:1081300002310BF0E1FCE9E76FF00E00E7E70FB466
:1081400000B5ADF5037D18F0A7FDC0B201280AD136
:1081500085AB849A01934FF4007102A81BF0B6FF1F
:1081600002A808F0E9FC0DF5037D5DF804EB04B00E
:10817000704718F085BD08B518F08EFDC0B208BD77
:108180007047000008B516F0EEF8024658B1064BED
:10819000064900209A4208BF042003F5C31303F5E3
:1081A00020638B42F6D108BDC0AFD235C0FF9536F3
:1081B00008B516F0D8F8024658B1064B064900201B
:1081C0009A4208BF062003F5C31303F520638B42D0
:1081D000F6D108BD6086973660D65A3716F0C3B818
:1081E000014808F0A9BC00BF206C010808B503488D
:1081F00008F092FE024B00221A7008BD7C6000203D
:108200000F9B002030B58BB00446342368468DF8B0
:10821000003025F009FE14B3019D25F087FDF0B96B
:10822000E30702D5284619F059F8A00703D505F150
:10823000380019F06BF8610703D505F1580019F003
:108240007DF8220703D505F5EE7019F091F8A30625
:1082500003D505F5647019F0A5F825F05DFD0BB0A8
:1082600030BD10B525F062FD0128044604D030B9B8
:1082700008F06CFE204610BD6FF00500FBE76FF0C4
:108280000600F8E710B5134B134A1B680446407804
:1082900060B92179117003B198472378012B17D168
:1082A00023792BB10D4808F047FC05E00021F1E7E8
:1082B00061780B4808F040FC002002F0F9FA207CBD
:1082C00002F05AFB21460020BDE8104016F044BFE2
:1082D0000448E8E718810020E77F0020326C01089D
:1082E0004B6C01086C6C0108022813B5044605D0DC
:1082F000144802B0BDE8104008F01EBC124808F057
:108300001BFCFF238DF803300DF103024FF0043303
:1083100001210E48019318F0C5F801AA04210C4868
:1083200018F0C0F8204608F093FB012008F090FBFD
:108330004FF000635A681B6883F30888904702B0C7
:1083400010BD00BF7B6C01088C6C01080040000868
:108350000440000870B5044601468AB0032016F0B8
:10836000FBFE23780A2B10D00E2B0CD13E4808F0D0
:10837000E3FB3E4A0023684613708DF800308DF809
:10838000043025F09FFE0AB070BD63780D2B64D1D8
:10839000374808F0D1FB354B1A78042A1CD0022646
:1083A00000201E7008F0D2FD00223249104608F06D
:1083B000C9FD0546B8B923F0BBFA424202F01F02DC
:1083C00000F01F004FF47A7158BF504200FB0111BA
:1083D0003246284608F0B8FDA37D032B1FD8DFE8FE
:1083E00003F00B24272A40F2DE21234808F0A4FBE7
:1083F000002008F0ABFDEFE7204A00231380237E26
:10840000617E1B0243EA0143E17D0B435360E37E3F
:10841000217F1B0243EA0143A17E0B439360D4E911
:108420000101174B83E80300ADE7144A0123E5E798
:10843000124A0223E2E7237E617E104A1B0243EACE
:108440000143E17D0B43D360E37E217F1B0243EABE
:108450000143A17E0B431361E1E70E2BDFD10948F5
:1084600008F06AFBDBE700BFA16C0108E07E00209A
:10847000AC6C0108198B0008B96C0108C47E00209F
:10848000D87E0020C96C0108704715F06CBF7FB51D
:10849000054615F066FF431EDBB2012B044603D9E7
:1084A00000F0FD03082B1DD101A818F00DFC0022DF
:1084B00001A91346012011F8016B1EB100FA02F662
:1084C00033439BB201320C2AF5D104F0FD02082A95
:1084D00001D0012C02D123F480739BB22B800020A9
:1084E00004B070BD6FF00200FAE7F0B58FB0064639
:1084F0000F4615F036FFFF23ADF800304FF47F43F1
:10850000ADF80230431EDBB20024012BCDE901445B
:108510000546039403D900F0FD03082B7ED1FFF735
:10852000A0FE044600286FD1338823B9012D50D115
:1085300040F2FF1333800C22002101A80BF004FB52
:108540003088002240FA02F1CE07D3B20ED50EAE2B
:1085500003F0FE0103F00103314406EB430331F85D
:10856000346C33F8383C334321F8343C01320C2A64
:10857000E8D105F0FD03082B01D0012D0ED1BDF887
:108580000C30002203F47F43ADF80C301146012675
:10859000D5B2072D28D909B1ADF80C3023238DF8B9
:1085A000103004A801AB059325F08CFD054668B991
:1085B00024238DF8103004A801AB059325F082FD2B
:1085C00018F03EFFD8B925F0A7FB00B36FF0060402
:1085D0001AE005F0FD03082B04BFFF233380022DB2
:1085E000A9D140F6FF73A5E740FA02F5ED0741BFB8
:1085F00006FA02F10B439BB201210132C8E728467B
:1086000018F024FF0028DED020460FB0F0BD002F68
:10861000FAD001A818F062FB0446F5E76FF00204F7
:10862000F2E700002DE9F04395B004460D46904670
:108630001F4615F0E8FC611C064629D16A1C0AD0C9
:10864000003D18BF012515F06AFE854203D028467B
:1086500015F067FE50BBB8F1FF3F07D015F063FE81
:10866000404503D0404615F060FEF8B97B1C07D0AA
:1086700015F05DFEB84203D0384615F05AFEA8B991
:10868000BCB9204608F062FC754B1C6000200DE070
:10869000B4F1000918BF4FF0010915F03CFE814507
:1086A000CCD0484615F039FE0028C7D015B0BDE83B
:1086B000F08315F056FE15F068FE002800F0CC801F
:1086C000012E40F096808DF8006018F09FFC022388
:1086D0008DF8050068468DF8043026F0EDF9614B01
:1086E000049A1A600446002854D115F067FD012849
:1086F00008BF5D4B0AA808BF1C7034238DF82830D2
:1087000025F092FB0B9B988815F023FEFFF733FDB5
:108710000028CBD034230AA88DF8283025F084FB1C
:108720000AA825F081FB0028B0D1504D0B9B2A7878
:1087300093F858404E480C2606FB0233D3F89013AA
:1087400008F0FAF9012C0B9A01D0082C6ED12B7885
:10875000D2F8C420474903F0070301FB0321464830
:1087600008F0EAF90B9B4548D3F8C41008F0E4F987
:108770000B9B434893F9491008F0DEF90B9B4148E5
:1087800093F9481008F0D8F90B9B3F48D96808F0D6
:10879000D3F97BE7012812D00B282BD1304D0020D4
:1087A00008F0D4FB2C6801342C6015F0C0FD844225
:1087B00008D900232B600499344808F0BDF96FF004
:1087C000050073E700223249104608F0BBFB04465F
:1087D00048B915F0A8FD4FF47A714143224620466E
:1087E00008F0B2FBE7E740F25E612A4808F0A4F91E
:1087F000E1E716B16FF0060058E7012368468DF8EF
:1088000000308DF8043025F05DFC0028F2D115F021
:10881000D5FC022807D18DF8040068468DF8006069
:1088200025F050FC72E715F0C9FC6FE7022C29789F
:1088300009D13023B1FBF3F003FB1011CBB2D2F816
:10884000C420154989E706FB0122D2F894130029B8
:1088500085D1D2F8901382E76FF0100026E700BFB1
:10886000C07E0020647E0020E07E0020158B00206A
:10887000076D0108C0270900046D0108166D010885
:10888000286D01083E6D0108536D0108EC6C01086C
:108890009D880008D66C0108400D03004FF0FF339F
:1088A0001A4619460120FFF7BDBE00002DE9F04130
:1088B0009AB00D4602A981E80C00804618F0A6FB8C
:1088C000074615F0A2FB0646002800F0FF8024F0C2
:1088D0005FFC044610B16FF0050096E015F06EFCE9
:1088E000022840F095808DF8440010A88DF8404093
:1088F00025F0E8FB8DF8267018F02AFC60B118F01E
:1089000027FC012802D1002015F0FEFC052310A849
:108910008DF8403026F0D0F86F4B1B78012B05D135
:10892000092310A88DF8403026F0C6F805A9E8B252
:1089300025F01AFA0746FFF71EFC60B19DF81430C7
:108940009DF815206549664851F82710D21A009203
:108950002A4608F0F1F8002F79D000238DF818305E
:108960000893ADF8243006A826F07AFF5D4B0A9AEA
:108970001A600546FFF7FFFB00283FD0342310A8FC
:108980008DF8403025F050FA10A825F04DFA002857
:1089900034D1554F119B3A7893F8586053484FF0B3
:1089A0000C0808FB0233D3F8901308F0C5F8012E29
:1089B000119A01D0082E66D13B78D2F8C4204C49D8
:1089C00003F0070301FB03214A4808F0B5F8119BA7
:1089D0004948D3F8C41008F0AFF8119B474893F901
:1089E000491008F0A9F8119B454893F9481008F080
:1089F000A3F8119B4348D96808F09EF8002D58D180
:108A0000002C0CBF6FF0020000201AB0BDE8F0810E
:108A100015F0D4FB01287FF46DAF3B4B1B787BB185
:108A2000022B7FF467AF204608F090FA0C238DF8F4
:108A30002C3015F009FC00F007008DF8300002E042
:108A400009238DF82C300BA826F036F852E79DF854
:108A500008308DF81C309DF80B30ADF82450CDF85F
:108A6000208053B19DF80C305BB900238DF818308D
:108A7000264B00221A70344675E715F03BFB0028A0
:108A8000F3D00123F2E7022E397809D13023B1FB6C
:108A9000F3F003FB1011CBB2D2F8C4201C4991E7CC
:108AA00008FB0122D2F8941300298DD1D2F890133B
:108AB0008AE7A5F10E03DBB2012B7FF60CAF0B2D7D
:108AC00007D10A99134808F037F804E76FF00B0054
:108AD0009BE76FF0060098E7218100206C71010888
:108AE0005F6D0108647E0020158B0020076D010872
:108AF000C0270900046D0108166D0108286D0108E2
:108B00003E6D0108536D0108E07E0020E77F0020E4
:108B1000400D0300EC6C01081FB501238DF80830EF
:108B20008DF80930002103238DF80A308DF80B10E1
:108B3000009104AB13E90C000248FFF7B7FE05B043
:108B40005DF804FB447201082DE9F04F43788DB0C5
:108B50000446002B40F0A780B0F90E00774F784E06
:108B6000237C388040B2337001F00CFF237B002B54
:108B70003BD0607C7349B7F9002051F8201096F97A
:108B800000307148DFF8C491DFF8C4A107F0D4FFCA
:108B9000A378012B0CBF6F486F4807F0CDFFE17839
:108BA0006E4807F0C9FF4FF000085FFA88FB58468F
:108BB00017F062FE054640B9227BEBB29A4200F202
:108BC000A3805146584607F07FFF08F10108B8F12D
:108BD000030FEAD1227BA16861480AF08DFF614B47
:108BE000227B1A70604BE2781A706379012B00F0D7
:108BF00093802378012B02D15C4B01221A705C4BCD
:108C00001A782AB3DFF86C9100221A7099F80030B4
:108C1000F3B996F90030584DDFF8608100932A7857
:108C2000B7F9003098F80010554807F085FF554B0C
:108C30001B686BB1544899F80020027098F8002026
:108C400042702A7882703A8882803278827198479E
:108C5000E278E02A11D04D4B1B6873B14C4802708A
:108C600022794270A2684260227B0272E2894281CC
:108C7000227C02736269026198472146012016F046
:108C80006BFA444890F802316BB1002380F802314E
:108C90008DF80B3000938DF80930DDE90223B0F830
:108CA0000011FFF703FEFFF766FA50B3342302A862
:108CB0008DF8083025F0B8F802A825F0B5F800289E
:108CC00038D1637C73BB344807F036FFA169334861
:108CD00007F032FFE178324807F02EFFB4F90E10AA
:108CE000304807F029FF94F910102F4807F024FFAF
:108CF00021792E4807F020FF039B2D48996907F042
:108D00001BFF0DB0BDE8F08FA2684946D25C584603
:108D100007F0DAFE01354FE715F050FA00287FF42E
:108D200068AF69E7012B01D12248CDE7022BCDD1F5
:108D30002148C9E7214807F0FFFEE2E7088100204B
:108D400020810020EC710108B16D0108D66D010889
:108D500042720108C26D0108CD6D0108017501085C
:108D6000E87F0020E8800020E9800020687E002065
:108D7000F2800020F3800020BC7E0020617E002075
:108D8000DB6D010810810020EA80002014810020A2
:108D9000F4800020E27E0020FA6D0108576E010881
:108DA000696E0108736E01087D6E0108866E010808
:108DB000966E0108176E0108346E0108A46E010852
:108DC000F0B591B0002603ACC4E9016605460396F0
:108DD00015F0C7FA431EDBB2012B0AD9082808D0C8
:108DE00005286AD00A2804D06FF00604204611B086
:108DF000F0BD15BB2046ADF8185017F065FF0028F0
:108E0000F2D1BDF818302A46012114F8010B20B127
:108E100001FA05F213439BB2012201350C2DF4D166
:108E20000AB1ADF81830002106A8FFF75EFB044632
:108E30000028D9D118F00AFBD8E71A2301A98DF828
:108E400004302AF06EFC1E230090C6B206A88DF8EE
:108E5000183024F0E9FF079B0022A3F10C010C203D
:108E6000D3B29E4203D859D16FF00204BEE701325B
:108E700000FB02F7CF59AF42F2D11A0910A901EB5A
:108E8000420203F00F03012101FA03F322F8343CFC
:108E900006A823238DF81830079425F013F900282D
:108EA000A2D1242306A807948DF8183025F00AF9DA
:108EB0000446002898D12846BCE7CDB90723ADF871
:108EC0000C3006A823238DF81830079425F0FAF803
:108ED000002889D1242306A88DF81830079425F09E
:108EE000F1F8002880D1284618F0B0FA04467DE752
:108EF0001E2306A88DF8183024F096FF07993346F4
:108F00000C2000FB03F28A58AA4203D1012202FA84
:108F100003F3D4E70133042BF3D1A5E7002465E77D
:108F2000014B1868704700BFD87E0020014BB3F991
:108F30000000704708810020014B93F90000704742
:108F40002081002070B5094E3478944228BF144621
:108F500005462246084606490AF0CEFD054B1A781A
:108F60002A7000221A703270204670BDE8800020FE
:108F7000E87F0020E9800020014B1878704700BF8F
:108F8000E77F002030B58BB00C46054615F0E9F9B7
:108F900015F0FBF9B8B12D2368468DF800308DF837
:108FA000045025F08FF838B9094B9D6074B12846FC
:108FB00018F032F80BB030BD03280CBF6FF0020080
:108FC0006FF00600F6E76FF01000F3E72046F1E7D8
:108FD00098600020F0B5044601468BB0022016F0E0
:108FE000BBF82378013B0B2B4AD8DFE813F00C00C9
:108FF000490049004900D1004900490049008C005E
:109000004900F400B90065787A4E7B4F002D39D1C4
:109010007A4807F091FD284607F098FF356015F073
:10902000CDF802280AD18DF8040068468DF800506A
:1090300025F048F810B1724807F07EFD3B680BB18F
:109040000020984717F0E2FF0021FFF79BFF15F083
:10905000B5F8FFF790F898B1342368468DF80030E2
:1090600024F0E2FE684624F0DFFE002847D1654880
:1090700007F062FD019B6448D3F8E41007F05CFD43
:109080000BB0F0BD022D1CD0EB1E012B1BD85F488E
:1090900007F052FD002007F059FF356801353560B3
:1090A00015F045F9854213D9002333603B6823B19D
:1090B00057486378436007F02FFF564BDB6A9847A9
:1090C000C5E75548E4E72946544807F035FDE1E790
:1090D00000225349104607F035FF054648B915F000
:1090E00022F94FF47A7141432A46284607F02CFFB3
:1090F000DCE740F21D21494807F01EFDD6E749484C
:1091000007F01AFDBCE7484D64782E78DCB9012ED3
:1091100009D1464807F010FD454B1B680BB12046AE
:10912000984700232B7015F049F80128A8D1414B2E
:109130001A78042AA4D018700B2368468DF80030E2
:1091400025F0BAFC9CE7012E9AD13B4807F0F4FCCD
:10915000374B1B680BB13046984700232B708FE7C5
:109160006378002B8CD1334A8DF800300421012321
:10917000684611708DF8043024F0A4FF00287FF4B5
:109180007FAF2E4807F0D8FC0220FFF7C5FC77E739
:109190002B4B01221A702B4B227A1A702A4B627ABF
:1091A0001A706378294C2370002B3FF469AF28486C
:1091B00007F0C2FC274B1A68002A3FF461AF26482B
:1091C00023780370002343708370838083710BB016
:1091D000BDE8F04010476378002B3FF451AF1F48C3
:1091E00007F0AAFC134B1A78042A1CBF03221A703A
:1091F0000923A2E7C07E00200C810020C86E010870
:10920000D66E0108276F01083D6F0108EB6E01085B
:109210008460002078A90308096F0108D66C010852
:109220009D880008A46E0108218100204C6F010870
:109230001C810020E07E00205E6F0108746F010831
:10924000F2800020617E0020BC7E0020F3800020A0
:109250007F6F010810810020EA800020C96C01089E
:1092600070B58AB00C46054615F07BF815F08DF800
:10927000C8B12E236EB268468DF800308DF80460B8
:1092800024F020FF40B90A4B83F8246074B12846CB
:1092900017F052FF0AB070BD03280CBF6FF0020038
:1092A0006FF00600F6E76FF01000F3E72046F1E7F5
:1092B0009860002030B58BB00D46044615F051F88B
:1092C00015F063F8002843D014F09FFEB8B10023D6
:1092D00068468DF8003024F0A7FD10B16FF006004D
:1092E00011E09DF80430012B1ED0022B2BD0002B57
:1092F000F4D1012C09D0022C0BD0002CEED155B3A7
:10930000204617F077FE0BB030BD144B00221A70C8
:10931000F5E7134B8DF8044001221A70684624F0DB
:10932000D1FE0028EBD0D9E7012CF7D0022C05D0D4
:10933000002CD3D100238DF80430EFE7084A8DF8D4
:1093400004401370EAE7012CDFD0022CF0D1D6E7FD
:109350006FF01000D7E72846D5E700BFE07E002079
:10936000988C002030B58FB00D46044614F0F9FFFC
:1093700015F00BF8002800F09B8001238DF81030C9
:10938000002C4DD18DF8143004A824F09BFE002849
:109390004AD1002C53D11021684617F003FD0F234A
:1093A00004A88DF81030CDF814D024F08BFE0028DE
:1093B0003AD10421684617F01DFD07238DF81030BF
:1093C000009B04A81BBA059324F07CFE60BB10210F
:1093D000684617F087FD0C2304A88DF81030CDF8EF
:1093E00014D024F06FFEF8B90D2304A88DF81030C6
:1093F000CDF814D024F066FEB0B90E2304A88DF881
:109400001030CDF814D024F05DFE68B917F0ECFDF3
:109410002146FFF74FFF48B9002D45D1284605E00A
:1094200004A824F001FD18B16FF006000FB030BDA4
:109430009DF81430012B08BF8DF81400A4E7082113
:10944000684617F0FFFC022304A88DF81030CDF811
:1094500014D024F037FE0028E6D10821684617F022
:1094600051FC032304A88DF81030CDF814D024F05B
:1094700029FE0028D8D11021684617F06BFC08237C
:1094800004A88DF81030CDF814D024F01BFE00286D
:10949000CAD1092304A88DF81030CDF814D024F0D7
:1094A00011FE0028B8D0BFE7204617F07FFDBDE7CA
:1094B0006FF01000BAE710B5012100B10846FFF7C0
:1094C00051FF4FF0FF33BDE810401A461946012006
:1094D000FFF7A8B870B5044D064604460FCD0FC47B
:1094E0002B682360304670BDC47E0020014B187885
:1094F000704700BFE07E0020014B1878704700BF26
:109500002181002010B5044614F07FFD28B1012C04
:1095100006D8054B00201C7010BD6FF00B00FBE758
:109520006FF00200F8E700BF2181002038B5044643
:109530000D46032829D8DFE800F0021F222502F09B
:10954000C5FC10B3124B134A43F82400426253F88F
:1095500024201149916253F824201049D16253F814
:1095600024200F49116353F824300E495B682846C4
:10957000F2229847002038BD15F05AFFE1E716F0B7
:10958000F3F9DEE716F0F4FBDBE74FF0FF30F2E72C
:10959000D00300208181000889840008B794000866
:1095A000FDEF01086F7D002000B58BB030238DF8F2
:1095B000003068461923019324F084FD0BB05DF858
:1095C00004FB0000F0B58FB0054614F0A6FC14F0C3
:1095D0000BFD012828D001F0C1FF002414F0EEFD9E
:1095E000022805D014F00FFD10B1A94BDB6A984793
:1095F00014F0FAFC012814D19CB914F090FE80B14B
:1096000014F089FE054614F08AFE064614F08BFE1F
:10961000074614F08CFE3A46034631462846FFF7CB
:1096200001F820460FB0F0BDCDB928F06BFD994888
:10963000994B0360994B4360994B9A4983609A4BCD
:10964000C3600023C1E90033984B8B602A46984BD6
:10965000CB6024F085F988B16FF00604BEE7142DC5
:1096600004D1022028F04EFD0025E0E7152D01D1A0
:109670000320F7E7162DDAD10420F3E78D4B012202
:109680001A7035238DF8103004A88B4B059324F005
:1096900019FD0028E0D16B1E012B03D905F0FD0355
:1096A000082B29D1002301A8ADF8023017F00CFBDC
:1096B0000446002892D1BDF8023001AA01460124D7
:1096C00012F8016B26B104FA00F10B439BB20121A1
:1096D00001300C28F4D109B1ADF8023014F043FE8A
:1096E0000146002800F0B48014F03DFEFFF768FB4F
:1096F000044600287FF472AF052D00F0AE8017F00D
:109700004FFC0021FFF72EFE044600287FF466AFD1
:1097100015F0ADFB044600287FF460AF17F064FC41
:109720002146FFF7C7FD044600287FF457AF17F026
:1097300049FC214614F022FF044600287FF44EAF76
:1097400017F064FC2146FFF71DFC044600287FF457
:1097500045AF17F06DFC214615F018F804460028B7
:109760007FF43CAF17F0A6FC214614F0E9FF17F098
:1097700071FC214614F028FF044600287FF42EAF28
:1097800017F09EFC214614F05DFF044600287FF48C
:1097900025AF17F0A7FC214614F074FF04460028FB
:1097A0007FF41CAF17F0C2FC2146FFF759FD0446B9
:1097B00000287FF413AF17F05DFF002114F007FDC0
:1097C000044600287FF40AAF342304A88DF8103033
:1097D00024F02AFB059D14F0BAFDA88014F0BFFD0B
:1097E000003818BF012085F8AF0114F00CFC0028E8
:1097F00040D0324829F032FF314830F043FEFFF7C5
:10980000D3FE24F089FA054600287FF425AF2D49C0
:109810002D4815F0A3FB2D492846FFF787FE01468A
:1098200000287FF419AF0120FFF780FE01460028D1
:109830007FF412AF0220FFF779FE00287FF40CAF0F
:1098400023490320FFF772FE00283FF4C7AE03E769
:109850000DF10200FEF749FE4AE714F084FD0028EE
:109860003FF44DAF0020FFF7ABFA044600283FF469
:1098700046AFB3E614F0BDFF14F09EFC0028B8D04C
:1098800017F0C4FB2146FFF77DFB0028B1D0A5E609
:1098900078A90308AC7E002085820008498B000867
:1098A000D58F00089C7E00205583000805820008A3
:1098B000ED810008E67F0020000300016C600020BD
:1098C000746000206C7E0020346000207C7E0020CC
:1098D0008C7E0020F0B58BB0064614F031FBC0B290
:1098E000002800F08180022E04D16FF01004204681
:1098F0000BB0F0BD042EF8D014F033FDB04200F0F0
:109900009F80304614F041FD0028EED0FEF7A9FC00
:10991000044618B14B4B1B78002BE8D115F0DAFA4E
:109920000028E4D117F092FD07460028DFD1002E71
:109930005FD1012028F0E6FB3546434943482A46DB
:1099400024F00EF8002878D12C2368468DF80030DA
:1099500024F06AFA002870D19DF8040017F05CFB2F
:1099600004460028C3D1202768468DF8007024F0F3
:109970005BFA002861D19DF8080017F05FFB0446F0
:109980000028B4D168468DF8007024F04DFA002804
:1099900053D1019817F082FB04460028A7D12F234A
:1099A00068468DF8003024F03FFA002845D19DF834
:1099B000040017F0C1FB0446002898D16B1EDBB2EF
:1099C000012B28D905F0FD03082B24D0002E18BF49
:1099D0003546284617F06CF90446002887D12846FA
:1099E000FFF7F0FD044682E7022E85D0042E83D0D7
:1099F0007BE7142E04D1022028F084FB3D469CE72F
:109A0000152E01D10320F7E7162E01D10420F3E72C
:109A10003546064691E7242368468DF8003024F049
:109A200003FA50B9019817F059F9044600287FF459
:109A30005EAF17F00BFD0028C8D06FF0060456E7A4
:109A4000002454E7E67F00209C7E0020AC7E0020AE
:109A500038B514F0C9FA012809D006F099FDD8B13B
:109A60001D491E4807F068F86FF0060412E014F074
:109A700078FCA0F11403DBB2022B054698BF002549
:109A8000FEF7EFFB04460028E7D0284629F044FE05
:109A90000028E2D0204638BD15F01CFA0028E3D19A
:109AA00014F0A2FA012801D00024F3E714F059FCC5
:109AB000A0F11403DBB2022B054698BF002514F079
:109AC00050FCFFF77FFD04460028EDD0284629F022
:109AD00023FE0028E8D0DDE7CC7101089A6F010869
:109AE00013B5064C6368984728B9E36A019302B03E
:109AF000BDE81040184702B010BD00BF78A90308A8
:109B0000014B5B68184700BF78A9030808B5034BF1
:109B10005B689847003818BF012008BD78A9030882
:109B200008B506F027FF024A13680133136008BD29
:109B300080840020F7B5164C164E2368164D306809
:109B40002F68013B2360154B21681A686423434347
:109B5000511A3844B3FBF0F3114806F0EDFF2368C7
:109B600010493BB14B6B019341F2883003B0BDE823
:109B7000F04018470C48336002782B600B6B019360
:109B800022F00802027003B0BDE8F040184700BFA1
:109B900078830020488100204C8100207C830020B5
:109BA0000472010878A9030850810020024A136852
:109BB00001331360FFF7BEBF48810020FFF7F6BFF7
:109BC00010B5064C206801302060114604481A4642
:109BD00006F0B2FFBDE81040FFF7ACBF4C8100209B
:109BE00022720108F8B52D4D2D4F2B78BA6A2D4CF5
:109BF0002D4E002B33D0236D2C48013B2365E17D96
:109C00009047616C2A4806F097FF3268216D294819
:109C1000511A06F091FFE26C636C13446364626C4A
:109C2000A36C9A4282BF244B1B686364606CFB6820
:109C30009847236D23B1BDE8F84020481AF098B941
:109C40001F4A1E48137823F0040313701AF0D0F84B
:109C500010B11A481AF03CF900232B70F8BD194DC9
:109C600012482B68013B2B60E17D904732682968E0
:109C70001048511A06F060FF2B68002BDBD1104A08
:109C80000E48137823F0040313701AF0B1F800287B
:109C9000E4D0BDE8F84009481AF01AB974830020EE
:109CA00078A90308986000207C830020808300202E
:109CB000457201085772010870830020548100200A
:109CC0005081002078830020F8B52E4D2E4F2B7840
:109CD000BA6A2E4C2E4E002B35D0236D2D48013BF9
:109CE0002365E17D9047616C2B4806F025FF3268C3
:109CF000216D2A48511A06F01FFF226D33689B1A06
:109D0000274A1278B3FBF2F102FB1133254A52F8CD
:109D100023306364606CFB689847236D23B1BDE812
:109D2000F84021481AF024B9204A1F48137823F03C
:109D3000040313701AF05CF810B11B481AF0C8F84D
:109D400000232B70F8BD1A4D12482B68013B2B6085
:109D5000E17D9047326829681048511A06F0ECFE00
:109D60002B68002BDBD1114A0F48137823F0040332
:109D700013701AF03DF80028E4D0BDE8F8400A4816
:109D80001AF0A6B87483002078A903089860002010
:109D90007C830020808300204572010857720108EF
:109DA0006C810020708100205481002050810020AF
:109DB0007883002010B5094B1B6813B1084B1B6D4D
:109DC0003BB9084C236823B106F0DCFD2368013B56
:109DD0002360BDE81040044806F0AEBE7883002042
:109DE00098600020808400207372010870B50D4CCB
:109DF000C00000220221824200D170BDC1F30013D5
:109E000083EA1123D51043EA410302F00706C3F3A6
:109E1000080103F00103B340665D3343635501322B
:109E2000E9E700BF80830020064B10B5064C1B6B92
:109E30009847236823B106F0A5FD2368013B236002
:109E400010BD00BF78A903088084002038B50D4DEF
:109E5000287810F0010411D1FFF762FE2B7843F04F
:109E600001032B70084B186B93F82410074B4FF627
:109E7000FF72DB6B49B29847204638BD6FF0050092
:109E8000FBE700BF508100209860002078A90308FC
:109E90000F4B104810B500221A7019F0A9FF10B12D
:109EA0000C481AF015F80C4819F0A2FF10B10A4836
:109EB0001AF00EF8094B0A4CDB6A9847236803B97D
:109EC00010BD06F05FFD2368013B2360F6E700BF8D
:109ED00050810020548100207885002078A9030853
:109EE000808400202DE9F04F284A137899078DB01F
:109EF000064648D4264C274D206B43F002031370CE
:109F0000EB689847206894F82410A26A6368A768F1
:109F10000A9394F80CB00B97A78A94F816C094F89B
:109F200018E094F8198094F81A9094F81BA0E36A4A
:109F3000BFB2CDE907A30B9B0093CDE901B70A9B04
:109F4000EF69CDE90589CDE903CE49B2C0B2B84782
:109F5000636BB3B96B6B6FF07F409847322006F0AC
:109F60008FFC2B6C00209847EB6A30809847074A9B
:109F7000B6F90000137823F0020313700DB0BDE8AA
:109F8000F08F6B6EE7E76FF00500F7E75081002078
:109F90009860002078A9030810B50446FFF7C0FDBB
:109FA000226B144B1344144A934220D894F8243063
:109FB0000933DBB21F2B1AD86368062B17D8A368A6
:109FC000053B072B13D8237B013B032B0FD82368BA
:109FD000022B0CD8A36A094AA3F59653934206D8DC
:109FE00007485422214621F0CAFC002010BD6FF022
:109FF0000200FBE7802E0FF7809E4730780D0700A8
:10A000009860002008B50349542221F0B8FC0020D4
:10A0100008BD00BF986000202DE9F04F324C257834
:10A020008DB015F004050B905BD1FFF779FD237817
:10A030002E482F4E43F00403237006F07DFD2D487B
:10A040002D4B03602D4B83602D4B43602D4B2E4CCD
:10A05000C3602E4B036133689847E07DFFF7C6FE6F
:10A06000206BF3689847206894F82410A26A63680C
:10A07000A7680A9794F80CC0A78A94F816E094F899
:10A08000188094F8199094F81AA094F81BB0E46A18
:10A09000BFB2CDE907B40A9C0094CDE903E8CDE94D
:10A0A00001C749B2C0B2CDE9059AF469A047184B7F
:10A0B0000B9A1A601A68174B17481A604FF0FF3155
:10A0C000164B00952A4619F073FE4FF4FA711248A8
:10A0D00019F0A0FF104819F04BFF28460DB0BDE85D
:10A0E000F08F6FF00500F9E7508100207E720108C3
:10A0F00078A9030824810020B59D0008C19B0008B1
:10A10000299E0008AD9B000898600020BD9B0008B8
:10A11000788300207C83002054810020E59B000888
:10A120002DE9F04F2C4D0446287810F008088DB02A
:10A130004FD1002C4DDDFFF7F3FC2B78274843F07F
:10A1400008032B70264B0360264B8360264B274D5C
:10A150004360274BC360274B03612B689847264B0E
:10A160001C601A68254C264B206B1A60EB689847D8
:10A1700020686168A268237B26690A96A68A276AF6
:10A1800094F816C094F817E094F81890CDF82C9035
:10A1900094F8199094F81AA094F81BB0247FCDF885
:10A1A0000CC0CDE908B40B9CB6B2CDE904E4BFB253
:10A1B0000A9C0094C0B2CDE9069ACDE90167AC696A
:10A1C000A04741F288306B6B984740460DB0BDE820
:10A1D000F08F6FF00500F9E7508100202481002006
:10A1E000B59D0008C19B0008299E000878A90308B6
:10A1F000AD9B0008BD9B000878830020986000207C
:10A200007C8300202DE9F04F364C257815F00405AD
:10A210008DB0074663D1FFF783FC23783248334E75
:10A2200043F004032370324B324C01221A70324B3C
:10A230000360324B8360324B4360324BC360324B1E
:10A240000361336898477B6C6364BB6CA364FB6CED
:10A25000E3643B6D2365E07DFFF7C8FD2B4B626C2B
:10A260001A602B4B226D1A60606CF3689847206867
:10A2700094F82410A26A6368A7680B9794F80CC03E
:10A28000A78A94F816E094F8188094F8199094F836
:10A290001AA094F81BB0E46ABFB2CDE907B40B9CD6
:10A2A0000094CDE903E8CDE901C749B2C0B2CDE9D8
:10A2B000059AF469A047174B174800952A464FF0B6
:10A2C000FF3119F075FD4FF4FA71134819F0A2FE31
:10A2D000114819F04DFE28460DB0BDE8F08F6FF023
:10A2E0000500F9E7508100202481002078A90308A7
:10A2F0007483002098600020B59D0008C19B000871
:10A30000299E0008AD9B0008BD9B000870830020BB
:10A310007C830020E59B0008548100202DE9F04F4C
:10A32000944D297811F004048BB0064640F01E814C
:10A33000DFF84482FFF7F4FB214690484FF40072A7
:10A3400009F002FC88F80040214623468B4C802906
:10A35000CAB203D19BB188F8001009E0F06C736CAD
:10A3600000FB0133B06C83421CD9013A88F800200D
:10A3700000276FF0004998F80030BB4217DC13F05B
:10A38000F0FF7F4B0A2800F2EE80DFE810F04A0071
:10A39000B600BC00C200C800CE00D400DA00E00065
:10A3A000EC00E60044F8213001310123CFE721F031
:10A3B000BFFA98F8002054F82710D31B99FBF3F349
:10A3C000013390FBF3F33B449F4208BF002354F852
:10A3D0002300414044F8271054F8271054F8230074
:10A3E000414044F8231054F8271054F8230041400A
:10A3F00044F8271054F8231054F82200414044F840
:10A40000231054F8231054F82200414044F822103D
:10A4100054F8231054F822204A4044F823200137EE
:10A42000A9E79A68574998688F5657492BF02CFC32
:10A4300004462B785548DFF8588143F004032B700D
:10A44000544B4F4D01221A70534B0360534B8360A2
:10A45000534B4360534BC360534B0361D8F80030F8
:10A460009847464B1B686B64B36CAB64F36CEB644E
:10A47000336D2B65E87DFFF7B9FC4C4B6A6C1A60B5
:10A480004B4B2A6D1A60686CD8F80C3098472868D6
:10A4900095F82410AA6A2E7BAB8A95F816C095F819
:10A4A00018E095F8199095F81AA095F81BB0ED6A88
:10A4B00000979BB2CDE903CECDE907B5CDE90163A5
:10A4C00049B22346C0B20024CDE9059AD8F81C5001
:10A4D000A847384B3848009422464FF0FF3119F016
:10A4E00067FC4FF4FA71344819F094FD324819F0C2
:10A4F0003FFD20460BB0BDE8F08F9A682F49986861
:10A500008F562F4992E79A682E4998688F562E49A0
:10A510008CE79A682D4998688F562D4986E79A6886
:10A520002C4998688F562C4980E79A682B4998687F
:10A530008F562B497AE79A682A4998688F562A4994
:10A5400074E79A68294998688F5629496EE79A688E
:10A55000284998688F56284968E79A682749986873
:10A560008F56274962E70024072762E76FF005004E
:10A57000C0E700BF508100206C8100207081002066
:10A58000986000202074010888720108248100204E
:10A5900078A9030874830020B59D0008C19B0008BA
:10A5A000299E0008AD9B0008BD9B00087083002019
:10A5B0007C830020C99C0008548100202874010875
:10A5C000A872010820740108E872010820740108CB
:10A5D0000873010820740108287301082074010819
:10A5E0004873010838740108887301082074010851
:10A5F000687301083E740108E073010828740108BB
:10A60000A073010808B503490C2221F0B8F9002015
:10A6100008BD00BF8C60002038B505460B4CFFF725
:10A620007FFAAB68A3602B68094823606B68094D0B
:10A630006360094B43602B6898472068EB6B228965
:10A6400094F904109847002038BD00BF8C600020AA
:10A650002481002078A90308299E000810B58AB03B
:10A6600088B313F0D0FC0128044609D113F0CDFCC7
:10A6700030B94FF0FF331A4619462046FDF7D2FF96
:10A68000002025F0B1F901221149042006F05AFCFE
:10A69000024698B941F28831042006F055FC462361
:10A6A000012468468DF800308DF8044023F00AFD3F
:10A6B000204613F050FE00200AB010BD4721054887
:10A6C00006F03AFAEBE7042006F040FCF3E700BF9F
:10A6D00085A700085F6C01082DE9F043254D264E43
:10A6E000264FDFF89C8085B0062301223370AA70C4
:10A6F000002302222B706B70EA702B716B718DF846
:10A7000008008DF809308DF80B304FF0E00957F84C
:10A71000042BDCB2B2B11369A3B1204614F012FDD0
:10A7200080B157F8043CDB68984758B198F80A2084
:10A73000D8F80C10284609F0DFF998F80A30337081
:10A740008DF80890631CDAB2042A5BB2DFD10023D3
:10A75000009304AB13E90C0031780648FEF7A6F825
:10A7600020B9074B587005B0BDE8F0834FF0FF30BB
:10A77000F9E700BF8484002076850020D003002004
:10A78000608C002010B513F03EFC0128044609D16E
:10A7900013F03BFC30B94FF0FF331A461946204600
:10A7A000FDF740FFBDE810400220FFF795BF000015
:10A7B000F0B54FF4807285B000213948394D3A4CDC
:10A7C00009F0C2F900232B7022F0FAFC80B2C828ED
:10A7D00084BF143880B2E36806389842606143D37E
:10A7E0000021A17023712B782D4E2278F2545A1C2F
:10A7F000D2B26078B0549A1CD2B2A078B054DA1CAD
:10A80000D2B2E078B054581D0433DBB22279F2544E
:10A81000A368C0B219442870304409F06DF92B7850
:10A8200021791944C9B200233046DAB291422FD8B7
:10A830001E4B1B481B788DF8083001238DF80B3018
:10A84000A369003B18BF01238DF80C3000238DF85D
:10A8500009300093013104ABC9B213E90C0029702F
:10A86000FEF724F805B0F0BD21695B1AB3FBF0F6E2
:10A87000F2B200FB16364EB9A270A278984202F1ED
:10A88000FF3228BF1846A2702071ACE70132F3E70F
:10A8900016F8012B475C3A4442540133C5E700BF28
:10A8A0009085002090860020988A002091860020C4
:10A8B0000D4A1378BBB10D4B80B9997809B9117065
:10A8C00070471A78197960F341021A70DA78013208
:10A8D000DA701A690A441A61FFF76ABF1A7842F0FF
:10A8E00002021A70F8E77047B48A0020988A0020A4
:10A8F0002DE9F8431C46431EDBB2DE2B0E4605460F
:10A9000011462AD8B4F5806F27D8164F164BDFF8BA
:10A910005C904FF001082246384683F8008009F029
:10A92000EBF8C9F80040124C237823F0030343EA04
:10A9300008032370FF2006F0FDFA00232361D9F8F5
:10A940000030E3600B4B607084F80380A760A66161
:10A950001D70BDE8F843FFF72BBF6FF00200BDE8A4
:10A96000F88300BF92860020B48A0020948A0020D9
:10A97000988A002091860020014B1870704700BF14
:10A98000158B0020024B034A1B78D054704700BF40
:10A99000158B0020B58A00202DE9F0438BB02323CE
:10A9A000054668468DF8003023F03EFA024600283E
:10A9B00052D12B4B2B4ED3F800E093F9068007467B
:10A9C000BCB2002006EB020C00EB0209CE4581B2BE
:10A9D00030D11CF90090C1452CD10F291CD1052C78
:10A9E00006D14FF0FF321A6000200BB0BDE8F083B3
:10A9F0000134A4B22101019A196032F8142002F046
:10AA000001029A80725C9A7115490822284609F061
:10AA100073F86FF00D00E8E7013188B212FA81F2A5
:10AA20000121814001981A6030F81700B25C0140A2
:10AA30009980E8E701301028C6D10137062F02F1CE
:10AA40001002BDD100221A60019A128802F00102A0
:10AA50009A80044A1278D6E76FF00600C5E700BF77
:10AA6000EC600020B58A002010B5064B1B68044638
:10AA700003B19847044B0CB100225A7000225A715E
:10AA800010BD00BF548C00203B8C002038B5114C09
:10AA900000236370A37016F071FAC0B2B0B90E480B
:10AAA00006F04AF80D4B02225A720D4A156815B18C
:10AAB00093E80700A847E37853B9237943B9094BD2
:10AAC0001B6B9847BDE8384005F05CBF0648E7E7D8
:10AAD00038BD00BF3B8C00204E740108448C002020
:10AAE000508C002078A903086974010813B5144C30
:10AAF00000236370FDF73FFB18B11249124806F0BE
:10AB00001BF8124B1B6803B1984716F037FAC0B216
:10AB100090B90F4806F010F805F034FF23796BB1B7
:10AB2000012363700B4C236B9847636B01930020E8
:10AB300002B0BDE8104018470748EBE702B010BD6F
:10AB40003B8C00203975010855750108588C002090
:10AB50008474010878A903089674010808B5064BA7
:10AB600000225A70FDF707FB28B1BDE808400349F1
:10AB7000034805F0E1BF08BD3B8C00204275010889
:10AB80005575010810B5124B00225A709A781AB9FF
:10AB9000DA780AB91A7912B101225A7010BD16F08A
:10ABA000EDF9C0B290B90B4805F0C6FF0A4B01227F
:10ABB0005A720A4A146814B193E80700A047084B78
:10ABC0001B6B9847BDE8104005F0DCBE0548EBE77D
:10ABD0003B8C0020A8740108448C0020508C00207D
:10ABE00078A90308C574010808B516F0C7F9C0B202
:10ABF00008BD0000044B587820B9987810B9D8786F
:10AC000000B91879704700BF3B8C002016F02ABCB1
:10AC10000A4B0B4A0344934210B5044605D813F07F
:10AC20008FF9084B20B19C4205D86FF0020010BD8F
:10AC30009C42FCD9F9E70020F9E700BF802E0FF70E
:10AC4000809E47300046C32316F01EBC05380728F7
:10AC50008CBF6FF002000020704708B516F026FC8C
:10AC60007D2806D0FA2806D0B0F5FA7F08BF02206A
:10AC700008BD0020FCE70120FAE7000010B50446FB
:10AC800016F07CF9C0B268B97D2C01D1002010BD4E
:10AC9000FA2CFBD0B4F5FA7FF8D0092CF6D96FF076
:10ACA0000200F4E716F06AF9C0B20228EED1024BB6
:10ACB000A4F596549C42F1E7780D070016F012BCFB
:10ACC00003288CBF6FF002000020704716F01CBCF8
:10ACD000042894BF6FF002000020704716F026BCD5
:10ACE000053811288CBF6FF002000020704716F065
:10ACF0002FBC16F033BC16F03DBC16F049BC16F064
:10AD000061BC16F06DBC08B516F002FD003818BF26
:10AD1000012008BD16F002BD2DE9F041FF29ADF577
:10AD2000087D0C46174633D848AE0A4601463046E1
:10AD300008F0E2FE14F00F030ABF1022C3F1100363
:10AD40001346204618BFDAB21C4484421DDC102191
:10AD500007A8FFF7D4FF0DF12C08102103A8FFF777
:10AD6000CAFF4246102103A816F0C2FFE5B2CDF893
:10AD7000008007ABC4F303123946304616F0C5FF16
:10AD800028460DF5087DBDE8F08132540130DCE73E
:10AD90006FF00200F5E7F0B5C9B00D460646102188
:10ADA00007A814460BAFFFF7AAFF102103A8FFF76F
:10ADB000A2FF3A46102103A816F09AFF07AB2A0912
:10ADC00000972146304616F0B8FF6219284612F85F
:10ADD000013C012B03D1681EC0B249B0F0BD022B6B
:10ADE00005D112F8023C022BF6D1A81EF4E7032B82
:10ADF00009D112F8023C032BEED112F8033C032BCD
:10AE0000EAD1E81EE8E7042B0DD112F8023C042B2E
:10AE1000E2D112F8033C042BDED112F8043C042BDF
:10AE2000DAD1281FD8E7052B11D112F8023C052BE7
:10AE3000D2D112F8033C052BCED112F8043C052BDD
:10AE4000CAD112F8053C052BC6D1681FC4E7062BF2
:10AE500015D112F8023C062BBED112F8033C062B8A
:10AE6000BAD112F8043C062BB6D112F8053C062BD9
:10AE7000B2D112F8063C062BAED1A81FACE7072BC7
:10AE800019D112F8023C072BA6D112F8033C072B6C
:10AE9000A2D112F8043C072B9ED112F8053C072BD7
:10AEA0009AD112F8063C072B96D112F8073C072BD3
:10AEB00092D1E81F90E7082B22D112F8023C082B10
:10AEC0008AD112F8033C082B86D112F8043C082BD7
:10AED00082D112F8053C082B7FF47EAF12F8063CB5
:10AEE000082B7FF479AF12F8073C082B7FF474AF7E
:10AEF00012F8083C082B7FF46FAFA5F108006BE750
:10AF0000092B2AD112F8023C092B7FF465AF12F805
:10AF1000033C092B7FF460AF12F8043C092B7FF44B
:10AF20005BAF12F8053C092B7FF456AF12F8063CD4
:10AF3000092B7FF451AF12F8073C092B7FF44CAF7B
:10AF400012F8083C092B7FF447AF12F8093C092B93
:10AF50007FF442AFA5F109003EE70A2B2FD112F88A
:10AF6000023C0A2B7FF438AF12F8033C0A2B7FF423
:10AF700033AF12F8043C0A2B7FF42EAF12F8053CD5
:10AF80000A2B7FF429AF12F8063C0A2B7FF424AF7A
:10AF900012F8073C0A2B7FF41FAF12F8083C0A2B6B
:10AFA0007FF41AAF12F8093C0A2B7FF415AF12F8A0
:10AFB0000A3C0A2B7FF410AFA5F10A000CE70B2B1B
:10AFC00034D112F8023C0B2B7FF406AF12F8033C8D
:10AFD0000B2B7FF401AF12F8043C0B2B7FF4FCAE7B
:10AFE00012F8053C0B2B7FF4F7AE12F8063C0B2B46
:10AFF0007FF4F2AE12F8073C0B2B7FF4EDAE12F8A3
:10B00000083C0B2B7FF4E8AE12F8093C0B2B7FF4C5
:10B01000E3AE12F80A3C0B2B7FF4DEAE12F80B3CC9
:10B020000B2B7FF4D9AEA5F10B00D5E60C2B39D153
:10B0300012F8023C0C2B7FF4CFAE12F8033C0C2B21
:10B040007FF4CAAE12F8043C0C2B7FF4C5AE12F8A4
:10B05000053C0C2B7FF4C0AE12F8063C0C2B7FF4A1
:10B06000BBAE12F8073C0C2B7FF4B6AE12F8083CCE
:10B070000C2B7FF4B1AE12F8093C0C2B7FF4ACAE74
:10B0800012F80A3C0C2B7FF4A7AE12F80B3C0C2BE9
:10B090007FF4A2AE12F80C3C0C2B7FF49DAEA5F110
:10B0A0000C0099E60D2B3ED112F8023C0D2B7FF4DB
:10B0B00093AE12F8033C0D2B7FF48EAE12F8043CD5
:10B0C0000D2B7FF489AE12F8053C0D2B7FF484AE76
:10B0D00012F8063C0D2B7FF47FAE12F8073C0D2BC7
:10B0E0007FF47AAE12F8083C0D2B7FF475AE12F89F
:10B0F000093C0D2B7FF470AE12F80A3C0D2B7FF447
:10B100006BAE12F80B3C0D2B7FF466AE12F80C3CC4
:10B110000D2B7FF461AE12F80D3C0D2B7FF45CAE6D
:10B12000A5F10D0058E60E2B43D112F8023C0E2B70
:10B130007FF452AE12F8033C0E2B7FF44DAE12F8A2
:10B14000043C0E2B7FF448AE12F8053C0E2B7FF426
:10B1500043AE12F8063C0E2B7FF43EAE12F8073CCD
:10B160000E2B7FF439AE12F8083C0E2B7FF434AE70
:10B1700012F8093C0E2B7FF42FAE12F80A3C0E2B6E
:10B180007FF42AAE12F80B3C0E2B7FF425AE12F89A
:10B190000C3C0E2B7FF420AE12F80D3C0E2B7FF4EE
:10B1A0001BAE12F80E3C0E2B7FF416AEA5F10E006E
:10B1B00012E60F2B48D112F8023C0F2B7FF40CAE95
:10B1C00012F8033C0F2B7FF407AE12F8043C0F2B50
:10B1D0007FF402AE12F8053C0F2B7FF4FDAD12F8A0
:10B1E000063C0F2B7FF4F8AD12F8073C0F2B7FF4D1
:10B1F000F3AD12F8083C0F2B7FF4EEAD12F8093CCA
:10B200000F2B7FF4E9AD12F80A3C0F2B7FF4E4AD6D
:10B2100012F80B3C0F2B7FF4DFAD12F80C3C0F2B18
:10B220007FF4DAAD12F80D3C0F2B7FF4D5AD12F898
:10B230000E3C0F2B7FF4D0AD12F80F3C0F2B7FF498
:10B24000CBADA5F10F00C7E5102B08BFA5F110008D
:10B25000C2E500002DE9F04F324E4FF00009C1B0B9
:10B2600005460C4690461F4686F8019086F80290E7
:10B2700016F06EF900283FD04FF4807249466846B8
:10B2800008F062FC23071EBF24F00F041034A4B2A0
:10B2900021466A462846FFF77EFDC4B2224669462B
:10B2A000214808F029FC15F069FEC0B23A46414633
:10B2B00028BB1E48DFF870A0DFF874B005F03CFC36
:10B2C0002546D146EDB91B4805F036FC1A4B1B4804
:10B2D0001B68A0F8068007720471C0F800904572E0
:10B2E0000BB107C89847F3780BB933798BB10123B9
:10B2F000737041B0BDE8F08F22462946D0E7104870
:10B30000D8E71AF8011B5846013D05F015FCADB20F
:10B31000D8E70C4B1B6B984741B0BDE8F04F05F0E8
:10B3200031BB00BF3B8C00203C8B0020E274010845
:10B330000675010842720108508C0020448C0020E0
:10B34000F474010878A9030816F07CB916F080B9E6
:10B3500016F0A8B9F82801D816F0AAB96FF00200C3
:10B36000704716F08DB916F091B916F0ADB916F018
:10B37000B1B916F0BBB9000070B5074B5D6C04465F
:10B38000010A4FF4E860A847E1B22B4640F2417051
:10B39000BDE87040184700BF78A903082DE9F04FB9
:10B3A0009BB016F091F90B9016F06AF90C9016F01C
:10B3B00079F90F9016F04CF9109016F043F90D90B2
:10B3C00016F094F9119005F03BFA002800F0A380E4
:10B3D00014A805F041FADDF850B09DF864809DF89E
:10B3E0005470BDF8625015F0C9FDC0B2002840F09D
:10B3F0008A80169C9DF86060013615F0BFFD10F044
:10B40000FF0244D1129216F04DF96FF07F4308937A
:10B410000C9BDFF844A107930B9B129A0E90CDE989
:10B420000253DAF81C30129301205FFA86F9DDF836
:10B4300048C00490CDE90522CDE9007923464FFAB2
:10B4400088F11392E0470E9B139A0092B3FA83F3AC
:10B450005B0909930C9B08930B9B0393BDF83C304D
:10B46000CDE90153DAF818300B930120CDE904201F
:10B47000CDE906224B463A4621460B9FB8470120AC
:10B48000DAF85430FF2198471198FFF775FF15F04F
:10B4900075FDC0B20228304F2ED100206FF07F43DF
:10B4A000CDE907030D9B0093FB690B934FF0010A55
:10B4B000F6B2CDE90500CDE9030ACDE90165109AA0
:10B4C000DDF82CC023464FFA88F1E0470020052321
:10B4D000CDE90153CDE90700CDE905A0CDE9030091
:10B4E000009033462146BD690D9ACDF824A0A847A7
:10B4F0007B6DFF21504698475846FB6898470020CF
:10B500001BB0BDE8F08F15F039FDC0B2022804BFB2
:10B51000179C64086EE715F0A5FF834616F006F841
:10B52000804615F0B1FF074615F0EEFF054615F011
:10B5300025FDC0B230B9FFF790FB044615F0D2FFED
:10B54000461C5AE715F01AFDC0B20228F6D1FFF7E3
:10B5500084FB4408F2E700BF78A903080A4808B54D
:10B560000A4B03600A4B83600A4B43600A4BC3607B
:10B570000A4B03610A4B83610A4B1B689847FFF72C
:10B580000DFF002008BD00BF188B0020EDAA0008A9
:10B5900055B200085DAB000885AB00088DAA000815
:10B5A00069AA000878A90308F8B5254D6B78064606
:10B5B0000C46174623B12B7913B96FF00500F8BD7F
:10B5C000FFF7ECFE15F0C4FF10B321461D4A3046CC
:10B5D000FFF7A2FBC4B21C4E05F0CCF9336B9847C1
:10B5E00001236B70D7B9B36A164821469847FCF718
:10B5F000C2FD0028E3D021461448124D144E05F038
:10B600009BFAA4B2A4B9134805F096FA2046D6E7EF
:10B61000224631460B4808F06FFADCE76B71B36BDA
:10B6200098476B79002BFCD16B78002BDBD1C4E7FA
:10B6300015F8011B3046013C05F07EFAA4B2E1E7A3
:10B640003B8C00203C8B002078A903080B75010877
:10B650000675010842720108B0F5803F70B50446D6
:10B6600041D2431E0D2B214898BF0F240C220021EC
:10B6700008F06AFA1E4B5CB19A781AB9DA780AB9FE
:10B680001A792AB11B4805F057FA6FF0050070BD12
:10B690000122194D5A704CB99C705C70DC701C71A1
:10B6A00005F070F92B6B98470020F0E74FF6FF711B
:10B6B0008C426E6B09D19A70FFF770FE2B6B984726
:10B6C0000020B04705F056F9EEE74FF6FE718C42C8
:10B6D00001D1DA70F0E74FF6FD718C4201D11A7199
:10B6E000EAE72046EDE76FF00200D0E7448C002047
:10B6F0003B8C00202575010878A903080C4B0D4AE6
:10B700000344934210B5044602D96FF0020010BD05
:10B7100012F016FC084B40B19C42F6D9204615F0B9
:10B72000A7FEFFF73BFE0020F1E79C42F6D9ECE7CD
:10B73000802E0FF7809E47300046C32308B5431F75
:10B74000072B05D815F0A6FEFFF728FE002008BD40
:10B750006FF00200FBE7000010B5044615F00EFC88
:10B7600010F0FF000CD17D2C14D0FA2C1CD0B4F5B5
:10B77000FA7F1BD0092C0ED96FF00204204610BDB1
:10B7800015F0FCFBC0B2022805D1094BA4F5965276
:10B790009A42F0E70446204615F092FE044600283F
:10B7A000ECD1FFF7FBFDE9E70124F4E70224F2E71F
:10B7B000780D0700032808B505D815F099FEFFF7A6
:10B7C000EDFD002008BD6FF00200FBE7042808B57E
:10B7D00005D915F09FFEFFF7E1FD002008BD6FF0D1
:10B7E0000200FBE708B5431F112B05D815F0A4FE96
:10B7F000FFF7D4FD002008BD6FF00200FBE700005A
:10B80000084BA0F516729A4210B5044606D8FFF709
:10B81000C5FD2046BDE8104015F0FCBE6FF00200EB
:10B8200010BD00BFE80A0300084BA0F516729A424B
:10B8300010B5044606D8FFF7B1FD2046BDE810401C
:10B8400015F0F4BE6FF0020010BD00BF8891040037
:10B8500010B515F051FF044612F05FFBFFF79EFD97
:10B86000204610BD014B1878704700BF608C002047
:10B87000014B5878704700BF608C0020024820229E
:10B88000002120F090B800BF748C002038B50B4D1B
:10B890000B4C78B171B1012323700A4BE1606272E5
:10B8A0002860836000252582FFF7E8FF6570A57496
:10B8B000A58638BD00232B602370F3E75C8C002045
:10B8C000608C00204DBE000810B50E4C94F8353049
:10B8D0006BB194F83600002184F8351018B9014690
:10B8E000FDF7E8FC03E00128FAD00228F8D094F82C
:10B8F000343033B1002384F83430BDE8104012F006
:10B900000DBB10BD608C002070B54E4B6422196ACF
:10B91000B1FBF2F2D9680120412498720C70997A37
:10B92000DC681D7D0E189E726554997ADC68DD8A8C
:10B930000E189E7265549C7AD98ADD68090A261809
:10B940009E722955997ADC680D189D726254997A15
:10B95000DC680D189D72150A6554997ADC680D181B
:10B96000120C9D726254D9689A7A14189C7293F8DA
:10B9700024408C549A7AD968B3F9264015189D72E0
:10B980008C549A7AD96893F9274015189D728C5473
:10B990009A7AD96893F9284015189D728C549A7A2E
:10B9A000D96814189C7293F829408C549A7AD968F3
:10B9B0009C6915189D728C54DC689A69997A120AF0
:10B9C0000D189D7262549A7AD9685C8B15189D7215
:10B9D0008C549A7AD968DC7E15189D728C549A7AA8
:10B9E000D96814189C7293F82A408C549A7AD968B2
:10B9F00014189C7293F82B408C549A7AD9681418B6
:10BA00009C7293F82C408C549A7AD96814189C72C2
:10BA100093F82D408C549A7AD96814189C7293F834
:10BA20002E408C549A7AD96814189C7293F82F403F
:10BA30008C549A7AD96814189C7293F830408C54BC
:10BA4000587070BD608C00202DE9F047B04C237811
:10BA50008CB0002B52D0C3780BB9837C13B1238AEE
:10BA600001332382437B002B48D0C378E02B45D1A0
:10BA70000025A572876897F80080B8F1220F27D8B3
:10BA8000B8F1220F35D8DFE818F0C700D800DC0085
:10BA9000FB00020113011A0135014B01630176011C
:10BAA00034003400340034003400340034003400F6
:10BAB00034003400340034003400340034003400E6
:10BAC00034003400340034003400780187018B01E5
:10BAD000B8F17D0F00F07F8113D8B8F1420F00F06C
