:020000040801F1
:10E00000034613F8012B002AFBD1181A0138704778
:10E0100081F0004102E000BF83F0004330B54FEAD9
:10E0200041044FEA430594EA050F08BF90EA020F46
:10E030001FBF54EA000C55EA020C7FEA645C7FEAD9
:10E04000655C00F0E2804FEA5454D4EB5555B8BFFC
:10E050006D420CDD2C4480EA020281EA030382EA6D
:10E06000000083EA010180EA020281EA0303362DFF
:10E0700088BF30BD11F0004F4FEA01314FF4801CD2
:10E080004CEA113102D0404261EB410113F0004FE4
:10E090004FEA03334CEA133302D0524263EB43039B
:10E0A00094EA050F00F0A780A4F10104D5F1200E39
:10E0B0000DDB02FA0EFC22FA05F2801841F1000194
:10E0C00003FA0EF2801843FA05F359410EE0A5F168
:10E0D00020050EF1200E012A03FA0EFC28BF4CF099
:10E0E000020C43FA05F3C01851EBE37101F000454F
:10E0F00007D54FF0000EDCF1000C7EEB00006EEB5C
:10E100000101B1F5801F1BD3B1F5001F0CD34908E5
:10E110005FEA30004FEA3C0C04F101044FEA44523C
:10E1200012F5800F80F09A80BCF1004F08BF5FEAC3
:10E13000500C50F1000041EB045141EA050130BDA3
:10E140005FEA4C0C404141EB0101013C28BFB1F5B5
:10E15000801FE9D291F0000F04BF01460020B1FA00
:10E1600081F308BF2033A3F10B03B3F120020CDAD3
:10E170000C3208DD02F1140CC2F10C0201FA0CF0B1
:10E1800021FA02F10CE002F11402D8BFC2F1200C16
:10E1900001FA02F120FA0CFCDCBF41EA0C019040CC
:10E1A000E41AA2BF01EB0451294330BD6FEA040415
:10E1B0001F3C1CDA0C340EDC04F11404C4F1200200
:10E1C00020FA04F001FA02F340EA030021FA04F312
:10E1D00045EA030130BDC4F10C04C4F1200220FA69
:10E1E00002F001FA04F340EA0300294630BD21FAA7
:10E1F00004F0294630BD94F0000F83F4801306BF6D
:10E2000081F480110134013D4EE77FEA645C18BF60
:10E210007FEA655C29D094EA050F08BF90EA020FF7
:10E2200005D054EA000C04BF1946104630BD91EAEF
:10E23000030F1EBF0021002030BD5FEA545C05D1F2
:10E240004000494128BF41F0004130BD14F5800431
:10E250003CBF01F5801130BD01F0004545F0FE41A5
:10E2600041F470014FF0000030BD7FEA645C1ABFDA
:10E27000194610467FEA655C1CBF0B46024650EA11
:10E28000013406BF52EA033591EA030F41F400213D
:10E2900030BD00BF90F0000F04BF0021704730B5C3
:10E2A0004FF4806404F132044FF000054FF0000198
:10E2B00050E700BF90F0000F04BF0021704730B559
:10E2C0004FF4806404F1320410F0004548BF40422E
:10E2D0004FF000013EE700BF42004FEAE2014FEA83
:10E2E00031014FEA02701FBF12F07F4393F07F4F5E
:10E2F00081F06051704732F07F4208BF704793F061
:10E300007F4F04BF41F40021704730B54FF4607473
:10E3100001F0004521F000411CE700BF50EA010276
:10E3200008BF704730B54FF000050AE050EA01021F
:10E3300008BF704730B511F0004502D5404261EB8F
:10E3400041014FF4806404F132045FEA915C3FF4D0
:10E35000D8AE4FF003025FEADC0C18BF03325FEA6D
:10E36000DC0C18BF033202EBDC02C2F1200300FA1E
:10E3700003FC20FA02F001FA03FE40EA0E0021FA43
:10E3800002F11444BDE600BF4FF0FF3C06E000BFC1
:10E390004FF0010C02E000BF4FF0010C4DF804CD2E
:10E3A0004FEA410C7FEA6C5C4FEA430C18BF7FEAEE
:10E3B0006C5C1BD001B050EA410C0CBF52EA430C1C
:10E3C00091EA030F02BF90EA020F0020704710F19C
:10E3D000000F91EA030F58BF994208BF90422CBF2B
:10E3E000D8176FEAE37040F0010070474FEA410C24
:10E3F0007FEA6C5C02D150EA013C07D14FEA430C42
:10E400007FEA6C5CD6D152EA033CD3D05DF8040BB2
:10E41000704700BF8446104662468C4619466346E4
:10E4200000E000BF01B5FFF7B7FF002848BF10F1BB
:10E43000000F01BD4DF808EDFFF7F4FF0CBF012000
:10E4400000205DF808FB00BF4DF808EDFFF7EAFF7C
:10E4500034BF012000205DF808FB00BF4DF808ED37
:10E46000FFF7E0FF94BF012000205DF808FB00BF2C
:10E470004DF808EDFFF7CEFF94BF012000205DF8B6
:10E4800008FB00BF4DF808EDFFF7C4FF34BF0120C3
:10E4900000205DF808FB00BF4FEA410212F50012B0
:10E4A00015D211D56FF47873B3EB625212D94FEADB
:10E4B000C12343F0004343EA505311F0004F23FAC5
:10E4C00002F018BF404270474FF00000704750EA1A
:10E4D000013005D111F0004008BF6FF000407047D7
:10E4E0004FF00000704700BF80F0004002E000BF26
:10E4F00081F0004142001FBF5FEA410392EA030F2F
:10E500007FEA226C7FEA236C6AD04FEA1262D2EB78
:10E510001363C1BFD218414048404140B8BF5B427D
:10E52000192B88BF704710F0004F40F4000020F016
:10E530007F4018BF404211F0004F41F4000121F02C
:10E540007F4118BF494292EA030F3FD0A2F1010276
:10E5500041FA03FC10EB0C00C3F1200301FA03F1B4
:10E5600000F0004302D5494260EB4000B0F5000FD7
:10E5700013D3B0F1807F06D340084FEA310102F196
:10E580000102FE2A51D2B1F1004F40EBC25008BF48
:10E5900020F0010040EA03007047490040EB000012
:10E5A000013A28BFB0F5000FEDD2B0FA80FCACF113
:10E5B000080CB2EB0C0200FA0CF0AABF00EBC25040
:10E5C00052421843BCBFD0401843704792F0000F2E
:10E5D00081F4000106BF80F400000132013BB5E781
:10E5E0004FEA41037FEA226C18BF7FEA236C21D0F7
:10E5F00092EA030F04D092F0000F08BF084670475C
:10E6000090EA010F1CBF0020704712F07F4F04D129
:10E61000400028BF40F00040704712F100723CBF3C
:10E6200000F50000704700F0004343F0FE4040F466
:10E63000000070477FEA226216BF08467FEA236324
:10E640000146420206BF5FEA412390EA010F40F40F
:10E65000800070474FF0000304E000BF10F000435B
:10E6600048BF40425FEA000C08BF704743F0964342
:10E6700001464FF000001CE050EA010208BF70475D
:10E680004FF000030AE000BF50EA010208BF7047E4
:10E6900011F0004302D5404261EB41015FEA010CF9
:10E6A00002BF84460146002043F0B64308BFA3F1F1
:10E6B0008053A3F50003BCFA8CF2083AA3EBC253D3
:10E6C00010DB01FA02FC634400FA02FCC2F12002F2
:10E6D000BCF1004F20FA02F243EB020008BF20F029
:10E6E0000100704702F1200201FA02FCC2F120028F
:10E6F00050EA4C0021FA02F243EB020008BF20EA84
:10E70000DC7070474FF0FF3C06E000BF4FF0010C9B
:10E7100002E000BF4FF0010C4DF804CD4FEA40027B
:10E720004FEA41037FEA226C18BF7FEA236C11D0C5
:10E7300001B052EA530C18BF90EA010F58BFB2EB78
:10E74000030088BFC81738BF6FEAE17018BF40F0F8
:10E75000010070477FEA226C02D15FEA402C05D1AC
:10E760007FEA236CE4D15FEA412CE1D05DF8040B31
:10E77000704700BF844608466146FFE70FB5FFF7C4
:10E78000C9FF002848BF10F1000F0FBD4DF808ED7C
:10E79000FFF7F4FF0CBF012000205DF808FB00BF6D
:10E7A0004DF808EDFFF7EAFF34BF012000205DF8C7
:10E7B00008FB00BF4DF808EDFFF7E0FF94BF012014
:10E7C00000205DF808FB00BF4DF808EDFFF7D2FF11
:10E7D00094BF012000205DF808FB00BF4DF808ED54
:10E7E000FFF7C8FF34BF012000205DF808FB00BF21
:10E7F0007BB972B90029BEBF00204FF0004106E08E
:10E8000008BF00281CBF6FF000414FF0FF3000F040
:10E81000BFB9ADF1080C6DE904CE002909DB002B6E
:10E820001ADB00F04DF8DDF804E0DDE9022304B066
:10E830007047404261EB4101002B1BDB00F040F8C8
:10E84000DDF804E0DDE9022304B0404261EB410160
:10E85000524263EB43037047524263EB430300F0C1
:10E860002FF8DDF804E0DDE9022304B0404261EB5B
:10E8700041017047524263EB430300F021F8DDF899
:10E8800004E0DDE9022304B0524263EB4303704726
:10E8900053B94AB9002908BF00281CBF4FF0FF3107
:10E8A0004FF0FF3000F074B9ADF1080C6DE904CE03
:10E8B00000F006F8DDF804E0DDE9022304B070475B
:10E8C0002DE9F047089E0D4604468846002B4DD1A1
:10E8D0008A42944668D9B2FA82F252B101FA02F33E
:10E8E000C2F1200120FA01F10CFA02FC41EA03080E
:10E8F00094404FEA1C45210CB8FBF5FE1FFA8CF73B
:10E9000005FB1E8341EA03430EFB07F199420BD935
:10E910001CEB03030EF1FF3080F01E81994240F2A0
:10E920001B81AEF1020E63445B1AA4B2B3FBF5F097
:10E9300005FB103344EA034400FB07F7A7420AD95A
:10E940001CEB040400F1FF3380F00881A74240F281
:10E95000058164440238E41B40EA0E4000211EB1E8
:10E96000D4400023C6E90043BDE8F0878B4208D9B4
:10E97000002E00F0EE800021C6E900050846BDE843
:10E98000F087B3FA83F100294AD1AB4202D3824225
:10E9900000F2F980841A65EB030301209846002EEB
:10E9A000E2D0C6E90048DFE702B9FFDEB2FA82F240
:10E9B000002A40F09180A1EB0C054FEA1C471FFA9A
:10E9C0008CFE0121B5FBF7F307FB1350250C45EA3C
:10E9D00000450EFB03F0A84208D91CEB050503F126
:10E9E000FF3802D2A84200F2CB8043462D1AA4B2CF
:10E9F000B5FBF7F007FB105544EA05440EFB00FE9B
:10EA0000A64508D91CEB040400F1FF3502D2A64547
:10EA100000F2BB802846A4EB0E0440EA03409EE7C8
:10EA2000C1F120078B4022FA07FC4CEA030C20FAC4
:10EA300007F405FA01F31C43FD404FEA1C4900FAB4
:10EA400001F3B5FBF9F8200C1FFA8CFE09FB1855F1
:10EA500040EA054508FB0EF0A84202FA01F20BD984
:10EA60001CEB050508F1FF3A80F08880A84240F2CF
:10EA70008580A8F1020865442D1AA4B2B5FBF9F00F
:10EA800009FB105544EA054500FB0EFEAE4508D9CA
:10EA90001CEB050500F1FF346CD2AE456AD9023893
:10EAA000654440EA0840A0FB0294A5EB0E05A54290
:10EAB000C846A64656D353D05EB1B3EB080265EB09
:10EAC0000E0505FA07F722FA01F3CD401F43C6E908
:10EAD00000750021BDE8F087C2F1200320FA03F1A0
:10EAE0000CFA02FC25FA03F395400D434FEA1C474C
:10EAF0001FFA8CFEB3FBF7F107FB11302B0C43EA36
:10EB0000004301FB0EF0984204FA02F408D91CEB12
:10EB1000030301F1FF382FD298422DD90239634403
:10EB20001B1AADB2B3FBF7F007FB103345EA034500
:10EB300000FB0EF3AB4208D91CEB050500F1FF38D2
:10EB400016D2AB4214D902386544ED1A40EA0141AD
:10EB500038E73146304607E78646E5E61846FAE6E6
:10EB60004B45A9D2B9EB020864EB0C0E0138A3E7C0
:10EB70004046EAE7204694E74146D1E7D0467BE7A6
:10EB8000023B654432E7084609E76444023842E73D
:10EB9000704700BF054808B5082303600AF0EEFA85
:10EBA00018B1BDE8084002F05BBD08BDD0020020EE
:10EBB00007B54FF0B04332205A6E42F001025A6658
:10EBC0005B6E002203F0010301931146019B04F0E8
:10EBD0001DF9322003B05DF804EB04F049B94FF0A1
:10EBE000B0423220536E23F00103536604F04EB955
:10EBF0004FF0B04382B0DA6C0243DA64DB6C184049
:10EC00000190019B02B070472DE9F04186B01422BB
:10EC1000002101A81CF07EFC0220FFF7E9FF144D43
:10EC2000144F0420FFF7E4FF4FF480760123002403
:10EC3000CDE9016301A903232846CDE903434FF43D
:10EC400000580AF081FD01A93846CDF804800AF089
:10EC50007BFD2246414638460AF0A2FE284622465F
:10EC600031460AF09DFE204606B0BDE8F08100BFA7
:10EC7000000400480008004838B502200F4D104C31
:10EC8000FFF7B6FF0420FFF7B3FF4FF4807128466B
:10EC900000220AF085FE002220464FF400510AF0BF
:10ECA0007FFE28464FF480710AF000FE20464FF4A4
:10ECB00000510AF0FBFD002038BD00BF00040048F1
:10ECC00000080048032810B50ED8012810D868B9EC
:10ECD00002460B484FF480710AF062FE0022094898
:10ECE0004FF400510AF05CFE002010BD0122F0E755
:10ECF000002203484FF480710AF052FE0122EEE731
:10ED000000040048000800480220704700207047B7
:10ED100001207047024B9868024BC043186070474F
:10ED200000280040E0020020014B1868704700BF37
:10ED3000E0020020034B044A9B681068DB43181A6A
:10ED4000704700BF00280040E0020020034B187805
:10ED500010B1034B9868C043704700BFDC0200202D
:10ED6000002800400320704708B501464FF47A722E
:10ED70000023C003490CFFF78BFD08BD4FF47A73E5
:10ED8000A0FB0330DB0B43EA4040704710B5074B54
:10ED9000074C0122DA654FF48071204608F0FCF838
:10EDA0004FF0FF332363002010BD00BF0028004058
:10EDB000D844002002460021014809F011BB00BFE1
:10EDC000D844002002460121014809F009BB00BFD8
:10EDD000D844002010B58CB02C220021044601A894
:10EDE0001CF098FBFFF7D2FF0C4B1868002304447B
:10EDF000089306934FF00053E443079308480294A6
:10EE00004FF48073012201A90B9308F09FFB08B116
:10EE100002F026FC00200CB010BD00BFE002002074
:10EE2000D844002038B50A4B9C68054602210948A1
:10EE300009F0DDFAE343C3F30E024FF47A71A2FB4B
:10EE40000121D20BDB0B2A8043EA404038BD00BFD2
:10EE500000280040D84400200148002109F0C7BA2A
:10EE6000D84400200148012109F0C1BAD84400204B
:10EE7000F8B5114E3578E5B9104C2A4629464FF0C1
:10EE8000FF372846276303F08FFDFFF77FFF4FF41E
:10EE90008071204608F080F82046276309F05AF870
:10EEA00020462A46022109F09BFAFFF733FF01238F
:10EEB00033700020F8BD00BFDC020020D8440020E1
:10EEC000014608B54FF47A720023C003490CFFF7DE
:10EED000DFFC05498A68D2438B68DB439B1A834277
:10EEE00000D308BD00BFF7E70028004006F0F0B8E7
:10EEF00010B5064C0221204609F079FA0221421C85
:10EF00002046BDE8104009F06BBA00BFD84400208D
:10EF1000704703F0FBBC03F0FEBC7047BFF34F8F9C
:10EF20000549064BCA6802F4E0621343CB60BFF3A5
:10EF30004F8F00BFFDE700BF00ED00E00400FA05C1
:10EF400070B586B01022002102A81CF0E3FA4FF041
:10EF5000B0430E4DDA6C42F00202DA64DB6C03F06F
:10EF600002034FF48056009301A92846009B0196A6
:10EF70000AF0EAFB314628460AF00CFD3146044609
:10EF800028460AF093FC204606B070BD00040048F5
:10EF900070B50C4606460DF079FD0025043CA9B27B
:10EFA0008C4205F1010503D8BDE870400DF08CBD21
:10EFB000012231440DF06EFDF1E700000EB403B5FF
:10EFC000054A04AB1821019306F0C6F802B05DF8BB
:10EFD00004EB03B0704700BFC0B8030802F0D8BE0E
:10EFE00002F0FEBE02F074BF08B503F00DF8C0B227
:10EFF00008BD022808B503D803F00CF8002008BDAE
:10F000006FF00600FBE703F011B800B58BB00123E9
:10F0100068468DF800300FF04DFF38B99DF80400B8
:10F02000003818BF01200BB05DF804FB0020FAE7A0
:10F0300030B58BB005460C4602F0F8FF30B92146DA
:10F0400028460BB0BDE8304002F0F2BE0F2C03D8CA
:10F050006FF006000BB030BDFFF7D7FF044630B9A4
:10F060000146102228461CF055FA2046F2E70F23ED
:10F0700068468DF800300FF01DFF04460028E7D1E8
:10F080000199102228461CF037FAEEE730B58BB014
:10F0900005460C4602F0CAFF30B9214628460BB09F
:10F0A000BDE8304002F0ECBE032C03D86FF0060040
:10F0B0000BB030BDFFF7A9FF044630B9014604226A
:10F0C00028461CF027FA2046F2E7072368468DF809
:10F0D00000300FF0EFFE0028E8D1019B1BBA2B6037
:10F0E000E6E702F06DBF072801D802F06FBF6FF0AE
:10F0F0000200704702F076BF02F07ABF30B58BB0E5
:10F1000005460C4602F092FF30B9214628460BB066
:10F11000BDE8304002F02CBF0F2C03D86FF0060082
:10F120000BB030BDFFF771FF044630B90146102225
:10F1300028461CF0EFF92046F2E70E2368468DF8CA
:10F1400000300FF0B7FE04460028E7D101991022E5
:10F1500028461CF0D1F9EEE730B58BB005460C46D9
:10F1600002F064FF30B9214628460BB0BDE83040BC
:10F1700002F0D6BE032C03D86FF006000BB030BDF2
:10F18000FFF743FF044630B90146042228461CF02D
:10F19000C1F92046F2E7062368468DF800300FF0EB
:10F1A00089FE04460028E7D104220DEB020128461F
:10F1B0001CF0A2F9EDE7704702F04ABF02F05ABF17
:10F1C00008B503F09DFA003818BF012008BD38B516
:10F1D0000C46054611F04EFC24B12846BDE83840E7
:10F1E00003F082BA204638BD00B58BB02D236846A7
:10F1F0008DF800300FF05EFE9DF804000BB05DF856
:10F2000004FB02F06DBF02F07DBF02F09FBF00B5AE
:10F210008BB002F00BFF01280DD1FFF7F6FE50B1C5
:10F22000272368468DF800300FF044FE00B901989E
:10F230000BB05DF804FB0BB05DF804EB02F098BF77
:10F2400002F0A8BF02F0B8BF02F0DABF02F0DEBFE2
:10F250001FB52E238DF8083002F06AFD02A915F0C3
:10F260009EFA05B05DF804FB1FB530238DF8083019
:10F2700002F05EFD02A915F092FA05B05DF804FBFC
:10F2800010B590B0044605A806F014F9059807A932
:10F29000123806F0D3F90C9B094903F26C730393FF
:10F2A0000A9B02930B9B01330193079B009320461B
:10F2B000DDE90832FFF782FE002010B010BD00BF6C
:10F2C000C0B8030800B58BB01F2368468DF8003026
:10F2D0000FF0F0FD18B901980BB05DF804FB6FF06A
:10F2E0000600F9E700B58BB01F2368468DF80030A3
:10F2F0000FF0E0FD20B99DF808000BB05DF804FBAD
:10F30000F920FAE702F06ABF022801D802F06CBFC8
:10F310006FF00200704702F085BF02F089BF02F073
:10F3200093BF02F097BF02F0A1BF02F0A5BF02F0A9
:10F33000AFBF02F0B3BF02F0BDBF02F0C1BF02F029
:10F34000CBBF02F0CFBF02F0D9BF02F0DDBF02F0A9
:10F35000E7BF02F0EBBF00B1012002F0F3BF02F003
:10F36000FDBF02F0E5BC08B502F0E2FC431EDBB2D3
:10F37000012B03D900F0FD00082803D1BDE80840A7
:10F3800003F0A4B86FF0060008BD10B5044615F0F0
:10F3900001FA40B914B1143C022C04D8BDE8104065
:10F3A000002015F0F7B910BD30B58BB00D460446FE
:10F3B00002F0BEFCFFF7E9FFA0B1032368468DF819
:10F3C000003001940FF0C4FE38B101280CBF6FF07B
:10F3D00005006FF006000BB030BD2946204602F054
:10F3E000E5FCF8E76FF01000F5E730B58BB00D469F
:10F3F000044602F09DFCFFF7C8FFE8B10823684609
:10F400008DF8003001940FF0A3FE38B101280CBF35
:10F410006FF005006FF006000BB030BD09236846A1
:10F420008DF8003001940FF093FE0028EED12946AC
:10F43000204602F0E3FCEFE76FF01000ECE730B598
:10F440008BB00D46044602F073FCFFF79EFFD8B167
:10F4500002F0DAFDC0B201280FD1022368468DF810
:10F46000003001940FF074FE38B101280CBF6FF02A
:10F4700005006FF006000BB030BD294620460BB0EA
:10F48000BDE8304002F032BD6FF01000F3E730B558
:10F490008BB00C46054602F04BFCFFF776FF88B1B7
:10F4A000052368468DF800308DF804500FF050FEAB
:10F4B00003280AD001280BD06CB1284602F0CEFDFB
:10F4C0000BB030BD6FF01000FAE76FF00200F7E705
:10F4D0006FF00500F4E72046F2E730B58BB00C463C
:10F4E000054602F025FCFFF750FF68B12923684666
:10F4F0008DF8003001950FF02BFE40B954B128462D
:10F5000002F0F4FD0BB030BD6FF01000FAE76FF0C1
:10F510000600F7E72046F5E730B58BB00C46054608
:10F5200002F006FCFFF731FF68B12A2368468DF828
:10F53000003001950FF00CFE40B954B1284602F09E
:10F54000E7FD0BB030BD6FF01000FAE76FF006007A
:10F55000F7E72046F5E730B58BB00C46054602F0DC
:10F56000E7FBFFF712FF70B11D2368468DF80030EE
:10F570008DF804500FF0ECFD40B954B1284602F06C
:10F58000EBFD0BB030BD6FF01000FAE76FF0060036
:10F59000F7E72046F5E770B58AB00C46054602F05D
:10F5A000C7FBFFF7F2FE00B3272368468DF8003053
:10F5B00001950FF0CDFD18B16FF006000AB070BDD7
:10F5C000282305F57A7668468DF8003001960FF00D
:10F5D000BFFD0028F0D15CB1304602F0E1FD00280B
:10F5E000ECD1284602F0CAFDE8E76FF01000E5E72D
:10F5F0002046E3E770B58AB00C46054602F098FB5A
:10F60000FFF7C3FE00B3282368468DF8003001954C
:10F610000FF09EFD18B16FF006000AB070BD2723F1
:10F62000A5F57A7668468DF8003001960FF090FDCA
:10F630000028F0D15CB1304602F0A0FD0028ECD1EA
:10F64000284602F0ADFDE8E76FF01000E5E7204640
:10F65000E3E730B58BB00C46054602F069FBFFF7D7
:10F6600094FE88B11F2368468DF800300FF022FC0D
:10F6700068B9684601950FF06BFD58B96CB1284622
:10F6800002F052FD0BB030BD6FF01000FAE76FF0E2
:10F690000600F7E76FF00200F4E72046F2E770B5E6
:10F6A0008AB00C46054602F043FBFFF76EFE30B30E
:10F6B0001F2668468DF800600FF0FCFBB8B92123C7
:10F6C00068468DF800308DF808500FF041FD68460F
:10F6D0008DF800608DF808500FF03AFD28B94CB154
:10F6E000284602F0F1FC0AB070BD032804D06FF088
:10F6F0000600F8E72046F6E76FF00200F3E76FF048
:10F700001000F0E72DE9F0438BB0342368468DF804
:10F7100000300FF0CFFB019C02F03AFE804602F071
:10F720004FFE074602F066FE064602F07DFE0546E5
:10F7300002F094FE382181464046FFF729FCD8F8B4
:10F740003430984204D13822414620461BF0D4FE82
:10F7500020213846FFF71CFCFB69984205D1202286
:10F76000394604F138001BF0C7FE4FF4C271304631
:10F77000FFF70EFCD6F88031984206D14FF4C272E2
:10F78000314604F158001BF0B7FE4FF4D071284603
:10F79000FFF7FEFBD5F89C31984206D14FF4D072AA
:10F7A000294604F5EE701BF0A7FE002309F10402C0
:10F7B00004F5657459F8231019B152F8231044F870
:10F7C00023100333B3F5907FF4D10BB0BDE8F08381
:10F7D00030B58BB00D46044602F0AAFAFFF7D5FD0E
:10F7E000D0B10F2368468DF8003001940FF0B0FCC3
:10F7F00038B101280CBF6FF005006FF006000BB0A8
:10F8000030BD02F077F802F06BF8FFF77BFF294676
:10F81000204602F01BFBF2E76FF01000EFE730B577
:10F820008BB00D46044602F083FAFFF7AEFDE0B15F
:10F8300007238DF80030236868461BBA01930FF048
:10F8400087FC38B101280CBF6FF005006FF006008F
:10F850000BB030BD02F04EF802F042F8FFF752FF55
:10F860002946204602F01AFBF2E76FF01000EFE79E
:10F8700030B58BB00D46044602F05AFAFFF785FD0D
:10F8800060B30C2368468DF8003001940FF060FCE3
:10F8900038B101280CBF6FF005006FF006000BB007
:10F8A00030BD0D2368468DF8003001940FF050FCF8
:10F8B0000028EED10E2368468DF8003001940FF039
:10F8C00047FC0028E5D102F015F802F009F8FFF72F
:10F8D00019FF2946204602F059FBE0E76FF01000BF
:10F8E000DDE7000038B50B4D042455F8043B5BB14F
:10F8F0001B694BB155F8043C9B682BB1984718B174
:10F9000055F8043C1B699847013C14F0FF04ECD106
:10F9100038BD00BFE8020020024A03484FF42571B9
:10F9200001F054BD2042002000F0030810B590B053
:10F9300001248DF8044002F0AFFB02238DF809008A
:10F9400001A88DF8083010F0FDF860B9342306A83E
:10F950008DF818300FF0AEFA079B9888FFF7F9FC86
:10F96000204610B010BD0020FBE708B502F0E0F91A
:10F9700028B1A0F11403DBB2022B98BF002008BD10
:10F9800070B592B035238DF8203008A87B4B0993D1
:10F990000FF0DEFB0446002840F0D780FFF7E5FFBC
:10F9A00001AD0528C5E90144019406D102F08EFDA0
:10F9B000002852D10723ADF80430012308A88DF8A0
:10F9C00020300FF077FA28B99DF82430012B08BFBA
:10F9D0008DF8240004AC08A80FF0BAFB08212046DB
:10F9E00002F076FA022308A88DF8203009940FF06F
:10F9F000AFFB002840F0B2800821204602F0C8F991
:10FA0000032308A88DF8203009940FF0A1FB0028EB
:10FA100040F0A7801021204602F0E2F9082308A850
:10FA20008DF8203009940FF093FB002840F09C8063
:10FA3000092308A809948DF820300FF089FB0446AB
:10FA4000002840F0948000F024FA8DF8204002F065
:10FA500011FB78BB8DF8240034E01E2308A88DF834
:10FA600020300FF027FA0C26FFF77DFC099A06FBE1
:10FA700004F3D358984219D1012000FA04F4232347
:10FA800008A8ADF804408DF8203009950FF060FB10
:10FA900000285DD1242308A88DF8203009950FF0A7
:10FAA00057FB002889D06FF003004CE0032C52D0A4
:10FAB0000134D9E702F0DEFA0128CBD002F0DAFAFD
:10FAC0000228C7D008A80FF043FB0446002851D1F4
:10FAD00002F0BEFA2146FFF7DAFC02F0EFFA214607
:10FAE000FFF7DDFD02F02CFB2146FFF7B2FD02F02F
:10FAF000F7FA2146FFF7F1FC02F028FB2146FFF759
:10FB00002AFD02F035FB2146FFF745FD02F0F8FD26
:10FB100010F0B0FF342308A88DF820300FF0CAF998
:10FB2000099C02F0FDFBA08002F018FC003818BF11
:10FB30000120302384F8AF018DF8203008A8192364
:10FB400009930FF005FB12B070BD4FF0FF30FAE7DC
:10FB50006FF00200F7E76FF00100F4E76FF00400C8
:10FB6000F1E76FF00500EEE76FF00600EBE76FF0EE
:10FB70000700E8E76FF00800E5E700BF00040001B8
:10FB800030B58DB00D46044602F086FA003D18BF30
:10FB900001258DF8160001A960788DF808500FF046
:10FBA00029F9A0B100238DF808300493ADF8143082
:10FBB000092307A88DF81C300FF0C4FF02A810F02D
:10FBC00095FE003818BF012040420DB030BD2378AB
:10FBD0008DF80C306378ADF8143063680493E7E770
:10FBE00084B0F0B58BB010AC84E80F00684D0023F2
:10FBF0008DF803300A4605EB830149688A4200F01C
:10FC0000C4800D33342BF6D1614B00245868E6B222
:10FC1000002840F0AF8010AB4FF4807713F8081B3A
:10FC20008DF87040CDE9022316ABCDE904300229EE
:10FC30004FF6FF7306938DF81C101A9BADF80470F5
:10FC40008DF8066059D163B308939DF86C308DF838
:10FC5000243001A80FF008FE002840F096809DF89F
:10FC600006000DF1030207A90FF0BAFE9DF803305C
:10FC700023F003031843C0B2002840F086803422EA
:10FC800010A902FB04501BF037FC414802F0EEFBC8
:10FC9000002818BF6FF006000BB0BDE8F04004B0BC
:10FCA0007047FFF75EFB0A286FD8DFE800F0060A0E
:10FCB000161A1C1E20220A240A00364B089302231F
:10FCC00002E0354B089308238DF82430089B1A93E3
:10FCD0009DF824308DF86C30BBE7304B089300233F
:10FCE000F2E72F4BFAE72F4BF8E72F4BF6E72F4BB6
:10FCF000F4E72F4BE2E72F4BF0E74BB108939DF869
:10FD00006C308DF82430BDF86E30ADF82630A0E7A9
:10FD1000FFF727FB0A2838D8DFE800F0060A161A92
:10FD20001C1E20220A262800234B0893032302E0EE
:10FD3000194B089308238DF82430089B1A939DF8DB
:10FD400024308DF86C30DEE71C4B08930223F2E779
:10FD50001B4BEAE7134BE8E7134BE6E7194BE4E7E5
:10FD6000134B08930423E6E7174BDEE70A4B08938F
:10FD70000A23E0E70134042C03F134037FF446AF97
:10FD80001248342200211BF0C5FB6FF00F0083E7FF
:10FD9000F802002000EA0637A070083720441E1E33
:10FDA0008068D92E2876E81908E6D333E013F336B5
:10FDB000F080A633E069CD3340F7093720937F1DEB
:10FDC0004026CA2E6063053710D62D05C8030020D3
:10FDD000104A38B5002314465168814213D13425A6
:10FDE00005FB034494F830000FF0B8FD014638B924
:10FDF0002A4620461BF08EFB064802F037FB08B16E
:10FE00006FF0060038BD0133042B02F13402E3D158
:10FE1000F6E700BFF8020020F0B58FB01B4E054694
:10FE20003422002101A81BF075FB012386F8313034
:10FE3000022386F86530032386F8993004233422A0
:10FE40000DEB0301284686F8CD301BF045FB40B989
:10FE50000E49342228461BF04FFB6FF00D000FB007
:10FE6000F0BD374600243422394628461BF034FBC7
:10FE700030B9032CF3D0342204FB02213144E9E7EA
:10FE80000134042C07F13407EDD1E1E7F80200203A
:10FE900070472DE9F043BFB002F0E4FAD0220146EA
:10FEA0000AA81BF029FB0AAE4FF000084FF03409F6
:10FEB000736853B908F10108B8F1040F06F134066C
:10FEC000F6D100203FB0BDE8F0833EAB09FB08341B
:10FED000A4F1D007C03C0FCC6D460FC50FCC0FC5A9
:10FEE00023682B6097E80F00FFF77AFE0028E1D027
:10FEF0006FF00600E6E7000038B5094D002405EB79
:10FF00008403586820B90D34342CF8D1002038BD52
:10FF1000FFF75EFF0028F6D06FF00600F7E700BF9E
:10FF2000F8020020024B1B68DB6A03B118477047D8
:10FF3000CC03002070B5114E042456F8045B2DB993
:10FF4000013C14F0FF04F8D1204670BD00F082FAA5
:10FF50008542F5D156F8045C00F024FD8542EFD1CE
:10FF600056F8045C00F042FF8542E9D156F8043CA3
:10FF7000DB6898470028E3D0E7E700BFD003002004
:10FF8000024B1960024B1860704700BFE00300206D
:10FF9000CC03002008B50EF041F918B9BDE80840BF
:10FFA000FFF7C8BF08BD00007FB51048104B0068C0
:10FFB0001978C0788DF8090001228DF8042081B1EC
:10FFC00002218DF808101A7001A80FF0BBFD094B33
:10FFD0001B68DB6913B1059A01A9984707B05DF862
:10FFE00004FB8DF808201970EEE700BFE003002045
:10FFF00000000020CC03002000B58BB00123684630
:020000040802F0
:100000008DF800300EF056FF38B99DF80400003826
:1000100018BF01200BB05DF804FB0020FAE70000D8
:1000200010B586B0092301A88DF804300FF08AFDC1
:10003000064B1B68DB69044613B1059A01A9984772
:10004000201E18BF0120404206B010BDCC03002086
:1000500010B588B00C2300F007008DF810000DEBF0
:1000600003008DF80C300FF06DFD0B4B1B68DB6946
:10007000044613B1079A03A9984754B9074B029451
:100080001B68ADF80440997801A8FFF779FD08B026
:1000900010BD4FF0FF30FAE7CC030020E003002052
:1000A00070B58AB00546002668468DF800600EF0EF
:1000B00001FF9DF80440AC4224D0012D0FD0022D49
:1000C00011D0FDB944B168468DF804500FF040F8E6
:1000D0000446A0B14FF0FF3420460AB070BDFFF7D0
:1000E0009FFF0446F8E7003C18BF012468466442BD
:1000F0008DF804500FF02CF80028EBD12846FFF7BC
:1001000011FFE9E73446E7E700B58BB00023684606
:100110008DF800300EF0CEFE9DF804000BB05DF8B7
:1001200004FB00B58BB02D2368468DF800300EF02F
:10013000C1FE9DF904000BB05DF804FB014B1B6888
:1001400018787047E003002000B58BB03023019091
:1001500068468DF800300EF0FBFF003818BF012014
:1001600040420BB05DF804FB034B53F82030986815
:1001700000B10047704700BFD0030020F8B50E4F14
:1001800006460C46042557F8043B4BB1032E07D80E
:10019000DFE806F0020B0D0F5B690BB120469847B4
:1001A000013D15F0FF05EED1F8BD9B69F5E7DB6970
:1001B000F3E71B6AF1E700BFD003002038B50B4D11
:1001C000002455F8043BE4B24BB11B693BB1204617
:1001D000FFF7CAFF18B155F8043C1B699847013472
:1001E000E3B2042B64B2ECD138BD00BFD0030020D1
:1001F000114B1B6E13B503B198470FF0B7FD0F4BB2
:100200001B681B6913B1002101209847FFF7D6FF37
:10021000FFF790FE68B90A4C237853B1094B01905F
:100220001B68ADF8000099786846FFF7A9FC00B993
:10023000207002B010BD00BFC0B90308CC0300207D
:10024000C8030020E0030020022810B504460BD0AC
:1002500003280CD001280DD100F0FCF850B1074B59
:1002600043F82400002010BD00F09CFBF6E700F0EE
:10027000BDFDF3E74FF0FF30F5E700BFD0030020EE
:10028000054B31B19A70012259601A7000225A70E0
:1002900070471970FAE700BFE4030020014B18789B
:1002A000704700BFE4030020014B5878704700BF3F
:1002B000E40300202DE9F74FC378CA2B074600F06E
:1002C000948003B0BDE8F08FB968C85C5A1CD2B204
:1002D00003280FD8DFE800F002105F817168002367
:1002E0000B55601CA31CDBB2C0B201250D540334B6
:1002F000CD54E4B292463BE000207073387F03F1A6
:10030000060A5FFA8AFA002832D1581DC0B2357A3F
:10031000085C05F00F0500F00F00854228D18D5CC8
:100320009A1CD2B2EB468A5C05EB0225DA1CD2B2EB
:100330000433DBB28A5CCB5C05EB0245584605EB27
:10034000036505F0B7F8009B2B4400939BE803007E
:1003500005F088F8337AC3F30302013262F3030332
:100360003372D9F834301BB10135022D00D89847CB
:1003700053463A7B9A42A7D8002CA2D0CA238DF8C4
:1003800000301E4B8DF801405B68019300216846E8
:10039000FFF7F6FB95E7726802335FFA83FA0223F0
:1003A0001355631CDBB20121D154684605F082F875
:1003B000009A7368A11CC9B242445A54E11CC9B2E4
:1003C000100A5854611D201DC9B2C0B2150C063464
:1003D000120E1D54E4B25A54CAE702335FFA83FA8C
:1003E0008B5C03F007037373C2E70024034EDFF84E
:1003F0001080DFF810902346BBE700BFE403002025
:1004000080C22AED2000002010B5114C637A8AB01A
:10041000E3B105238DF800306846A37A8DF80430E7
:100420000EF096FE25238DF800306846E37A8DF8AD
:1004300004300EF08DFE2D238DF800306846237BAE
:100440008DF804300EF084FE002363720AB010BDF4
:10045000E4030020004870472000002030B58DB034
:10046000FFF798FD00284BD1274C657A3DBB05234B
:1004700002A88DF808300EF01DFD9DF80C30A37217
:1004800002A88DF80C500EF063FE252302A88DF80B
:1004900008300EF00FFD9DF80C30E37202A8012326
:1004A0008DF80C300EF054FE2D2302A88DF8083084
:1004B0000EF000FD9DF80C302373FFF7B1FD684688
:1004C00004F0F8FF009A114B13446268180A537045
:1004D0009070180C1B0E1371237AD07001216FF3EA
:1004E0000413117053712372617240F2CA630021C8
:1004F00002A8ADF808300392FFF742FB0DB030BD03
:100500004FF0FF30FAE700BFE403002080C22AED7D
:1005100010B5054C637B2BB1FFF7A0FF10B9637BCF
:10052000013B637310BD00BFE4030020014B18784A
:10053000704700BFF4030020014B5878704700BF9C
:10054000F403002037B5104CD9B125786160E27012
:100550008DB9012323702A460C4B0D4800954FF0AE
:10056000FF3104F06BFC0B4B0B4800952A464FF013
:10057000FF3104F063FC094A00236370136003B089
:1005800030BD2170F7E700BFF4030020C105020869
:10059000DC040020A1050208F40400200C05002062
:1005A00008B5054804F06AFC10B1034804F0D6FC15
:1005B000024B02229A7008BDF4040020F4030020CC
:1005C00010B5084804F05AFC10B1064804F0C6FC07
:1005D000054B064C01229A70236803B1984700230B
:1005E000236010BDDC040020F40300200C05002073
:1005F0002DE9F04FC378C82B91B0054600F09B81E0
:1006000011B0BDE8F08FAA68D15C5E1CF6B2042977
:1006100014D8DFE811F0050013002600D500F00023
:10062000D8F804200023611C1355C9B2A31CDBB207
:100630000220505401210334D154E4B233462A7BC2
:100640009A42E0D8002CDBD0C8238DF81C30BC4B7C
:100650008DF81D405B680893002107A8FFF790FA0A
:10066000CEE712F80690DFF8DCB24FF0380A0AFB4A
:1006700009F2991C0BF802900BEB0200C9B2AA68B0
:10068000575C4760D91CAA68C9B25E1D525C07EB73
:1006900002274760191DAA68C9B2F6B2525C07EB7F
:1006A00002474760A968895D07EB016700F1080A06
:1006B0009A1D476003F11600D2B25646C0B2A9682F
:1006C00094460132D2B211F80C1006F8011B824296
:1006D000F5D1A968885C382202FB09F90BEB090205
:1006E00003F117069061A968F6B2895D00EB01205D
:1006F000906103F11806A968F6B2895D00EB01402C
:10070000906103F11906A968F6B2895D00EB0161F9
:10071000916103F11A000091C0B2A968095CD1612E
:1007200003F11B06A868F6B2805D01EB0021D161E0
:1007300003F11C06A868F6B2805D01EB0041D161AF
:1007400003F11E061D33A868DBB2F6B2C35C01EBF1
:100750000363D3610021242207A801931AF0DAFE73
:100760001BF80900009B0B9340F20112019BADF8AE
:100770001C20C0F3010200F003008DF81E200C9332
:10078000CDE9087A0FF0EAF807A80FF06DF8D8F86D
:10079000041002220A55631C1444021E1BF80900AF
:1007A000DBB218BF0122C0F3010040EA8200C85446
:1007B000092302A8E4B28DF808300FF0C3F93DE731
:1007C000965D0233DFB2D8F8043006F00306032248
:1007D00004F101091A5530465FFA89F90FF0BEF8A5
:1007E00008B146F00406D8F80430023403F8096072
:1007F000E4B23E4622E74FF000098DF80890905D84
:10080000DFF840C100F00300382101FB00C70222DD
:1008100087F82C209E18F6B2AA68965D7E6203F1D6
:10082000030EAA685FFA8EFE394612F80E2006EB18
:1008300002267E6203F1040EAA685FFA8EFE2C3156
:1008400012F80E2006EB02467E6203F1050EAA683E
:100850005FFA8EFE12F80E20DFF8ECE00EEB02627B
:1008600016447E629E1DAA68F6B203F1080E925DE0
:1008700002F00F0287F82820DE1DAA68F6B25FFAA0
:100880008EFE965D3E63AA6812F80E2046EA0226A6
:100890003E6303F1090EAA685FFA8EFE12F80E207D
:1008A00046EA0246642256433E6303F10B060A33CE
:1008B000AA68DBB2F6B2D35C87F8343002AA0FF034
:1008C0008FF88246A0BB07A804F0F4FD7F6A079B5F
:1008D000FF1A4F4524DD7B1E4FF47A7159431B48A4
:1008E00004F0DEFB194804F089FB0120D8F804303D
:1008F00004221A55621CD2B29DF808C003F802C047
:10090000A11CC9B250B1E21CD2B25F543912995441
:10091000611D0434E4B23F141F55C9B20C468DE684
:100920009DF8083043F010038DF808305046DDE79D
:1009300048464F46DAE70024DFF8048023467EE687
:10094000F4030020FC030020803DD512DC040020CD
:1009500037B501A8FEF7DDFA0F4B9D78002401A8FA
:100960009C70FEF7D8FA012D03D0022D11D003B0F0
:1009700030BD0A4B0A4893F828304FF47A719940F9
:1009800004F08EFB064804F039FB0220FFF788FBD9
:10099000EDE72046FAE700BFF4030020FC03002047
:1009A000F4040020004870475800002007B54FF0BD
:1009B000FF3301A90848019304F08CFA074B019812
:1009C0009B6A984742F20F7398428CBF0020012027
:1009D00003B05DF804FB00BFDC04002094B80308FA
:1009E000014B1860704700BF0C050020014B1878C0
:1009F000704700BF94050020014B5878704700BF36
:100A00009405002037B50E4D0E4CA0B199B1E2709F
:100A100022782860616052B9012323700A4B0B4889
:100A20001A604FF0FF310A4B009204F007FA0023DE
:100A3000637003B030BD00232B602370F7E700BF65
:100A40009005002094050020A005002078050020D6
:100A5000550A020808B5054804F010FA10B1034819
:100A600004F07CFA024B02229A7008BD780500203F
:100A7000940500202DE9F04FC378C92B91B00746AB
:100A800027D10023DFF8608201931E461C463A7B83
:100A90009A4221D8ECB1954D8DF829406B680B93A3
:100AA000C9238DF828300AAC002E00F06F814FF476
:100AB0007A7100200BF09CFF019B8D4A043300FAF1
:100AC00003F394E8030013608A4B83E803000123D7
:100AD000AB7011B0BDE8F08FB968CA5C5D1CEDB2B7
:100AE000082A1BD8DFE812F009001C005900E000BA
:100AF0001A001A001A001A000A01BB78012B0DD047
:100B00007A4B5A68611C00231355C9B2A31C0320F9
:100B1000DBB2505401210444D154E4B22B46B6E771
:100B200011F805B0023308A84FEA5B054FF0180A28
:100B30005FFA83F90AFB058A00F026FC08980999F8
:100B40000AF10C031BF0010F03C302D1BAF80E30F7
:100B50000BB3664B5A6801261823165503FB058311
:100B6000A119C9B2988950549989A01CC0B2C1F387
:100B7000052141EA85111154E01CC0B2DD891554EC
:100B8000211D987CC9B2304050545B79053403F084
:100B90000703E4B201934D46C0E7BA78012ABDD0FD
:100BA0004A5D8DF82920DA1CD2B203F10B05885C6E
:100BB0009A1CD2B2EDB28E5C46EA0026981DC0B2F5
:100BC0001A1D085C0290D81DC0B2D2B2085C039016
:100BD00003F1080011F80290C0B25A1DD2B2085CAD
:100BE0008A5C049003F109000A33DBB2C0B212F050
:100BF000380F11F803B0085C059014BF01230023DF
:100C0000B6F57A6F42D943F002039DF829C0CCF3C0
:100C1000011C43EA8C1A1B072CD101238DF82830C4
:100C20008DF82D20029B059A8DF82E304FEA0B632C
:100C300003EB0243039AADF82A601344049A8DF83B
:100C40002C9003EB02230C934FF0FF330F930DF125
:100C5000280E182303FB0C8CBEE80F00ACE80F0035
:100C60009EE80300244B8CE803001A68494630468E
:100C700000F0B4F91D4B5A68631CDBB20221115518
:100C80000C4402F803A0E4B2002647E7B9F1C80F0C
:100C9000B9D8CDE9062300F0CFF909FB06F181426E
:100CA000DDE90623AFD8B0E7BA78012A3FF436AFC2
:100CB0004A5D182102F003025143023318F8010083
:100CC000DBB260B942F0040208494868611C0325A0
:100CD000C9B2055502344254E4B21D46D4E700209F
:100CE00008F80100F0E700BF180500209405002077
:100CF000A0050020100500209005002003F1030A44
:100D00000233DBB2485D11F80390182540EA092050
:100D10004FEA991905FB09855FFA8AFA6B69013375
:100D200019D15144C0F30D0000F08AF9686108A898
:100D300000F02AFB0898099905F10C0303C3164B30
:100D40001B68D3F808B0BBF1000F04D0EB892A79F7
:100D50006988A889D847182303FB09835A69002AA0
:100D60000CDB0D4A6FF0010012685861D2682AB19D
:100D700059881D799B796943C91A9047182303FB49
:100D8000098999F804505544EDB2C7E6314620462A
:100D9000FEF7F6FE9DE600BF9005002037B501A8DE
:100DA000FEF7B7F80D4B9D78002401A89C70FEF764
:100DB000B2F8012D03D0022D0AD003B030BD084B8C
:100DC0000848196804F06CF9064804F017F9F4E7CC
:100DD00021460548FEF7D4FEEFE700BF940500204A
:100DE000A00500207805002010050020004870476D
:100DF0009000002030B40B460649096839B10D68EF
:100E00002DB1014602FB03F02B4630BC184730BC25
:100E1000704700BFA405002030B40B46064909689E
:100E200039B14D682DB1014602FB03F02B4630BCB1
:100E3000184730BC704700BFA4050020C308C0435A
:100E4000CB5C00F0070043FA00F000F001007047AF
:100E5000C34303F00703C00810B502FA03F40122EC
:100E600002FA03F30A5C22EA030222440A5410BD88
:100E700010B501390244904200D110BD037811F839
:100E8000014F634000F8013BF5E7F8B505460F4612
:100E900096B20024B44200D1F8BD29462046FFF79F
:100EA000CDFF394602462046FFF7C8FF4240D2B286
:100EB000204629460134FFF7CBFFA4B2EAE7000041
:100EC000F0B5164D05F50056A988B6F87274B6F857
:100ED00070243C464FF0000C431E05F5A465A34268
:100EE00011DCFB430344874228BF00233B44BCF191
:100EF000000F01D0A6F870249942DCBF481C80B2D4
:100F0000A6F87204F0BDA142C1BF013292B225F829
:100F100014204FF0010C0134E1E700BFA4050020CC
:100F200030B5094B00229C88411C03F5A46390B2A4
:100F3000844201D8002005E033F8025B8D4202F1C3
:100F40000102F4D130BD00BFA40500202DE9F84313
:100F5000804616460D4611B34B1E4B4301FB02F46F
:100F6000A4EB6304634203F007034FEAE4074FF086
:100F7000000904F0070458BF5C421FFA89F0002200
:100F8000414609F10109FFF763FF1FFA89F39D420A
:100F9000F3D8DFF83890B54204D3BDE8F8830C46A7
:100FA0000F46F6E709EB070328461A7BC4F107034F
:100FB0001A41013402F001024146FFF749FF0135B1
:100FC000082C04BF01370024ADB2E4E7A4050020DB
:100FD000014B1860704700BFA4050020134B9971A6
:100FE00003F500511A600022C1F870249A609880BD
:100FF00003F5A46201214FF47A63013B9BB222F80E
:10100000021B002BF9D10A4A194601330D2B02F8B5
:10101000011BFAD1074A0023FF2040F2145101338B
:101020008B4202F8010BFAD1704700BFA4050020E3
:10103000042A0020B00500200048704700350C004D
:101040002DE9F04FADF5397D044640F2F5123AA88E
:10105000B64E884600210BF0ECFCC822002108A8FF
:101060000BF0E7FC06F500570D22002168460BF057
:10107000E0FC0D22002104A80BF0DBFCB7F8723471
:10108000A7F86E44A34205D94FF0FF300DF5397D26
:10109000BDE8F08FB388A34217D3611EB27989B23D
:1010A0004046FFF7A7FE04F28F23002226F8132004
:1010B0002046FFF705FFB7F87034002BE4D1B08865
:1010C000001B18BF4FF0FF30E0E7B7F87034642B17
:1010D00004D9012387F874340020D7E72046FFF7AE
:1010E000EFFEB6F804900023A4EB09041D4601218D
:1010F00001FA03F202EA0902DA4001331544202B17
:10110000EDB2F5D16B1E5D4240F2E93000FB04F414
:101110005D41002301344FEAE9013AAA1846013340
:101120008B4202F8010BFADD4FEA690B4FF0000A1F
:101130004D44DA450ED10024DFF8F4A1A146B3886E
:10114000A3421CDCB7F87054002294B2A54239D8EF
:1011500000243FE084EA64139B0503F4800303EB5F
:10116000640494FBF5F005FB10408145F2DD01229B
:101170003AA980B2FFF76CFE0AF1010AD9E71FFA1B
:1011800084FB3AA95846FFF759FE012805460FD1BE
:101190003AF8142072B95846FFF75AFEB279594608
:1011A00008A8FFF739FEB27908A94046FFF760FEAC
:1011B0000134C4E7501E69462A4680B2FFF748FE54
:1011C000A946F5E769462046FFF738FE012802F1F7
:1011D0000102BAD1B9F1000F3FF456AF554D29467F
:1011E0002046FFF72BFE0128B7F8702404D0002C0E
:1011F0005DD12546A24669E0214604A8FFF7A6FE78
:10120000B7F8702404A96846FFF73FFE2046FFF7B1
:1012100087FEB279014608A8FFF7FEFDB27908A95A
:101220004046FFF725FEB7F87094002290B2814542
:1012300027D8B7F87034B4689C427FF425AF012CEE
:1012400020467FF623AF394F023C07F500551FFAC1
:1012500084FB5846FFF764FEBA790146814608A828
:10126000FFF7DAFDB5F87064013EA64264DCBA7996
:10127000494608A8FFF7BEFD013CE8D2B5F8700466
:1012800004E76946FFF7DAFD012802F10102CDD13A
:10129000002207E069462046FFF7D0FD012802F151
:1012A00001029CD094B2A145F4D8002497E7631EB4
:1012B000634304FB02F5A5EB63056B4203F00703F0
:1012C0004FEAE50A05F0070558BF5D42A1464FF019
:1012D000010B18E069464846FFF7B0FD48B906EB38
:1012E0000A03C5F107010BFA01F0197B21EA00019D
:1012F00019730135082D09F1010904BF0AF1010A2A
:1013000000251FFA89F99145E4D32046FFF708FE2E
:10131000B27901464046FFF76DFD0649012220469D
:10132000FFF796FDB3680133B36082E7A4050020A0
:10133000C40A0020042A0020B5F87024594604A8E5
:101340001FFA86FAFFF702FE51466846B5F8702488
:10135000FFF7FCFD04A95046FFF770FD012883D17B
:10136000B5F87024694604A8FFF78FFD5046FFF7D3
:10137000D7FDBA7901464046FFF74EFDBA7941469E
:1013800008A8FFF775FD6FE70349D1F86E240260E6
:10139000D1F8722442607047A425002010B5044C97
:1013A00023781BB901F036FA0123237010BD00BF6A
:1013B000203A002010B5044C23781BB101F02BFA21
:1013C0000023237010BD00BF203A00202DE9F04F0C
:1013D00087B083460E46154601F070FAB0F5805F7F
:1013E000044659D8BBFBF0F800FB08F8ABEB080348
:1013F00001933344B3FBF0F200FB123109B102FB5D
:101400000003A4EB0B02DFF898A00492019AB3FB4F
:10141000F4F3C14603933746002302EB0A0B039A09
:101420009A4203D1002007B0BDE8F08F22461C4944
:101430000293484601F012FA029B5A1C0292CBB961
:10144000049B03EB0802B2420CD22846594605928F
:101450001AF052F8019B059A1B1B15441F44029B6E
:10146000A144DCE72846324659461AF045F835448F
:10147000BF1BF4E7DDE90232934205D33A465146F9
:1014800028461AF039F8EAE72846224651461AF06B
:1014900033F825443F1BE2E76FF00800C3E700BFC5
:1014A000202A00202DE9F84F00AF81460C469246D5
:1014B00001F004FAADF5806D6E464FEA90284FF0CA
:1014C000000B5FFA8BF1884501D8012021E0B4F5CB
:1014D000806F09EB81200AEB812532460ED34FF451
:1014E0008061FFF773FF4FF480622946304619F0A0
:1014F000F3FF0BF1010B78B100200AE02146FFF762
:1015000065FF22462946304619F0E6FFB0FA80F022
:101510004009BD46BDE8F88FA4F58064D1E700001E
:101520002DE9F04F87B083460D46144601F0C6F909
:10153000B0F5805F074670D8224629465846FFF727
:10154000B1FF18B1002007B0BDE8F08FBBFBF7F882
:1015500007FB08F8ABEB08035A19B2FBF7F107FBDE
:101560001120029308B101FB0772B2FBF7F303935A
:1015700000230193A7EB0B03DFF8A4A00493029BC5
:10158000C1462E4603EB0A0B039B019A9342D9D026
:1015900023493A46484601F061F9019BF3B9049B9F
:1015A00003EB0802AA4211D221465846059219F0CF
:1015B000A3FF059A029B1444DA1B16443946484699
:1015C00001F054F9E8B16FF00600BCE721462A4665
:1015D000584619F091FF2C44761BEFE7019B5A1CEB
:1015E000039B9A4205D332462146504619F084FFA8
:1015F000E4E721463A46504619F07EFF3C44F61B8C
:10160000DCE748463A46514601F006F9B94400285D
:10161000D9D1019B01330193B6E76FF0080092E73F
:10162000202A002038B505460C4601F047F9AB07E3
:101630000AD1B4FBF0F300FB134040B92146284621
:10164000BDE8384001F012B96FF0090038BD6FF005
:101650000A00FBE701F032B901F033B9FEE7FEE71B
:10166000BFF34F8F0549064BCA6802F4E06213438B
:10167000CB60BFF34F8F00BFFDE700BF00ED00E080
:101680000400FA057047000010B54FF0B0434FF06A
:10169000B0401A682449120754BFD3F894301B682D
:1016A000224A54BFC3F30323C3F3031352F8234066
:1016B000826802F00C02082A12D00C2A12D0042AE6
:1016C00030D11B4B0B604FF0B0431A489A680B683F
:1016D000C2F3031250F82220B3FBF2F30B6010BDEB
:1016E000154BEFE7C268C36802F00302C3F30213AD
:1016F000022A03F1010304D0032A11D0B4FBF3F34F
:1017000002E00B4AB2FBF3F34FF0B040C268C0688E
:10171000C2F306225343420F0132B3FBF2F3D1E787
:10172000054AEFE70C60CEE7C800002044B9030883
:101730000024F400E4B803080048E8017047000002
:1017400010B5044690B03822002102A819F0E2FE3C
:101750002268194B9A422CD14FF48033029302A88D
:101760004FF480730F9305F001F808B1FFF778FF8D
:101770004FF0B0430220D3F8902042F40042C3F867
:1017800090209A6D42F480629A659B6D002203F46A
:10179000806311460193019B01F038FB022001F0A8
:1017A00067FB00222A20114601F030FB2A2001F0BD
:1017B0005FFB10B010BD00BF0028004008B50C4B07
:1017C00002689A4213D14FF0B0430220D3F8902020
:1017D00022F40042C3F890209A6D22F480629A6548
:1017E00001F054FBBDE808402A2001F04FBB08BDC2
:1017F000002800400368104A934282B00CD14FF099
:10180000B0431A6E42F400621A661B6E03F4006362
:101810000093009B02B07047B3F1804FFAD14FF0B4
:10182000B0439A6D42F001029A659B6D03F001038B
:101830000193019BEEE700BF002C014003680A4AB8
:10184000934206D14FF0B042136E23F40063136647
:101850007047B3F1804F01BF4FF0B042936D23F05A
:1018600001039365704700BF002C014007B50E4B84
:1018700002689A4215D14FF0B04333201A6D42F4FA
:1018800000321A651B6D002203F4003301931146E8
:10189000019B01F0BBFA332003B05DF804EB01F0CB
:1018A000E7BA03B05DF804FB001800580268064B65
:1018B0009A4208D14FF0B0423320136D23F4003325
:1018C000136501F0E3BA704700180058024A034854
:1018D0004FF42571FFF724BE2042002000F00308DA
:1018E000024A034840F2FC71FFF71ABE243A002076
:1018F00000D00308024840F2FC72002119F00ABE31
:10190000243A0020024B034493F8BC01704700BF07
:1019100020420020044A104480F8BC1103484FF4D0
:101920002571FFF7FDBD00BF2042002000F0030835
:10193000082908B508D90649092219F0DDFDBDE8D6
:1019400008400348FCF75CBB6FF0080008BD00BF0F
:10195000E9430020082938B505460C4611D809226C
:101960000021094819F0D6FD22462946064819F0FB
:10197000C3FDBDE83840054A05484FF42571FFF71F
:10198000CFBD6FF0020038BDE943002020420020A7
:1019900000F00308014BD3F8D40170472042002027
:1019A000034A4FF42571C2F8D4010248FFF7B8BDCD
:1019B0002042002000F00308014B93F870027047AA
:1019C00020420020054A08B54FF4257182F87002C4
:1019D0000348FFF7A5FDC0B208BD00BF20420020AC
:1019E00000F003081F2908B505D90449202219F081
:1019F00083FD002008BDF720FCE700BF1B4400204A
:101A000038B54B1E1F2B04460D461AD80346014419
:101A10008B4211D1202200210B4819F07BFD2A4670
:101A20002146094819F068FDBDE83840074A0848D2
:101A30004FF42571FFF774BD13F8012B203A5E2A8D
:101A4000E6D96FF0020038BD1B4400202042002080
:101A500000F003081F2908B505D90449202219F010
:101A60004BFD002008BDF720FCE700BF3B440020F1
:101A700038B54B1E1F2B04460D461AD803460144A9
:101A80008B4211D1202200210B4819F043FD2A4638
:101A90002146094819F030FDBDE83840074A08489A
:101AA0004FF42571FFF73CBD13F8012B203A5E2A55
:101AB000E6D96FF0020038BD3B44002020420020F0
:101AC00000F003081F2908B505D90449202219F0A0
:101AD00013FD002008BDF720FCE700BF5B44002099
:101AE00038B54B1E1F2B04460D461AD80346014439
:101AF0008B4211D1202200210B4819F00BFD2A4600
:101B00002146094819F0F8FCBDE83840074A084862
:101B10004FF42571FFF704BD13F8012B203A5E2A1C
:101B2000E6D96FF0020038BD5B440020204200205F
:101B300000F00308B0F5006F0B4611460AD8C0F557
:101B400000628A4206D300F100601A4600F5723046
:101B5000FFF7E6BC6FF002007047B0F5006F0B4670
:101B600011460AD8C0F500628A4206D300F100602F
:101B70001A4600F57230FFF729BC6FF0020070477B
:101B8000014BD3F8B401704720420020034A4FF4C0
:101B90002571C2F8B4010248FFF7C2BC2042002000
:101BA00000F00308014BD3F8B80170472042002031
:101BB000034A4FF42571C2F8B8010248FFF7B0BCE0
:101BC0002042002000F00308024B034493F8BF01B9
:101BD000704700BF20420020044A104480F8BF1123
:101BE00003484FF42571FFF79BBC00BF2042002043
:101BF00000F00308014BD3F8C401704720420020D5
:101C0000034A4FF42571C2F8C4010248FFF788BCAB
:101C10002042002000F003080F2908B505D9044927
:101C2000102219F069FC002008BD6FF00800FBE7E6
:101C30000A440020102938B504460D461BD804D0AC
:101C40000E481022002119F065FC234629198B4209
:101C50000CD12A462146094819F04EFCBDE838400F
:101C6000074A08484FF42571FFF75ABC13F8012BB7
:101C7000203A5E2AEBD96FF0020038BD0A440020FA
:101C80002042002000F00308112908B505D90449B5
:101C9000122219F031FC002008BD6FF00800FBE7AC
:101CA000F8430020122938B505460C4612D804D056
:101CB0000A481222002119F02DFC22462946074825
:101CC00019F01AFCBDE83840054A06484FF4257162
:101CD000FFF726BC6FF0020038BD00BFF8430020BC
:101CE0002042002000F00308014B93F8C801704720
:101CF00020420020034A4FF4257182F8C8010248AF
:101D0000FFF70EBC2042002000F00308034A4FF406
:101D1000257182F8FA010248FFF702BC2042002038
:101D200000F00308014B93F8FA01704720420020AD
:101D3000014B93F83000704720420020034A4FF4D3
:101D4000257182F830000248FFF7EABB20420020EC
:101D500000F0030808B503490C2219F0CDFB002060
:101D600008BD00BFC242002010B5074C01460C223E
:101D700004F1A20019F0C0FB22460448BDE810405F
:101D80004FF42571FFF7CCBB2042002000F0030880
:101D9000072908B505D90449082219F0ADFB002030
:101DA00008BD6FF00800FBE759420020082908B57C
:101DB0000A460BD10146074819F09EFBBDE80840D2
:101DC000054A06484FF42571FFF7AABB6FF00200E1
:101DD00008BD00BF594200202042002000F0030847
:101DE0000F2908B505D90449102219F085FB0020F8
:101DF00008BD6FF00800FBE761420020102908B51C
:101E00000A460BD10146074819F076FBBDE80840A9
:101E1000054A06484FF42571FFF782BB6FF00200B8
:101E200008BD00BF614200202042002000F00308EE
:101E30000F2908B505D90449102219F05DFB0020CF
:101E400008BD6FF00800FBE771420020102908B5BB
:101E50000A460BD10146074819F04EFBBDE8084081
:101E6000054A06484FF42571FFF75ABB6FF0020090
:101E700008BD00BF714200202042002000F003088E
:101E8000032908B505D90449042219F035FB0020BF
:101E900008BD6FF00800FBE781420020042908B567
:101EA0000A460BD10146074819F026FBBDE8084059
:101EB000054A06484FF42571FFF732BB6FF0020068
:101EC00008BD00BF814200202042002000F003082E
:101ED000072908B505D90449082219F00DFB00208F
:101EE00008BD6FF00800FBE751420020082908B543
:101EF0000A460BD10146074819F0FEFABDE8084032
:101F0000054A06484FF42571FFF70ABB6FF002003F
:101F100008BD00BF514200202042002000F003080D
:101F2000032908B505D90449042219F0E5FA00206F
:101F300008BD6FF00800FBE785420020042908B5C2
:101F40000A460BD10146074819F0D6FABDE8084009
:101F5000054A06484FF42571FFF7E2BA6FF0020018
:101F600008BD00BF854200202042002000F0030889
:101F70000F2908B505D90449102219F0BDFA00202F
:101F800008BD6FF00800FBE789420020102908B562
:101F90000A460BD10146074819F0AEFABDE80840E1
:101FA000054A06484FF42571FFF7BABA6FF00200F0
:101FB00008BD00BF894200202042002000F0030835
:101FC000014B93F8B100704720420020034A4FF4C0
:101FD000257182F8B1000248FFF7A2BA2042002022
:101FE00000F00308014B93F8B00070472042002036
:101FF000034A4FF4257182F8B0000248FFF790BA07
:102000002042002000F00308014B187A704700BFFF
:1020100020420020034A4FF4257110720248FFF756
:102020007FBA00BF2042002000F00308014B93F864
:10203000AE00704720420020034A4FF4257182F819
:10204000AE000248FFF76CBA2042002000F00308FF
:10205000014B93F8B400704720420020034A4FF42C
:10206000257182F8B4000248FFF75ABA20420020D6
:1020700000F00308014B93F8AF00704720420020A6
:10208000034A4FF4257182F8AF000248FFF748BABF
:102090002042002000F00308014B93F8B200704783
:1020A00020420020034A4FF4257182F8B200024812
:1020B000FFF736BA2042002000F00308014B93F8E6
:1020C000B300704720420020034A4FF4257182F884
:1020D000B3000248FFF724BA2042002000F00308B2
:1020E000014BD3F8B800704720420020034A4FF458
:1020F0002571C2F8B8000248FFF712BA204200204A
:1021000000F00308014BD3F8BC00704720420020C8
:10211000034A4FF42571C2F8BC000248FFF700BA29
:102120002042002000F00308034A4FF42571C2F852
:10213000C8000248FFF7F4B92042002000F003086D
:10214000014BD3F8C800704720420020014B93F8A0
:10215000CC00704720420020034A4FF4257182F8DA
:10216000CC000248FFF7DCB92042002000F0030851
:10217000014BD3F8C000704720420020034A4FF4BF
:102180002571C2F8C0000248FFF7CAB920420020FA
:1021900000F00308014BD3F8C40070472042002030
:1021A000034A4FF42571C2F8C4000248FFF7B8B9DA
:1021B0002042002000F00308014B93F8B50070475F
:1021C00020420020034A4FF4257182F8B5000248EE
:1021D000FFF7A6B92042002000F00308014B93F856
:1021E000CD00704720420020034A4FF4257182F849
:1021F000CD000248FFF794B92042002000F0030808
:10220000014B93F8CE00704720420020034A4FF460
:10221000257182F8CE000248FFF782B920420020E3
:1022200000F00308014B93F8CF00704720420020D4
:10223000034A4FF4257182F8CF000248FFF770B9C6
:102240002042002000F00308014B93F8D0007047B3
:1022500020420020034A4FF4257182F8D000024842
:10226000FFF75EB92042002000F00308014BD3F8CD
:10227000D400704720420020034A4FF42571C2F871
:10228000D4000248FFF74CB92042002000F00308B8
:10229000014BD3F8D800704720420020034A4FF486
:1022A0002571C2F8D8000248FFF73AB92042002051
:1022B00000F00308014B93F86802704720420020A9
:1022C000034A4FF4257182F868020248FFF728B9E3
:1022D0002042002000F00308014BB3F96A02704766
:1022E00020420020034A4FF42571A2F86A020248F6
:1022F000FFF716B92042002000F00308014BD3F885
:102300006C02704720420020034A4FF42571C2F846
:102310006C020248FFF704B92042002000F00308D5
:10232000014B9888704700BF243A0020034A40F2CE
:10233000FC7190800248FFF7F3B800BF243A0020F8
:1023400000D00308034A4FF4257182F89302024833
:10235000FFF7E6B82042002000F00308014B93F895
:10236000930270472042002008B5014638220548F4
:1023700019F0C2F8BDE80840034A04484FF425713B
:10238000FFF7CEB8243A00202042002000F00308D6
:1023900000487047243A002010B5074C014620221F
:1023A00004F1380019F0A8F822460448BDE81040AE
:1023B00040F2FC71FFF7B4B8243A002000D00308C3
:1023C000004870475C3A002010B5084C01464FF4B5
:1023D000C27204F1580019F08FF822460448BDE893
:1023E000104040F2FC71FFF79BB800BF243A002078
:1023F00000D00308004870477C3A002010B5084C14
:1024000001464FF4D07204F5EE7019F075F82246CB
:102410000448BDE8104040F2FC71FFF781B800BFEE
:10242000243A002000D0030800487047003C0020F8
:1024300010B5084C01464FF4906204F55F7019F036
:102440005BF822460448BDE8104040F2FC71FFF7FB
:1024500067B800BF243A002000D003080048704746
:10246000A03D002000487047FC42002010B5074CFA
:102470000146D02204F1DC0019F03EF8224604485F
:10248000BDE810404FF42571FFF74AB82042002004
:1024900000F00308024B034493F8B001704700BFFB
:1024A000204200204B1EDBB2DE2B08D8054A104428
:1024B00080F8B01104484FF42571FFF731B86FF080
:1024C000020070472042002000F00308014BD3F8BF
:1024D000AC01704720420020034A4FF42571C2F836
:1024E000AC010248FFF71CB82042002000F00308AE
:1024F000014BD868704700BF20420020034A4FF4C8
:102500002571D0600248FFF70BB800BF20420020C1
:1025100000F00308014B187C704700BF20420020E8
:10252000034A4FF4257110740248FEF7F9BF00BF4B
:102530002042002000F00308034B1A7A0AB9588A97
:102540007047D86A704700BF20420020064B1A7AB5
:1025500032B95882044A05484FF42571FEF7E0BFAE
:10256000022A08BFD862F5E72042002000F00308E5
:10257000014B187D704700BF20420020034A4FF4F2
:10258000257110750248FEF7CBBF00BF2042002026
:1025900000F00308014BD88A704700BF204200209A
:1025A000034A4FF42571D0820248FEF7B9BF00BF3D
:1025B0002042002000F00308014B187E704700BF46
:1025C00020420020034A4FF4257110760248FEF79E
:1025D000A7BF00BF2042002000F00308014B987EF7
:1025E000704700BF20420020034A4FF425719076C7
:1025F0000248FEF795BF00BF2042002000F003080C
:102600000F2908B505D90449102218F075FF0020DC
:1026100008BD6FF00800FBE791440020102908B5C1
:102620000A460BD10146074818F066FFBDE808408E
:10263000054A06484FF42571FEF772BF6FF002009D
:1026400008BD00BF914400202042002000F0030894
:102650000F2908B505D90449102218F04DFF0020B4
:1026600008BD6FF00800FBE7A1440020102908B561
:102670000A460BD10146074818F03EFFBDE8084066
:10268000054A06484FF42571FEF74ABF6FF0020075
:1026900008BD00BFA14400202042002000F0030834
:1026A000034A4FF4257190620248FEF739BF00BF1C
:1026B0002042002000F00308034A4FF425715062C5
:1026C0000248FEF72DBF00BF2042002000F00308A3
:1026D000014B586A704700BF20420020014B986AA6
:1026E000704700BF20420020034A4FF4257182F852
:1026F000B6000248FEF714BF2042002000F0030895
:10270000014B93F8B600704720420020014B93F82C
:102710005C02704720420020034A4FF4257182F882
:102720005C020248FEF7FCBE2042002000F00308D5
:10273000014BD3F86002704720420020034A4FF457
:102740002571C2F860020248FEF7EABE204200206E
:1027500000F00308014B93F8670270472042002005
:10276000034A4FF4257182F867020248FEF7D8BE8B
:102770002042002000F00308014BB3F864027047C8
:1027800020420020034A4FF42571A2F86402024857
:10279000FEF7C6BE2042002000F00308014B93F86C
:1027A0009102704720420020034A4FF4257182F8BD
:1027B00091020248FEF7B4BE2042002000F0030858
:1027C000014B93F89202704720420020034A4FF4D5
:1027D000257182F892020248FEF7A2BE2042002034
:1027E00000F0030810B5094C0948224640F2FC717C
:1027F000FEF7ECFDE368013307D1204640F2FC729E
:10280000BDE81040002118F085BE10BD243A00201C
:1028100000D003087047704770B5164604460D4651
:1028200006F0E2F90C4B4CF2FA321A61083D2644EC
:10283000B44203D306F0EAF900200CE0F5E90223E4
:102840002146012006F04EFA08B90834F0E706F0F8
:10285000DDF96FF0060070BD0040005808B50B466A
:102860000146184618F048FE002008BD37B50D4651
:10287000044606F0B9F90F4B0F484CF2FA321A61D0
:1028800004F1784400230193E40A0223ED0A01A92C
:1028900044600360856006F0BBFB044628B106F087
:1028A000B5F96FF0060003B030BD06F0AFF9204671
:1028B000F9E700BF00400058B44400204FF4006026
:1028C0007047002070477047704770B50D4614463A
:1028D000064603F011F8306003F014F8286003F0A6
:1028E00017F8206070BD0000BFF34F8F0549064BFD
:1028F000CA6802F4E0621343CB60BFF34F8F00BF9E
:10290000FDE700BF00ED00E00400FA0572B6EFF34A
:10291000108303607047036883F3108862B67047C2
:102920007047704707B5002200928A1A034618BF05
:1029300001224FF0FF31054802F080FA002814BF51
:102940006FF00600002003B05DF804FBC0440020D7
:1029500008B50146054802F0A3FB18B9034802F088
:102960004DFB08B16FF0060008BD00BFC044002059
:1029700008B5044802F0F2FA002814BF6FF0060010
:10298000002008BDC0440020014B9B6A184700BFCF
:1029900094B80308014B5B6A184700BF94B803085A
:1029A000FFF7F2BFFFF7F6BF00B58DB02C22002174
:1029B00001A818F0AFFD1748174B03604FF0804295
:1029C0000023C0E90433C0E90723836083614FF427
:1029D0008073436204F0C2FB08B1FEF741FE0D486C
:1029E00005F006FB08B1FEF73BFE4FF07C530022DA
:1029F0000793084808924FF4807301A90292069247
:102A00000B9304F0A3FD08B1FEF72AFE00200DB0E1
:102A10005DF804FBD84400200028004008B5034BB3
:102A200008469B689847002008BD00BF94B803087B
:102A300008B5024BDB689847002008BD94B803082E
:102A400008B5024BDB699847002108BD94B803081C
:102A500007B5074B0DF106001B699847BDF8063016
:102A60004FF47A7202FB0030002103B05DF804FBE2
:102A700080B8030810B5FFF7EBFF084B9B68DB43FA
:102A80004FF47A7403F01F03A0FB0402C3EB43135B
:102A900004FB0121181841F1000110BD002800407D
:102AA00070B5064DEB69164698476B6A044630468A
:102AB0009847AB6A201A9847002170BD94B8030864
:102AC000704770470A4B00F11002C1781970817885
:102AD00059704178997010F8041BD970904203F135
:102AE0000403F2D1034B10221A800020704700BF6C
:102AF000DC460020CC0000202DE9F04FDFF8FC8000
:102B0000DFF8FCC0DFF8FCB085B002AF0446164623
:102B100040460022C8E900C2C8E909223D8ED7F824
:102B200034A079609946C8F80820C8F80CB0C8F8F5
:102B30001420C8F82C2007F04BF908B1FEF790FDDF
:102B40002E4807F069F908B1FEF78AFD2C480422E7
:102B5000C8E900020022C8F80820002C3AD1C8F8C1
:102B60001440002201212548C8F80CB0C8E9091218
:102B7000C8F82C2007F02CF908B1FEF771FD2B07DF
:102B80001DBF25F00F041034A4B22C46A300073358
:102B900023F00703ADEB030D02AE224600213046C1
:102BA00018F0B8FC2A464946304618F0A5FC7A6869
:102BB000FF2300935346BAB910482246314608F025
:102BC00051FB70B90D4807F027F998B90C37BD468D
:102BD000BDE8F08F012C0CBF20224022C8E904621E
:102BE000BFE76FF00600F1E722463146034808F0E0
:102BF000CDFBE6E7FEF734FD0020E7E710450020B7
:102C000000180058EC46002021F00803102B10B5E6
:102C100001D0202913D10B4B00F11002C4781C7095
:102C200084785C7044789C7010F8044BDC7090429F
:102C300003F10403F2D1044B0020198010BD6FF0A2
:102C40001F00FBE7EC460020FC460020102901D1C4
:102C5000FFF738BF6FF01F00704707B5CDE90012CE
:102C60000022034611461046FFF746FF03B05DF809
:102C700004FB07B5CDE900120022034601211046EE
:102C8000FFF73AFF03B05DF804FB000070B586B0B3
:102C900004460D4616460021102202A818F03AFC00
:102CA000074B08491A8802A818F026FCCDE90056FF
:102CB000234602AA00210120FFF71EFF06B070BDC7
:102CC000CC000020DC46002070B586B004460D46DE
:102CD00016460021102202A818F01CFC074B0849D8
:102CE0001A8802A818F008FC0121CDE900562346F5
:102CF00002AA0846FFF700FF06B070BDCC00002016
:102D0000DC46002070B586B004460D46164600210C
:102D1000102202A818F0FEFB074B08491A8802A8E7
:102D200018F0EAFBCDE90056234602AA0021022052
:102D3000FFF7E2FE06B070BDCC000020DC460020AC
:102D400070B586B004460D4616460021102202A832
:102D500018F0E0FB074B08491A8802A818F0CCFBD2
:102D6000CDE90056234602AA01210220FFF7C4FE46
:102D700006B070BDCC000020DC46002008B5FFF78F
:102D800043FFC0B208BD08B510230A461946FFF735
:102D900064FFC0B208BD70B51446054618460E461D
:102DA000FFF790FE23019BB2324619462846FFF7F3
:102DB0006DFFC0B270BD08B510230A461946FFF773
:102DC00058FFC0B208BD70B51446054618460E46F9
:102DD000FFF778FE23019BB2324619462846FFF7DB
:102DE00073FFC0B270BD00000749CA6822F4E062F8
:102DF0000302120403F4E063120C134343F0BF63B5
:102E000043F40033CB60704700ED00E030B5164B63
:102E1000DC68C4F30224C4F10703251D042B28BF7A
:102E20000423062D4FF0FF3505FA03F38CBF033C56
:102E3000002421EA0303A34005FA04F422EA040271
:102E4000002843EA0203ACBF00F16040074A4FEAA2
:102E50000313B8BF00F00F00DBB2AABF00F561405A
:102E6000135480F8003330BD00ED00E014ED00E0B5
:102E7000002808DB0123420900F01F0003FA00F0DC
:102E8000014B43F82200704700E100E000280DDB11
:102E90004309012200F01F0002FA00F02033044A27
:102EA00042F82300BFF34F8FBFF36F8F704700BF0F
:102EB00000E100E0BFF34F8F0549064BCA6802F4FA
:102EC000E0621343CB60BFF34F8F00BFFDE700BF4D
:102ED00000ED00E00400FA050138B0F1807F0BD26C
:102EE0004FF0E023054A5861F02182F823100020BA
:102EF000072298611A6170470120704700ED00E0D9
:102F0000024BD868C0F30220704700BF00ED00E01C
:102F100070B50028AEBF00F16040134C00F00F0008
:102F200001F00701AABF00F56140205C90F80003A2
:102F3000C1F107040D1D042C28BF0424062D4FEAFF
:102F400010108CBF033900214FF0FF3520FA01F635
:102F500005FA04F405FA01F126EA040420EA010066
:102F60001460186070BD00BF14ED00E00028A1BF20
:102F700043098033054A52F82330A3BF00F01F00F5
:102F800023FA00F000F001000020704700E100E0AB
:102F9000002809DB4309012200F01F0002FA00F0BB
:102FA0004033024A42F82300704700BF00E100E0CE
:102FB0000028A1BF43094033054A52F82330A3BF7C
:102FC00000F01F0023FA00F000F00100002070471D
:102FD00000E100E0002809DB4309012200F01F00A6
:102FE00002FA00F06033024A42F82300704700BF43
:102FF00000E100E04FF0E02304281A690CBF42F022
:10300000040222F004021A617047704708B5FFF706
:10301000FCFF08BD044B40F00100C3F89400BFF36F
:103020004F8FBFF36F8F704700ED00E0BFF35F8FEE
:10303000024B0022C3F89420704700BF00ED00E06F
:10304000134A4378C2F898300378F3B14368C2F862
:103050009C30C37A017B1B0643EA017301780B4362
:10306000817A43EAC143417B43EA8143817B43EA5E
:103070004143C17B43EA0143417A43EA0123017A98
:1030800043EA4103C2F8A0307047C2F89C30F9E728
:1030900000ED00E001207047034B1B6813B15B6833
:1030A00003B11847704700BF00480020034B1B685E
:1030B00013B1DB6803B11847704700BF0048002018
:1030C00001F09ABB01F0C8BA08B501F0DEFD01219C
:1030D00001F0C5FDBDE8084001F00CB938B5074B5B
:1030E00004460D4693F85600002101F0B8FD29462C
:1030F0002046BDE8384001F0D3B800BF1C4800208E
:1031000010B5044601F04AF8012817D101F04EF835
:1031100034B11048214601F0C3FF0E4801F06EFFA4
:103120000D4C002194F8560001F099FD63786BB1C5
:103130006FF07F40BDE8104001F09EBA002340F2DE
:1031400062211A46084601F065F9E1E7A0688001AE
:10315000F0E700BF044800201C480020002001F0D8
:1031600051B8000008B501F047F80438C0B2032890
:1031700096BF024B0020185C08BD00BFBCB9030815
:1031800073B5754CB4F854300025402B8DF80350BE
:10319000019500F0D6801CD8082B00F0CA8005D815
:1031A000012B2CD0022B43D002B070BD202BFBD1C1
:1031B0006A4801F063FE10B1684801F0CFFE607804
:1031C000002800F0B380664B1B68002BECD0DB6856
:1031D0002AE0B3F5807F79D0B3F5007F00F08480DA
:1031E000802BE1D1284601F00DF85D4B1B68002BC8
:1031F000DAD09B69002BD7D028469847D4E75948A6
:1032000001F03CFE10B1574801F0A8FE002000F08C
:10321000F9FF00F0C5FF012801D100F0CAFF504BB3
:103220001B68002BC0D01B68002BBDD09847BBE7A4
:103230004A4801F023FE10B1484801F08FFE65783E
:1032400095B9284600F0DEFF294640F6021001F04D
:1032500003FA40F6441001F0CFFA40F00201C9B27F
:1032600040F6441001F0F8F9FF220DF103013E4849
:103270003B4D01F0DBFC3D4801F082F92B68002B4F
:1032800092D09E68002E8FD094F82430012B08D164
:1032900094F9313094F930209DF803103248B0474A
:1032A00082E7E06B01A901F05DFD019B9DF8031031
:1032B0002D484FF47A7203F5FA7393FBF2F32A6800
:1032C0005BB2956894F92920A8476DE7284600F07D
:1032D00099FF234B1B68002B3FF466AF9B69002BC3
:1032E0003FF462AF012088E700F086FF042810D188
:1032F0001C4801F0C3FD10B11A4801F02FFE002058
:1033000000F080FF164B1B68002B3FF44DAF5B684D
:103310008AE700F071FF05287FF446AF0F4801F0FF
:10332000ADFD10B10D4801F019FE002000F06AFF5C
:1033300049E700F033FF01287FF436AF00F03AFF91
:1033400032E7607808B900F05DFF054B1B68002B81
:103350003FF42AAF1B6967E71C480020044800209F
:103360000048002074480020FE460020404800200D
:10337000024BA3F85400FFF703BF00BF1C48002016
:1033800008B501F097FC033008BD01F0DDBB01F08A
:1033900027BB08B501F0E6F800B208BD38B50D4608
:1033A000144601F077F8284601F06FFC084D012122
:1033B00001F055FC00F09EFF4FF47A7161432846FE
:1033C00001F06EFE2846BDE8384001F017BE00BF90
:1033D0007448002001F05EB808B5084B002193F84E
:1033E000560001F03CFC00234FF4C0711A46084619
:1033F00001F010F8BDE8084000F070BF1C48002044
:1034000010B5044600F0CAFE012817D100F0CEFE28
:1034100034B11048214601F043FE0E4801F0EEFDA4
:103420000D4C002194F8560001F019FC63786BB143
:103430006FF07F40BDE8104000F01CBF002340F259
:1034400062211A46084600F0E5FFE1E7A068800126
:10345000F0E700BF044800201C48002008B54FF0EA
:10346000040001F023FABDE80840022002F010BA7F
:103470000128084805D1084BC17719700E3001F0BA
:10348000F1BA437D012B03D1034B81751970F5E728
:10349000704700BF1C480020CE0000200D4B10B527
:1034A000044618735873012000F016F85CB13421FB
:1034B0004FF4E86001F0D0F84421BDE8104040F23C
:1034C000417001F0C9B814214FF4E86001F0C4F86C
:1034D0002421F2E71C48002038B50F4D044628701F
:1034E00000F069FE012C0AD0023C012C4FF00004D0
:1034F00094BF0220204601F0F3F86C7338BD2046DB
:1035000001F0EEF8287B6B7B8342F7D06873BDE84F
:103510003840FFF7C3BF00BF1C4800202DE9F0432F
:10352000054687B00027CDE901770C4691469846BD
:1035300000F033FE012D7AD0022D00F0C880002D5E
:103540005DD1A368002B00F0D6802369002B00F02A
:10355000D280227D082A00F2CE8001AB1E46AA420C
:103560005BDC664D002785F83870A368EB63237831
:1035700085F84430606801F0E1FB85F84500E368B8
:103580002B64236994F82410AF73DB002B8204238F
:10359000AB74237D2F75DB000229EB74E37F02D02F
:1035A000A27F022A3FD103F10F02D2B2012A02D92F
:1035B000012B40F0A080524B524A19680394012716
:1035C00003A88DF8147000F0E5FD002840F093800A
:1035D0002876EF756875FFF7C1FD0020FFF77CFFC7
:1035E000494801F093F8494801F03CFA304601F0AF
:1035F00007FAA08B01F074F9208C01F01FFA4846FD
:1036000001F043FB3D4C84F8560000F0CBFDC4F8BC
:103610000480002007B0BDE8F083A169495D03F88C
:10362000011B01359BE7EB7529766A75D3E7334EAD
:1036300086F8385094F8283086F8503094F82930BD
:1036400086F8513094F82A3086F8523094F82B30AE
:10365000012B02D0022B2BD00BB986F85330A38D4F
:10366000B38394F82E30B37794F82F3086F8203057
:10367000012594F8303086F82130B573FFF76EFDE0
:103680002846FFF729FF204801F040F81F4801F0C5
:10369000E9F996F85130062B40F6890011D101F076
:1036A000ABF800F0FB0140F6890000F0D5FFA6E77B
:1036B00094F828300B3B012B88BF3D4686F85350C9
:1036C000CDE701F099F840F00401C9B2EBE7636B74
:1036D000013BB3F57A7F0ED22846FFF7FDFE07487F
:1036E00080F83850636B8364162380F84C30383090
:1036F00001F00CF883E74FF0FF308BE71C48002007
:103700000048002074480020544800202A48002027
:103710002DE9F041002686B098461446CDE90166B1
:1037200007460D4600F039FDB442794C16BF01231F
:103730003346B046637037B1012F00F0848000201B
:1037400006B0BDE8F081EB68002B00F0DD802B694E
:10375000002B00F0D9806A7D082A00F2D58001ABE9
:1037600038461E46824262DC2868003818BF0120B5
:10377000002700F0C9FD84F83870EB68E3632B790B
:1037800084F84430A86801F0D9FA84F845002B6920
:10379000A773DB0023822B7DA3746B7DDB00E374B6
:1037A00095F82230237595F82330002B45D1EA692E
:1037B00095F82A10A275022995F8242001D0022B31
:1037C0003DD102F10F03DBB2012B02D9012A40F0F7
:1037D0009B8000238DF814304E4B4F4A1968049596
:1037E00003A800F0D7FC002840F08E80012320764B
:1037F000E3756075FFF7B2FC0020FFF76DFE4748E8
:1038000000F084FF464801F02DF9304601F0F8F849
:10381000288C01F065F8E88C01F010F94FF4FA53A8
:1038200003FB08F8EB68B8FBF3F3A36087E7A9692B
:10383000095C03F8011B013094E7FF22B8E7E27549
:1038400021766375D6E7AB8E002B5DD095F83630C8
:10385000E86A012B0CBF2F7FFF27003818BF01201B
:1038600000F052FD5FFA88F000F022FF012284F898
:10387000382095F8303084F8503095F8313084F89D
:10388000513095F8323084F8523095F83330934205
:1038900002D0022B03D04BB984F8533006E095F8E0
:1038A00030300B3B012B27D884F85320AB8EA383F9
:1038B00095F83630A3772B8F23840126A673E777FC
:1038C000FFF74CFC3046FFF707FE144800F01EFFE0
:1038D000134801F0C7F894F82130B34240F2367033
:1038E0000CD100F089FF00F0FB0140F2367000F0CF
:1038F000B3FE4FF6FF7398E70023CDE700F07CFF9F
:1039000040F00401C9B2F0E74FF0FF3018E700BF04
:103910001C48002000480020044800205448002093
:103920002A4800202DE9F04F85B082460E9DBDF853
:1039300040B09DF844709DF84890019288461E461C
:1039400000F02BFCBAF1010F534C51D0BAF1030F28
:1039500000F09380BAF1000F3ED10B22304684F87C
:10396000442084F838A0E56301F0E8F9019B236462
:103970004FEACB03B9F1000F238241F604036382BF
:1039800014BFF2230123E37587F001070123237697
:1039900084F8450084F80EA084F814A06775FFF73A
:1039A000DDFB94F83800003818BF0120FFF794FDC4
:1039B00004F1380000F0AAFE04F10E0001F052F804
:1039C000364A1068516802AB03C302A801F018F828
:1039D00040F2FF1000F084FF404601F056F984F8F1
:1039E000560000F0DFFB169B636005B0BDE8F08F6A
:1039F0002B4984F838A0895D84F85110EAB29DF80B
:103A00003C1084F8502084F8521056BB0B3D012D19
:103A10008CBF002501250121053A8A4284F85350C4
:103A2000A17327D8BBF10B0F24D80C23A3831D4B04
:103A3000A7771B78E3779DF8543084F8213084F819
:103A40002090FFF78BFB94F83800003818BF012056
:103A5000FFF742FD144800F059FE144801F002F847
:103A6000BAE7012E04D1A5F10C035D425D41D2E716
:103A70000025D0E7A4F81CB0D9E75046FFF72CFD8D
:103A8000022384F8383004F138001623A56484F842
:103A90004C3000F03BFE9FE71C48002020B6030896
:103AA00084B90308CE000020544800202A48002092
:103AB0002DE9F04F87B0DFF8B8B29DF864A09DF80B
:103AC0004C90029314469DF854309DF85020BDF858
